:1000000000000320D101000091A7000049A70000D3
:1000100049A7000049A7000049A7000049A7000020
:1000200049A7000049A7000049A7000091A70000C8
:1000300091A7000049A7000065C4000069C5000041
:1000400091A7000091A7000091A7000091A70000D0
:1000500091A7000091A7000091A7000091A70000C0
:1000600091A7000091A7000091A7000091A70000B0
:1000700091A7000091A7000091A7000091A70000A0
:1000800091A7000091A7000091A7000091A7000090
:1000900091A7000091A7000091A7000091A7000080
:1000A00091A7000091A7000091A7000091A7000070
:1000B00091A7000091A7000091A70000B1C5000022
:1000C00091A70000DDC6000091A7000009C800004C
:1000D00091A7000001C9000091A7000091A70000AE
:1000E00091A7000091A7000091A7000091A7000030
:1000F00091A7000091A7000091A7000091A7000020
:100100009D9D0000B19D0000C59D0000D99D00008F
:1001100091A7000065B3000091A7000091A700001F
:1001200091A7000091A7000091A7000091A70000EF
:1001300091A7000091A7000091A7000091A70000DF
:1001400091A7000091A70000F9C9000091A7000045
:1001500091A7000091A7000091A7000091A70000BF
:1001600091A7000091A7000091A7000091A70000AF
:1001700091A7000091A7000091A7000091A700009F
:1001800091A7000091A7000091A7000091A700008F
:1001900091A7000091A70000F1CA000091A70000FC
:1001A00091A7000091A7000091A7000091A700006F
:1001B00091A7000091A7000091A7000091A700005F
:1001C00091A7000091A7000091A7000091A700004F
:1001D0005C4B4CF2205210B51A804DF628121A8052
:1001E00000BF00BF0AF0D8FA574B4FF030621A60D8
:1001F000564A9A60564ADA60564B4FF470021A60BB
:10020000554B564A1A60564A136813F4807304D14A
:1002100054490B604FF4A8531360534B1A781107DD
:1002200003D51A7842F008021A70504B5049AA229E
:100230001A70504A504B8B4204D252F8040F43F8C4
:10024000040BF8E74D4B4E4900228B4202D243F893
:10025000042BFAE74B494C4A002352F8230041F89B
:1002600023000133742BF8D1484B494A802103F80D
:10027000011B9342FBD1474B424A1A60464B8A22EC
:100280001A70A3F5805324225A70A0221A709A790A
:100290009207FCD59A79D406FCD4404A937903F0AE
:1002A0000C03082BFAD13E4B60221A7002331A78E5
:1002B000802AFCD1394B01221A715D225A719A7938
:1002C0009006FCD59979354A4906FBD5354B364918
:1002D00019600021596020231370937903F00C03F7
:1002E0000C2BFAD1314B324A1A60324B324A1A6027
:1002F00000225A60072243F8042C304AC3F80C2D20
:1003000062B60AF09FFE174B1B68DA0705D52C482A
:100310000AF0A0FB2B4B2C4A1A602C4B1B785B0677
:1003200009D5284C284B22689A4204D124480AF067
:1003300091FB002323600FF07BF80AF033FA0AF0F8
:1003400061F9FEE70E20054030800440823F040042
:100350000100002B88ED00E0002008E0030000858C
:1003600010D0034014D0034002D0074000E0074003
:100370009814FF1FEC3F01003007FF1F9814FF1F68
:10038000AC9C01200002FF1F0000000000E400E020
:1003900064E400E008ED00E0005006400040064044
:1003A00001E007404480044000000602048004404D
:1003B000C010070014E000E01FBF02000000202072
:1003C000769E045D1CE00340A5C3945A00F00740EC
:1003D000FFFFFFFFFFFFFFFFFFFFFFFFFFFFFFFF2D
:1003E000FFFFFFFFFFFFFFFFFFFFFFFFFFFFFFFF1D
:1003F000FFFFFFFFFFFFFFFFFFFFFFFFFFFFFFFF0D
:10040000FFFFFFFFFFFFFFFFFFFFFFFFDEF9FFFF23
:1004100010B5054C237833B9044B13B10448AFF33E
:1004200000800123237010BD9814FF1F00000000FE
:10043000E83F0100084B10B51BB108490848AFF36D
:1004400000800848036803B910BD074B002BFBD0A0
:10045000BDE81040184700BF000000009C14FF1FBB
:10046000E83F01009814FF1F000000004171704731
:10047000002301220271C3728372C37183714372BC
:100480000372704703685B6A184700BFC171704709
:1004900010B50A4A0A4913780446042084F83C003F
:1004A00084F83D3004F12C000133137009F0D0FDC5
:1004B0000122236A6271636210BD00BFE414FF1F52
:1004C0006815FF1F10B5054C04F1100009F0EAFC97
:1004D0002046BDE8104009F0E5BC00BF9815FF1F9D
:1004E00010B5074C04F1200009F0DCFC04F1100009
:1004F00009F0D8FC2046BDE8104009F0D3BC00BF8D
:10050000B414FF1F38B5054CA4F170052046103C0B
:1005100009F0C8FCAC42F9D138BD00BF8815FF1FF7
:1005200010B5094C04F1300009F0BCFC04F12000C6
:1005300009F0B8FC04F1100009F0B4FC2046BDE855
:10054000104009F0AFBC00BFE814FF1F70B588B0C1
:100550000C4605462C31684609F0F8FC68461349FC
:1005600009F0EAFD94F83D10064604A809F00CFDD8
:1005700004A9304609F0D8FD0D4909F0DDFD0D4B09
:1005800094F83D1003EB011109F0CEFD0A4909F082
:10059000D3FD0146284609F0D9FC04A809F082FCE5
:1005A000684609F07FFC284608B070BD642C010045
:1005B000682C0100E814FF1F9430010070B50C4650
:1005C0008CB005461A491B4E08A809F0ABFC0A225C
:1005D000618A04A809F0ECFC04A908A809F0A4FDAC
:1005E000154909F0A9FD617D06EB011109F09CFD9B
:1005F000124909F0A1FDA17D06EB011109F094FD5E
:100600000F4909F099FD0146684609F09FFC04A8CE
:1006100009F048FC08A809F045FC6946284609F09D
:100620002FFC684609F03EFC28460CB070BD00BFA8
:100630006C2C01009815FF1F742C0100802C010008
:100640008C2C010010B5064B044640F82C3B09F0F9
:1006500029FC206A08B10AF0F3F8204610BD00BF5B
:10066000F42C010010B5084B044640F82C3B09F06F
:1006700019FC206A08B10AF0E3F8204640210AF08C
:10068000E1F8204610BD00BFF42C01004379DBB136
:10069000C16810B501B18979036804461B6A98479F
:1006A00023792BB9236820465B6ABDE810401847C0
:1006B000236808499A6A00208A42207105D12046A1
:1006C0005B6ABDE81040184770472046BDE81040FF
:1006D000104700BF85040000F8B50346044653F8F0
:1006E0001A1F194A026001259A88C0F812104FF4A7
:1006F000FA63002100F12C06C2824383E160E172BB
:10070000A172E171A1716172217221776177A17784
:1007100021626162A162304665712571257409F01C
:1007200001FC0A4A0A49137884F83D3004272B4417
:10073000304684F83C70137009F08AFC236A6571B6
:1007400063622046F8BD00BFF42C0100E414FF1FD3
:100750006815FF1F01764276012110460AF0F6BBAC
:1007600001230374704700BF037C23B1437D1BB991
:10077000407E0AF0D7BB704707EE901A9FED067ACD
:10078000407EF8EEE77A67EE877AFDEEE77A17EEBD
:10079000901A0AF071B900BFE17A944410B50021B3
:1007A0000446FFF7E1FF0023237410BD8179027D29
:1007B0008A4202D00175FFF7D7BF7047027D4171B1
:1007C00002B9704700210175FFF7CEBF10B4047D58
:1007D0008C4205D003465DF8044B1975FFF7C4BF82
:1007E0005DF8044B704700BF037C03B1037D1846DE
:1007F000704700BF40F6FF739942027CA8BF1946BC
:10080000418202B97047007E0AF036B910B504463D
:10081000417519B90121407E0AF098FB217D2046DF
:10082000BDE81040FFF7A0BF81757047837D03B915
:1008300070470021FFF798BF10B50446417DFFF7D0
:10084000E5FF618A237C40F6FF729142A8BF114602
:10085000618203B910BD207EBDE810400AF00CB9DA
:1008600051F8122F02608A888280704738B5436A37
:10087000044633F8065C13F8041C13F8032C13F831
:10088000023C8375458201754275FFF7D5FF636AA7
:10089000063B636238BD00BF2DE9F04104462148A4
:1008A00062682668931B5B1000FB03F388462BB13C
:1008B0005F00BB422BD96FF0030700E006273846E4
:1008C00009F0BCFF626826680546921B154B501064
:1008D00003FB00F0AB1806D0D8F800E0B8F804101D
:1008E00045F802E0998058B903F1060816B1304680
:1008F00009F0A6FF2F44A76084E82001BDE8F0813D
:100900003146284603F106080FF0E8F8EFE7064BFA
:100910009F42D0D83D46002FD7D0062303FB07F7D0
:10092000CDE700BFABAAAAAAAAAAAA2A08B5826ADA
:10093000436A934209D02BB1024652F8121F196044
:1009400092889A800633436208BD00F1120120307C
:10095000FFF7A2FF08BD00BF2DE9F041334E344937
:10096000344D354C354FDFF82481304609F0DAFA42
:1009700006F11000324909F0D5FA06F1200031499C
:1009800009F0D0FA06F130002F4909F0CBFA2A46D7
:100990002E4900200CF060F920462D4909F0C2FADA
:1009A00004F110002B4909F0BDFA04F120002A4996
:1009B00009F0B8FA04F13000284909F0B3FA04F15B
:1009C0004000274909F0AEFA04F15000254909F02A
:1009D000A9FA04F16000244909F0A4FA2A4623493F
:1009E00000200CF039F93846214909F09BFA07F14B
:1009F0001000204909F096FA07F120001E4909F07D
:100A000091FA2A461D4900200CF026F940461C495F
:100A100009F088FA08F110001A4909F083FA2A4609
:100A200019490020BDE8F0410CF016B9E814FF1F89
:100A3000902C01000C08FF1F2815FF1FB414FF1F86
:100A4000942C01009C2C0100A42C01002105000025
:100A5000B02C0100B42C0100B82C0100BC2C01000A
:100A6000C02C0100C42C0100C82C010005050000A9
:100A7000CC2C0100D42C0100DC2C0100E10400008E
:100A8000E42C0100E82C0100C50400009815FF1FAC
:100A900010B5054C04F1100009F004FA2046BDE839
:100AA000104009F0FFB900BF9816FF1F10B5074CA2
:100AB00004F1200009F0F6F904F1100009F0F2F950
:100AC0002046BDE8104009F0EDB900BFB815FF1F82
:100AD00038B5054CA4F170052046103C09F0E2F948
:100AE000AC42F9D138BD00BF4816FF1F10B5094C04
:100AF00004F1300009F0D6F904F1200009F0D2F930
:100B000004F1100009F0CEF92046BDE8104009F0CC
:100B1000C9B900BF5816FF1F2DE9F041334E3449C3
:100B2000344D354C354FDFF82481304609F0FAF961
:100B300006F11000324909F0F5F906F120003149BB
:100B400009F0F0F906F130002F4909F0EBF92A46D7
:100B50002E4900200CF080F820462D4909F0E2F9DA
:100B600004F110002B4909F0DDF904F120002A49B5
:100B700009F0D8F904F13000284909F0D3F904F15B
:100B80004000274909F0CEF904F15000254909F049
:100B9000C9F904F16000244909F0C4F92A4623493F
:100BA00000200CF059F83846214909F0BBF907F14B
:100BB0001000204909F0B6F907F120001E4909F09C
:100BC000B1F92A461D4900200CF046F840461C4960
:100BD00009F0A8F908F110001A4909F0A3F92A460A
:100BE00019490020BDE8F0410CF036B85816FF1F37
:100BF000902C01000C08FF1FE815FF1FB815FF1F00
:100C0000942C01009C2C0100A42C0100ED0A000092
:100C1000B02C0100B42C0100B82C0100BC2C010048
:100C2000C02C0100C42C0100C82C0100D10A000016
:100C3000CC2C0100D42C0100DC2C0100AD0A0000FA
:100C4000E42C0100E82C0100910A00009816FF1F17
:100C500010B5054C04F1100009F024F92046BDE858
:100C6000104009F01FB900BFA017FF1F10B5074CB7
:100C700004F1200009F016F904F1100009F012F94E
:100C80002046BDE8104009F00DB900BFBC16FF1F9B
:100C900038B5054CA4F170052046103C09F002F966
:100CA000AC42F9D138BD00BF4C17FF1F10B5094C3D
:100CB00004F1300009F0F6F804F1200009F0F2F830
:100CC00004F1100009F0EEF82046BDE8104009F0EC
:100CD000E9B800BF5C17FF1F2DE9F041334E3449DE
:100CE000344D354C354FDFF82481304609F01AF980
:100CF00006F11000324909F015F906F120003149DA
:100D000009F010F906F130002F4909F00BF92A46D5
:100D10002E4900200BF0A0FF20462D4909F002F9D2
:100D200004F110002B4909F0FDF804F120002A49D4
:100D300009F0F8F804F13000284909F0F3F804F15B
:100D40004000274909F0EEF804F15000254909F068
:100D5000E9F804F16000244909F0E4F82A4623493F
:100D600000200BF079FF3846214909F0DBF807F144
:100D70001000204909F0D6F807F120001E4909F0BB
:100D8000D1F82A461D4900200BF066FF40461C4959
:100D900009F0C8F808F110001A4909F0C3F82A460A
:100DA00019490020BDE8F0410BF056BF5C17FF1F4A
:100DB000902C01000C08FF1FEC16FF1FBC16FF1F34
:100DC000942C01009C2C0100A42C0100AD0C00000F
:100DD000B02C0100B42C0100B82C0100BC2C010087
:100DE000C02C0100C42C0100C82C0100910C000093
:100DF000CC2C0100D42C0100DC2C01006D0C000077
:100E0000E42C0100E82C0100510C0000A017FF1F8A
:100E100010B5054C04F1100009F044F82046BDE877
:100E2000104009F03FB800BFA018FF1F10B5074CD5
:100E300004F1200009F036F804F1100009F032F84E
:100E40002046BDE8104009F02DB800BFC017FF1FB5
:100E500038B5054CA4F170052046103C09F022F885
:100E6000AC42F9D138BD00BF5018FF1F10B5094C76
:100E700004F1300009F016F804F1200009F012F82E
:100E800004F1100009F00EF82046BDE8104009F00A
:100E900009B800BF6018FF1F014B1870704700BFF2
:100EA0001008FF1F08B583680BB9012008BD002199
:100EB00009F0A8F96138C0B219288CBF00200120C0
:100EC00008BD00BF08B5002109F09CF9A0F12D0371
:100ED000DBB20C2B03D82F3818BF012008BD00202F
:100EE00008BD00BF40B330B5451EEDB2013585B039
:100EF0000C4601EB051508E02F2A684604F11004A2
:100F000011D008F0CFFFAC4213D02146684609F05B
:100F10001DF80021684609F075F9A0F12D03DBB238
:100F20000C2B0246E8D9684608F0BCFF002005B04B
:100F300030BD012005B030BD012070472DE9F041E2
:100F4000334E3449344D354C354FDFF8248130462B
:100F500008F0E8FF06F11000324908F0E3FF06F15F
:100F60002000314908F0DEFF06F130002F4908F07B
:100F7000D9FF2A462E4900200BF06EFE20462D494F
:100F800008F0D0FF04F110002B4908F0CBFF04F16A
:100F900020002A4908F0C6FF04F13000284908F073
:100FA000C1FF04F14000274908F0BCFF04F15000E4
:100FB000254908F0B7FF04F16000244908F0B2FFAA
:100FC0002A46234900200BF047FE3846214908F005
:100FD000A9FF07F11000204908F0A4FF07F1200045
:100FE0001E4908F09FFF2A461D4900200BF034FEE1
:100FF00040461C4908F096FF08F110001A4908F015
:1010000091FF2A4619490020BDE8F0410BF024BEAB
:101010006018FF1F902C01000C08FF1FF017FF1F26
:10102000C017FF1F942C01009C2C0100A42C010070
:101030006D0E0000B02C0100B42C0100B82C010092
:10104000BC2C0100C02C0100C42C0100C82C0100E4
:10105000510E0000CC2C0100D42C0100DC2C01002E
:101060002D0E0000E42C0100E82C0100110E000000
:10107000A018FF1F10B5054C04F1100008F012FF76
:101080002046BDE8104008F00DBF00BFB419FF1F97
:1010900010B5074C04F1200008F004FF04F1100023
:1010A00008F000FF2046BDE8104008F0FBBE00BF7E
:1010B000C018FF1F38B5054CA4F170052046103C40
:1010C00008F0F0FEAC42F9D138BD00BF5019FF1F47
:1010D00010B5094C04F1300008F0E4FE04F12000E2
:1010E00008F0E0FE04F1100008F0DCFE2046BDE848
:1010F000104008F0D7BE00BF7419FF1F30B5C821DB
:1011000085B01248124D134C08F0D4FE12490F4816
:1011100008F0A6FF114B124A1249002018701378EC
:10112000002BFCD00B78DB07F9D52B6820681B1A45
:101130000E2BF4D90C49684608F0F4FE684601F01D
:1011400079FB684608F0AEFE05B030BD6419FF1F9C
:1011500044980120A49C0120442E01006019FF1F27
:101160002899012040990120202D010010B508E0A8
:101170000AF03CFFC4B22146084808F0C5FF0A2C1B
:1011800004D00AF06FFF0028F2D110BD034805F02B
:101190004DFC0349014808F063FFF2E76419FF1FA3
:1011A000442E0100FFF7E2BF2DE9F843394E3A49DA
:1011B0003A4D3B4C3B4FDFF84091DFF840813046E1
:1011C00008F0B0FE06F11000374908F0ABFE06F15A
:1011D0002000364908F0A6FE06F13000344908F038
:1011E000A1FE2A46334900200BF036FD2046324945
:1011F00008F098FE04F11000304908F093FE04F165
:1012000020002F4908F08EFE04F130002D4908F02F
:1012100089FE04F140002C4908F084FE04F15000DE
:101220002A4908F07FFE04F16000294908F07AFE9F
:101230002A46284900200BF00FFD3846264908F0C1
:1012400071FE07F11000254908F06CFE07F120003F
:10125000234908F067FE2A46224900200BF0FCFCD7
:101260004846214908F05EFE09F110001F4908F0C8
:1012700059FE2A461E4900200BF0EEFC4046002194
:1012800008F050FE2A4640461A49BDE8F8430BF0E4
:10129000E3BC00BF7419FF1F902C01000C08FF1F56
:1012A000F018FF1FC018FF1F942C01009C2C010098
:1012B000A42C0100D1100000B02C0100B42C0100BE
:1012C000B82C0100BC2C0100C02C0100C42C010072
:1012D000C82C0100B5100000CC2C0100D42C01005A
:1012E000DC2C010091100000E42C0100E82C01002E
:1012F00075100000A59E0000B419FF1F6419FF1FA0
:1013000010B5054C04F1100008F0CCFD2046BDE8F6
:10131000104008F0C7BD00BFB41AFF1F10B5074C3E
:1013200004F1200008F0BEFD04F1100008F0BAFD41
:101330002046BDE8104008F0B5BD00BFD419FF1F1E
:1013400038B5054CA4F170052046103C08F0AAFD04
:10135000AC42F9D138BD00BF641AFF1F10B5094C6B
:1013600004F1300008F09EFD04F1200008F09AFD21
:1013700004F1100008F096FD2046BDE8104008F08A
:1013800091BD00BF741AFF1F024B00680A685A60C3
:1013900018607047FC5B0020014B83ED000A70472A
:1013A0007822FF1F014B83ED000A70471408FF1FCE
:1013B00010B4064A064C074900234FF07E502360C4
:1013C0001360536008605DF8044B7047FC5B0020BD
:1013D0007822FF1F1408FF1F014B1870704700BFD1
:1013E0001808FF1F08B505F0B5FEBDE8084006F077
:1013F0003BBA00BF014B1870704700BF1108FF1FB8
:10140000014B1878704700BF1108FF1F08B5054B46
:101410001B7803B908BD05F09DFEBDE8084006F045
:1014200023BA00BF1108FF1F30B54B1E2DED028BF4
:1014300007EE903A83B0F8EEE77A026843680092CC
:1014400080EE278A0193C0EEA78AA1B10D46002441
:10145000684605F07DFD0134A4B2A5429DED007AF9
:10146000DDED017A37EE087A77EEA87A8DED007A15
:10147000CDED017AECD103B0BDEC028B30BD00BFE5
:1014800000B583B000230146684600930193FFF73F
:10149000CBFF03B05DF804FB2DE9F0414B1E2DEDB1
:1014A000048B07EE903A9FED2D7AF8EEE77A86B03E
:1014B000054610EE100A884687EE279A0DF00CFCC0
:1014C000002406460F462346013407EE903AF8EE14
:1014D000E77A67EE897A17EE900A0DF0FDFB41EC92
:1014E000100B41EC180B0BF097FC51EC100BB0EE0D
:1014F000480AF0EE680ACDE902010BF0EDFC324635
:101500003B46DDE902018DED000B0DF039FC0DF0DD
:101510002FFF9DED000B07EE100AD5ED007A77EE58
:10152000277A3B46324651EC100BCDED047A0DF094
:1015300027FC0DF01DFFD5ED017A07EE100A77EEBE
:10154000277A04A8CDED057A05F002FDA3B29845EF
:10155000BAD206B0BDEC048BBDE8F081DB0FC94008
:1015600000B583B000230146684600930193FFF75E
:1015700093FF03B05DF804FB30B52DED048B9FEDB8
:10158000198A83B0F0EE608AF0EE480A1446B0EE95
:10159000409A0D46FFF748FF684605F0C9FC214612
:1015A000F0EE680AB0EE480A6846FFF73DFF68466D
:1015B00005F0BEFC2946F0EE480AB1EE490A68463D
:1015C000FFF732FF684605F0B3FC2146F1EE680AEA
:1015D000B0EE480A6846FFF727FF03B0BDEC048B66
:1015E00030BD00BF0000000000B5F6EE007A83B009
:1015F00020EE677A60EEE77A0A46014668468DED8E
:10160000007ACDED017AFFF7B7FF03B05DF804FB78
:101610000A46F0EE400AFFF7AFBF00BF00B5F6EE96
:10162000007A83B060EE677A02460146F0EE400A27
:101630006846CDED007ACDED017AFFF79DFF03B04E
:101640005DF804FB2DE9F04F2DED028B85B0002BEA
:1016500040F05F811C46032607EE902AF8EEE77AF9
:101660005D1C80EEA78A520892FBF5F2D2B21FFAF7
:1016700082FA07EE905AF8EEE77A0568406800951E
:1016800028EE278A0190002A00F0E28010EE109ADE
:101690009B460F46B6B24FF00008F1EE408A002C90
:1016A00000F0DB8000250135684605F051FCEBB207
:1016B0009C42F8D83946DFED980A00EE109A684649
:1016C000FFF7B2FE02A805F033FC029A039B0092DA
:1016D000019300250135684605F03AFCEBB29C42C7
:1016E000F8D83146F0EE480A9FED8B0A6846FFF7BE
:1016F0009BFE02A805F01CFC029A039B009201933A
:1017000000250135684605F023FCEBB29C42F8D871
:101710003946DFED810AB0EE680A6846FFF784FEBD
:1017200002A805F005FC029A039B00920193002594
:101730000135684605F00CFCEBB29C42F8D8314606
:10174000F0EE480A9FED740A6846FFF76DFE08F157
:10175000010802A805F0ECFB1FFA88F3DDED037A1F
:10176000029A00925345CDED017A98D3BBF1000F58
:101770006ED0B1EE488AB6EE007AE8EE077A4FF006
:101780000008CDED017A002C00F095800025013590
:10179000684605F0DDFBEBB29C42F8D83946DFED38
:1017A0005E0A00EE109A6846FFF73EFE02A805F0BA
:1017B000BFFB029A039B0092019300250135684606
:1017C00005F0C6FBEBB29C42F8D83146F0EE480A71
:1017D0009FED510A6846FFF727FE02A805F0A8FB17
:1017E000029A039B0092019300250135684605F09B
:1017F000AFFBEBB29C42F8D83946DFED470AB0EEBA
:10180000680A6846FFF710FE02A805F091FB029AED
:10181000039B0092019300250135684605F098FB73
:10182000EBB29C42F8D83146F0EE480A9FED3A0AF6
:101830006846FFF7F9FD08F1010802A805F078FBFA
:101840001FFA88F30299039A0091534501929AD3A3
:1018500005B0BDEC028BBDE8F08F3946DFED2E0AF6
:1018600000EE109A6846FFF7DFFD02A805F060FB66
:10187000029A039B9FED280A00923146F0EE480A37
:1018800068460193FFF7D0FD02A805F051FB029ACC
:10189000039BDFED210A00923946B0EE680A6846E4
:1018A0000193FFF7C1FD02A805F042FB029A039BDA
:1018B0000092019343E73946DFED170A00EE109AD4
:1018C0006846FFF7B1FD02A805F032FB029A039BC0
:1018D0009FED110A00923146F0EE480A68460193E6
:1018E000FFF7A2FD02A805F023FB029A039BDFEDA0
:1018F0000A0A00923946B0EE680A68460193FFF77B
:1019000093FD02A805F014FB029A039B0092019339
:1019100089E7052426469FE60000000000B5F6EEA4
:10192000007A83B020EE677A60EEE77A13460A46C3
:10193000014668468DED007ACDED017AFFF782FE13
:1019400003B05DF804FB00BF2DE9F04F551C07EE16
:10195000905A2DED0A8BF8EEE78ADFEDC57A80EE1E
:10196000A87A89B0834602920C46F7EE00AA27EEC9
:1019700027AA68EE808A1AEE100A0DF0ADF9F0EE93
:101980006A7AEAEE0A7A06460F4617EE900A0DF0DA
:10199000A3F941EC100B41EC190B0BF085FB59EC52
:1019A000108BB0EE490AF0EE690A0BF07DFB304671
:1019B00053EC102B39460DF031F841EC100B0BF0C5
:1019C000EBFA94FBF5F442464B46304639468DED32
:1019D000000B0DF0D5F99DED000B53EC102B0DF025
:1019E0001DF8DFEDA47A88EEA77A06460F46013C83
:1019F00017EE100A0DF070F902460B4630463946D4
:101A00000DF0BEF90DF0B4FC07EE904A06EE900A18
:101A1000F8EEE77AB5EEC0AAF1EE10FA86EEA77AF4
:101A2000C0F21C814FF000084FF0000917EE10AA19
:101A30009FED8D7B9FED908ADFED90BA8DED007B61
:101A4000B6EE00BA11E00DF047F941EC100B41EC95
:101A5000190B0BF0E1F98DED000BB0EE490AF0EE39
:101A6000690A0BF039FA59EC108B68EE887A9FED11
:101A7000839A67EE8B7A87EEAB7A17EE100A0DF039
:101A80002BF90446DBF804000D460DF025F942461B
:101A900006460F464B46204629460DF071F9024690
:101AA0000B46304639460CF0B9FF0DF061FC80461C
:101AB000DBF800000DF010F9DDE9002306460F46C3
:101AC000204629460DF05CF902460B463046394661
:101AD0000CF0A4FF0DF04CFC069006A8CDF81C807D
:101AE00005F036FA50460DF0F7F8044618EE900A65
:101AF0000D460DF0F1F8F0EE6A7AE8EE087A8046CD
:101B0000894617EE900A0DF0E7F841EC100B0BF048
:101B1000CBFA404653EC102B49460DF031F9024602
:101B20000B46204629460DF055FA0DF021FC07EE34
:101B3000900A38EE278AB4EEC8AAF1EE10FA18EE31
:101B4000100A80DA029B002B00F0888038EE498A68
:101B500038EE678AB4EEC98AF1EE10FA7EDDCDE97F
:101B60000489CDE90245B6EE00CAF7EE009A5D465B
:101B700068EE887A67EE8C7A87EE897A17EE100A1B
:101B80000DF0AAF878EE097A824617EE900A8B4695
:101B90000DF0A2F841EC100B41EC1A0B0BF03CF9E4
:101BA000B0EE40BAF0EE60BAB0EE4A0AF0EE6A0A61
:101BB0000BF092F953EC102B6868CDE900230DF07F
:101BC0008BF8DDE9002306460F46504659460DF0D6
:101BD000D7F802460B46304639460CF01FFF0DF091
:101BE000C7FB814628680DF077F853EC1B2B06469F
:101BF0000F46504659460DF0C3F802460B46304694
:101C000039460CF00BFF0DF0B3FB069006A8CDF89B
:101C10001C9005F09DF9F0EE697AE8EE087A17EE6F
:101C2000900A0DF059F841EC100B0BF03DFADDE98C
:101C3000040153EC102B0DF0A3F802460B46DDE92E
:101C400002010DF0C7F90DF093FB07EE900A38EE94
:101C5000678AB4EEC98AF1EE10FA89DC09B0BDECEE
:101C60000A8BBDE8F08F00BF000000000000F03FCD
:101C7000DB0FC940DB0F494100000000DB0F49408A
:101C800000B583B000230A460146684600930193DD
:101C9000FFF75AFE03B05DF804FB00BF2DE9F041E9
:101CA000334E3449344D354C354FDFF824813046BE
:101CB00008F038F906F11000324908F033F906F15E
:101CC0002000314908F02EF906F130002F4908F0C4
:101CD00029F92A462E4900200AF0BEFF20462D4948
:101CE00008F020F904F110002B4908F01BF904F169
:101CF00020002A4908F016F904F13000284908F0BC
:101D000011F904F14000274908F00CF904F15000E2
:101D1000254908F007F904F16000244908F002F9A8
:101D20002A46234900200AF097FF3846214908F047
:101D3000F9F807F11000204908F0F4F807F1200045
:101D40001E4908F0EFF82A461D4900200AF084FFDA
:101D500040461C4908F0E6F808F110001A4908F05E
:101D6000E1F82A4619490020BDE8F0410AF074BFA5
:101D7000741AFF1F902C01000C08FF1F041AFF1F8C
:101D8000D419FF1F942C01009C2C0100A42C0100ED
:101D90005D130000B02C0100B42C0100B82C010030
:101DA000BC2C0100C02C0100C42C0100C82C010077
:101DB00041130000CC2C0100D42C0100DC2C0100CC
:101DC0001D130000E42C0100E82C010001130000A9
:101DD000B41AFF1F00207047704700BF83791BB9FA
:101DE000034B20221A607047024B20221A60704772
:101DF00088F00F4084F00F40704700BFC1717047FA
:101E0000C28A0123037152420023C261C3728372EA
:101E1000C37183714372037203767047704700BFCA
:101E2000837923B9044B4FF080621A607047034BEB
:101E30004FF080621A60704708F10F4004F10F40C4
:101E400038B5054CA4F1B00554F82C3D1B6820466C
:101E50009847AC42F8D138BD241EFF1F38B5054C59
:101E6000A4F1900554F8243D1B6820469847AC42E5
:101E7000F8D138BD741DFF1F38B5054CA4F190058D
:101E800054F8243D1B6820469847AC42F8D138BD31
:101E9000141CFF1F38B5054CA4F1D00554F8343D8F
:101EA0001B6820469847AC42F8D138BDE41CFF1FA0
:101EB00038B5054CA4F1C00554F8303D1B682046E8
:101EC0009847AC42F8D138BDE41EFF1F38B5054C29
:101ED000A4F5807554F8403D1B6820469847AC42F5
:101EE000F8D138BDE41FFF1F10B5847990F82200A7
:101EF000214609F017F824B9044B4FF080621A60AC
:101F000010BD034B4FF080621A6010BD08F10F4006
:101F100004F10F4010B5002301220271C3728372D5
:101F2000C371837143720372044609F015F8A0620D
:101F300010BD00BF10B5002301220271C37283726D
:101F4000C371837143720372044609F005F8A061FE
:101F500010BD00BF10B5044689B908F0FDFFA369A4
:101F60002269C01A904207D963691A4490428CBF13
:101F700000200120E07110BD0020E07110BD08F0CC
:101F8000EBFFA061E9E700BF10B5054C04F11000BC
:101F900007F088FF2046BDE8104007F083BF00BF70
:101FA0002420FF1F10B5074C04F1200007F07AFF32
:101FB00004F1100007F076FF2046BDE8104007F05E
:101FC00071BF00BF541BFF1F38B5054CA4F170054D
:101FD0002046103C07F066FFAC42F9D138BD00BF87
:101FE000401BFF1F10B5094C04F1300007F05AFFE9
:101FF00004F1200007F056FF04F1100007F052FF33
:102000002046BDE8104007F04DBF00BFE41FFF1F92
:1020100010B5044B044640F81C3B07F043FF204634
:1020200010BD00BF0C2E010010B5044B044640F853
:10203000203B07F037FF204610BD00BFD82D010020
:1020400010B5044B044640F8103B07F02BFF204628
:1020500010BD00BF702D010010B5044B044640F8C0
:10206000103B07F01FFF204610BD00BFA42D01004C
:1020700010B5044B044640F8103B07F013FF204610
:1020800010BD00BF3C2D010010B5044690F82200A1
:1020900008F04EFF003018BF0120E07110BD00BFF6
:1020A00010B50446006808B108F0CAFB204610BD10
:1020B00070B50D468CB00446164904A807F032FFEF
:1020C0000A222969684607F09BFF694604A808F0C0
:1020D0002BF8114908F030F80A220646696908A869
:1020E00007F08EFF08A9304608F01EF80B4908F0EB
:1020F00023F80146204607F029FF08A807F0D2FE82
:10210000684607F0CFFE04A807F0CCFE20460CB0CE
:1021100070BD00BF3C2E0100402E0100482E010082
:1021200070B50C4690B005462349684607F0FAFEA4
:10213000224B217C684603EB011107F0F5FF204993
:1021400007F0FAFF0A220646618A04A807F030FF6A
:1021500004A9304607F0E8FF1A4907F0EDFF0A220C
:102160000646A18A08A807F023FF08A9304607F011
:10217000DBFF154907F0E0FF0A220646E18A0CA8BA
:1021800007F016FF0CA9304607F0CEFF0F4907F005
:10219000D3FF0146284607F0D9FE0CA807F082FEBF
:1021A00008A807F07FFE04A807F07CFE684607F049
:1021B00079FE284610B070BD4C2E0100541BFF1F45
:1021C000542E0100602E0100682E01008C2C0100AD
:1021D00030B50D4689B004460E4904A807F0A2FEAA
:1021E00095F82210684607F0CFFE694604A807F06C
:1021F0009BFF094907F0A0FF0146204607F0A6FE15
:10220000684607F04FFE04A807F04CFE204609B0D0
:1022100030BD00BF742E01008C2C010030B50D467E
:1022200089B004460E4904A807F07CFE95F82210F8
:10223000684607F0A9FE694604A807F075FF09493A
:1022400007F07AFF0146204607F080FE684607F057
:1022500029FE04A807F026FE204609B030BD00BFC5
:10226000742E01008C2C010070B50D4688B0044618
:102270001349684607F056FE124B6979684603EB2E
:10228000011107F051FF104907F056FF0A220646D8
:10229000696A04A807F0B4FE04A9304607F044FFB9
:1022A0000A4907F049FF0146204607F04FFE04A8FF
:1022B00007F0F8FD684607F0F5FD204608B070BD50
:1022C0007C2E01002420FF1F842E0100482E0100D7
:1022D00070B588B004460D4668461C3107F036FEDE
:1022E00068460E4907F028FF95F82D10064604A809
:1022F00007F04AFE04A9304607F016FF084907F028
:102300001BFF0146204607F021FE04A807F0CAFD86
:10231000684607F0C7FD204608B070BD642C010078
:10232000D430010070B588B004460D4668462031AF
:1023300007F00CFE68460E4907F0FEFE95F83110D6
:10234000064604A807F020FE04A9304607F0ECFE7C
:10235000084907F0F1FE0146204607F0F7FD04A802
:1023600007F0A0FD684607F09DFD204608B070BD4F
:10237000642C0100D430010070B588B004460D46CD
:102380006846103107F0E2FD68460E4907F0D4FEBA
:1023900095F82110064604A807F0F6FD04A930467A
:1023A00007F0C2FE084907F0C7FE0146204607F0C5
:1023B000CDFD04A807F076FD684607F073FD2046C2
:1023C00008B070BD642C0100D430010070B588B035
:1023D00004460D466846103107F0B8FD68460E49C0
:1023E00007F0AAFE95F82110064604A807F0CCFDD8
:1023F00004A9304607F098FE084907F09DFE014603
:10240000204607F0A3FD04A807F04CFD684607F03E
:1024100049FD204608B070BD642C0100D430010095
:1024200070B588B004460D466846103107F08EFD41
:1024300068460E4907F080FE95F82110064604A86C
:1024400007F0A2FD04A9304607F06EFE084907F028
:1024500073FE0146204607F079FD04A807F022FD2F
:10246000684607F01FFD204608B070BD642C0100CF
:10247000D430010010B5064B044640F81C3B07F071
:1024800011FD2046302108F0DDF9204610BD00BFC7
:102490000C2E010010B5064B044640F8203B07F017
:1024A00001FD2046342108F0CDF9204610BD00BFC3
:1024B000D82D010010B5064B044640F8103B07F03C
:1024C000F1FC2046242108F0BDF9204610BD00BFD4
:1024D000702D010010B5064B044640F8103B07F084
:1024E000E1FC2046242108F0ADF9204610BD00BFD4
:1024F000A42D010010B5064B044640F8103B07F030
:10250000D1FC20462C2108F09DF9204610BD00BFCB
:102510003C2D010010B5094A0949137804460120F1
:1025200084F8200084F82130034404F11000137073
:1025300007F08EFD0023637110BD00BFB816FF1FAA
:10254000F01AFF1F10B50B4A0B49137804460320FD
:1025500084F8200084F8213004F110000133137056
:1025600007F076FD94F822000121BDE8104008F044
:10257000EDBC00BF9C17FF1F101BFF1F08B5154BBC
:10258000187808F0D5FC144B003018BF01201870E3
:102590001B78124873B1FEF701F91148FEF7FEF8F7
:1025A0001048FEF7FBF81048FEF7F8F80F4B202212
:1025B0001A6008BDFEF7D4F80948FEF7D1F80948BB
:1025C000FEF7CEF80848FEF7CBF8094B20221A6038
:1025D00008BD00BF4420FF1F4520FF1FE41EFF1F52
:1025E000241FFF1F641FFF1FA41FFF1F88F00F4041
:1025F00084F00F4010B5044608F0AEFCA36A626A8E
:10260000C01A904208D9237A83F00103637208F05C
:10261000A3FC637AA062E37110BD00BF037CC172AA
:102620000022012BC27123D01CD3022B13D1837A39
:102630008B4216D0037E7BB9C269418A8A421DDB78
:102640000122C3610276828A9A4208DC00220123B9
:102650000276C37104E07047012BC369F3D00133E4
:10266000C3617047837A002BFBD10029E2D1704708
:10267000837A002BF5D00029F3D1DBE70121531831
:10268000C171EDE710B5144A1449137804460520CA
:1026900084F8300084F8313004F1200001331370E5
:1026A00007F0D6FC00232268237411690C48A3822A
:1026B00001228142E3822272628209D1E372A37213
:1026C000E371A371637223722271E361237610BDFB
:1026D0002046BDE810400847BA16FF1F301BFF1FF9
:1026E000011E000010B5124A124913780446062054
:1026F00084F82C0084F82D3004F11C000133137091
:1027000007F0A6FC23680C4A1B6993420CD10023F6
:102710000122E372A372E371A371637223722271C7
:1027200008F01AFCA06110BD2046BDE81040184713
:10273000BB16FF1F401BFF1F351F000070B5134A5B
:102740001349137880F8213004460225013380F8BC
:1027500020501030137007F07BFC294694F82200BB
:1027600008F0F4FB23680B4A1B69934209D100234C
:102770000122E372A372E371A37163722372227167
:1027800070BD2046BDE87040184700BFB916FF1F56
:10279000001BFF1F71040000014B024A1A607047C2
:1027A0000CED00E00400FA052DE9F0418846012116
:1027B0001446074608F0CAFB08F0CEFBB8F1000F3C
:1027C0001ED00546640800260121384608F0AAFB01
:1027D00008F0C2FB401B8442FAD808F0BDFB002180
:1027E0000546384608F09EFB08F0B6FB401B8442C5
:1027F000FAD808F0B1FB0136F6B2B0450546E3D190
:10280000BDE8F0810A4601460D20FFF7CDBF00BFAD
:102810000A4601461820FFF7C7BF00BF034B1B78CD
:1028200003B970470146024807F0F4BA1008FF1FC9
:10283000F009FF1F08B5064B1B7803B908BD014618
:10284000044807F0E7FA0348BDE8084007F008BB72
:102850001008FF1FF009FF1F10B5012184B0204CA4
:102860000D2008F073FB202323600121182008F0BD
:102870006DFB1C4B4FF080621A600121162008F09E
:1028800065FB0221172008F061FB012323609FED07
:10289000160A102008F0A0FA0C2008F08DFA134B4D
:1028A000134A14494FF4807018601368402423437E
:1028B00013600A200C6008F073FB68460E4907F0AD
:1028C00031FB0E4B1B7833B169460D4807F0A2FA75
:1028D0000B4807F0C5FA684607F0E4FA04B010BDEB
:1028E00088F00F4008F10F4000E87D4718D0044001
:1028F00014F10F4004F10F40902E01001008FF1F4B
:10290000F009FF1F30B50E23134C85B01846022185
:10291000237008F01BFB207808F00AFB0F4B1049CE
:10292000051C18BF0125042220781D7008F016F838
:1029300068460C4907F0F6FA0B4B1B7833B1694631
:102940000A4807F067FA094807F08AFA684607F06C
:10295000A9FA05B030BD00BF4420FF1F4520FF1F6E
:102960007D250000A02E01001008FF1FF009FF1FA9
:1029700008B5044B187808F0DBFA003018BF0120C6
:1029800008BD00BF4420FF1F70B5064C064604F189
:10299000840554F82C3F3146DB6820469847AC420A
:1029A000F7D170BD741DFF1F2DE9F843124EDFF8FB
:1029B0004C8006F1840700254FF00109344656F893
:1029C0002C3F1B69434514D184F8375084F83650A6
:1029D00084F8335084F8325084F8355084F83450F9
:1029E00084F8309008F0B8FA6065BE42E6D1BDE8E0
:1029F000F88330469847F8E7741DFF1F151F000045
:102A000070B5064658B1074B93E83000AC4206D08B
:102A100054F8040B03681B699847A542F8D1024B90
:102A20001E7070BDD41AFF1F501BFF1F38B5064B18
:102A300093E83000AC4206D054F8040B03681B69DD
:102A40009847A542F8D138BDD41AFF1F0138052890
:102A500004D8DFE800F0050C141C22290020704780
:102A6000154801F003032C2202FB03007047134BAF
:102A700001F0030101EBC10103EB81007047104B32
:102A800001F0030101EBC10103EB810070470D4B25
:102A900001F0030103EB811070470B4801F00301C3
:102AA000342303FB01007047084B01F0030101EBE5
:102AB000410103EB01107047741DFF1F841BFF1FB2
:102AC000E41CFF1FE41EFF1F141CFF1F241EFF1F1A
:102AD00030B4074C256861688D4206D02B46002033
:102AE00053F8042B9942D060FAD1656030BC70472E
:102AF000D41AFF1F234B1B78002B41D02DE9F04740
:102B0000DFF8888098E86000B5422DD01E4FDFF8CE
:102B100080A04FF000090FE062795AB1E16801B17D
:102B200089791B6A204698472379FBB92368204698
:102B30005B6A9847AE4209D055F8044B2368DA69BE
:102B4000BA42E9D020469047AE42F5D198E8240039
:102B5000AA4209D052F8043BDC79D87A597A9C71A0
:102B6000954298721972F5D1BDE8F087236884F810
:102B700004909A6A5245E5D15B6A20469847D9E7A6
:102B8000704700BF501BFF1F8D060000D41AFF1FA7
:102B9000850400002DE9F043A74BA84A1978A84BFB
:102BA000A84D95B0002914BF11461946684607F094
:102BB000B9F9A5490CA807F0B5F969460CA807F0C2
:102BC000B3FA014610A807F0C1F92B78002B40F0AA
:102BD000C5819E4E10A807F065F90CA807F062F9B0
:102BE000726833689A4200F0A38199490CA807F0F3
:102BF00099F996E80A00591A0A22891008A807F0DC
:102C0000EBF908A90CA807F08FFA924907F094FA9B
:102C1000014610A807F09AF92B78002B40F0C881E4
:102C200010A807F03FF908A807F03CF90CA807F036
:102C300039F996E809001B1A9B10012B6CD0002271
:102C4000144617460DF110083BE010A807F02AF9CA
:102C500008A807F027F90CA807F024F9336853F8FF
:102C600009100B6840465B69984741460CA807F07D
:102C70006DF9336853F809100B6808A89B699847E9
:102C800008A90CA807F050FA014610A807F05EF951
:102C90002B78002B38D110A807F004F908A807F00A
:102CA00001F90CA807F0FEF8404607F0FBF896E89B
:102CB00009001B1A01349B10E4B2013B9C422246DE
:102CC0002DD250F822306449DB680CA84FEA820903
:102CD0000BB10137FFB207F025F9214608A807F02C
:102CE00053F908A90CA807F01FFA5C4907F024FA69
:102CF000014610A807F02AF92B78002BA5D010A9BF
:102D0000574807F087F8A0E710A9554807F082F860
:102D1000534807F0A5F8BEE700270DF110084E490B
:102D20000CA807F0FFF896E80A00591A0A22891041
:102D300008A807F051F908A90CA807F0F5F94749C8
:102D400007F0FAF9014610A807F000F92B78002BDC
:102D500040F0298110A807F0A5F808A807F0A2F80C
:102D60000CA807F09FF8736853F8041C0B684046E2
:102D70005B69984741460CA807F0E8F8736853F878
:102D8000041C0B6808A89B69984708A90CA807F0C1
:102D9000CBF9014610A807F0D9F82B78002B40F0AA
:102DA000FD8010A807F07EF808A807F07BF80CA8B3
:102DB00007F078F8404607F075F82A4910A807F0A0
:102DC000B1F82B78002B40F0E18010A807F06AF8EA
:102DD000254910A807F0A6F82B78002B40F0CE80EC
:102DE00010A807F05FF821490CA807F09BF83946B6
:102DF00008A807F0C9F808A90CA807F095F91C491C
:102E000007F09AF9014610A807F0A0F82B78002BDC
:102E100040F0AC8010A807F045F808A807F042F889
:102E20000CA807F03FF896E80802994500F090805A
:102E30009846012448E000BF501BFF1F44360100A4
:102E4000B02E01001008FF1FB42E0100D41AFF1F7E
:102E5000E42E0100F42E0100042F0100F0340100E3
:102E6000F009FF1F0C2F0100442E0100102F01005C
:102E7000242F010010A807F015F808A807F012F891
:102E80000CA807F00FF83B6839465B6910A8984713
:102E90002B78002B42D110A807F004F8484910A85D
:102EA00007F040F82B78002B3DD110A806F0FAFF70
:102EB000336831465B6910A898472B7833BB10A85C
:102EC00006F0F0FFC14543D058F8046BF768002FB7
:102ED000F8D03C490CA807F025F8631C214608A847
:102EE000DCB207F051F808A90CA807F01DF9364923
:102EF00007F022F9014610A807F028F82B78002BDC
:102F0000B8D010A9314806F085FFB3E710A92F48C3
:102F100006F080FF2D4806F0A3FFD0E710A92B484C
:102F200006F078FFB7E710A9284806F073FFBCE762
:102F3000274910A806F0F6FF2B7833B110A92348D3
:102F400006F068FF214806F08BFF10A806F0AAFFE4
:102F5000684606F0A7FF15B0BDE8F08310A91B482E
:102F600006F058FF194806F07BFF32E610A9174813
:102F700006F050FF154806F073FF4BE710A9134801
:102F800006F048FF114806F06BFF29E710A90F482B
:102F900006F040FF0D4806F063FF16E710A90B4846
:102FA00006F038FFFDE610A9084806F033FFD1E629
:102FB00010A9064806F02EFF044806F051FF2FE640
:102FC000382F0100042F0100F0340100F009FF1F29
:102FD000CC2E0100F0B59FED270A274E274D284F34
:102FE00085B0052007F0F8FE9FED260A232007F0A4
:102FF000F3FE00242322052138194034FDF7AAFBF3
:10300000B4F5807F04D016F8011F15F8012FF3E7FF
:103010001D4B187807F08CFFF0B11948FDF7BEFB87
:103020001A48FDF7BBFB1A48FDF7B8FB1948FDF736
:10303000B5FB6846184906F075FF184B1B7833B18D
:103040006946174806F0E6FE154806F009FF68468F
:1030500006F028FF05B0F0BD0948FDF781FB0B48DD
:10306000FDF77EFB0A48FDF77BFB0A48FDF778FB7E
:10307000DFE700BF00B8884704300100382E0100A8
:10308000E41EFF1F005043484420FF1F241FFF1F62
:10309000641FFF1FA41FFF1F402F01001008FF1F08
:1030A000F009FF1F2DE9F04F684895B00446FDF781
:1030B0003DFC04F14000FDF739FC04F18000FDF710
:1030C00035FC04F1C000FDF731FC04F5807625469F
:1030D000284600214035FDF799FBAE42F8D1DFF8D4
:1030E00098915B4FD9F80030019310A85949019B82
:1030F00006F018FF3B7833B110A9574806F08AFE56
:10310000554806F0ADFE10A806F0CCFE534EDFF891
:103110006881002552495FFA85FA0CA806F002FF83
:10312000514608A806F030FF08A90CA806F0FCFFDD
:103130004C4907F001F8314606F0F6FF4A4906F01F
:10314000FBFF014610A806F001FF3B78002B77D16A
:1031500010A806F0A7FE08A806F0A4FE0CA806F02A
:10316000A1FE514610A806F00FFF3B78002B5FD15F
:1031700010A806F097FE01212046FDF727FB4FF02F
:10318000000B41F2040A59462046FDF733FBD9F8FB
:1031900000300293029AD9F800300393039B9B1AE4
:1031A000312BF8D90BF1640B1FFA8BFBD345EAD115
:1031B00040F6FF7A1FFA8AFA51462046FDF71AFBBD
:1031C000D9F800300493049AD9F800300593059B90
:1031D0009B1A312BF8D9AAF1640A0FFA8AFA1AF16C
:1031E000050FE7D100212046FDF7F0FAD8F80030AE
:1031F0000693069AD9F800300793079B9B1AB3F5FC
:10320000FA7FF7D30135042D06F1100604F14004CE
:1032100080D10E48FDF72AFB1448FDF727FB144820
:10322000FDF724FB1348FDF721FB15B0BDE8F08F37
:1032300010A9094806F0EEFD074806F011FE97E7D1
:1032400010A9054806F0E6FD82E700BFE41EFF1F57
:103250001008FF1F502F0100F009FF1FE41FFF1F80
:10326000642F0100742F010094300100241FFF1F00
:10327000641FFF1FA41FFF1F4498012030B59FED5E
:103280001A0A1A4C85B01D2007F0A6FD0C2007F085
:1032900093FDA38840F6FF75AB42A8BF2B461D22C5
:1032A000194610462380A27007F0E6FB6389AB4203
:1032B000A8BF2B461E2219461046E380227207F053
:1032C000DBFB68460A4906F02DFE0A4B1B7833B13A
:1032D0006946094806F09EFD074806F0C1FD6846AC
:1032E00006F0E0FD05B030BD00E87D474820FF1F37
:1032F000782F01001008FF1FF009FF1F00B540F2F2
:10330000FF7185B0422007F0B7FB40F2FF71432008
:1033100007F0B2FB6846094906F004FE084B1B782B
:1033200033B16946074806F075FD064806F098FD7A
:10333000684606F0B7FD05B05DF804FBB42F010048
:103340001008FF1FF009FF1F2DE9F04F474F83B012
:10335000054607F001FE3B6800930446DDF8008057
:1033600004F0A4FA814600287CD10021422007F015
:1033700083FB0021432007F07FFB07F0EDFD001BDE
:10338000B0F5967FF9D307F0E7FD4FF47A7606FBA8
:1033900005FB044641F218053B680193019BC8EB0D
:1033A00003035B454CD24FF0000A5146432007F01F
:1033B00063FB07F0D1FD001B6328FAD907F0CCFDB1
:1033C0000AF1280AAA450446EFD14FF0000A5146F7
:1033D000422007F051FB07F0BFFD001B6328FAD91C
:1033E00007F0BAFD0AF1280AAA450446EFD14FF4C6
:1033F0007F66A6F1280A1FFA8AF63146432007F0B5
:103400003BFB07F0A9FD001B6328FAD907F0A4FDD8
:103410000446002EEDD14FF47F66A6F1280A1FFA6C
:103420008AF63146422007F027FB07F095FD001B86
:103430006328FAD907F090FD0446002EEDD1ABE7E2
:1034400040F2FF71422007F017FB40F2FF7143206A
:1034500007F012FBB9F1000F01D004F0A5F903B099
:10346000BDE8F08F04F000FA7FE700BF4498012028
:103470002DE9F04F2DED048B85B0054604F016FACA
:10348000824600287BD1DFF820B19FED459A07F0F6
:1034900063FDDBF800300293029B00934FF47A73D4
:1034A00003FB05F304460193DBF800300393009A15
:1034B000039B9B1A019A93424FD2DFF8E8900026B3
:1034C00000274FF0000800250022364B40464946B1
:1034D0000BF0A4FA30A3D3E900230BF051FC0BF05E
:1034E00027FF81B2422007F0C7FA00222D4B304659
:1034F00039460BF093FA28A3D3E900230BF040FCE4
:103500000BF016FF81B2432007F0B6FA07F024FD56
:10351000001B6328FAD907F01FFD0135B5F5B47F0C
:103520000446C1D007EE905AF8EEE77A67EE897A42
:1035300017EE900A0BF0D0FB41EC100B41EC180B8E
:1035400009F06AFC59EC108BB0EE480AF0EE680AFC
:1035500009F0C2FC57EC106BB6E740F2FF71422055
:1035600007F08AFA40F2FF71432007F085FABAF1BA
:10357000000F07D105B0BDEC048BBDE8F08F04F05F
:1035800073F980E704F010F905B0BDEC048BBDE8D9
:10359000F08F00BFAFF300800000000000FC9F40F0
:1035A00035FA8E3C0000F03F449801202DE9F047A9
:1035B00082B0054604F07AF90746002852D1DFF8B8
:1035C000B48007F0C9FCD8F8003000934FF47A7645
:1035D000DDF8009006FB05F6044641F21805D8F820
:1035E00000300193019BC9EB0303B34240F2FF712A
:1035F0004FF042002BD207F03FFA4FF0000A51463D
:10360000432007F039FA07F0A7FC001B6328FAD91A
:1036100007F0A2FC0AF1280AAA450446EFD140F2BD
:10362000FF71432007F028FA4FF0000A514642206C
:1036300007F022FA07F090FC001B6328FAD907F084
:103640008BFC0AF1280AAA450446EFD1C7E707F028
:1036500013FA40F2FF71432007F00EFA2FB902B0BF
:10366000BDE8F08704F000F9A9E704F09DF802B086
:10367000BDE8F0874498012010B5FE2184B01248BF
:1036800004F050FB6C4658B96846104906F04AFCF5
:103690000F4B1B7863B9204606F004FC04B010BD44
:1036A00068460C4906F03EFC094B1B78002BF2D013
:1036B0002146094806F0AEFB074806F0D1FB20463C
:1036C00006F0F0FB04B010BDC4950120C82F010026
:1036D0001008FF1FE82F0100F009FF1F08B5FFF7D2
:1036E000CBFF4FF4FA7007F05BFCFFF7B5F8FFF77C
:1036F000C5FDFFF707F9FFF76DFCBDE80840FFF7D0
:10370000FDBD00BF2DE9F043554F91B081460E46F7
:1037100068460122494604F025FC684604F0FAFA9E
:10372000002800F09780DFF83881AEB1002408ADA2
:1037300006E001342846E4B206F0B4FBA6420CD001
:103740000921284606F070FC3B78002BF1D0294671
:10375000444806F05FFBECE708AD684604F0BEFAAB
:103760000146284606F0DEFB98F80030002B57D1C2
:10377000284606F097FB684604F0B2FA002836D0D7
:103780003949284606F0CEFB98F80030002B4CD182
:10379000284606F087FB10AB9DF804C053F8331D94
:1037A000CDF82D105C68187BD3F80880029A9DF83C
:1037B0000CE0CDF83140711C079B8DF83900C9B27F
:1037C00028462A4CCDF835808DF824C00A928DF811
:1037D0002CE008940F93FFF795FF284604F07CFA3D
:1037E000684604F089FA684604F076FA90E72049C2
:1037F000284606F097FB98F8003033BB284606F0C1
:1038000051FB684604F074FA0A220146284606F085
:10381000F7FB98F8003083B9284606F043FBDFE752
:103820002946104806F0F6FAA2E729460D4806F0A8
:10383000F1FA0C4806F014FBAAE72946094806F0FD
:10384000E9FA084806F00CFBE6E72946054806F0C9
:10385000E1FAD3E7684604F03FFA11B0BDE8F0831F
:103860001008FF1FF009FF1FFC2F01007036010038
:10387000003001002DE9F8434468D0F80080C8EB1F
:103880000405AD100646894605D06B009D4229D936
:103890006FF0030500E00425284606F0CFFF7468AA
:1038A000D6F800800746C8EB0404D9F80030E74298
:1038B00018BF3B51A3080DD104343C44B8F1000FAC
:1038C00002D0404606F0BCFF3D44B56037607460EE
:1038D000BDE8F88322464146384604340CF0FEF831
:1038E0003C44EEE7B3F1804FD2D213B91D461F46D8
:1038F000D9E7ED00D0E700BF10B582B00190D8B194
:10390000114C236861688B420DD01A68824218BF3F
:10391000043303D110E0126890420DD099421A4648
:1039200003F10403F7D1A368074A994206D009B10D
:10393000086051680431616002B010BD104601A9F1
:10394000FFF798FFF8E700BFD41AFF1F2DE9F047F3
:10395000D749D848D84CDFF82CA4D84FDFF82894A2
:1039600006F0E0FAD649D74806F0DCFAD649D7483F
:1039700006F0D8FAD649D74806F0D4FAD64AD7493D
:10398000002009F069F9D649D64806F0CBFAD649A5
:10399000D64806F0C7FAD649D64806F0C3FAD64943
:1039A000D64806F0BFFAD649D64806F0BBFAD64943
:1039B000D64806F0B7FAD649D64806F0B3FAC64A52
:1039C000D549002009F048F9D449D54806F0AAFAAB
:1039D000D449D54806F0A6FAD449D54806F0A2FA4B
:1039E000BD4AD449002009F037F9D349D34806F03D
:1039F00099FAD349D34806F095FAB74AD24900203C
:103A000009F02AF904F1B0080126002504F80B6C2E
:103A100004F80C6C44F810AC44F8045C04F8055C41
:103A200004F8065C04F8095C04F80A5C04F8075C16
:103A300004F8085C2946204606F074FA3B78C4F87E
:103A40001490267463745A1C2046A8493A702C348A
:103A500006F0FEFA04F8375C4445D6D19E4ABB49CD
:103A6000BB4CDFF82883BB4F284609F0F5F804F17A
:103A70009009012604F80B6C44F8045C04F8055C1A
:103A800004F8065C04F8095C04F80A5C04F8075CB6
:103A900004F8085C04F80C6C44F8108C00212046F3
:103AA00006F040FA3B7863744FF0160E032284F858
:103AB00012E02274013391493B70204606F0C8FAA7
:103AC000243414F8120C012107F040FA4C45D1D1EE
:103AD000814AA149A14CDFF8B892A14F002009F01A
:103AE000BBF804F190080126002504F80B6C44F89B
:103AF000045C04F8055C04F8065C04F8095C04F84E
:103B00000A5C04F8075C04F8085C04F80C6C44F8E0
:103B1000109C0021204606F005FA3B7863741722BA
:103B20004FF0020AA274013384F810A071493B706F
:103B3000204606F08DFAA07C514607F007FA24349F
:103B400004F8295C04F82A5C04F82D5C04F82E5C67
:103B500004F82B5C04F82C5C04F8306C4445C4D1A8
:103B60005D4A8049804CDFF82C92804F002009F09C
:103B700073F804F1D0080126002504F81B6C44F802
:103B8000145C04F8155C04F8165C04F8195C04F87D
:103B90001A5C04F8175C04F8185C04F81C6C44F810
:103BA000209C0021204606F0BDF93B786374052275
:103BB00022740133204655493B70343406F048FAEC
:103BC00004F8445C24F8426C24F8405C24F83E5C21
:103BD00004F8495C04F84A5C04F84D5C04F84E5C57
:103BE00004F84B5C04F84C5C04F8506C44F8385C06
:103BF00004F83C5CA045C0D1374A5D495D4CDFF814
:103C000098915D4F002009F027F804F1C0080126C3
:103C100000254CF250334FF0000A44F8083C04F8F9
:103C2000176C44F8105C04F8115C04F8125C04F89A
:103C3000155C04F8165C04F8135C04F8145C04F8D2
:103C4000186C44F81C9C44F80C5C5146204606F065
:103C500069F93B7863740622227401332D493B7065
:103C6000204606F0F5F904F8115C04F8125C04F83B
:103C7000155C04F8165C04F8135C04F8145C04F892
:103C8000186C07F069F9303444F8340C4445C0D15D
:103C9000114A3A49504608F0DFFF394B0E4AC3F843
:103CA00000A01846C3F804A0C3F808A076E000BF3F
:103CB000902C0100E41FFF1F841DFF1FB816FF1F7B
:103CC000942C0100F41FFF1F9C2C01000420FF1FF7
:103CD000A42C01001420FF1F0C08FF1FE51F00008B
:103CE000B02C0100E01AFF1FB42C0100F01AFF1FD6
:103CF000B82C0100001BFF1FBC2C0100101BFF1F74
:103D0000C02C0100201BFF1FC42C0100301BFF1F13
:103D1000C82C0100401BFF1FC91F0000CC2C010054
:103D2000541BFF1FD42C0100641BFF1FDC2C01005F
:103D3000741BFF1FA51F0000E42C01002420FF1F9F
:103D4000E82C01003420FF1F891F0000411E0000E5
:103D5000F41CFF1F9C17FF1F5D1E0000941BFF1F1C
:103D6000B916FF1F791E0000341CFF1FBA16FF1F73
:103D7000951E0000401EFF1FBB16FF1FB11E000056
:103D8000D41AFF1F3C2D0100A0860100A42D0100C4
:103D9000702D0100D82D01000C2E01000D4908F0F6
:103DA0005BFF0D48FCF798FC0C48FCF795FC0C48B1
:103DB000FCF792FC0B48FCF78FFC0B4A0B49504672
:103DC00008F04AFF0A4B40F2FF729A805A81BDE820
:103DD000F08700BFA1200000E41EFF1F241FFF1F6B
:103DE000641FFF1FA41FFF1F0C08FF1FCD1E000034
:103DF0004820FF1F10B5054C04F1100006F052F8E2
:103E00002046BDE8104006F04DB800BF3421FF1F2A
:103E100010B5074C04F1200006F044F804F110003E
:103E200006F040F82046BDE8104006F03BB800BF61
:103E30005420FF1F38B5054CA4F170052046103CF6
:103E400006F030F8AC42F9D138BD00BFE420FF1FC6
:103E500010B5094C04F1300006F024F804F12000FC
:103E600006F020F804F1100006F01CF82046BDE82A
:103E7000104006F017B800BFF420FF1F00B585B052
:103E80001049684606F04EF86846FEF7D3FC6846CF
:103E900006F008F8FDF732F9FFF720FC03F002FC0A
:103EA0000949684606F03EF86846FEF7C3FC6846D6
:103EB00005F0F8FF05490420FEF7A4FC05B05DF805
:103EC00004FB00BF083001002830010090D003003F
:103ED00008B5FDF767F9BDE80840FEF70BBE00BF67
:103EE0002DE9F041334E3449344D354C354FDFF830
:103EF0002481304606F016F806F11000324906F02B
:103F000011F806F12000314906F00CF806F13000F6
:103F10002F4906F007F82A462E49002008F09CFE9B
:103F200020462D4905F0FEFF04F110002B4905F055
:103F3000F9FF04F120002A4905F0F4FF04F13000F4
:103F4000284905F0EFFF04F14000274905F0EAFF9A
:103F500004F15000254905F0E5FF04F16000244913
:103F600005F0E0FF2A462349002008F075FE384698
:103F7000214905F0D7FF07F11000204905F0D2FFD5
:103F800007F120001E4905F0CDFF2A461D490020FB
:103F900008F062FE40461C4905F0C4FF08F110001D
:103FA0001A4905F0BFFF2A4619490020BDE8F04133
:103FB00008F052BEF420FF1F902C01000C08FF1FD8
:103FC0008420FF1F5420FF1F942C01009C2C010013
:103FD000A42C0100513E0000B02C0100B42C0100C3
:103FE000B82C0100BC2C0100C02C0100C42C010025
:103FF000C82C0100353E0000CC2C0100D42C01005F
:10400000DC2C0100113E0000E42C0100E82C010032
:10401000F53D00003421FF1F10B5054C04F11000E0
:1040200005F040FF2046BDE8104005F03BBF00BF53
:104030005422FF1F10B5074C04F1200005F032FF99
:1040400004F1100005F02EFF2046BDE8104005F0F9
:1040500029BF00BF6421FF1F38B5054CA4F17005CE
:104060002046103C05F01EFFAC42F9D138BD00BF20
:10407000F421FF1F10B5094C04F1300005F012FFC8
:1040800004F1200005F00EFF04F1100005F00AFF16
:104090002046BDE8104005F005BF00BF1422FF1FF9
:1040A00006F040BF30B585B001460446684605F0CD
:1040B0004DFF6846FCF706FF0546684605F0F2FE30
:1040C0008DB90D49204606F079F810B1012005B0F0
:1040D00030BD2046094906F071F8B0FA80F0400979
:1040E000404205B030BD204606F0B0F80028D4BFED
:1040F0000020012005B030BDE82C0100E42C0100B7
:10410000F0B585B001460646684605F01FFF6846D3
:10411000FCF7D8FE0446684605F0C4FED4B9314623
:10412000684605F013FF6846FCF7BCFE0546684686
:1041300005F0B8FE55B10B4D2946304606F030F873
:1041400067B21035013410B9072CF5D10027384675
:1041500005B0F0BD304606F079F847B2384605B0F4
:10416000F0BD00BF9421FF1FF0B585B001460646A3
:10417000684605F0EBFE6846FCF7A4FE0446684678
:1041800005F090FEDCB93146684605F0DFFE684672
:10419000FCF788FE0546684605F084FE55B10B4DD8
:1041A0002946304605F0FCFF67B21035013418B9D6
:1041B000042CF5D14FF0FF37384605B0F0BD30463E
:1041C00006F044F847B2384605B0F0BD1422FF1F90
:1041D000F0B585B001460646684605F0B7FE68466C
:1041E000FCF770FE0446684605F05CFEDCB931461B
:1041F000684605F0ABFE6846FCF754FE0546684687
:1042000005F050FE55B10B4D2946304605F0C8FF6C
:1042100067B21035013418B9032CF5D14FF0FF37D0
:10422000384605B0F0BD304606F010F847B23846C3
:1042300005B0F0BD6421FF1F30B50C4691B0334985
:104240000546204605F052FF3149684605F06AFEF2
:104250002146684605F068FF014608A805F076FE8D
:1042600008A8FEF7E7FA08A805F01CFE684605F066
:1042700019FE684603F022FD2268264908A801239A
:1042800003F0FCFD0A9A9DF82C309DF82410029250
:104290008DF80C308DF804100BAA0DF10D030DF103
:1042A0001A0012F8011F03F8011B8342F9D10F9B7A
:1042B000079308A803F010FD174908A805F032FE7F
:1042C000684603F027FD38B91BE0684603F08EFC12
:1042D000C1B208A805F018FF684603F069FC002881
:1042E000F3D1684603F008FD08A9284605F0C8FD8B
:1042F00008A805F0D7FD684603F0EEFC284611B08B
:1043000030BD064908A805F0ABFEEDE744300100DA
:104310004C300100C4950120442E01005C300100A6
:1043200030B52B4991B0044605F0E0FE684603F035
:10433000C5FC2268274908A8132303F09FFD0A9AA9
:104340009DF82C309DF8241002928DF80C308DF8D9
:1043500004100BAA0DF10D030DF11A0012F8011F44
:1043600003F8011B8342F9D10F9B079308A803F0C0
:10437000B3FC684603F0CEFC0446C8B1164DAB68EA
:1043800000245BB12146144805F02EFF01786846F1
:1043900003F002FCAB6801349C42F3D3684603F09F
:1043A000ABFC684603F098FC0124204611B030BDF8
:1043B0000A4908A805F0B6FD08A8FEF73BFA08A8C8
:1043C00005F070FD684603F087FC204611B030BD53
:1043D00044300100C49501205421FF1F64300100C6
:1043E0002DE9F0472DED028B0E4694B0B149904671
:1043F000074605F0E3FE58B3CEB9AF49AF4805F024
:10440000DDFE00283ED1AE490CA805F08BFD0CA8BE
:10441000FEF710FA0CA805F045FDA84802F006FBCF
:104420000124204614B0BDEC028BBDE8F087A549FD
:104430000CA805F077FD0CA8FEF7FCF90CA805F018
:1044400031FD0024204614B0BDEC028BBDE8F0879E
:104450009D49384605F0B2FE002846D0012E0CAD2D
:1044600021D09849284605F05DFD2846FEF7E2F97F
:10447000284605F017FD0024204614B0BDEC028B41
:10448000BDE8F08791490CA805F04CFD0CA8FEF79B
:10449000D1F90CA805F006FD0124204614B0BDECAE
:1044A000028BBDE8F0874146284605F04FFD2846BF
:1044B000FCF708FD0446284605F0F4FC002CD0D09B
:1044C000404605F0C3FE824C86B204F58075204656
:1044D00031464034FCF78EF9A542F8D1012420463C
:1044E00014B0BDEC028BBDE8F0877A49384605F080
:1044F00065FE044670B1022E1FD00CAD71492846EE
:1045000005F010FD2846FEF795F9284605F0CAFC8F
:10451000002486E77049384605F050FE8146A0B376
:10452000012E46D067490CA805F0FCFC0CA8FEF74C
:1045300081F90CA805F0B6FC73E70CAD08F1100684
:104540003146284605F002FD2846FCF7BBFC044630
:10455000284605F0A7FC002CD0D04146284605F09F
:10456000F5FC2846FFF700FE0446304605F06EFED7
:10457000002C05DB564B81B203EB8410FCF73AF9B3
:10458000284605F08FFC01244BE75449384605F0D6
:1045900015FE054638B3022E3AD04A490CA805F05C
:1045A000C1FC0CA8FEF746F90CA84C4605F07AFCB5
:1045B00037E70CAD4146284605F0C8FC2846FFF712
:1045C00071FD434C071C18BF012704F58076204677
:1045D00039464034FCF7FAF8A642F8D1284605F0EF
:1045E00061FC01241DE73E49384605F0E7FD8146A0
:1045F00000284BD0012E2FD032490CA805F092FC98
:104600000CA8FEF717F90CA82C4605F04BFC08E7A0
:1046100004AF4146384605F099FC3846FFF7A4FD43
:104620000CAD044608F11001284605F08FFC284621
:10463000FFF738FD002C07DB254B011C18BF0121BB
:1046400003EB8410FCF7C2F8284605F02BFC384633
:1046500005F028FC0124E4E60CAD4146284605F0AF
:1046600075FC2846FFF71EFD194C071C18BF0127D3
:1046700004F58076204639464034FCF7C7F8A64258
:10468000F8D1284605F00EFC0124CAE61549384643
:1046900005F094FD044638B3022E4BD009490CA80E
:1046A00005F040FC0CA8FEF7C5F80CA84C4605F038
:1046B000F9FBB6E6A0300100442E01000422FF1FE2
:1046C000A8300100D8300100EC300100B430010006
:1046D000E41EFF1FF8300100003101000C31010021
:1046E0001431010020310100BB49384605F066FD58
:1046F000002838D0002E40D1FEF73AF90CADB7496A
:104700000446284605F00EFC2846FEF787F82846A2
:1047100005F0C8FBB24BB3492846002C18BF194618
:1047200005F000FC2846FEF785F8284605F0BAFBA0
:10473000012476E60CAD4146284605F007FC2846E4
:10474000FFF712FD002809DBD8F81010A64B003146
:1047500018BF012103EB8010FCF758F8284605F03C
:10476000A1FB01245DE6A149384605F027FDD8B13B
:1047700076B9FEF797FC012453E69D490CA805F095
:10478000D1FB0CA8FEF756F80CA805F08BFB48E609
:1047900097490CA805F0C6FB0CA8FEF74BF80CA82F
:1047A00005F080FB00243CE69249384605F006FD02
:1047B00070B1022E21D00CAD8D49284605F0B2FB18
:1047C0002846FEF737F8284605F06CFB002428E65B
:1047D0008949384605F0F2FC814688B3012E0CADBC
:1047E00017D08349284605F09DFB2846FEF722F89E
:1047F000284605F057FB002413E604A8414605F0BF
:10480000A5FB04A8FCF75EFB78BB04A805F04AFBF7
:10481000D1E74146284605F099FB2846FCF752FBB4
:104820000446284605F03EFB002CDAD0404605F051
:104830000DFD724A2C2303FB002034464671F0E53F
:104840006F49384605F0BAFC00284DD0012E0CAD5A
:1048500032D06749284605F065FB2846FDF7EAFF98
:10486000284605F01FFB0024DBE50CAD08F110071E
:104870003946284605F06AFB2846FCF723FB044628
:10488000284605F00FFB04A805F00CFB002C93D084
:10489000404605F0DBFC2C2404FB00F4574D384661
:1048A00005F0D4FC6319625990FBF6F05862184683
:1048B000136998470124B4E54146284605F046FBB4
:1048C0002846FCF7FFFA0446284605F0EBFA002CD0
:1048D000BFD0404605F0BAFC484A2C2303FB002019
:1048E000344680F805909CE54649384605F066FC5C
:1048F000044670B1022E0CAD1ED03D49284605F08D
:1049000011FB2846FDF796FF284605F0CBFA002458
:1049100087E53D49384605F051FC002846D0012E78
:1049200033D033490CA805F0FDFA0CA8FDF782FF3F
:104930000CA805F0B7FA74E54146284605F006FBD9
:104940002846FCF7BFFA0446284605F0ABFA002CCF
:10495000D3D0404605F07AFC2C24284B04FB00F40D
:1049600008F11001E25828461C44D66805F0EEFA1A
:104970002846FFF797FB011C18BF01212046B047CE
:10498000284605F08FFA01244BE541460CA805F0B6
:10499000DDFA0CA8FFF786FB003018BF0120FDF7F9
:1049A000F3FF0CA8344605F07DFA3AE5174938467E
:1049B00005F004FC044658B3012E0CAD33D00C496D
:1049C000284605F0AFFA2846FDF734FF284605F0E3
:1049D00069FA002425E500BF2831010038310100C3
:1049E0007C30010088300100E41EFF1F50310100BF
:1049F000D83001005C3101006C310100741DFF1FD3
:104A0000783101008431010094310100A8310100A6
:104A1000A949384605F0D2FB054648B3EEB9FDF783
:104A2000C3FF0124FDE44146284605F08FFA2846DD
:104A3000FCF748FA0446284605F034FA002CBED0AC
:104A4000404605F003FC2C2303FB00F09B4BC258AF
:104A50001844136934469847E3E499490CA805F0D3
:104A600061FA0CA8FDF7E6FE0CA805F01BFAD8E4E5
:104A70009449384605F0A2FB044668B1052E1ED0C5
:104A80008F490CA805F04EFA0CA8FDF7D3FE0CA830
:104A90002C4605F007FAC4E48B49384605F08EFB36
:104AA00000285AD0032E3FD085490CA805F03AFAC9
:104AB0000CA8FDF7BFFE0CA805F0F4F9B1E44046E0
:104AC00005F0C4FB342508F1100105FB00F50CA826
:104AD00005F03CFA7D4E0CA8FFF77AFBAC19AB59F8
:104AE00020741B69204698470CA805F0DBF908F1F3
:104AF000200005F0ABFBAB5960821B69204698474C
:104B000008F1300005F0A2FBAB59A0821B692046DA
:104B1000984708F1400005F099FBAB59E0821B690A
:104B20002046984701247CE4404605F08FFB302462
:104B300004FB00F408F1100005F088FB644D064604
:104B400008F1200005F082FB6319625958611E616B
:104B5000184613699847012463E45E49384605F016
:104B60002DFB68B1012E16D055490CA805F0DAF9D5
:104B70000CA8FDF75FFE0CA805F094F9002450E4A2
:104B80005549384605F01AFB10B3AEB90120FDF7C0
:104B900037FF012445E441460CA805F0D7F90CA8DD
:104BA000FFF780FA003018BF0120FDF729FF0CA89D
:104BB00005F078F9012434E441490CA805F0B2F974
:104BC0000CA8FDF737FE0CA805F06CF9002428E4CA
:104BD0004249384605F0F2FA044628B17EB930461B
:104BE000FDF70EFF01241CE43D49384605F0E6FAC6
:104BF0008146E0B17EB9FDF719FF012411E4304987
:104C00000CA805F08FF90CA8FDF714FE0CA805F010
:104C100049F9002405E42A490CA805F083F90CA8F9
:104C2000FDF708FE0CA805F03DF9FFF7FABB2D498A
:104C3000384605F0C3FA054670B1022E0CA821D003
:104C40001F4905F06FF90CA8FDF7F4FD0CA84C46C0
:104C500005F028F9FFF7E5BB2349384605F0AEFA21
:104C60000446002874D0042E0CA83FD0144905F047
:104C700059F90CA8FDF7DEFD0CA82C4605F012F939
:104C8000FFF7CFBB414605F061F90CA8FFF738FAF2
:104C9000044608F1100005F0D9FAC1B2E0B2FDF700
:104CA000D5FE04460CA805F0FDF82046FEF724FECC
:104CB0000124FFF7B6BB00BFB0310100741DFF1F18
:104CC000D8300100BC310100C4310100141CFF1FA9
:104CD000241EFF1FCC310100DC310100E83101004E
:104CE000F4310100FC3101000C320100414605F0B5
:104CF0002DF90CA8FFF704FA044608F1100005F09E
:104D0000A5FAC1B2E0B2FDF7A1FE06460CA805F077
:104D1000C9F808F120010CA805F018F90CA8FFF754
:104D2000EFF9044608F1300005F090FAC1B2E0B2A4
:104D3000FDF78CFE05460CA805F0B4F83046FEF7EA
:104D4000DBFD2846FEF7D8FD0124EE60FFF769BBC6
:104D5000BF49384605F032FA0546002843D016F020
:104D600001034CD17608771EDEB27501BE420CA855
:104D700008EB050103F10104BFF6B0AB05F0E6F85E
:104D80000CA8FFF7BDF9814605F11000404405F07D
:104D90005DFAC1B25FFA89F0FDF758FE81460CA8B2
:104DA00005F080F8711C08EB41110CA805F0CEF855
:104DB0000CA8FFF7A5F9064605F13000404405F0C0
:104DC00045FAC1B2F0B2FDF741FE05460CA805F068
:104DD00069F84846FEF790FD2846FEF78DFDC5F8B8
:104DE0000C902346C0E79B49384605F0E7F9814619
:104DF000F0B186B9FDF76CFE0124FFF712BB9649AE
:104E00000CA805F08FF80CA8FDF714FD0CA805F010
:104E100049F8FFF706BB90490CA805F083F80CA8E9
:104E2000FDF708FD0CA82C4605F03CF8FFF7F9BA91
:104E30008A49384605F0C2F9044628B1C6B9FDF7DB
:104E4000A9FE0124FFF7EDBA8549384605F0B6F909
:104E5000002842D0032E0CA817D07F4905F062F835
:104E60000CA8FDF7E7FC0CA805F01CF8FFF7D9BA71
:104E700079490CA805F056F80CA8FDF7DBFC0CA846
:104E80004C4605F00FF8FFF7CCBA414605F05EF846
:104E90000CA8FFF735F9044608F1100005F0D6F923
:104EA000C1B2E0B2FDF7D2FD04460CA804F0FAFF4F
:104EB000236808F120010CA8DD6805F047F80CA86C
:104EC000FFF7F0F8011C18BF01212046A8470CA8E5
:104ED00004F0E8FF0124FFF7A4BA6249384605F060
:104EE0006DF978B1012E0CAD21D05B49284605F053
:104EF00019F82846FDF79EFC284604F0D3FF00244D
:104F0000FFF78FBA5849384605F058F9002858D0AD
:104F1000022E31D050490CA805F004F80CA8FDF77A
:104F200089FC0CA804F0BEFF0024FFF77ABA4146C2
:104F3000284605F00BF82846FBF7C4FF0446284630
:104F400004F0B0FF002CD0D0404605F07FF940F6C9
:104F5000FF7384B29C42A8BF1C46444DA6B22146B2
:104F6000A8782E8005F088FD2146287AEE8005F08D
:104F700083FD0124FFF755BA30464146FBF7B2FFE7
:104F80000028C7D0404605F061F9044608F110003A
:104F900005F05CF9E3B2012B3FF6A0AA334C0622E0
:104FA00002FB03F240F6FF7183B215198B42A8BFD2
:104FB0000B46A87813531946012405F05DFDFFF751
:104FC00030BA2B49384605F0F9F8044628B17EB9C5
:104FD00002F0EAFB0124FFF724BA2649384605F01F
:104FE000EDF8F0B18EB902F03FFC0124FFF719BAD9
:104FF00019490CA804F096FF0CA8FDF71BFC0CA89F
:1050000004F050FF0024FFF70CBA13490CA804F079
:1050100089FF0CA8FDF70EFC0CA804F043FFFFF776
:1050200000BA1549384605F0C9F8054630B3012ED7
:105030000CAD00F08D810849284604F073FF284626
:10504000FDF7F8FB284604F02DFF0024FFF7E9B92F
:105050001832010020320100D83001002C3201004A
:105060003832010044320100503201004820FF1F55
:10507000583201006032010068320100DB493846D5
:1050800005F09CF80446002800F08C81002E40F0CA
:105090007C810CADD649284604F044FF2846FDF734
:1050A000BDFB284604F0FEFEFCF7AAF9002800F03C
:1050B0006A81D049284604F035FF2846FDF7BAFB3F
:1050C000284604F0EFFECC49284604F02BFF284682
:1050D000FDF7A4FB284604F0E5FE01F023FF0A22B9
:1050E0000146284604F064FF2846FDF7A3FB284646
:1050F00004F0D8FEC149284604F014FF2846FDF705
:105100008DFB284604F0CEFE02F0D0FB002800F014
:105110003881B849284604F005FF2846FDF77EFB94
:10512000284604F0BFFEB649284604F0FBFE284698
:10513000FDF774FB284604F0B5FE02F029FB0A22B5
:105140000146284604F05CFF2846FDF767FB284629
:1051500004F0A8FEAB49284604F0E4FE2846FDF71B
:105160005DFB284604F09EFEA749284604F0DAFEBF
:105170002846FDF753FB284604F094FE02F09CFB02
:105180000A220146284604F013FF2846FDF746FB95
:10519000284604F087FE9D49284604F0C3FE2846B1
:1051A000FDF748FB284604F07DFE9949284604F0A7
:1051B000B9FE2846FDF732FB284604F073FE02F0E4
:1051C000EDFA002800F0DB808A49924EDFF87892F1
:1051D000DFF87882284604F0A5FE2846FDF72AFB72
:1051E000284604F05FFE8C49284604F09BFE2846C2
:1051F000FDF720FB284604F055FE002404AF874944
:10520000284604F08FFE2846FDF708FB284604F0E8
:1052100049FE335906EB040A5B6951462846984714
:105220002846FDF7FBFA284604F03CFE5146384676
:10523000FBF716FB7A49284604F074FE2846FDF772
:10524000EDFA284604F02EFE0A22BDF8101028467A
:1052500004F0AEFE2846FDF7E1FA284604F022FEEF
:105260007049284604F05EFE2846FDF7D7FA284626
:1052700004F018FE9DF81210284600290CBF49467C
:10528000414604F04FFE2846FDF7C8FA284604F0D0
:1052900009FE6449284604F045FE2846FDF7BEFA9B
:1052A000284604F0FFFD9DF81310284600290CBF86
:1052B0004946414604F036FE2846FDF7AFFA284637
:1052C00004F0F0FD5749284604F02CFE2846FDF76F
:1052D000A5FA284604F0E6FD9DF81410284600299A
:1052E0000CBF4946414604F01DFE2846FDF796FADC
:1052F000284604F0D7FD4C49284604F013FE284602
:10530000FDF798FA4034284604F0CCFDB4F5807FD0
:105310007FF475AFFDF72CFB44490446284604F0A2
:1053200001FE2846FDF77AFA284604F0BBFD404B03
:1053300040492846002C18BF194604F0F3FD2846C2
:10534000FDF778FA284604F0ADFD0124FFF769B8AF
:105350004146284604F0FAFD2846FBF7B3FD044613
:10536000284604F09FFD002C3FF465AE404604F053
:105370006DFF80B202F0A6FA3446FFF752B82E490C
:1053800023E72D49C6E62C4994E62C490CA804F0E5
:10539000C9FD0CA8FDF74EFA0CA82C4604F082FDBE
:1053A000FFF73FB82649384604F008FF40B1002E09
:1053B0004ED1FBF7FDFF012401F0E2FDFFF731B80C
:1053C0002049384604F0FAFE002864D0012E0CADC6
:1053D0004AD01A49284604F0A5FD2846FDF72AFAC6
:1053E000284604F05FFD0024FFF71BB86C32010073
:1053F000743201004436010084320100943201000D
:10540000A8320100B4320100B8320100C4320100F8
:10541000CC320100E41EFF1FE8320100042F01001E
:105420002033010024330100D4300100283301006F
:105430007C30010088300100B02E0100D83001001E
:10544000443301004C330100E42C0100E82C01003E
:10545000BB490CA804F066FD0CA8FDF7EBF90CA8FD
:1054600004F020FDFEF7DDBF4146284604F06EFD46
:105470002846FBF727FD0446284604F013FD002CC0
:10548000A7D0404604F0E8FE3446FBF785FF01F064
:1054900077FDFEF7C6BFAB49384604F08FFE70B10A
:1054A000022E22D0A6490CA804F03CFD0CA8FDF762
:1054B000C1F90CA804F0F6FC0024FEF7B2BFA24923
:1054C000384604F07BFE002840D0012E0CAD26D0DB
:1054D0009B49284604F026FD2846FDF7ABF92846EF
:1054E00004F0E0FC0024FEF79CBF30464146FBF789
:1054F000F9FC0028D6D0404604F0AEFE08F11000BA
:105500008DED040A04F0A8FE0CA904A881ED000AA0
:105510000124FBF739FF01F033FDFEF782BF41465E
:10552000284604F013FD2846FBF7CCFC0446284629
:1055300004F0B8FC002CCBD0404604F08DFEFBF705
:1055400031FF012401F01CFDFEF76BBF7F49384697
:1055500004F034FE78B1012E0CAD19D078492846FC
:1055600004F0E0FC2846FDF765F9284604F09AFCB3
:105570000024FEF756BF7649384604F01FFE70B38C
:1055800006BBFBF72FFF0124FBF712FFFEF749BF15
:105590004146284604F0DAFC2846FBF793FC044613
:1055A000284604F07FFC002CD8D0404604F04EFE84
:1055B000003018BF0120FBF70FFF012401F0E0FCD1
:1055C000FEF72FBF5E490CA804F0ACFC0CA8FDF759
:1055D00031F90CA804F066FC0024FEF722BF5D49F7
:1055E000384604F0EBFD044670B1012E20D054493A
:1055F0000CA804F097FC0CA8FDF71CF90CA804F00B
:1056000051FC0024FEF70DBF5349384604F0D6FD87
:10561000002839D0012E1DD049490CA804F082FC85
:105620000CA8FDF707F90CA804F03CFCFEF7F9BE46
:1056300041460CA804F08AFC0CA8FEF733FD0030AC
:1056400018BF0120FBF7D6FE0CA8344604F02AFC54
:10565000FEF7E7BE0CAD4146284604F077FC28462D
:10566000FEF720FD3D4E071C18BF012730193946B3
:105670004034FBF7D9F8B4F5807FF7D1284604F021
:1056800011FC0124FEF7CDBE3549384604F096FDE5
:105690000446002840D0022E0CAD0CD028492846E4
:1056A00004F040FC2846FDF7C5F8284604F0FAFB54
:1056B0000024FEF7B6BE4146284604F047FC2846C3
:1056C000FBF700FC0446284604F0ECFB002CE5D078
:1056D00004AF4146384604F039FC3846FEF744FD35
:1056E00008F110010446284604F030FC2846FEF775
:1056F000D9FC011C18BF0121002C04DB174800EB6A
:105700008410FBF791F8284604F0CCFB384604F0EF
:10571000C9FB0124FEF785BE1249384604F04EFD50
:10572000814608B3012E5DD005490CA804F0FAFBB0
:105730000CA8FDF77FF80CA804F0B4FBFEF771BECF
:10574000D8300100543301005C33010064330100A0
:105750006C330100743301007C330100E41EFF1F31
:105760008833010090330100D649384604F026FD05
:10577000054600287ED041463046FBF7B3FB044681
:1057800000286BD0032E4CD0052E3DD1FBF73EFEFA
:10579000404604F061FD08F11000B0EE408A04F0CC
:1057A0005BFD08F120008DED0C8A8DED0D0A04F0F3
:1057B00053FD08F13000B0EE408A04F04DFD08F1D1
:1057C0004000F0EE408A04F041FDF0EE680A81B23C
:1057D000B0EE480A0CA8FBF727FE012401F0D0FB2D
:1057E000FEF71FBE41460CA804F0B0FB0CA8FEF764
:1057F00059FC003018BF012002F07CF80CA8344698
:1058000004F050FBFEF70DBEAF490CA804F08AFB74
:105810000CA8FDF70FF80CA84C4604F043FBFEF76C
:1058200000BEFBF7F3FD404604F016FD08F1100042
:10583000B0EE408A04F010FD08F12000F0EE408A3E
:1058400004F004FDF0EE680A80B2B0EE480AFBF7FF
:1058500017FE012401F094FBFEF7E3BD9A490CA862
:1058600004F060FB0CA8FCF7E5FF0CA804F01AFBA1
:10587000FEF7D7BD9549384604F0A0FC80B34146F9
:105880003046FBF72FFB0446002800F00181022E72
:1058900000F0E980042E67D1FBF7B8FD404604F024
:1058A000DBFC08F11000B0EE408A04F0D5FC08F1F2
:1058B00020008DED0C8A8DED0D0A04F0CDFC08F171
:1058C0003000B0EE408A04F0C1FCB0EE480A81B26C
:1058D0000CA8FBF7E1FD012401F052FBFEF7A1BD8E
:1058E0007B49384604F06AFC002800F08680414677
:1058F0003046FBF7F7FA0446002872D0042E4DD04C
:10590000062E3ED1FBF782FD404604F0A5FC08F1CF
:105910001000B0EE408A04F09FFC08F120008DEDED
:105920000C8A8DED0D0A04F097FC08F13000B0EE02
:10593000408A04F091FC08F14000F0EE408A04F047
:1059400085FC044608F1500004F080FCA1B282B24C
:10595000F0EE680AB0EE480A0CA8FBF70DFE012431
:1059600001F00EFBFEF75DBD57490CA804F0DAFA12
:105970000CA8FCF75FFF0CA82C4604F093FAFEF786
:1059800050BD51490CA804F0CDFA0CA8FCF752FF09
:105990000CA804F087FA0024FEF743BDFBF736FDA0
:1059A000404604F059FC08F11000B0EE408A04F0C3
:1059B00053FC08F12000F0EE408A04F047FC044656
:1059C00008F1300004F042FCF0EE680A81B2B0EE5B
:1059D000480AA0B2FBF708FE012401F0D1FAFEF755
:1059E00020BD39490CA804F09DFA0CA8FCF722FF51
:1059F0000CA804F057FAFEF714BD3649384604F0F7
:105A0000DDFB002800F0898041463046FBF76AFA4A
:105A10000446002875D0022E5ED0042E44D1FBF738
:105A2000F5FC404604F018FC08F11000B0EE408A86
:105A300004F012FC08F120008DED0C8A8DED0D0AAA
:105A400004F00AFC08F13000B0EE408A04F0FEFBDE
:105A5000B0EE480A81B20CA8FBF7DAFD012401F090
:105A60008FFAFEF7DEBCFBF7D1FC404604F0F4FBF6
:105A700008F11000B0EE408A04F0E8FBB0EE480AEE
:105A800080B2FBF76DFD012401F07AFAFEF7C9BC84
:105A90000D490CA804F046FA0CA8FCF7CBFE0CA8A4
:105AA00004F000FAFEF7BDBC07490CA804F03AFA6E
:105AB0000CA8FCF7BFFE0CA804F0F4F90024FEF7D4
:105AC000B0BC00BF98330100D8300100A033010002
:105AD000A8330100B0330100FBF798FC404604F006
