:1000000000000320D10100008DC1000045C10000A7
:1000100045C1000045C1000045C1000045C10000C8
:1000200045C1000045C1000045C100008DC1000070
:100030008DC1000045C1000065DE000069DF0000E1
:100040008DC100008DC100008DC100008DC1000078
:100050008DC100008DC100008DC100008DC1000068
:100060008DC100008DC100008DC100008DC1000058
:100070008DC100008DC100008DC100008DC1000048
:100080008DC100008DC100008DC100008DC1000038
:100090008DC100008DC100008DC100008DC1000028
:1000A0008DC100008DC100008DC100008DC1000018
:1000B0008DC100008DC100008DC10000B1DF0000C6
:1000C0008DC10000DDE000008DC1000009E20000EC
:1000D0008DC1000001E300008DC100008DC1000052
:1000E0008DC100008DC100008DC100008DC10000D8
:1000F0008DC100008DC100008DC100008DC10000C8
:1001000095B70000A9B70000BDB70000D1B7000047
:100110008DC1000065CD00008DC100008DC10000C3
:100120008DC100008DC100008DC100008DC1000097
:100130008DC100008DC100008DC100008DC1000087
:100140008DC100008DC10000F9E300008DC10000E9
:100150008DC100008DC100008DC100008DC1000067
:100160008DC100008DC100008DC100008DC1000057
:100170008DC100008DC100008DC100008DC1000047
:100180008DC100008DC100008DC100008DC1000037
:100190008DC100008DC10000F1E400008DC10000A0
:1001A0008DC100008DC100008DC100008DC1000017
:1001B0008DC100008DC100008DC100008DC1000007
:1001C0008DC100008DC100008DC100008DC10000F7
:1001D0005C4B4CF2205210B51A804DF628121A8052
:1001E00000BF00BF0BF0D6FF574B4FF030621A60D4
:1001F000564A9A60564ADA60564B4FF470021A60BB
:10020000554B564A1A60564B1A78110703D51A787F
:1002100042F008021A70534B5349AA221A70534AEB
:10022000534B8B4204D252F8040F43F8040BF8E707
:10023000504B514900228B4202D243F8042BFAE77B
:100240004E494F4A002352F8230041F8230001335E
:10025000742BF8D14B4B4C4A802103F8011B93427D
:10026000FBD14A4B454A1A60494B8A221A70A3F5C2
:10027000805324225A70A0221A709A799207FCD5D2
:100280009A79D406FCD4434A937903F00C03082BE3
:10029000FAD1414B60221A7002331A78802AFCD1BD
:1002A0003C4B01221A715D225A719A799006FCD555
:1002B0009979384A4906FBD5384B394919600021EC
:1002C000596020231370937903F00C030C2BFAD19F
:1002D000344B354A1A60354A354C136813F4807331
:1002E00003D123604FF4A8531360324B324A1A6093
:1002F00000225A60072243F8042C304AC3F80C2D20
:1003000062B60CF09FFB2368DA0705D52C480CF089
:10031000A1F82C4B2C4A1A602C4B1B785B0609D594
:10032000284C294B22689A4204D125480CF092F8B7
:100330000023236010F0ACFD0BF032FF0BF060FEE9
:10034000FEE700BF0E20054030800440823F0400DD
:100350000100002B88ED00E0002008E0030000858C
:1003600002D0074000E007409814FF1F30600100F2
:100370003007FF1F9814FF1FF89C01200002FF1F89
:100380000000000000E400E064E400E008ED00E0AC
:10039000005006400040064001E007404480044011
:1003A0000000060204800440C010070010D0034083
:1003B00014D0034014E000E01FBF02000000202022
:1003C00004656B5E1CE00340A5C3945A00F007402F
:1003D000FFFFFFFFFFFFFFFFFFFFFFFFFFFFFFFF2D
:1003E000FFFFFFFFFFFFFFFFFFFFFFFFFFFFFFFF1D
:1003F000FFFFFFFFFFFFFFFFFFFFFFFFFFFFFFFF0D
:10040000FFFFFFFFFFFFFFFFFFFFFFFFDEF9FFFF23
:1004100010B5054C237833B9044B13B10448AFF33E
:1004200000800123237010BD9814FF1F00000000FE
:100430002C600100084B10B51BB108490848AFF308
:1004400000800848036803B910BD074B002BFBD0A0
:10045000BDE81040184700BF000000009C14FF1FBB
:100460002C6001009814FF1F0000000041717047CC
:10047000002301220271C3728372C37183714372BC
:100480000372704703685B6A184700BFC171704709
:1004900010B50A4A0A4913780446042084F83C003F
:1004A00084F83D3004F12C00013313700BF0CEFAC8
:1004B0000122236A6271636210BD00BFE414FF1F52
:1004C0006815FF1F10B5054C04F110000BF0E8F99A
:1004D0002046BDE810400BF0E3B900BF9815FF1FA0
:1004E00010B5074C04F120000BF0DAF904F110000C
:1004F0000BF0D6F92046BDE810400BF0D1B900BF93
:10050000B414FF1F38B5054CA4F170052046103C0B
:100510000BF0C6F9AC42F9D138BD00BF8815FF1FFA
:1005200010B5094C04F130000BF0BAF904F12000C9
:100530000BF0B6F904F110000BF0B2F92046BDE85B
:1005400010400BF0ADB900BFE814FF1F70B588B0C4
:100550000C4605462C3168460BF0F6F968461349FF
:100560000BF0E8FA94F83D10064604A80BF00AFADE
:1005700004A930460BF0D6FA0D490BF0DBFA0D4B0F
:1005800094F83D1003EB01110BF0CCFA0A490BF083
:10059000D1FA014628460BF0D7F904A80BF080F9F0
:1005A00068460BF07DF9284608B070BD444601004E
:1005B00048460100E814FF1F4C46010070B50C4688
:1005C0008CB005461A491B4E08A80BF0A9F90A225F
:1005D000618A04A80BF0EAF904A908A80BF0A2FAB2
:1005E00015490BF0A7FA617D06EB01110BF09AFAA1
:1005F00012490BF09FFAA17D06EB01110BF092FA64
:100600000F490BF097FA014668460BF09DF904A8D4
:100610000BF046F908A80BF043F9694628460BF0A1
:100620002DF968460BF03CF928460CB070BD00BFB0
:10063000504601009815FF1F58460100644601000E
:100640007046010010B5064B044640F82C3B0BF0F9
:1006500027F9206A08B10BF0F3FD204610BD00BF5A
:10066000D846010010B5084B044640F82C3B0BF06F
:1006700017F9206A08B10BF0E3FD204640210BF08A
:10068000E1FD204610BD00BFD84601004379DBB133
:10069000C16810B501B18979036804461B6A98479F
:1006A00023792BB9236820465B6ABDE810401847C0
:1006B000236808499A6A00208A42207105D12046A1
:1006C0005B6ABDE81040184770472046BDE81040FF
:1006D000104700BF85040000F8B50346044653F8F0
:1006E0001A1F194A026001259A88C0F812104FF4A7
:1006F000FA63002100F12C06C2824383E160E172BB
:10070000A172E171A1716172217221776177A17784
:1007100021626162A16230466571257125740BF01A
:10072000FFF80A4A0A49137884F83D3004272B441D
:10073000304684F83C7013700BF088F9236A6571B9
:1007400063622046F8BD00BFD8460100E414FF1FD5
:100750006815FF1F01764276012110460CF0F6B8AD
:10076000037C23B1437D1BB9407E0CF0DBB870479E
:1007700007EE901A9FED067A407EF8EEE77A67EE74
:10078000877AFDEEE77A17EE901A0BF075BE00BF80
:10079000E17A944410B500210446FFF7E1FF0023FD
:1007A000237410BD8179027D8A4202D00175FFF762
:1007B000D7BF7047027D417102B9704700210175B2
:1007C000FFF7CEBF10B4047D8C4205D003465DF820
:1007D000044B1975FFF7C4BF5DF8044B704700BFA9
:1007E000037C03B1037D1846704700BF40F6FF73DA
:1007F0009942027CA8BF1946418202B97047007E27
:100800000BF03ABE10B50446417519B90121407E7E
:100810000CF09CF8217D2046BDE81040FFF7A0BFFA
:1008200081757047837D03B970470021FFF798BF3A
:1008300010B50446417DFFF7E5FF618A237C40F651
:10084000FF729142A8BF1146618203B910BD207E9C
:10085000BDE810400BF010BE01230374FFF7E8BFA2
:1008600051F8122F02608A888280704738B5436A37
:10087000044633F8065C13F8041C13F8032C13F831
:10088000023C8375458201754275FFF7D1FF636AAB
:10089000063B636238BD00BF2DE9F04104462148A4
:1008A00062682668931B5B1000FB03F388462BB13C
:1008B0005F00BB422BD96FF0030700E006273846E4
:1008C0000BF0BCFC626826680546921B154B501065
:1008D00003FB00F0AB1806D0D8F800E0B8F804101D
:1008E00045F802E0998058B903F1060816B1304680
:1008F0000BF0A6FC2F44A76084E82001BDE8F0813E
:100900003146284603F1060810F018FEEFE7064BC3
:100910009F42D0D83D46002FD7D0062303FB07F7D0
:10092000CDE700BFABAAAAAAAAAAAA2A08B5826ADA
:10093000436A934209D02BB1024652F8121F196044
:1009400092889A800633436208BD00F1120120307C
:10095000FFF7A2FF08BD00BF2DE9F041334E344937
:10096000344D354C354FDFF8248130460AF0D8FF3E
:1009700006F1100032490AF0D3FF06F12000314998
:100980000AF0CEFF06F130002F490AF0C9FF2A46CF
:100990002E4900200DF060FE20462D490AF0C0FFD0
:1009A00004F110002B490AF0BBFF04F120002A4992
:1009B0000AF0B6FF04F1300028490AF0B1FF04F153
:1009C000400027490AF0ACFF04F1500025490AF025
:1009D000A7FF04F1600024490AF0A2FF2A46234938
:1009E00000200DF039FE384621490AF099FF07F141
:1009F000100020490AF094FF07F120001E490AF078
:100A00008FFF2A461D4900200DF026FE40461C4956
:100A10000AF086FF08F110001A490AF081FF2A4601
:100A200019490020BDE8F0410DF016BEE814FF1F83
:100A3000744601000C08FF1F2815FF1FB414FF1F88
:100A4000784601008046010088460100210500002B
:100A500094460100984601009C460100A046010012
:100A6000A4460100A8460100AC46010005050000AF
:100A7000B0460100B8460100C0460100E104000094
:100A8000C8460100CC460100C50400009815FF1FB0
:100A900010B5054C04F110000AF002FF2046BDE835
:100AA00010400AF0FDBE00BF9816FF1F10B5074C9E
:100AB00004F120000AF0F4FE04F110000AF0F0FE48
:100AC0002046BDE810400AF0EBBE00BFB815FF1F7E
:100AD00038B5054CA4F170052046103C0AF0E0FE44
:100AE000AC42F9D138BD00BF4816FF1F10B5094C04
:100AF00004F130000AF0D4FE04F120000AF0D0FE28
:100B000004F110000AF0CCFE2046BDE810400AF0C7
:100B1000C7BE00BF5816FF1F2DE9F041334E3449C0
:100B2000344D354C354FDFF8248130460AF0F8FE5D
:100B300006F1100032490AF0F3FE06F120003149B7
:100B40000AF0EEFE06F130002F490AF0E9FE2A46CF
:100B50002E4900200DF080FD20462D490AF0E0FED0
:100B600004F110002B490AF0DBFE04F120002A49B1
:100B70000AF0D6FE04F1300028490AF0D1FE04F153
:100B8000400027490AF0CCFE04F1500025490AF044
:100B9000C7FE04F1600024490AF0C2FE2A46234938
:100BA00000200DF059FD384621490AF0B9FE07F141
:100BB000100020490AF0B4FE07F120001E490AF097
:100BC000AFFE2A461D4900200DF046FD40461C4957
:100BD0000AF0A6FE08F110001A490AF0A1FE2A4602
:100BE00019490020BDE8F0410DF036BD5816FF1F31
:100BF000744601000C08FF1FE815FF1FB815FF1F02
:100C0000784601008046010088460100ED0A000098
:100C100094460100984601009C460100A046010050
:100C2000A4460100A8460100AC460100D10A00001C
:100C3000B0460100B8460100C0460100AD0A000000
:100C4000C8460100CC460100910A00009816FF1F1B
:100C500010B5054C04F110000AF022FE2046BDE854
:100C600010400AF01DBE00BFA017FF1F10B5074CB3
:100C700004F120000AF014FE04F110000AF010FE46
:100C80002046BDE810400AF00BBE00BFBC16FF1F97
:100C900038B5054CA4F170052046103C0AF000FE62
:100CA000AC42F9D138BD00BF4C17FF1F10B5094C3D
:100CB00004F130000AF0F4FD04F120000AF0F0FD28
:100CC00004F110000AF0ECFD2046BDE810400AF0E7
:100CD000E7BD00BF5C17FF1F2DE9F041334E3449DB
:100CE000344D354C354FDFF8248130460AF018FE7C
:100CF00006F1100032490AF013FE06F120003149D6
:100D00000AF00EFE06F130002F490AF009FE2A46CD
:100D10002E4900200DF0A0FC20462D490AF000FECF
:100D200004F110002B490AF0FBFD04F120002A49D0
:100D30000AF0F6FD04F1300028490AF0F1FD04F153
:100D4000400027490AF0ECFD04F1500025490AF063
:100D5000E7FD04F1600024490AF0E2FD2A46234938
:100D600000200DF079FC384621490AF0D9FD07F141
:100D7000100020490AF0D4FD07F120001E490AF0B6
:100D8000CFFD2A461D4900200DF066FC40461C4957
:100D90000AF0C6FD08F110001A490AF0C1FD2A4602
:100DA00019490020BDE8F0410DF056BC5C17FF1F4B
:100DB000744601000C08FF1FEC16FF1FBC16FF1F36
:100DC000784601008046010088460100AD0C000015
:100DD00094460100984601009C460100A04601008F
:100DE000A4460100A8460100AC460100910C000099
:100DF000B0460100B8460100C04601006D0C00007D
:100E0000C8460100CC460100510C0000A017FF1F8E
:100E100010B5054C04F110000AF042FD2046BDE873
:100E200010400AF03DBD00BFA018FF1F10B5074CD1
:100E300004F120000AF034FD04F110000AF030FD46
:100E40002046BDE810400AF02BBD00BFC017FF1FB1
:100E500038B5054CA4F170052046103C0AF020FD81
:100E6000AC42F9D138BD00BF5018FF1F10B5094C76
:100E700004F130000AF014FD04F120000AF010FD26
:100E800004F110000AF00CFD2046BDE810400AF005
:100E900007BD00BF6018FF1F014B1870704700BFEF
:100EA0001008FF1F08B583680BB9012008BD002199
:100EB0000AF0A6FE6138C0B219288CBF00200120BC
:100EC00008BD00BF08B500210AF09AFEA0F12D036D
:100ED000DBB20C2B03D82F3818BF012008BD00202F
:100EE00008BD00BF40B330B5451EEDB2013585B039
:100EF0000C4601EB051508E02F2A684604F11004A2
:100F000011D00AF0CDFCAC4213D0214668460AF05D
:100F10001BFD002168460AF073FEA0F12D03DBB231
:100F20000C2B0246E8D968460AF0BAFC002005B04E
:100F300030BD012005B030BD012070472DE9F041E2
:100F4000334E3449344D354C354FDFF8248130462B
:100F50000AF0E6FC06F1100032490AF0E1FC06F165
:100F6000200031490AF0DCFC06F130002F490AF07C
:100F7000D7FC2A462E4900200DF06EFB20462D4955
:100F80000AF0CEFC04F110002B490AF0C9FC04F170
:100F900020002A490AF0C4FC04F1300028490AF074
:100FA000BFFC04F1400027490AF0BAFC04F15000EC
:100FB00025490AF0B5FC04F1600024490AF0B0FCB0
:100FC0002A46234900200DF047FB384621490AF004
:100FD000A7FC07F1100020490AF0A2FC07F120004D
:100FE0001E490AF09DFC2A461D4900200DF034FBE5
:100FF00040461C490AF094FC08F110001A490AF016
:101000008FFC2A4619490020BDE8F0410DF024BBB1
:101010006018FF1F744601000C08FF1FF017FF1F28
:10102000C017FF1F78460100804601008846010076
:101030006D0E000094460100984601009C46010098
:10104000A0460100A4460100A8460100AC460100EC
:10105000510E0000B0460100B8460100C046010034
:101060002D0E0000C8460100CC460100110E000004
:10107000A018FF1F10B5054C04F110000AF010FC79
:101080002046BDE810400AF00BBC00BFB419FF1F9A
:1010900010B5074C04F120000AF002FC04F1100026
:1010A0000AF0FEFB2046BDE810400AF0F9BB00BF85
:1010B000C018FF1F38B5054CA4F170052046103C40
:1010C0000AF0EEFBAC42F9D138BD00BF5019FF1F4A
:1010D00010B5094C04F130000AF0E2FB04F12000E5
:1010E0000AF0DEFB04F110000AF0DAFB2046BDE84E
:1010F00010400AF0D5BB00BF7419FF1F38B5C821D6
:101100000C480D4D0D4C0AF0D3FB0D4909480AF06F
:10111000A5FC0C4B0C4A0D49002018701378002BCD
:10112000FCD00B78DB07F9D52B6820681B1A0E2B37
:10113000F4D938BD6419FF1F90980120F09C01205C
:10114000144801006019FF1F749901208C99012037
:1011500010B508E00CF04AFCC4B2214608480AF079
:10116000D1FC0A2C04D00CF07DFC0028F2D110BD7B
:10117000034805F0BBFC034901480AF06FFCF2E7A5
:101180006419FF1F14480100FFF7E2BF2DE9F8437F
:10119000394E3A493A4D3B4C3B4FDFF84091DFF82E
:1011A000408130460AF0BCFB06F1100037490AF0D6
:1011B000B7FB06F1200036490AF0B2FB06F1300019
:1011C00034490AF0ADFB2A46334900200DF044FAB9
:1011D000204632490AF0A4FB04F1100030490AF01D
:1011E0009FFB04F120002F490AF09AFB04F1300024
:1011F0002D490AF095FB04F140002C490AF090FBC0
:1012000004F150002A490AF08BFB04F160002949DF
:101210000AF086FB2A46284900200DF01DFA3846C0
:1012200026490AF07DFB07F1100025490AF078FBFA
:1012300007F1200023490AF073FB2A4622490020C7
:101240000DF00AFA484621490AF06AFB09F110003C
:101250001F490AF065FB2A461E4900200DF0FCF9E3
:10126000404600210AF05CFB2A4640461A49BDE888
:10127000F8430DF0F1B900BF7419FF1F7446010067
:101280000C08FF1FF018FF1FC018FF1F7846010051
:101290008046010088460100D110000094460100FC
:1012A000984601009C460100A0460100A4460100AA
:1012B000A8460100AC460100B5100000B046010090
:1012C000B8460100C046010091100000C846010068
:1012D000CC46010075100000A1B80000B419FF1F32
:1012E0006419FF1F10B5054C04F110000AF0D8FA7C
:1012F0002046BDE810400AF0D3BA00BFB41AFF1F61
:1013000010B5074C04F120000AF0CAFA04F11000ED
:101310000AF0C6FA2046BDE810400AF0C1BA00BF84
:10132000D419FF1F38B5054CA4F170052046103CB8
:101330000AF0B6FAAC42F9D138BD00BF641AFF1FFB
:1013400010B5094C04F130000AF0AAFA04F12000AB
:101350000AF0A6FA04F110000AF0A2FA2046BDE84D
:1013600010400AF09DBA00BF741AFF1F024B0068BC
:101370000A685A6018607047405C0020014B83ED9A
:10138000000A7047BC22FF1F014B83ED000A704723
:101390001408FF1F10B4064A064C074900234FF0FB
:1013A0007E5023601360536008605DF8044B704703
:1013B000405C0020BC22FF1F1408FF1F014B187067
:1013C000704700BF1808FF1F08B505F023FFBDE8F0
:1013D000084006F0A9BA00BF014B1870704700BF63
:1013E0001108FF1F014B1878704700BF1108FF1F3D
:1013F00008B5054B1B7803B908BD05F00BFFBDE828
:10140000084006F091BA00BF1108FF1F05F000BEAA
:1014100030B54B1E2DED028B07EE903A83B0F8EEFF
:10142000E77A02684368009280EE278A0193C0EE53
:10143000A78AA1B10D460024684605F0E9FD0134F4
:10144000A4B2A5429DED007ADDED017A37EE087A6F
:1014500077EEA87A8DED007ACDED017AECD103B06C
:10146000BDEC028B30BD00BF00B583B00023014648
:10147000684600930193FFF7CBFF03B05DF804FBD0
:101480002DE9F0414B1E2DED048B07EE903A9FEDB8
:101490002D7AF8EEE77A86B0054610EE100A8846F7
:1014A00087EE279A0FF018F9002406460F462346C8
:1014B000013407EE903AF8EEE77A67EE897A17EE94
:1014C000900A0FF009F941EC100B41EC180B0DF0EC
:1014D000A3F951EC100BB0EE480AF0EE680ACDE922
:1014E00002010DF0F9F932463B46DDE902018DEDCE
:1014F000000B0FF045F90FF03BFC9DED000B07EEE4
:10150000100AD5ED007A77EE277A3B46324651EC49
:10151000100BCDED047A0FF033F90FF029FCD5ED67
:10152000017A07EE100A77EE277A04A8CDED057A46
:1015300005F06EFDA3B29845BAD206B0BDEC048B9F
:10154000BDE8F081DB0FC94000B583B00023014640
:10155000684600930193FFF793FF03B05DF804FB27
:1015600030B52DED048B9FED198A83B0F0EE608AC3
:10157000F0EE480A1446B0EE409A0D46FFF748FFD9
:10158000684605F035FD2146F0EE680AB0EE480ADF
:101590006846FFF73DFF684605F02AFD2946F0EE54
:1015A000480AB1EE490A6846FFF732FF684605F07F
:1015B0001FFD2146F1EE680AB0EE480A6846FFF7C3
:1015C00027FF03B0BDEC048B30BD00BF000000005E
:1015D00000B5F6EE007A83B020EE677A60EEE77A27
:1015E0000A46014668468DED007ACDED017AFFF797
:1015F000B7FF03B05DF804FB0A46F0EE400AFFF7C0
:10160000AFBF00BF00B5F6EE007A83B060EE677A38
:1016100002460146F0EE400A6846CDED007ACDED77
:10162000017AFFF79DFF03B05DF804FB2DE9F04F51
:101630002DED028B85B0002B40F05F811C46032608
:1016400007EE902AF8EEE77A5D1C80EEA78A520832
:1016500092FBF5F2D2B21FFA82FA07EE905AF8EE38
:10166000E77A05684068009528EE278A0190002AED
:1016700000F0E28010EE109A9B460F46B6B24FF093
:101680000008F1EE408A002C00F0DB8000250135D7
:10169000684605F0BDFCEBB29C42F8D83946DFED58
:1016A000980A00EE109A6846FFF7B2FE02A805F00D
:1016B0009FFC029A039B0092019300250135684626
:1016C00005F0A6FCEBB29C42F8D83146F0EE480A91
:1016D0009FED8B0A6846FFF79BFE02A805F088FC89
:1016E000029A039B0092019300250135684605F09C
:1016F0008FFCEBB29C42F8D83946DFED810AB0EEA0
:10170000680A6846FFF784FE02A805F071FC029A99
:10171000039B0092019300250135684605F078FC93
:10172000EBB29C42F8D83146F0EE480A9FED740ABD
:101730006846FFF76DFE08F1010802A805F058FCA5
:101740001FFA88F3DDED037A029A00925345CDED3E
:10175000017A98D3BBF1000F6ED0B1EE488AB6EE95
:10176000007AE8EE077A4FF00008CDED017A002C00
:1017700000F0958000250135684605F049FCEBB284
:101780009C42F8D83946DFED5E0A00EE109A6846B2
:10179000FFF73EFE02A805F02BFC029A039B009285
:1017A000019300250135684605F032FCEBB29C42FE
:1017B000F8D83146F0EE480A9FED510A6846FFF727
:1017C00027FE02A805F014FC029A039B00920193E5
:1017D00000250135684605F01BFCEBB29C42F8D8A9
:1017E0003946DFED470AB0EE680A6846FFF710FE9B
:1017F00002A805F0FDFB029A039B009201930025CD
:101800000135684605F004FCEBB29C42F8D831463D
:10181000F0EE480A9FED3A0A6846FFF7F9FD08F135
:10182000010802A805F0E4FB1FFA88F30299039A65
:101830000091534501929AD305B0BDEC028BBDE8EF
:10184000F08F3946DFED2E0A00EE109A6846FFF75A
:10185000DFFD02A805F0CCFB029A039B9FED280A4E
:1018600000923146F0EE480A68460193FFF7D0FD3A
:1018700002A805F0BDFB029A039BDFED210A00924E
:101880003946B0EE680A68460193FFF7C1FD02A829
:1018900005F0AEFB029A039B0092019343E73946A1
:1018A000DFED170A00EE109A6846FFF7B1FD02A8B7
:1018B00005F09EFB029A039B9FED110A00923146B0
:1018C000F0EE480A68460193FFF7A2FD02A805F072
:1018D0008FFB029A039BDFED0A0A00923946B0EEB5
:1018E000680A68460193FFF793FD02A805F080FBA4
:1018F000029A039B0092019389E7052426469FE6FE
:101900000000000000B5F6EE007A83B020EE677AA2
:1019100060EEE77A13460A46014668468DED007A86
:10192000CDED017AFFF782FE03B05DF804FB00BF46
:101930002DE9F04F551C07EE905A2DED0A8BF8EE6D
:10194000E78ADFEDC57A80EEA87A89B083460292F5
:101950000C46F7EE00AA27EE27AA68EE808A1AEE58
:10196000100A0EF0B9FEF0EE6A7AEAEE0A7A06463E
:101970000F4617EE900A0EF0AFFE41EC100B41EC53
:10198000190B0DF091F859EC108BB0EE490AF0EEFE
:10199000690A0DF089F8304653EC102B39460EF0E9
:1019A0003DFD41EC100B0CF0F7FF94FBF5F44246C3
:1019B0004B46304639468DED000B0EF0E1FE9DEDB5
:1019C000000B53EC102B0EF029FDDFEDA47A88EE0E
:1019D000A77A06460F46013C17EE100A0EF07CFE71
:1019E00002460B46304639460EF0CAFE0FF0C0F9EB
:1019F00007EE904A06EE900AF8EEE77AB5EEC0AA36
:101A0000F1EE10FA86EEA77AC0F21C814FF00008C2
:101A10004FF0000917EE10AA9FED8D7B9FED908A85
:101A2000DFED90BA8DED007BB6EE00BA11E00EF05E
:101A300053FE41EC100B41EC190B0CF0EDFE8DED5B
:101A4000000BB0EE490AF0EE690A0CF045FF59ECC4
:101A5000108B68EE887A9FED839A67EE8B7A87EE1B
:101A6000AB7A17EE100A0EF037FE0446DBF80400DE
:101A70000D460EF031FE424606460F464B462046C6
:101A800029460EF07DFE02460B46304639460EF0E2
:101A9000C5FC0FF06DF98046DBF800000EF01CFE6F
:101AA000DDE9002306460F46204629460EF068FE73
:101AB00002460B46304639460EF0B0FC0FF058F99E
:101AC000069006A8CDF81C8005F0A2FA50460EF04C
:101AD00003FE044618EE900A0D460EF0FDFDF0EEF2
:101AE0006A7AE8EE087A8046894617EE900A0EF088
:101AF000F3FD41EC100B0CF0D7FF404653EC102BDC
:101B000049460EF03DFE02460B46204629460EF0A1
:101B100061FF0FF02DF907EE900A38EE278AB4EE38
:101B2000C8AAF1EE10FA18EE100A80DA029B002B18
:101B300000F0888038EE498A38EE678AB4EEC98AA8
:101B4000F1EE10FA7EDDCDE90489CDE90245B6EE6D
:101B500000CAF7EE009A5D4668EE887A67EE8C7AE6
:101B600087EE897A17EE100A0EF0B6FD78EE097A44
:101B7000824617EE900A8B460EF0AEFD41EC100B3C
:101B800041EC1A0B0CF048FEB0EE40BAF0EE60BA31
:101B9000B0EE4A0AF0EE6A0A0CF09EFE53EC102BEF
:101BA0006868CDE900230EF097FDDDE900230646C5
:101BB0000F46504659460EF0E3FD02460B463046AE
:101BC00039460EF02BFC0FF0D3F8814628680EF052
:101BD00083FD53EC1B2B06460F46504659460EF02C
:101BE000CFFD02460B46304639460EF017FC0FF08B
:101BF000BFF8069006A8CDF81C9005F009FAF0EEA3
:101C0000697AE8EE087A17EE900A0EF065FD41EC6D
:101C1000100B0CF049FFDDE9040153EC102B0EF022
:101C2000AFFD02460B46DDE902010EF0D3FE0FF0D8
:101C30009FF807EE900A38EE678AB4EEC98AF1EE93
:101C400010FA89DC09B0BDEC0A8BBDE8F08F00BF4B
:101C5000000000000000F03FDB0FC940DB0F4941EE
:101C600000000000DB0F494000B583B000230A46A6
:101C70000146684600930193FFF75AFE03B05DF8F2
:101C800004FB00BF2DE9F041334E3449344D354C4F
:101C9000354FDFF82481304609F042FE06F110008E
:101CA000324909F03DFE06F12000314909F038FEC5
:101CB00006F130002F4909F033FE2A462E49002054
:101CC0000CF0CAFC20462D4909F02AFE04F1100050
:101CD0002B4909F025FE04F120002A4909F020FED5
:101CE00004F13000284909F01BFE04F140002749A7
:101CF00009F016FE04F15000254909F011FE04F127
:101D00006000244909F00CFE2A46234900200CF00B
:101D1000A3FC3846214909F003FE07F110002049D1
:101D200009F0FEFD07F120001E4909F0F9FD2A46E1
:101D30001D4900200CF090FC40461C4909F0F0FDC4
:101D400008F110001A4909F0EBFD2A461949002054
:101D5000BDE8F0410CF080BC741AFF1F744601000E
:101D60000C08FF1F041AFF1FD419FF1F784601003B
:101D7000804601008846010041130000944601009E
:101D8000984601009C460100A0460100A4460100BF
:101D9000A8460100AC46010025130000B046010032
:101DA000B8460100C046010001130000C84601000A
:101DB000CC460100E5120000B41AFF1F0020704756
:101DC000704700BF83791BB9034B20221A6070470C
:101DD000024B20221A60704788F00F4084F00F40B9
:101DE000704700BFC1717047C28A0123037152421C
:101DF0000023C261C3728372C37183714372037221
:101E000003767047704700BF837923B9044B4FF0C6
:101E100080621A607047034B4FF080621A6070470F
:101E200008F10F4004F10F4038B5054CA4F1B0059E
:101E300054F82C3D1B6820469847AC42F8D138BD79
:101E4000681EFF1F38B5054CA4F1900554F8243DD9
:101E50001B6820469847AC42F8D138BDB81DFF1F1B
:101E600038B5054CA4F1900554F8243D1B68204674
:101E70009847AC42F8D138BD141CFF1F38B5054C4B
:101E8000A4F1D00554F8343D1B6820469847AC4275
:101E9000F8D138BDE81CFF1F38B5054CA4F1C005CA
:101EA00054F8303D1B6820469847AC42F8D138BD05
:101EB000281FFF1F38B5054CA4F5807554F8403D28
:101EC0001B6820469847AC42F8D138BD2820FF1F38
:101ED00010B5847990F8220021460AF023FD24B938
:101EE000044B4FF080621A6010BD034B4FF08062CC
:101EF0001A6010BD08F10F4004F10F4010B5002327
:101F000001220271C3728372C371837143720372BF
:101F100004460AF021FDA06210BD00BF10B50023E9
:101F200001220271C3728372C3718371437203729F
:101F300004460AF011FDA06110BD00BF10B50446B3
:101F400089B90AF009FDA3692269C01A904207D92C
:101F500063691A4490428CBF00200120E07110BDDB
:101F60000020E07110BD0AF0F7FCA061E9E700BFB6
:101F700010B5054C04F1100009F092FC2046BDE8B4
:101F8000104009F08DBC00BF6820FF1F10B5074C42
:101F900004F1200009F084FC04F1100009F080FC39
:101FA0002046BDE8104009F07BBC00BF541BFF1F5A
:101FB00038B5054CA4F170052046103C09F070FCC2
:101FC000AC42F9D138BD00BF401BFF1F10B5094C12
:101FD00004F1300009F064FC04F1200009F060FC19
:101FE00004F1100009F05CFC2046BDE8104009F047
:101FF00057BC00BF2820FF1F10B5044B044640F813
:102000001C3B09F04DFC204610BD00BFDC47010021
:1020100010B5044B044640F8203B09F041FC204633
:1020200010BD00BFA847010010B5044B044640F89E
:10203000103B09F035FC204610BD00BF40470100B1
:1020400010B5044B044640F8103B09F029FC20462B
:1020500010BD00BF7447010010B5044B044640F8A2
:10206000103B09F01DFC204610BD00BF0C470100CD
:1020700010B5044690F822000AF05AFC003018BF50
:102080000120E07110BD00BF10B50446006808B122
:102090000AF0D6F8204610BD70B50D468CB0044647
:1020A000164904A809F03CFC0A222969684609F08F
:1020B000A5FC694604A809F035FD114909F03AFD6F
:1020C0000A220646696908A809F098FC08A9304662
:1020D00009F028FD0B4909F02DFD0146204609F0C5
:1020E00033FC08A809F0DCFB684609F0D9FB04A81A
:1020F00009F0D6FB20460CB070BD00BF0C480100B3
:10210000104801001848010070B50C4690B0054613
:102110002349684609F004FC224B217C684603EB06
:10212000011109F0FFFC204909F004FD0A220646CE
:10213000618A04A809F03AFC04A9304609F0F2FCCF
:102140001A4909F0F7FC0A220646A18A08A809F0F4
:102150002DFC08A9304609F0E5FC154909F0EAFC18
:102160000A220646E18A0CA809F020FC0CA9304698
:1021700009F0D8FC0F4909F0DDFC0146284609F0BA
:10218000E3FB0CA809F08CFB08A809F089FB04A864
:1021900009F086FB684609F083FB284610B070BD45
:1021A0001C480100541BFF1F244801003048010057
:1021B000384801007046010030B50D4689B004462C
:1021C0000E4904A809F0ACFB95F82210684609F006
:1021D000D9FB694604A809F0A5FC094909F0AAFC45
:1021E0000146204609F0B0FB684609F059FB04A8F7
:1021F00009F056FB204609B030BD00BF444801003D
:102200007046010030B50D4689B004460E4904A859
:1022100009F086FB95F82210684609F0B3FB694681
:1022200004A809F07FFC094909F084FC0146204616
:1022300009F08AFB684609F033FB04A809F030FB7B
:10224000204609B030BD00BF44480100704601007F
:1022500070B50D4688B004461349684609F060FB26
:10226000124B6979684603EB011109F05BFC1049D8
:1022700009F060FC0A220646696A04A809F0BEFB60
:1022800004A9304609F04EFC0A4909F053FC014606
:10229000204609F059FB04A809F002FB684609F042
:1022A000FFFA204608B070BD4C4801006820FF1FAF
:1022B000544801001848010070B588B004460D4626
:1022C00068461C3109F040FB68460E4909F032FCB3
:1022D00095F82D10064604A809F054FB04A93046D1
:1022E00009F020FC084909F025FC0146204609F0C8
:1022F0002BFB04A809F0D4FA684609F0D1FA20466D
:1023000008B070BD44460100A84A010070B588B00D
:1023100004460D466846203109F016FB68460E4912
:1023200009F008FC95F83110064604A809F02AFBCC
:1023300004A9304609F0F6FB084909F0FBFB014609
:10234000204609F001FB04A809F0AAFA684609F042
:10235000A7FA204608B070BD44460100A84A010013
:1023600070B588B004460D466846103109F0ECFAA5
:1023700068460E4909F0DEFB95F82110064604A8D0
:1023800009F000FB04A9304609F0CCFB084909F02C
:10239000D1FB0146204609F0D7FA04A809F080FADB
:1023A000684609F07DFA204608B070BD4446010039
:1023B000A84A010070B588B004460D466846103141
:1023C00009F0C2FA68460E4909F0B4FB95F82110ED
:1023D000064604A809F0D6FA04A9304609F0A2FB83
:1023E000084909F0A7FB0146204609F0ADFA04A808
:1023F00009F056FA684609F053FA204608B070BD55
:1024000044460100A84A010070B588B004460D4654
:102410006846103109F098FA68460E4909F08AFBBF
:1024200095F82110064604A809F0ACFA04A9304634
:1024300009F078FB084909F07DFB0146204609F0C8
:1024400083FA04A809F02CFA684609F029FA204614
:1024500008B070BD44460100A84A010010B5064B03
:10246000044640F81C3B09F01BFA2046302109F0D5
:10247000E9FE204610BD00BFDC47010010B5064B49
:10248000044640F8203B09F00BFA2046342109F0BD
:10249000D9FE204610BD00BFA847010010B5064B6D
:1024A000044640F8103B09F0FBF92046242109F0CE
:1024B000C9FE204610BD00BF4047010010B5064BC5
:1024C000044640F8103B09F0EBF92046242109F0BE
:1024D000B9FE204610BD00BF7447010010B5064B81
:1024E000044640F8103B09F0DBF920462C2109F0A6
:1024F000A9FE204610BD00BF0C47010010B5094AD7
:10250000094913780446012084F8200084F821301A
:10251000034404F11000137009F098FA002363716A
:1025200010BD00BFB816FF1FF01AFF1F10B50B4AF1
:102530000B4913780446032084F8200084F82130E6
:1025400004F110000133137009F080FA94F82200AE
:102550000121BDE810400AF0F9B900BF9C17FF1F28
:10256000101BFF1F08B5154B18780AF0E1F9144B42
:10257000003018BF012018701B78124873B1FEF7A5
:102580006BF91148FEF768F91048FEF765F9104835
:10259000FEF762F90F4B20221A6008BDFEF7FAF829
:1025A0000948FEF7F7F80948FEF7F4F80848FEF77F
:1025B000F1F8094B20221A6008BD00BF8820FF1FD8
:1025C0008920FF1F281FFF1F681FFF1FA81FFF1F55
:1025D000E81FFF1F84F00F4088F00F4010B5014640
:1025E00084B00446074809F013F92146684609F00B
:1025F000ABF96946044809F00BF9684609F050F94F
:1026000004B010BDF009FF1FE81CFF1F10B5044601
:102610000AF0A2F9A36A626AC01A904208D9237A22
:1026200083F0010363720AF097F9637AA062E371A1
:1026300010BD00BF037CC1720022012BC27123D0E8
:102640001CD3022B13D1837A8B4216D0037E7BB925
:10265000C269418A8A421DDB0122C3610276828AF5
:102660009A4208DC002201230276C37104E070471D
:10267000012BC369F3D00133C3617047837A002B08
:10268000FBD10029E2D17047837A002BF5D00029D5
:10269000F3D1DBE701215318C171EDE710B5144AFE
:1026A000144913780446052084F8300084F831304A
:1026B00004F120000133137009F0C8F900232268E7
:1026C000237411690C48A38201228142E3822272A1
:1026D000628209D1E372A372E371A3716372237200
:1026E0002271E361237610BD2046BDE81040084703
:1026F000BA16FF1F301BFF1FE91D000010B5124A5C
:10270000124913780446062084F82C0084F82D30F2
:1027100004F11C000133137009F098F923680C4A86
:102720001B6993420CD100230122E372A372E3716F
:10273000A3716372237222710AF00EF9A06110BDB9
:102740002046BDE810401847BB16FF1F401BFF1F67
:102750001D1F000070B5134A1349137880F821300B
:1027600004460225013380F820501030137009F020
:102770006DF9294694F822000AF0E8F823680B4A1C
:102780001B69934209D100230122E372A372E37112
:10279000A37163722372227170BD2046BDE8704040
:1027A000184700BFB916FF1F001BFF1F7104000070
:1027B000014B024A1A6070470CED00E00400FA0574
:1027C0002DE9F04188460121144607460AF0BEF87B
:1027D0000AF0C2F8B8F1000F1ED0054664080026C2
:1027E000012138460AF09EF80AF0B6F8401B8442F0
:1027F000FAD80AF0B1F80021054638460AF092F8F6
:102800000AF0AAF8401B8442FAD80AF0A5F801366B
:10281000F6B2B0450546E3D1BDE8F0810A4601466F
:102820001820FFF7CDBF00BF024B1B7803B97047DC
:10283000FFF7D4BE1008FF1F08B5044B18780AF044
:1028400077F8003018BF012008BD00BF8820FF1FA7
:1028500070B5064C064604F1840554F82C3F314609
:10286000DB6820469847AC42F7D170BDB81DFF1F0A
:102870002DE9F843124EDFF84C8006F1840700255D
:102880004FF00109344656F82C3F1B69434514D1DB
:1028900084F8375084F8365084F8335084F8325036
:1028A00084F8355084F8345084F830900AF054F8A5
:1028B0006065BE42E6D1BDE8F88330469847F8E748
:1028C000B81DFF1FFD1E000070B5064658B1074B2E
:1028D00093E83000AC4206D054F8040B03681B693F
:1028E0009847A542F8D1024B1E7070BDD41AFF1F45
:1028F000501BFF1F38B5064B93E83000AC4206D0A2
:1029000054F8040B03681B699847A542F8D138BDF9
:10291000D41AFF1F0138052804D8DFE800F0050CA1
:10292000141C222900207047154801F003032C22B3
:1029300002FB03007047134B01F0030101EBC101DF
:1029400003EB81007047104B01F0030101EBC10163
:1029500003EB810070470D4B01F0030103EB811085
:1029600070470B4801F00301342303FB010070475B
:10297000084B01F0030101EB410103EB011070472B
:10298000B81DFF1F841BFF1F281DFF1F281FFF1FCF
:10299000181CFF1F681EFF1F30B4074C25686168B4
:1029A0008D4206D02B46002053F8042B9942D0606C
:1029B000FAD1656030BC7047D41AFF1F234B1B78D7
:1029C000002B41D02DE9F047DFF8888098E86000BF
:1029D000B5422DD01E4FDFF880A04FF000090FE068
:1029E00062795AB1E16801B189791B6A204698473A
:1029F0002379FBB9236820465B6A9847AE4209D029
:102A000055F8044B2368DA69BA42E9D0204690476A
:102A1000AE42F5D198E82400AA4209D052F8043B0E
:102A2000DC79D87A597A9C71954298721972F5D1ED
:102A3000BDE8F087236884F804909A6A5245E5D18E
:102A40005B6A20469847D9E7704700BF501BFF1FBD
:102A50008D060000D41AFF1F850400002DE9F04FF9
:102A6000474F83B0054609F077FF3B680093044663
:102A7000DDF8008004F07AFF814600287CD1002137
:102A8000422009F0F9FC0021432009F0F5FC09F08F
:102A900063FF001BB0F5967FF9D309F05DFF4FF49B
:102AA0007A7606FB05FB044641F218053B68019364
:102AB000019BC8EB03035B454CD24FF0000A514623
:102AC000432009F0D9FC09F047FF001B6328FAD91D
:102AD00009F042FF0AF1280AAA450446EFD14FF057
:102AE000000A5146422009F0C7FC09F035FF001BDF
:102AF0006328FAD909F030FF0AF1280AAA450446EA
:102B0000EFD14FF47F66A6F1280A1FFA8AF6314604
:102B1000432009F0B1FC09F01FFF001B6328FAD91C
:102B200009F01AFF0446002EEDD14FF47F66A6F19E
:102B3000280A1FFA8AF63146422009F09DFC09F066
:102B40000BFF001B6328FAD909F006FF0446002E8C
:102B5000EDD1ABE740F2FF71422009F08DFC40F26D
:102B6000FF71432009F088FCB9F1000F01D004F097
:102B70007BFE03B0BDE8F08F04F0D6FE7FE700BF18
:102B800090980120FFFFFFFF2DE9F04F2DED048B02
:102B900085B0054604F0EAFE824600287BD1DFF8C6
:102BA00020B19FED459A09F0D7FEDBF80030029383
:102BB000029B00934FF47A7303FB05F304460193E1
:102BC000DBF800300393009A039B9B1A019A93420F
:102BD0004FD2DFF8E890002600274FF000080025CC
:102BE0000022364B404649460DF018FC30A3D3E98D
:102BF00000230DF0C5FD0EF09BF881B2422009F0D4
:102C00003BFC00222D4B304639460DF007FC28A333
:102C1000D3E900230DF0B4FD0EF08AF881B2432011
:102C200009F02AFC09F098FE001B6328FAD909F084
:102C300093FE0135B5F5B47F0446C1D007EE905A36
:102C4000F8EEE77A67EE897A17EE900A0DF044FD08
:102C500041EC100B41EC180B0BF0DEFD59EC108B26
:102C6000B0EE480AF0EE680A0BF036FE57EC106B37
:102C7000B6E740F2FF71422009F0FEFB40F2FF711F
:102C8000432009F0F9FBBAF1000F07D105B0BDEC04
:102C9000048BBDE8F08F04F047FE80E704F0E4FD0C
:102CA00005B0BDEC048BBDE8F08F00BFAFF3008032
:102CB0000000000000FC9F4035FA8E3C0000F03F11
:102CC000909801202DE9F04782B0054604F04EFEB1
:102CD0000746002852D1DFF8B48009F03DFED8F84D
:102CE000003000934FF47A76DDF8009006FB05F68D
:102CF000044641F21805D8F800300193019BC9EB56
:102D00000303B34240F2FF714FF042002BD209F0AF
:102D1000B3FB4FF0000A5146432009F0ADFB09F028
:102D20001BFE001B6328FAD909F016FE0AF1280AD7
:102D3000AA450446EFD140F2FF71432009F09CFB05
:102D40004FF0000A5146422009F096FB09F004FEBC
:102D5000001B6328FAD909F0FFFD0AF1280AAA45E9
:102D60000446EFD1C7E709F087FB40F2FF7143202B
:102D700009F082FB2FB902B0BDE8F08704F0D4FD62
:102D8000A9E704F071FD02B0BDE8F087909801203A
:102D90002DE9F8434468D0F80080C8EB0405AD1075
:102DA0000646894605D06B009D4229D96FF0030580
:102DB00000E00425284609F041FA7468D6F800803E
:102DC0000746C8EB0404D9F80030E74218BF3B516E
:102DD000A3080DD104343C44B8F1000F02D04046A2
:102DE00009F02EFA3D44B56037607460BDE8F883A1
:102DF00022464146384604340EF0A0FB3C44EEE740
:102E0000B3F1804FD2D213B91D461F46D9E7ED006A
:102E1000D0E700BF10B582B00190D8B1114C236843
:102E200061688B420DD01A68824218BF043303D107
:102E300010E0126890420DD099421A4603F1040343
:102E4000F7D1A368074A994206D009B108605168D2
:102E50000431616002B010BD104601A9FFF798FF70
:102E6000F8E700BFD41AFF1F2DE9F047D549D6482F
:102E7000D64CDFF828A4D64FDFF8249482B008F0AF
:102E80004FFDD449D44808F04BFDD449D44808F04C
:102E900047FDD449D44808F043FDD44AD449002022
:102EA0000BF0DAFBD349D44808F03AFDD349D448B3
:102EB00008F036FDD349D44808F032FDD349D44850
:102EC00008F02EFDD349D44808F02AFDD349D44850
:102ED00008F026FDD349D44808F022FDC34AD3495F
:102EE00000200BF0B9FBD249D24808F019FDD249B5
:102EF000D24808F015FDD249D24808F011FDBB4A6E
:102F0000D14900200BF0A8FBD049D14808F008FDBA
:102F1000D049D14808F004FDB44AD04900200BF054
:102F20009BFB04F1B0080126002504F80B6C04F8A3
:102F30000C6C44F810AC44F8045C04F8055C04F82C
:102F4000065C04F8095C04F80A5C04F8075C04F801
:102F5000085C2946204608F0E3FC3B78C4F814904E
:102F6000267463745A1C2046A5493A702C3408F024
:102F70006DFD04F8375C4445D6D19C4AB849B94C3C
:102F8000DFF82083B84F28460BF066FB04F1900968
:102F9000012604F80B6C44F8045C04F8055C04F8A2
:102FA000065C04F8095C04F80A5C04F8075C04F8A1
:102FB000085C04F80C6C44F8108C0021204608F0E2
:102FC000AFFC3B7863744FF0160E032284F812E0D6
:102FD000227401338E493B70204608F037FD2434BB
:102FE00014F8120C012109F0B1FC4C45D1D17F4AF3
:102FF0009E499F4CDFF8B0929E4F00200BF02CFBB7
:1030000004F190080126002504F80B6C44F8045CD8
:1030100004F8055C04F8065C04F8095C04F80A5C32
:1030200004F8075C04F8085C04F80C6C44F8109C85
:103030000021204608F074FC3B78637417224FF09F
:10304000020AA274013384F810A06F493B70204635
:1030500008F0FCFCA07C514609F078FC243404F80C
:10306000295C04F82A5C04F82D5C04F82E5C04F852
:103070002B5C04F82C5C04F8306C4445C4D15B4AEA
:103080007D497E4CDFF824927D4F00200BF0E4FA5E
:1030900004F1D0080126002504F81B6C44F8145CE8
:1030A00004F8155C04F8165C04F8195C04F81A5C62
:1030B00004F8175C04F8185C04F81C6C44F8209CB5
:1030C0000021204608F02CFC3B7863740522227412
:1030D0000133204652493B70343408F0B7FC04F801
:1030E000445C24F8426C24F8405C24F83E5C04F80C
:1030F000495C04F84A5C04F84D5C04F84E5C04F842
:103100004B5C04F84C5C04F8506C44F8385C04F8F0
:103110003C5CA045C0D1354A5A495B4CDFF89091E0
:103120005A4F00200BF098FA04F1C0080126002540
:103130004CF250334FF0000A44F8083C04F8176C86
:1031400044F8105C04F8115C04F8125C04F8155C97
:1031500004F8165C04F8135C04F8145C04F8186CAA
:1031600044F81C9C44F80C5C5146204608F0D8FBFF
:103170003B7863740622227401332B493B7020464E
:1031800008F064FC04F8115C04F8125C04F8155CA7
:1031900004F8165C04F8135C04F8145C04F8186C6A
:1031A00009F0DAFB303444F8340C4445C0D10F4AFE
:1031B0003749384C50460BF04FFA374B0B4AC3F89F
:1031C00000A077E0744601002820FF1FC81DFF1FE4
:1031D000B816FF1F784601003820FF1F8046010007
:1031E0004820FF1F884601005820FF1F0C08FF1FC2
:1031F000CD1F000094460100E01AFF1F9846010011
:10320000F01AFF1F9C460100001BFF1FA046010093
:10321000101BFF1FA4460100201BFF1FA846010032
:10322000301BFF1FAC460100401BFF1FB11F0000F9
:10323000B0460100541BFF1FB8460100641BFF1F6E
:10324000C0460100741BFF1F8D1F0000C84601000F
:103250006820FF1FCC4601007820FF1F711F00006F
:10326000291E0000381DFF1F9C17FF1F451E000070
:10327000941BFF1FB916FF1F611E0000381CFF1FA3
:10328000BA16FF1F7D1E0000841EFF1FBB16FF1F06
:10329000991E00008C20FF1FD41AFF1F0C4701004D
:1032A000A08601007447010040470100A8470100C3
:1032B000DC470100C3F804A0C3F808A0184612496F
:1032C0000BF0CAF91148FDF707FA1148FDF704FAA7
:1032D0001048FDF701FA1048FDF7FEF90F4A1049B2
:1032E00050460BF0B9F940F2FF7519230093CDF861
:1032F00004A01A231C221B21A5806581094807F020
:10330000B1F902B0BDE8F08789200000281FFF1F37
:10331000681FFF1FA81FFF1FE81FFF1F0C08FF1FCC
:10332000B51E0000E81CFF1F10B50E4C0221204600
:1033300007F040FC2046002107F05EF920460522F8
:10334000002105F0B9F820464FF6FF7105F0BEF8F0
:103350002046012105F0BEF820460021BDE81040BE
:1033600005F0AEB8E81CFF1F38B50E4B1C780134D1
:1033700004F00F0405461C7044B921460A4807F0C2
:103380003BF921460522084805F096F829460648EB
:1033900008F03EFA012205490348BDE8384008F02C
:1033A00021BA00BF141CFF1FE81CFF1F604801006A
:1033B00030B50B4D85B001460446284608F028FA82
:1033C000284608F04BFA2146684608F0BDFA6846E0
:1033D000FFF7CAFF684608F063FA05B030BD00BFCA
:1033E000F009FF1F024B1B7803B97047FFF7E0BFDE
:1033F0001008FF1F10B5012184B01E4C0D2009F0EC
:10340000A5FA202323600121182009F09FFA1A4B06
:103410004FF080621A600121162009F097FA02210C
:10342000172009F093FA012323609FED140A10205E
:1034300009F0D2F90C2009F0BFF9114B114A1249D9
:103440004FF48070186013684024234313600A20EF
:103450000C6009F0A5FA68460C4908F061FA0C4BBB
:103460001B7813B16846FFF7A3FF684608F018FA07
:1034700004B010BD88F00F4008F10F4000E87D4710
:1034800018D0044014F10F4004F10F4064480100CB
:103490001008FF1F10B50E23134C184684B00221EC
:1034A000237009F053FA207809F042FA0F4B0030EC
:1034B00018BF012018701B788BB10D4B20221A60A9
:1034C00068460C4908F02CFA0B4B1B7813B1684680
:1034D000FFF76EFF684608F0E3F904B010BD074B34
:1034E00020221A60ECE700BF8820FF1F8920FF1F01
:1034F00084F00F40744801001008FF1F88F00F404F
:103500002DE9F043A44BA54A1978A54BA54D95B0DC
:10351000002914BF11461946684608F001FAA2496D
:103520000CA808F0FDF969460CA808F0FBFA014662
:1035300010A808F009FA2B78002B40F0B2819B4EBE
:1035400010A808F0ADF90CA808F0AAF97268336861
:103550009A4200F0948196490CA808F0E1F996E8A7
:103560000A00591A0A22891008A808F033FA08A993
:103570000CA808F0D7FA8F4908F0DCFA014610A829
:1035800008F0E2F92B78002B40F0A38110A808F096
:1035900087F908A808F084F90CA808F081F996E8E2
:1035A00009001B1A9B10012B67D0002214461746F6
:1035B0000DF110083BE010A808F072F908A808F017
:1035C0006FF90CA808F06CF9336853F809100B6810
:1035D00040465B69984741460CA808F0B5F9336846
:1035E00053F809100B6808A89B69984708A90CA80C
:1035F00008F098FA014610A808F0A6F92B78002BDD
:1036000037D110A808F04CF908A808F049F90CA81F
:1036100008F046F9404608F043F996E809001B1AFD
:1036200001349B10E4B2013B9C42224628D250F860
:1036300022306149DB680CA84FEA82090BB10137DF
:10364000FFB208F06DF9214608A808F09BF908A917
:103650000CA808F067FA594908F06CFA014610A85E
:1036600008F072F92B78002BA5D010A8FEF7B6FF52
:10367000A1E710A8FFF79CFEC3E700270DF1100893
:103680004D490CA808F04CF996E80A00591A0A228C
:10369000891008A808F09EF908A90CA808F042FAB9
:1036A000464908F047FA014610A808F04DF92B7872
:1036B000002B40F00A8110A808F0F2F808A808F0E2
:1036C000EFF80CA808F0ECF8736853F8041C0B68CA
:1036D00040465B69984741460CA808F035F9736885
:1036E00053F8041C0B6808A89B69984708A90CA804
:1036F00008F018FA014610A808F026F92B78002BDC
:1037000040F0DF8010A808F0CBF808A808F0C8F84F
:103710000CA808F0C5F8404608F0C2F8284910A8DF
:1037200008F0FEF82B78002B40F0C78010A808F0B6
:10373000B7F8244910A808F0F3F82B78002B40F0D4
:10374000B88010A808F0ACF81F490CA808F0E8F8F9
:10375000394608A808F016F908A90CA808F0E2F9FB
:103760001A4908F0E7F9014610A808F0EDF82B789F
:10377000002B40F09A8010A808F092F808A808F0F2
:103780008FF80CA808F08CF896E80802994500F02C
:1037900082809846012445E0501BFF1F2C500100F9
:1037A000844801001008FF1F88480100D41AFF1F39
:1037B000B8480100C8480100D8480100D84E0100AF
:1037C000E048010014480100E4480100F848010005
:1037D00010A808F065F808A808F062F80CA808F02E
:1037E0005FF83B6839465B6910A898472B78002B37
:1037F0003DD110A808F054F8384910A808F090F806
:103800002B78002B37D110A808F04AF833683146DE
:103810005B6910A898472B782BBB10A808F040F8DC
:10382000C14538D058F8046BF768002FF8D02C4900
:103830000CA808F075F8631C214608A8DCB208F053
:10384000A1F808A90CA808F06DF9264908F072F94A
:10385000014610A808F078F82B78002BB8D010A8F3
:10386000FEF7BCFEB4E710A8FFF7A2FDD5E710A84D
:10387000FEF7B4FEBDE710A8FEF7B0FEC3E71A4995
:1038800010A808F04DF82B7813B110A8FFF790FDA1
:1038900010A808F005F8684608F002F815B0BDE871
:1038A000F08310A8FFF784FD49E610A8FFF780FD1C
:1038B00061E710A8FFF77CFD43E710A8FFF778FD4C
:1038C00034E710A8FEF78AFE1CE710A8FEF786FE74
:1038D000F1E610A8FFF76CFD58E600BF0C490100A7
:1038E000D8480100D84E0100A0480100F0B59FED76
:1038F000250A254E254D264F85B0052008F06CFF82
:103900009FED240A232008F067FF002423220521CD
:1039100038194034FCF71EFFB4F5807F04D016F848
:10392000011F15F8012FF3E71B4B187809F000F879
:10393000D0B11748FCF790FF1848FCF78DFF1848E6
:10394000FCF78AFF1748FCF787FF6846164907F01F
:10395000E7FF164B1B7813B16846FFF729FD684651
:1039600007F09EFF05B0F0BD0948FCF713FF0B48B8
:10397000FCF710FF0A48FCF70DFF0A48FCF70AFFA6
:10398000E3E700BF00B88847D849010008480100B4
:10399000281FFF1F005043488820FF1F681FFF1F7C
:1039A000A81FFF1FE81FFF1F144901001008FF1F79
:1039B0002DE9F04F634895B00446FCF7B7FF04F1DA
:1039C0004000FCF7B3FF04F18000FCF7AFFF04F107
:1039D000C000FCF7ABFF04F58076254628460021A1
:1039E0004035FCF70FFFAE42F8D1DFF88091564F1B
:1039F000D9F80030019310A85449019B07F090FFBB
:103A00003B7813B110A8FFF7D3FC10A807F048FFCC
:103A10004F4EDFF8588100254E495FFA85FA0CA811
:103A200007F07EFF514608A807F0ACFF08A90CA8D4
:103A300008F078F8484908F07DF8314608F072F847
:103A4000464908F077F8014610A807F07DFF3B785B
:103A5000002B73D110A807F023FF08A807F020FF60
:103A60000CA807F01DFF514610A807F08BFF3B780C
:103A7000002B5FD110A807F013FF01212046FCF7AF
:103A8000A1FE4FF0000B41F2040A59462046FCF714
:103A9000ADFED9F800300293029AD9F800300393B2
:103AA000039B9B1A312BF8D90BF1640B1FFA8BFB8C
:103AB000D345EAD140F6FF7A1FFA8AFA51462046EA
:103AC000FCF794FED9F800300493049AD9F800303A
:103AD0000593059B9B1A312BF8D9AAF1640A0FFABA
:103AE0008AFA1AF1050FE7D100212046FCF76AFE99
:103AF000D8F800300693069AD9F800300793079B50
:103B00009B1AB3F5FA7FF7D30135042D06F11006A1
:103B100004F1400480D10B48FCF7A8FE1048FCF7E4
:103B2000A5FE1048FCF7A2FE0F48FCF79FFE15B05B
:103B3000BDE8F08F10A8FFF73BFC9BE710A8FEF74D
:103B40004DFD87E7281FFF1F1008FF1F24490100B4
:103B50002820FF1F38490100484901004C46010058
:103B6000681FFF1FA81FFF1FE81FFF1F909801205D
:103B700030B59FED180A184C85B01D2008F02CFEBA
:103B80000C2008F019FEA38840F6FF75AB42A8BFD1
:103B90002B461D22194610462380A27008F06CFCAB
:103BA0006389AB42A8BF2B461E2219461046E3800C
:103BB000227208F061FC6846084907F0B1FE084B24
:103BC0001B7813B16846FFF7F3FB684607F068FE01
:103BD00005B030BD00E87D478C20FF1F4C49010037
:103BE0001008FF1F00B540F2FF7185B0422008F0B9
:103BF00043FC40F2FF71432008F03EFC6846074951
:103C000007F08EFE064B1B7813B16846FFF7D0FB1A
:103C1000684607F045FE05B05DF804FB88490100E1
:103C20001008FF1F10B5FE2184B0104804F01AFDE3
:103C30006C4658B968460E4907F072FE0D4B1B786A
:103C400063B9204607F02CFE04B010BD68460A494F
:103C500007F066FE074B1B78002BF2D02046FFF7DB
:103C6000A7FB204607F01CFE04B010BD08960120FB
:103C70009C4901001008FF1FBC49010008B5FFF76F
:103C800053FBFFF7B7FBFFF773FFFFF703FCFFF7EB
:103C90002DFE064B06491878042208F05FFBFFF75B
:103CA000A1FFBDE80840FFF7BDBF00BF8820FF1F90
:103CB000652500002DE9F043504F91B081460E4636
:103CC00068460122494604F0EDFD684604F0C2FC56
:103CD000002800F08C80DFF82481A6B1002408AD14
:103CE00006E001342846E4B207F0DAFDA6420BD024
:103CF0000921284607F096FE3B78002BF1D0284694
:103D0000FEF76CFCEDE708AD684604F087FC014661
:103D1000284607F005FE98F80030002B57D12846BA
:103D200007F0BEFD684604F07BFC002836D034491D
:103D3000284607F0F5FD98F80030002B4BD12846B7
:103D400007F0AEFD10AB9DF804C053F8331DCDF85D
:103D50002D105C68187BD3F80880029A9DF80CE05F
:103D6000CDF83140711C079B8DF83900C9B2284647
:103D7000244CCDF835808DF824C00A928DF82CE0C3
:103D800008940F93FFF796FF284604F045FC684619
:103D900004F052FC684604F03FFC91E71A492846BB
:103DA00007F0BEFD98F80030EBB9284607F078FD23
:103DB000684604F03DFC0A220146284607F01EFE34
:103DC00098F800305BB9284607F06AFDDFE728461F
:103DD000FEF704FCA3E72846FFF7EAFAAFE7284618
:103DE000FFF7E6FAEFE72846FEF7F8FBDDE768465F
:103DF00004F012FC11B0BDE8F08300BF1008FF1FF3
:103E0000D0490100B0550100D449010010B5054C5E
:103E100004F1100007F044FD2046BDE8104007F013
:103E20003FBD00BF7821FF1F10B5074C04F12000F3
:103E300007F036FD04F1100007F032FD2046BDE822
:103E4000104007F02DBD00BF9820FF1F38B5054C6E
:103E5000A4F170052046103C07F022FDAC42F9D1D8
:103E600038BD00BF2821FF1F10B5094C04F13000F8
:103E700007F016FD04F1200007F012FD04F1100018
:103E800007F00EFD2046BDE8104007F009BD00BF59
:103E90003821FF1F00B585B0FDF730F9FFF7EEFEC2
:103EA00003F060FC0849684607F03AFD6846FFF7F2
:103EB00099FA684607F0F4FC04490420FEF7AEFCCA
:103EC00005B05DF804FB00BFDC49010090D00300A1
:103ED00008B5FDF759F9BDE80840FEF76FBD00BF12
:103EE0002DE9F041334E3449344D354C354FDFF830
:103EF0002481304607F014FD06F11000324907F026
:103F00000FFD06F12000314907F00AFD06F13000EF
:103F10002F4907F005FD2A462E4900200AF09CFB98
:103F200020462D4907F0FCFC04F110002B4907F056
:103F3000F7FC04F120002A4907F0F2FC04F13000FC
:103F4000284907F0EDFC04F14000274907F0E8FCA0
:103F500004F15000254907F0E3FC04F16000244916
:103F600007F0DEFC2A46234900200AF075FB38469C
:103F7000214907F0D5FC07F11000204907F0D0FCDB
:103F800007F120001E4907F0CBFC2A461D490020FE
:103F90000AF062FB40461C4907F0C2FC08F1100021
:103FA0001A4907F0BDFC2A4619490020BDE8F04136
:103FB0000AF052BB3821FF1F744601000C08FF1F96
:103FC000C820FF1F9820FF1F78460100804601008F
:103FD00088460100693E00009446010098460100B1
:103FE0009C460100A0460100A4460100A84601002D
:103FF000AC4601004D3E0000B0460100B84601004D
:10400000C0460100293E0000C8460100CC46010020
:104010000D3E00007821FF1F10B5054C04F1100083
:1040200007F03EFC2046BDE8104007F039BC00BF59
:104030009822FF1F10B5074C04F1200007F030FC58
:1040400004F1100007F02CFC2046BDE8104007F0FA
:1040500027BC00BFA821FF1F38B5054CA4F170058F
:104060002046103C07F01CFCAC42F9D138BD00BF23
:104070003822FF1F10B5094C04F1300007F010FC86
:1040800004F1200007F00CFC04F1100007F008FC1C
:104090002046BDE8104007F003BC00BF5822FF1FB8
:1040A00008F040BC30B585B001460446684607F0CC
:1040B0004BFC6846FCF706FF0546684607F0F0FB38
:1040C0008DB90D49204607F077FD10B1012005B0EC
:1040D00030BD2046094907F06FFDB0FA80F0400975
:1040E000404205B030BD204607F0AEFD0028D4BFE9
:1040F0000020012005B030BDCC460100C8460100BB
:10410000F0B585B001460646684607F01DFC6846D6
:10411000FCF7D8FE0446684607F0C2FBD4B9314626
:10412000684607F011FC6846FCF7BCFE0546684689
:1041300007F0B6FB55B10B4D2946304607F02EFD72
:1041400067B21035013410B9072CF5D10027384675
:1041500005B0F0BD304607F077FD47B2384605B0F0
:10416000F0BD00BFD821FF1FF0B585B0014606465F
:10417000684607F0E9FB6846FCF7A4FE044668467B
:1041800007F08EFBDCB93146684607F0DDFB684678
:10419000FCF788FE0546684607F082FB55B10B4DDB
:1041A0002946304607F0FAFC67B21035013418B9D9
:1041B000042CF5D14FF0FF37384605B0F0BD30463E
:1041C00007F042FD47B2384605B0F0BD5822FF1F48
:1041D000F0B585B001460646684607F0B5FB68466F
:1041E000FCF770FE0446684607F05AFBDCB931461E
:1041F000684607F0A9FB6846FCF754FE054668468A
:1042000007F04EFB55B10B4D2946304607F0C6FC72
:1042100067B21035013418B9032CF5D14FF0FF37D0
:10422000384605B0F0BD304607F00EFD47B23846BF
:1042300005B0F0BDA821FF1F30B50C4691B0334941
:104240000546204607F050FC3149684607F068FBF8
:104250002146684607F066FC014608A807F074FB93
:1042600008A8FFF7BFF808A807F01AFB684607F090
:1042700017FB684604F0C2F92268264908A8012302
:1042800004F09CFA0A9A9DF82C309DF824100292B2
:104290008DF80C308DF804100BAA0DF10D030DF103
:1042A0001A0012F8011F03F8011B8342F9D10F9B7A
:1042B000079308A804F0B0F9174908A807F030FBE5
:1042C000684604F0C7F938B91BE0684604F02EF9D7
:1042D000C1B208A807F016FC684604F009F90028E6
:1042E000F3D1684604F0A8F908A9284607F0C6FAF1
:1042F00008A807F0D5FA684604F08EF9284611B0F0
:1043000030BD064908A807F0A9FBEDE7F849010010
:10431000004A01000896012014480100104A0100DB
:1043200030B52B4991B0044607F0DEFB684604F037
:1043300065F92268274908A8132304F03FFA0A9A6E
:104340009DF82C309DF8241002928DF80C308DF8D9
:1043500004100BAA0DF10D030DF11A0012F8011F44
:1043600003F8011B8342F9D10F9B079308A804F0BF
:1043700053F9684604F06EF90446C8B1164DAB68AF
:1043800000245BB12146144807F02CFC01786846F4
:1043900004F0A2F8AB6801349C42F3D3684604F001
:1043A0004BF9684604F038F90124204611B030BDBD
:1043B0000A4908A807F0B4FA08A8FFF713F808A8F4
:1043C00007F06EFA684604F027F9204611B030BDB8
:1043D000F8490100089601209821FF1F184A0100A2
:1043E0002DE9F0472DED028B0E4694B0B149904671
:1043F000074607F0E1FB58B3CEB9AF49AF4807F025
:10440000DBFB00283ED1AE490CA807F089FA0CA8C6
:10441000FEF7E8FF0CA807F043FAA84802F066FB95
:104420000124204614B0BDEC028BBDE8F087A549FD
:104430000CA807F075FA0CA8FEF7D4FF0CA807F03B
:104440002FFA0024204614B0BDEC028BBDE8F087A3
:104450009D49384607F0B0FB002846D0012E0CAD30
:1044600021D09849284607F05BFA2846FEF7BAFFA4
:10447000284607F015FA0024204614B0BDEC028B44
:10448000BDE8F08791490CA807F04AFA0CA8FEF79E
:10449000A9FF0CA807F004FA0124204614B0BDECD3
:1044A000028BBDE8F0874146284607F04DFA2846C2
:1044B000FCF708FD0446284607F0F2F9002CD0D09E
:1044C000404607F0C1FB824C86B204F58075204659
:1044D00031464034FCF78AF9A542F8D10124204640
:1044E00014B0BDEC028BBDE8F0877A49384607F07E
:1044F00063FB044670B1022E1FD00CAD71492846F3
:1045000007F00EFA2846FEF76DFF284607F0C8F9B7
:10451000002486E77049384607F04EFB8146A0B379
:10452000012E46D067490CA807F0FAF90CA8FEF74F
:1045300059FF0CA807F0B4F973E70CAD08F11006A9
:104540003146284607F000FA2846FCF7BBFC044633
:10455000284607F0A5F9002CD0D04146284607F0A0
:10456000F3F92846FFF700FE0446304607F06CFBDF
:10457000002C05DB564B81B203EB8410FCF736F9B7
:10458000284607F08DF901244BE75449384607F0D7
:1045900013FB054638B3022E3AD04A490CA807F05F
:1045A000BFF90CA8FEF71EFF0CA84C4607F078F9DF
:1045B00037E70CAD4146284607F0C6F92846FFF715
:1045C00071FD434C071C18BF012704F58076204677
:1045D00039464034FCF7F6F8A642F8D1284607F0F1
:1045E0005FF901241DE73E49384607F0E5FA8146A8
:1045F00000284BD0012E2FD032490CA807F090F99B
:104600000CA8FEF7EFFE0CA82C4607F049F908E7C6
:1046100004AF4146384607F097F93846FFF7A4FD46
:104620000CAD044608F11001284607F08DF9284624
:10463000FFF738FD002C07DB254B011C18BF0121BB
:1046400003EB8410FCF7BEF8284607F029F938463A
:1046500007F026F90124E4E60CAD4146284607F0B0
:1046600073F92846FFF71EFD194C071C18BF0127D8
:1046700004F58076204639464034FCF7C3F8A6425C
:10468000F8D1284607F00CF90124CAE61549384646
:1046900007F092FA044638B3022E4BD009490CA811
:1046A00007F03EF90CA8FEF79DFE0CA84C4607F05B
:1046B000F7F8B6E6744A0100144801004822FF1FCB
:1046C0007C4A0100AC4A0100C04A0100884A01004E
:1046D000281FFF1FCC4A0100D44A0100E04A010014
:1046E000E84A0100F44A0100BB49384607F064FA81
:1046F000002838D0002E40D1FEF79EF80CADB74907
:104700000446284607F00CF92846FEF78DF828469F
:1047100007F0C6F8B24BB3492846002C18BF19461B
:1047200007F0FEF82846FEF75DFE284607F0B8F8C9
:10473000012476E60CAD4146284607F005F92846E7
:10474000FFF712FD002809DBD8F81010A64B003146
:1047500018BF012103EB8010FCF754F8284607F03E
:104760009FF801245DE6A149384607F025FAD8B143
:1047700076B9FFF71DF9012453E69D490CA807F00F
:10478000CFF80CA8FEF72EFE0CA807F089F848E633
:1047900097490CA807F0C4F80CA8FEF723FE0CA854
:1047A00007F07EF800243CE69249384607F004FA08
:1047B00070B1022E21D00CAD8D49284607F0B0F81B
:1047C0002846FEF70FFE284607F06AF8002428E680
:1047D0008949384607F0F0F9814688B3012E0CADBF
:1047E00017D08349284607F09BF82846FEF7FAFDC4
:1047F000284607F055F8002413E604A8414607F0C0
:10480000A3F804A8FCF75EFB78BB04A807F048F8FF
:10481000D1E74146284607F097F82846FCF752FBB7
:104820000446284607F03CF8002CDAD0404607F052
:104830000BFA724A2C2303FB002034464671F0E544
:104840006F49384607F0B8F900284DD0012E0CAD5D
:1048500032D06749284607F063F82846FEF7C2FDC4
:10486000284607F01DF80024DBE50CAD08F1100721
:104870003946284607F068F82846FCF723FB04462B
:10488000284607F00DF804A807F00AF8002C93D08A
:10489000404607F0D9F92C2404FB00F4574D384664
:1048A00007F0D2F96319625990FBF6F05862184686
:1048B000136998470124B4E54146284607F044F8B7
:1048C0002846FCF7FFFA0446284606F0E9FF002CCC
:1048D000BFD0404607F0B8F9484A2C2303FB00201C
:1048E000344680F805909CE54649384607F064F95F
:1048F000044670B1022E0CAD1ED03D49284607F08B
:104900000FF82846FEF76EFD284606F0C9FF002482
:1049100087E53D49384607F04FF9002846D0012E7B
:1049200033D033490CA806F0FBFF0CA8FEF75AFD64
:104930000CA806F0B5FF74E54146284607F004F8D8
:104940002846FCF7BFFA0446284606F0A9FF002CCB
:10495000D3D0404607F078F92C24284B04FB00F410
:1049600008F11001E25828461C44D66806F0ECFF16
:104970002846FFF797FB011C18BF01212046B047CE
:10498000284606F08DFF01244BE541460CA806F0B1
:10499000DBFF0CA8FFF786FB003018BF0120FDF7F6
:1049A00057FF0CA8344606F07BFF3AE51749384616
:1049B00007F002F9044658B3012E0CAD33D00C4970
:1049C000284606F0ADFF2846FEF70CFD284606F007
:1049D00067FF002425E500BFFC4A01000C4B0100E5
:1049E000304A0100504A0100281FFF1F244B0100DC
:1049F000AC4A0100304B0100404B0100B81DFF1FC5
:104A00004C4B0100584B0100684B01007C4B0100EE
:104A1000A949384607F0D0F8054648B3EEB9FDF786
:104A200027FF0124FDE44146284606F08DFF284675
:104A3000FCF748FA0446284606F032FF002CBED0A8
:104A4000404607F001F92C2303FB00F09B4BC258B2
:104A50001844136934469847E3E499490CA806F0D2
:104A60005FFF0CA8FEF7BEFC0CA806F019FFD8E407
:104A70009449384607F0A0F8044668B1052E1ED0C8
:104A80008F490CA806F04CFF0CA8FEF7ABFC0CA855
:104A90002C4606F005FFC4E48B49384607F08CF835
:104AA00000285AD0032E3FD085490CA806F038FFC5
:104AB0000CA8FEF797FC0CA806F0F2FEB1E4404605
:104AC00007F0C2F8342508F1100105FB00F50CA829
:104AD00006F03AFF7D4E0CA8FFF77AFBAC19AB59F4
:104AE00020741B69204698470CA806F0D9FE08F1EF
:104AF000200007F0A9F8AB5960821B69204698474F
:104B000008F1300007F0A0F8AB59A0821B692046DD
:104B1000984708F1400007F097F8AB59E0821B690D
:104B20002046984701247CE4404607F08DF8302465
:104B300004FB00F408F1100007F086F8644D064607
:104B400008F1200007F080F86319625958611E616E
:104B5000184613699847012463E45E49384607F014
:104B60002BF868B1012E16D055490CA806F0D8FED6
:104B70000CA8FEF737FC0CA806F092FE002450E4C7
:104B80005549384607F018F810B3AEB90120FDF7C3
:104B90009BFE012445E441460CA806F0D5FE0CA876
:104BA000FFF780FA003018BF0120FDF78DFE0CA83A
:104BB00006F076FE012434E441490CA806F0B0FE6C
:104BC0000CA8FEF70FFC0CA806F06AFE002428E4EF
:104BD0004249384606F0F0FF044628B17EB9304617
:104BE000FDF772FE01241CE43D49384606F0E4FF5F
:104BF0008146E0B17EB9FDF77DFE012411E4304924
:104C00000CA806F08DFE0CA8FEF7ECFB0CA806F035
:104C100047FE002405E42A490CA806F081FE0CA8F2
:104C2000FEF7E0FB0CA806F03BFEFFF7FABB2D49B0
:104C3000384606F0C1FF054670B1022E0CA821D0FF
:104C40001F4906F06DFE0CA8FEF7CCFB0CA84C46E5
:104C500006F026FEFFF7E5BB2349384606F0ACFF19
:104C60000446002874D0042E0CA83FD0144906F046
:104C700057FE0CA8FEF7B6FB0CA82C4606F010FE5B
:104C8000FFF7CFBB414606F05FFE0CA8FFF738FAEE
:104C9000044608F1100006F0D7FFC1B2E0B2FDF7FC
:104CA00039FE04460CA806F0FBFD2046FEF7B2F8DC
:104CB0000124FFF7B6BB00BF844B0100B81DFF1FE6
:104CC000AC4A0100904B0100984B0100181CFF1FDB
:104CD000681EFF1FA04B0100B04B0100BC4B010040
:104CE000C84B0100D04B0100E04B0100414606F0EB
:104CF0002BFE0CA8FFF704FA044608F1100006F09A
:104D0000A3FFC1B2E0B2FDF705FE06460CA806F00F
:104D1000C7FD08F120010CA806F016FE0CA8FFF74D
:104D2000EFF9044608F1300006F08EFFC1B2E0B2A0
:104D3000FDF7F0FD05460CA806F0B2FD3046FEF783
:104D400069F82846FEF766F80124EE60FFF769BBB4
:104D5000BF49384606F030FF0546002843D016F01C
:104D600001034CD17608771EDEB27501BE420CA855
:104D700008EB050103F10104BFF6B0AB06F0E4FD5A
:104D80000CA8FFF7BDF9814605F11000404406F07C
:104D90005BFFC1B25FFA89F0FDF7BCFD81460CA84C
:104DA00006F07EFD711C08EB41110CA806F0CCFD4D
:104DB0000CA8FFF7A5F9064605F13000404406F0BF
:104DC00043FFC1B2F0B2FDF7A5FD05460CA806F001
:104DD00067FD4846FEF71EF82846FEF71BF8C5F8A3
:104DE0000C902346C0E79B49384606F0E5FE814615
:104DF000F0B186B9FDF7D0FD0124FFF712BB96494B
:104E00000CA806F08DFD0CA8FEF7ECFA0CA806F035
:104E100047FDFFF706BB90490CA806F081FD0CA8E2
:104E2000FEF7E0FA0CA82C4606F03AFDFFF7F9BAB7
:104E30008A49384606F0C0FE044628B1C6B9FEF7D6
:104E40005FFB0124FFF7EDBA8549384606F0B4FE52
:104E5000002842D0032E0CA817D07F4906F060FD31
:104E60000CA8FEF7BFFA0CA806F01AFDFFF7D9BA96
:104E700079490CA806F054FD0CA8FEF7B3FA0CA86B
:104E80004C4606F00DFDFFF7CCBA414606F05CFD3E
:104E90000CA8FFF735F9044608F1100006F0D4FE1F
:104EA000C1B2E0B2FDF736FD04460CA806F0F8FCEE
:104EB000236808F120010CA8DD6806F045FD0CA868
:104EC000FFF7F0F8011C18BF01212046A8470CA8E5
:104ED00006F0E6FC0124FFF7A4BA6249384606F062
:104EE0006BFE78B1012E0CAD21D05B49284606F04F
:104EF00017FD2846FEF776FA284606F0D1FC002476
:104F0000FFF78FBA5849384606F056FE002858D0A9
:104F1000022E31D050490CA806F002FD0CA8FEF775
:104F200061FA0CA806F0BCFC0024FFF77ABA4146EF
:104F3000284606F009FD2846FBF7C4FF044628462C
:104F400006F0AEFC002CD0D0404606F07DFE40F6C8
:104F5000FF7384B29C42A8BF1C46444DA6B22146B2
:104F6000A8782E8007F088FA2146287AEE8007F08C
:104F700083FA0124FFF755BA30464146FBF7B2FFEA
:104F80000028C7D0404606F05FFE044608F1100036
:104F900006F05AFEE3B2012B3FF6A0AA334C0622DC
:104FA00002FB03F240F6FF7183B215198B42A8BFD2
:104FB0000B46A87813531946012407F05DFAFFF752
:104FC00030BA2B49384606F0F7FD044628B17EB9C1
:104FD00002F04AFC0124FFF724BA2649384606F0BD
:104FE000EBFDF0B18EB902F09FFC0124FFF719BA76
:104FF00019490CA806F094FC0CA8FEF7F3F90CA8CC
:1050000006F04EFC0024FFF70CBA13490CA806F07A
:1050100087FC0CA8FEF7E6F90CA806F041FCFFF7A8
:1050200000BA1549384606F0C7FD054630B3012ED3
:105030000CAD00F08D810849284606F071FC284629
:10504000FEF7D0F9284606F02BFC0024FFF7E9B95B
:10505000EC4B0100F44B0100AC4A0100004C010094
:105060000C4C0100184C0100244C01008C20FF1F47
:105070002C4C0100344C01003C4C0100DB4938460B
:1050800006F09AFD0446002800F08C81002E40F0C6
:105090007C810CADD649284606F042FC2846FDF737
:1050A000C3FB284606F0FCFBFCF79CF9002800F047
:1050B0006A81D049284606F033FC2846FEF792F96B
:1050C000284606F0EDFBCC49284606F029FC284688
:1050D000FDF7AAFB284606F0E3FB01F083FF0A2256
:1050E0000146284606F062FC2846FEF77BF9284672
:1050F00006F0D6FBC149284606F012FC2846FDF70B
:1051000093FB284606F0CCFB02F030FC002800F0B0
:105110003881B849284606F003FC2846FDF784FB91
:10512000284606F0BDFBB649284606F0F9FB28469E
:10513000FDF77AFB284606F0B3FB02F089FB0A2252
:105140000146284606F05AFC2846FDF76DFB284626
:1051500006F0A6FBAB49284606F0E2FB2846FDF721
:1051600063FB284606F09CFBA749284606F0D8FBBF
:105170002846FDF759FB284606F092FB02F0FCFB9F
:105180000A220146284606F011FC2846FDF74CFB92
:10519000284606F085FB9D49284606F0C1FB2846B7
:1051A000FEF720F9284606F07BFB9949284606F0D1
:1051B000B7FB2846FDF738FB284606F071FB02F0E6
:1051C0004DFB002800F0DB808A49924EDFF8789290
:1051D000DFF87882284606F0A3FB2846FEF702F99E
:1051E000284606F05DFB8C49284606F099FB2846C8
:1051F000FEF7F8F8284606F053FB002404AF874971
:10520000284606F08DFB2846FDF70EFB284606F0E3
:1052100047FB335906EB040A5B6951462846984719
:105220002846FDF701FB284606F03AFB5146384672
:10523000FBF716FB7A49284606F072FB2846FDF775
:10524000F3FA284606F02CFB0A22BDF81010284677
:1052500006F0ACFB2846FDF7E7FA284606F020FBEF
:105260007049284606F05CFB2846FDF7DDFA284623
:1052700006F016FB9DF81210284600290CBF49467F
:10528000414606F04DFB2846FDF7CEFA284606F0CB
:1052900007FB6449284606F043FB2846FDF7C4FA9D
:1052A000284606F0FDFA9DF81310284600290CBF89
:1052B0004946414606F034FB2846FDF7B5FA284634
:1052C00006F0EEFA5749284606F02AFB2846FDF775
:1052D000ABFA284606F0E4FA9DF814102846002997
:1052E0000CBF4946414606F01BFB2846FDF79CFAD9
:1052F000284606F0D5FA4C49284606F011FB284608
:10530000FEF770F84034284606F0CAFAB4F5807FFC
:105310007FF475AFFDF790FA44490446284606F03D
:10532000FFFA2846FDF780FA284606F0B9FA404B06
:1053300040492846002C18BF194606F0F1FA2846C5
:10534000FEF750F8284606F0ABFA0124FFF769B8DB
:105350004146284606F0F8FA2846FBF7B3FD044616
:10536000284606F09DFA002C3FF465AE404606F054
:105370006BFC80B202F006FB3446FFF752B82E49B0
:1053800023E72D49C6E62C4994E62C490CA806F0E3
:10539000C7FA0CA8FEF726F80CA82C4606F080FAEF
:1053A000FFF73FB82649384606F006FC40B1002E0C
:1053B0004ED1FBF7EFFF012401F042FEFFF731B8B9
:1053C0002049384606F0F8FB002864D0012E0CADC9
:1053D0004AD01A49284606F0A3FA2846FEF702F8F2
:1053E000284606F05DFA0024FFF71BB8404C010088
:1053F000484C01002C500100584C0100684C010041
:105400007C4C0100884C01008C4C0100984C010040
:10541000A04C0100281FFF1FBC4C0100D848010010
:10542000F44C0100F84C0100A84A0100FC4C0100BA
:10543000304A0100504A010084480100AC4A010092
:10544000184D0100204D0100C8460100CC46010066
:10545000C0490CA806F064FA0CA8FDF7C3FF0CA81D
:1054600006F01EFAFEF7DDBF4146284606F06CFA4C
:105470002846FBF727FD0446284606F011FA002CC3
:10548000A7D0404606F0E6FB3446FBF777FF01F075
:10549000D7FDFEF7C6BFB049384606F08DFB70B1A8
:1054A000022E22D0AB490CA806F03AFA0CA8FDF760
:1054B00099FF0CA806F0F4F90024FEF7B2BFA74943
:1054C000384606F079FB002840D0012E0CAD26D0DE
:1054D000A049284606F024FA2846FDF783FF28460F
:1054E00006F0DEF90024FEF79CBF30464146FBF78C
:1054F000F9FC0028D6D0404606F0ACFB08F11000BD
:105500008DED040A06F0A6FB0CA904A881ED000AA3
:105510000124FBF72BFF01F093FDFEF782BF41460C
:10552000284606F011FA2846FBF7CCFC044628462C
:1055300006F0B6F9002CCBD0404606F08BFBFBF70B
:1055400023FF012401F07CFDFEF76BBF8449384640
:1055500006F032FB78B1012E0CAD19D07D492846FA
:1055600006F0DEF92846FDF73DFF284606F098F9DB
:105570000024FEF756BF7B49384606F01DFB70B38A
:1055800006BBFBF721FF0124FBF704FFFEF749BF31
:105590004146284606F0D8F92846FBF793FC044616
:1055A000284606F07DF9002CD8D0404606F04CFB8A
:1055B000003018BF0120FBF701FF012401F040FD7E
:1055C000FEF72FBF63490CA806F0AAF90CA8FDF757
:1055D00009FF0CA806F064F90024FEF722BF624917
:1055E000384606F0E9FA044670B1012E20D0594938
:1055F0000CA806F095F90CA8FDF7F4FE0CA806F02F
:105600004FF90024FEF70DBF5849384606F0D4FA8A
:10561000002839D0012E1DD04E490CA806F080F983
:105620000CA8FDF7DFFE0CA806F03AF9FEF7F9BE6C
:1056300041460CA806F088F90CA8FEF733FD0030AF
:1056400018BF0120FBF7C8FE0CA8344606F028F965
:10565000FEF7E7BE0CAD4146284606F075F9284630
:10566000FEF720FD424E071C18BF012730193946AE
:105670004034FBF7D5F8B4F5807FF7D1284606F023
:105680000FF90124FEF7CDBE3A49384606F094FAE8
:105690000446002840D0022E0CAD0CD02D492846DF
:1056A00006F03EF92846FDF79DFE284606F0F8F87C
:1056B0000024FEF7B6BE4146284606F045F92846C6
:1056C000FBF700FC0446284606F0EAF8002CE5D07B
:1056D00004AF4146384606F037F93846FEF744FD38
:1056E00008F110010446284606F02EF92846FEF778
:1056F000D9FC011C18BF0121002C04DB1C4800EB65
:105700008410FBF78DF8284606F0CAF8384606F0F4
:10571000C7F80124FEF785BE1749384606F04CFA53
:1057200068B1012E2CD00B490CA806F0F9F80CA892
:10573000FDF758FE0CA806F0B3F8FEF772BE0F494D
:10574000384606F039FA002849D0022E2AD0002423
:10575000FEF767BEAC4A0100284D0100304D010044
:10576000384D0100404D0100484D0100504D0100F1
:10577000281FFF1F5C4D0100644D01006C4D0100AE
:1057800041460CA806F0E0F80CA8FEF78BFC0030B0
:1057900018BF012002F00EF90CA8344606F080F87C
:1057A000FEF73FBE30464146FBF79CFB0028CED0BB
:1057B000FBF71EFE404606F04DFA08F11000B0EE71
:1057C000408A06F047FA0CA88DED0D0A8DED0C8A83
:1057D0000124FBF71BFE01F033FCFEF722BED74984
:1057E000384606F0E9F918B316F00104AFD1414686
:1057F0003046FBF777FB0028A9D0FBF7F9FDB6B2DE
:105800002501B44208EB05004FD206F023FA05F15A
:1058100010004044B0EE408A06F01CFA02340CA896
:105820008DED0C8A8DED0D0AA4B2FBF7EFFDE7E7D5
:10583000C349384606F0C0F9002871D041463046C9
:10584000FBF750FB044600285ED0032E3FD0052E08
:1058500030D1FBF7CDFD404606F0FCF908F1100011
:10586000B0EE408A06F0F6F908F120008DED0C8AC2
:105870008DED0D0A06F0EEF908F13000B0EE408A29
:1058800006F0E8F908F14000F0EE408A06F0DCF995
:10589000F0EE680A81B2B0EE480A0CA8FBF7B8FD3A
:1058A000012401F0CDFBFEF7BCBD01F0C9FB0124D2
:1058B000FEF7B7BDA3490CA806F032F80CA8FDF717
:1058C00091FD0CA805F0ECFF0024FEF7AABDFBF744
:1058D0008FFD404606F0BEF908F11000B0EE408A98
:1058E00006F0B8F908F12000F0EE408A06F0ACF9B5
:1058F000F0EE680A80B2B0EE480AFBF7B5FD01246D
:1059000001F09EFBFEF78DBD8E490CA806F008F84D
:105910000CA8FDF767FD0CA805F0C2FFFEF781BDDE
:105920008949384606F048F980B341463046FBF7CE
:10593000D9FA0446002800F00D81022E00F0E9801B
:10594000042E66D1FBF754FD404606F083F908F1BA
:105950001000B0EE408A06F07DF908F120008DEDD0
:105960000C8A8DED0D0A06F075F908F13000B0EEE5
:10597000408A06F069F9B0EE480A81B20CA8FBF73C
:105980007FFD012401F05CFBFEF74BBD6F493846FB
:1059900006F012F9002800F0868041463046FBF7F9
:1059A000A1FA002872D0042E4DD0062E3ED1FBF76E
:1059B0001FFD404606F04EF908F11000B0EE408A97
:1059C00006F048F908F120008DED0C8A8DED0D0AE6
:1059D00006F040F908F13000B0EE408A06F03AF9DE
:1059E00008F14000F0EE408A06F02EF9044608F176
:1059F000500006F029F9A1B282B2F0EE680AB0EECA
:105A0000480A0CA8FBF7ACFD012401F019FBFEF7D6
:105A100008BD4C490CA805F083FF0CA8FDF7E2FC7B
:105A20000CA805F03DFF0024FEF7FBBC45490CA87F
:105A300005F076FF0CA8FDF7D5FC0CA805F030FFAB
:105A40000024FEF7EEBCFBF7D3FC404606F002F95B
:105A500008F11000B0EE408A06F0FCF808F12000D2
:105A6000F0EE408A06F0F0F8044608F1300006F047
:105A7000EBF8F0EE680A81B2B0EE480AA0B2FBF78C
:105A8000A7FD012401F0DCFAFEF7CBBC2D490CA8E0
:105A900005F046FF0CA8FDF7A5FC0CA805F000FFDB
:105AA0000024FEF7BEBC2A49384606F085F80028D7
:105AB00000F08A8041463046FBF714FA044600287D
:105AC00076D0022E5FD0042E50D1FBF791FC4046D9
:105AD00006F0C0F808F11000B0EE408A06F0BAF8FF
