:1000000000000320D10100006DA7000025A700001B
:1000100025A7000025A7000025A7000025A70000B0
:1000200025A7000025A7000025A700006DA7000058
:100030006DA7000025A7000041C4000045C50000D1
:100040006DA700006DA700006DA700006DA7000060
:100050006DA700006DA700006DA700006DA7000050
:100060006DA700006DA700006DA700006DA7000040
:100070006DA700006DA700006DA700006DA7000030
:100080006DA700006DA700006DA700006DA7000020
:100090006DA700006DA700006DA700006DA7000010
:1000A0006DA700006DA700006DA700006DA7000000
:1000B0006DA700006DA700006DA700008DC50000B2
:1000C0006DA70000B9C600006DA70000E5C70000DD
:1000D0006DA70000DDC800006DA700006DA700003F
:1000E0006DA700006DA700006DA700006DA70000C0
:1000F0006DA700006DA700006DA700006DA70000B0
:10010000799D00008D9D0000A19D0000B59D00001F
:100110006DA7000041B300006DA700006DA70000AF
:100120006DA700006DA700006DA700006DA700007F
:100130006DA700006DA700006DA700006DA700006F
:100140006DA700006DA70000D5C900006DA70000D5
:100150006DA700006DA700006DA700006DA700004F
:100160006DA700006DA700006DA700006DA700003F
:100170006DA700006DA700006DA700006DA700002F
:100180006DA700006DA700006DA700006DA700001F
:100190006DA700006DA70000CDCA00006DA700008C
:1001A0006DA700006DA700006DA700006DA70000FF
:1001B0006DA700006DA700006DA700006DA70000EF
:1001C0006DA700006DA700006DA700006DA70000DF
:1001D0005C4B4CF2205210B51A804DF628121A8052
:1001E00000BF00BF0AF0C6FA574B4FF030621A60EA
:1001F000564A9A60564ADA60564B4FF470021A60BB
:10020000554B564A1A60564A136813F4807304D14A
:1002100054490B604FF4A8531360534B1A781107DD
:1002200003D51A7842F008021A70504B5049AA229E
:100230001A70504A504B8B4204D252F8040F43F8C4
:10024000040BF8E74D4B4E4900228B4202D243F893
:10025000042BFAE74B494C4A002352F8230041F89B
:1002600023000133742BF8D1484B494A802103F80D
:10027000011B9342FBD1474B424A1A60464B8A22EC
:100280001A70A3F5805324225A70A0221A709A790A
:100290009207FCD59A79D406FCD4404A937903F0AE
:1002A0000C03082BFAD13E4B60221A7002331A78E5
:1002B000802AFCD1394B01221A715D225A719A7938
:1002C0009006FCD59979354A4906FBD5354B364918
:1002D00019600021596020231370937903F00C03F7
:1002E0000C2BFAD1314B324A1A60324B324A1A6027
:1002F00000225A60072243F8042C304AC3F80C2D20
:1003000062B60AF08DFE174B1B68DA0705D52C483C
:100310000AF08EFB2B4B2C4A1A602C4B1B785B0689
:1003200009D5284C284B22689A4204D124480AF067
:100330007FFB002323600FF067F80AF021FA0AF030
:100340004FF9FEE70E20054030800440823F040054
:100350000100002B88ED00E0002008E0030000858C
:1003600010D0034014D0034002D0074000E0074003
:100370009814FF1F9C3F01003007FF1F9814FF1FB8
:10038000AC9C01200002FF1F0000000000E400E020
:1003900064E400E008ED00E0005006400040064044
:1003A00001E007404480044000000602048004404D
:1003B000C010070014E000E01FBF02000000202072
:1003C00098FFB25D1CE00340A5C3945A00F00740BB
:1003D000FFFFFFFFFFFFFFFFFFFFFFFFFFFFFFFF2D
:1003E000FFFFFFFFFFFFFFFFFFFFFFFFFFFFFFFF1D
:1003F000FFFFFFFFFFFFFFFFFFFFFFFFFFFFFFFF0D
:10040000FFFFFFFFFFFFFFFFFFFFFFFFDEF9FFFF23
:1004100010B5054C237833B9044B13B10448AFF33E
:1004200000800123237010BD9814FF1F00000000FE
:10043000983F0100084B10B51BB108490848AFF3BD
:1004400000800848036803B910BD074B002BFBD0A0
:10045000BDE81040184700BF000000009C14FF1FBB
:10046000983F01009814FF1F000000004171704781
:10047000002301220271C3728372C37183714372BC
:100480000372704703685B6A184700BFC171704709
:1004900010B50A4A0A4913780446042084F83C003F
:1004A00084F83D3004F12C000133137009F0BEFDD7
:1004B0000122236A6271636210BD00BFE414FF1F52
:1004C0006815FF1F10B5054C04F1100009F0D8FCA9
:1004D0002046BDE8104009F0D3BC00BF9815FF1FAF
:1004E00010B5074C04F1200009F0CAFC04F110001B
:1004F00009F0C6FC2046BDE8104009F0C1BC00BFB1
:10050000B414FF1F38B5054CA4F170052046103C0B
:1005100009F0B6FCAC42F9D138BD00BF8815FF1F09
:1005200010B5094C04F1300009F0AAFC04F12000D8
:1005300009F0A6FC04F1100009F0A2FC2046BDE879
:10054000104009F09DBC00BFE814FF1F70B588B0D3
:100550000C4605462C31684609F0E6FC684613490E
:1005600009F0D8FD94F83D10064604A809F0FAFCFD
:1005700004A9304609F0C6FD0D4909F0CBFD0D4B2D
:1005800094F83D1003EB011109F0BCFD0A4909F094
:10059000C1FD0146284609F0C7FC04A809F070FC1B
:1005A000684609F06DFC284608B070BD242C010097
:1005B000282C0100E814FF1F2C2C010070B50C46FC
:1005C0008CB005461A491B4E08A809F099FC0A226E
:1005D000618A04A809F0DAFC04A908A809F092FDD0
:1005E000154909F097FD617D06EB011109F08AFDBF
:1005F000124909F08FFDA17D06EB011109F082FD82
:100600000F4909F087FD0146684609F08DFC04A8F2
:1006100009F036FC08A809F033FC6946284609F0C1
:100620001DFC684609F02CFC28460CB070BD00BFCC
:10063000302C01009815FF1F382C0100442C0100BC
:10064000502C010010B5064B044640F82C3B09F035
:1006500017FC206A08B10AF0E1F8204610BD00BF7F
:10066000B82C010010B5084B044640F82C3B09F0AB
:1006700007FC206A08B10AF0D1F8204640210AF0B0
:10068000CFF8204610BD00BFB82C01004379DBB184
:10069000C16810B501B18979036804461B6A98479F
:1006A00023792BB9236820465B6ABDE810401847C0
:1006B000236808499A6A00208A42207105D12046A1
:1006C0005B6ABDE81040184770472046BDE81040FF
:1006D000104700BF85040000F8B50346044653F8F0
:1006E0001A1F194A026001259A88C0F812104FF4A7
:1006F000FA63002100F12C06C2824383E160E172BB
:10070000A172E171A1716172217221776177A17784
:1007100021626162A162304665712571257409F01C
:10072000EFFB0A4A0A49137884F83D3004272B442A
:10073000304684F83C70137009F078FC236A6571C8
:1007400063622046F8BD00BFB82C0100E414FF1F0F
:100750006815FF1F01764276012110460AF0E4BBBE
:10076000037C23B1437D1BB9407E0AF0C9BB7047AF
:1007700007EE901A9FED067A407EF8EEE77A67EE74
:10078000877AFDEEE77A17EE901A0AF063B900BF98
:10079000E17A944410B500210446FFF7E1FF0023FD
:1007A000237410BD8179027D8A4202D00175FFF762
:1007B000D7BF7047027D417102B9704700210175B2
:1007C000FFF7CEBF10B4047D8C4205D003465DF820
:1007D000044B1975FFF7C4BF5DF8044B704700BFA9
:1007E000037C03B1037D1846704700BF40F6FF73DA
:1007F0009942027CA8BF1946418202B97047007E27
:100800000AF028B910B50446417519B90121407E96
:100810000AF08AFB217D2046BDE81040FFF7A0BF0B
:1008200081757047837D03B970470021FFF798BF3A
:1008300010B50446417DFFF7E5FF618A237C40F651
:10084000FF729142A8BF1146618203B910BD207E9C
:10085000BDE810400AF0FEB801230374FFF7E8BFBB
:1008600051F8122F02608A888280704738B5436A37
:10087000044633F8065C13F8041C13F8032C13F831
:10088000023C8375458201754275FFF7D1FF636AAB
:10089000063B636238BD00BF2DE9F04104462148A4
:1008A00062682668931B5B1000FB03F388462BB13C
:1008B0005F00BB422BD96FF0030700E006273846E4
:1008C00009F0AAFF626826680546921B154B501076
:1008D00003FB00F0AB1806D0D8F800E0B8F804101D
:1008E00045F802E0998058B903F1060816B1304680
:1008F00009F094FF2F44A76084E82001BDE8F0814F
:100900003146284603F106080FF0D4F8EFE7064B0E
:100910009F42D0D83D46002FD7D0062303FB07F7D0
:10092000CDE700BFABAAAAAAAAAAAA2A08B5826ADA
:10093000436A934209D02BB1024652F8121F196044
:1009400092889A800633436208BD00F1120120307C
:10095000FFF7A2FF08BD00BF2DE9F041334E344937
:10096000344D354C354FDFF82481304609F0C8FA54
:1009700006F11000324909F0C3FA06F120003149AE
:1009800009F0BEFA06F130002F4909F0B9FA2A46FB
:100990002E4900200CF04EF920462D4909F0B0FAFE
:1009A00004F110002B4909F0ABFA04F120002A49A8
:1009B00009F0A6FA04F13000284909F0A1FA04F17F
:1009C0004000274909F09CFA04F15000254909F03C
:1009D00097FA04F16000244909F092FA2A46234963
:1009E00000200CF027F93846214909F089FA07F16F
:1009F0001000204909F084FA07F120001E4909F08F
:100A00007FFA2A461D4900200CF014F940461C4983
:100A100009F076FA08F110001A4909F071FA2A462D
:100A200019490020BDE8F0410CF004B9E814FF1F9B
:100A3000542C01000C08FF1F2815FF1FB414FF1FC2
:100A4000582C0100602C0100682C010021050000D9
:100A5000742C0100782C01007C2C0100802C0100FA
:100A6000842C0100882C01008C2C0100050500005D
:100A7000902C0100982C0100A02C0100E104000042
:100A8000A82C0100AC2C0100C50400009815FF1F24
:100A900010B5054C04F1100009F0F2F92046BDE84C
:100AA000104009F0EDB900BF9816FF1F10B5074CB4
:100AB00004F1200009F0E4F904F1100009F0E0F974
:100AC0002046BDE8104009F0DBB900BFB815FF1F94
:100AD00038B5054CA4F170052046103C09F0D0F95A
:100AE000AC42F9D138BD00BF4816FF1F10B5094C04
:100AF00004F1300009F0C4F904F1200009F0C0F954
:100B000004F1100009F0BCF92046BDE8104009F0DE
:100B1000B7B900BF5816FF1F2DE9F041334E3449D5
:100B2000344D354C354FDFF82481304609F0E8F973
:100B300006F11000324909F0E3F906F120003149CD
:100B400009F0DEF906F130002F4909F0D9F92A46FB
:100B50002E4900200CF06EF820462D4909F0D0F9FE
:100B600004F110002B4909F0CBF904F120002A49C7
:100B700009F0C6F904F13000284909F0C1F904F17F
:100B80004000274909F0BCF904F15000254909F05B
:100B9000B7F904F16000244909F0B2F92A46234963
:100BA00000200CF047F83846214909F0A9F907F16F
:100BB0001000204909F0A4F907F120001E4909F0AE
:100BC0009FF92A461D4900200CF034F840461C4984
:100BD00009F096F908F110001A4909F091F92A462E
:100BE00019490020BDE8F0410CF024B85816FF1F49
:100BF000542C01000C08FF1FE815FF1FB815FF1F3C
:100C0000582C0100602C0100682C0100ED0A000046
:100C1000742C0100782C01007C2C0100802C010038
:100C2000842C0100882C01008C2C0100D10A0000CA
:100C3000902C0100982C0100A02C0100AD0A0000AE
:100C4000A82C0100AC2C0100910A00009816FF1F8F
:100C500010B5054C04F1100009F012F92046BDE86A
:100C6000104009F00DB900BFA017FF1F10B5074CC9
:100C700004F1200009F004F904F1100009F000F972
:100C80002046BDE8104009F0FBB800BFBC16FF1FAE
:100C900038B5054CA4F170052046103C09F0F0F879
:100CA000AC42F9D138BD00BF4C17FF1F10B5094C3D
:100CB00004F1300009F0E4F804F1200009F0E0F854
:100CC00004F1100009F0DCF82046BDE8104009F0FE
:100CD000D7B800BF5C17FF1F2DE9F041334E3449F0
:100CE000344D354C354FDFF82481304609F008F992
:100CF00006F11000324909F003F906F120003149EC
:100D000009F0FEF806F130002F4909F0F9F82A46FB
:100D10002E4900200BF08EFF20462D4909F0F0F8F7
:100D200004F110002B4909F0EBF804F120002A49E6
:100D300009F0E6F804F13000284909F0E1F804F17F
:100D40004000274909F0DCF804F15000254909F07A
:100D5000D7F804F16000244909F0D2F82A46234963
:100D600000200BF067FF3846214909F0C9F807F168
:100D70001000204909F0C4F807F120001E4909F0CD
:100D8000BFF82A461D4900200BF054FF40461C497D
:100D900009F0B6F808F110001A4909F0B1F82A462E
:100DA00019490020BDE8F0410BF044BF5C17FF1F5C
:100DB000542C01000C08FF1FEC16FF1FBC16FF1F70
:100DC000582C0100602C0100682C0100AD0C0000C3
:100DD000742C0100782C01007C2C0100802C010077
:100DE000842C0100882C01008C2C0100910C000047
:100DF000902C0100982C0100A02C01006D0C00002B
:100E0000A82C0100AC2C0100510C0000A017FF1F02
:100E100010B5054C04F1100009F032F82046BDE889
:100E2000104009F02DB800BFA018FF1F10B5074CE7
:100E300004F1200009F024F804F1100009F020F872
:100E40002046BDE8104009F01BB800BFC017FF1FC7
:100E500038B5054CA4F170052046103C09F010F897
:100E6000AC42F9D138BD00BF5018FF1F10B5094C76
:100E700004F1300009F004F804F1200009F000F852
:100E800004F1100008F0FCFF2046BDE8104008F017
:100E9000F7BF00BF6018FF1F014B1870704700BFFD
:100EA0001008FF1F08B583680BB9012008BD002199
:100EB00009F096F96138C0B219288CBF00200120D2
:100EC00008BD00BF08B5002109F08AF9A0F12D0383
:100ED000DBB20C2B03D82F3818BF012008BD00202F
:100EE00008BD00BF40B330B5451EEDB2013585B039
:100EF0000C4601EB051508E02F2A684604F11004A2
:100F000011D008F0BDFFAC4213D02146684609F06D
:100F10000BF80021684609F063F9A0F12D03DBB25C
:100F20000C2B0246E8D9684608F0AAFF002005B05D
:100F300030BD012005B030BD012070472DE9F041E2
:100F4000334E3449344D354C354FDFF8248130462B
:100F500008F0D6FF06F11000324908F0D1FF06F183
:100F60002000314908F0CCFF06F130002F4908F08D
:100F7000C7FF2A462E4900200BF05CFE20462D4973
:100F800008F0BEFF04F110002B4908F0B9FF04F18E
:100F900020002A4908F0B4FF04F13000284908F085
:100FA000AFFF04F14000274908F0AAFF04F1500008
:100FB000254908F0A5FF04F16000244908F0A0FFCE
:100FC0002A46234900200BF035FE3846214908F017
:100FD00097FF07F11000204908F092FF07F1200069
:100FE0001E4908F08DFF2A461D4900200BF022FE05
:100FF00040461C4908F084FF08F110001A4908F027
:101000007FFF2A4619490020BDE8F0410BF012BECF
:101010006018FF1F542C01000C08FF1FF017FF1F62
:10102000C017FF1F582C0100602C0100682C010024
:101030006D0E0000742C0100782C01007C2C010046
:10104000802C0100842C0100882C01008C2C0100D4
:10105000510E0000902C0100982C0100A02C0100E2
:101060002D0E0000A82C0100AC2C0100110E000078
:10107000A018FF1F10B5054C04F1100008F000FF88
:101080002046BDE8104008F0FBBE00BFB419FF1FAA
:1010900010B5074C04F1200008F0F2FE04F1100036
:1010A00008F0EEFE2046BDE8104008F0E9BE00BFA3
:1010B000C018FF1F38B5054CA4F170052046103C40
:1010C00008F0DEFEAC42F9D138BD00BF5019FF1F59
:1010D00010B5094C04F1300008F0D2FE04F12000F4
:1010E00008F0CEFE04F1100008F0CAFE2046BDE86C
:1010F000104008F0C5BE00BF7419FF1F38B5C821E5
:101100000C480D4D0D4C08F0C3FE0D49094808F080
:1011100095FF0C4B0C4A0D49002018701378002BDA
:10112000FCD00B78DB07F9D52B6820681B1A0E2B37
:10113000F4D938BD6419FF1F44980120A49C0120F4
:10114000F42D01006019FF1F28990120409901200A
:1011500010B508E00AF038FFC4B22146084808F08C
:10116000C1FF0A2C04D00AF06BFF0028F2D110BD99
:10117000034805F049FC0349014808F05FFFF2E726
:101180006419FF1FF42D0100FFF7E2BF2DE9F843BA
:10119000394E3A493A4D3B4C3B4FDFF84091DFF82E
:1011A0004081304608F0ACFE06F11000374908F0E7
:1011B000A7FE06F12000364908F0A2FE06F1300035
:1011C000344908F09DFE2A46334900200BF032FDD9
:1011D0002046324908F094FE04F11000304908F02E
:1011E0008FFE04F120002F4908F08AFE04F1300040
:1011F0002D4908F085FE04F140002C4908F080FEDE
:1012000004F150002A4908F07BFE04F160002949EE
:1012100008F076FE2A46284900200BF00BFD3846E0
:10122000264908F06DFE07F11000254908F068FE18
:1012300007F12000234908F063FE2A4622490020D6
:101240000BF0F8FC4846214908F05AFE09F110005D
:101250001F4908F055FE2A461E4900200BF0EAFC03
:101260004046002108F04CFE2A4640461A49BDE897
:10127000F8430BF0DFBC00BF7419FF1F542C0100B2
:101280000C08FF1FF018FF1FC018FF1F582C01008B
:10129000602C0100682C0100D1100000742C0100AA
:1012A000782C01007C2C0100802C0100842C010092
:1012B000882C01008C2C0100B5100000902C01003E
:1012C000982C0100A02C010091100000A82C010016
:1012D000AC2C010075100000819E0000B419FF1FA6
:1012E0006419FF1F10B5054C04F1100008F0C8FD8B
:1012F0002046BDE8104008F0C3BD00BFB41AFF1F70
:1013000010B5074C04F1200008F0BAFD04F11000FC
:1013100008F0B6FD2046BDE8104008F0B1BD00BFA2
:10132000D419FF1F38B5054CA4F170052046103CB8
:1013300008F0A6FDAC42F9D138BD00BF641AFF1F0A
:1013400010B5094C04F1300008F09AFD04F12000BA
:1013500008F096FD04F1100008F092FD2046BDE86B
:10136000104008F08DBD00BF741AFF1F024B0068CB
:101370000A685A6018607047FC5B0020014B83EDDF
:10138000000A70477822FF1F014B83ED000A704767
:101390001408FF1F10B4064A064C074900234FF0FB
:1013A0007E5023601360536008605DF8044B704703
:1013B000FC5B00207822FF1F1408FF1F014B1870F0
:1013C000704700BF1808FF1F08B505F0B1FEBDE863
:1013D000084006F037BA00BF014B1870704700BFD5
:1013E0001108FF1F014B1878704700BF1108FF1F3D
:1013F00008B5054B1B7803B908BD05F099FEBDE89B
:10140000084006F01FBA00BF1108FF1F30B54B1E81
:101410002DED028B07EE903A83B0F8EEE77A026882
:101420004368009280EE278A0193C0EEA78AA1B19B
:101430000D460024684605F079FD0134A4B2A542AA
:101440009DED007ADDED017A37EE087A77EEA87A25
:101450008DED007ACDED017AECD103B0BDEC028BBD
:1014600030BD00BF00B583B000230146684600933D
:101470000193FFF7CBFF03B05DF804FB2DE9F041CA
:101480004B1E2DED048B07EE903A9FED2D7AF8EE72
:10149000E77A86B0054610EE100A884687EE279A4E
:1014A0000DF006FC002406460F462346013407EEE5
:1014B000903AF8EEE77A67EE897A17EE900A0DF027
:1014C000F7FB41EC100B41EC180B0BF091FC51ECCD
:1014D000100BB0EE480AF0EE680ACDE902010BF0FD
:1014E000E7FC32463B46DDE902018DED000B0DF0D5
:1014F00033FC0DF029FF9DED000B07EE100AD5ED32
:10150000007A77EE277A3B46324651EC100BCDED50
:10151000047A0DF021FC0DF017FFD5ED017A07EEEE
:10152000100A77EE277A04A8CDED057A05F0FEFCC7
:10153000A3B29845BAD206B0BDEC048BBDE8F081E9
:10154000DB0FC94000B583B0002301466846009315
:101550000193FFF793FF03B05DF804FB30B52DED69
:10156000048B9FED198A83B0F0EE608AF0EE480A92
:101570001446B0EE409A0D46FFF748FF684605F066
:10158000C5FC2146F0EE680AB0EE480A6846FFF74F
:101590003DFF684605F0BAFC2946F0EE480AB1EE78
:1015A000490A6846FFF732FF684605F0AFFC21465E
:1015B000F1EE680AB0EE480A6846FFF727FF03B06D
:1015C000BDEC048B30BD00BF0000000000B5F6EE9E
:1015D000007A83B020EE677A60EEE77A0A46014629
:1015E00068468DED007ACDED017AFFF7B7FF03B0C5
:1015F0005DF804FB0A46F0EE400AFFF7AFBF00BFFC
:1016000000B5F6EE007A83B060EE677A02460146D6
:10161000F0EE400A6846CDED007ACDED017AFFF795
:101620009DFF03B05DF804FB2DE9F04F2DED028B1B
:1016300085B0002B40F05F811C46032607EE902A00
:10164000F8EEE77A5D1C80EEA78A520892FBF5F26D
:10165000D2B21FFA82FA07EE905AF8EEE77A0568DE
:101660004068009528EE278A0190002A00F0E28069
:1016700010EE109A9B460F46B6B24FF00008F1EEFE
:10168000408A002C00F0DB8000250135684605F01B
:101690004DFCEBB29C42F8D83946DFED980A00EEDB
:1016A000109A6846FFF7B2FE02A805F02FFC029AD6
:1016B000039B0092019300250135684605F036FC36
:1016C000EBB29C42F8D83146F0EE480A9FED8B0A07
:1016D0006846FFF79BFE02A805F018FC029A039BE0
:1016E0000092019300250135684605F01FFCEBB21E
:1016F0009C42F8D83946DFED810AB0EE680A6846A8
:10170000FFF784FE02A805F001FC029A039B0092F9
:10171000019300250135684605F008FCEBB29C42B8
:10172000F8D83146F0EE480A9FED740A6846FFF794
:101730006DFE08F1010802A805F0E8FB1FFA88F326
:10174000DDED037A029A00925345CDED017A98D3EC
:10175000BBF1000F6ED0B1EE488AB6EE007AE8EE2B
:10176000077A4FF00008CDED017A002C00F095804B
:1017700000250135684605F0D9FBEBB29C42F8D84C
:101780003946DFED5E0A00EE109A6846FFF73EFE2E
:1017900002A805F0BBFB029A039B0092019300256F
:1017A0000135684605F0C2FBEBB29C42F8D83146E1
:1017B000F0EE480A9FED510A6846FFF727FE02A89F
:1017C00005F0A4FB029A039B0092019300250135CA
:1017D000684605F0ABFBEBB29C42F8D83946DFED2A
:1017E000470AB0EE680A6846FFF710FE02A805F047
:1017F0008DFB029A039B00920193002501356846F8
:1018000005F094FBEBB29C42F8D83146F0EE480A62
:101810009FED3A0A6846FFF7F9FD08F1010802A8B2
:1018200005F074FB1FFA88F30299039A009153455F
:1018300001929AD305B0BDEC028BBDE8F08F39461A
:10184000DFED2E0A00EE109A6846FFF7DFFD02A8D2
:1018500005F05CFB029A039B9FED280A009231463B
:10186000F0EE480A68460193FFF7D0FD02A805F0A4
:101870004DFB029A039BDFED210A00923946B0EE40
:10188000680A68460193FFF7C1FD02A805F03EFB18
:10189000029A039B0092019343E73946DFED170A52
:1018A00000EE109A6846FFF7B1FD02A805F02EFB86
:1018B000029A039B9FED110A00923146F0EE480A0E
:1018C00068460193FFF7A2FD02A805F01FFB029AEC
:1018D000039BDFED0A0A00923946B0EE680A6846BB
:1018E0000193FFF793FD02A805F010FB029A039BFA
:1018F0000092019389E7052426469FE60000000038
:1019000000B5F6EE007A83B020EE677A60EEE77AF3
:1019100013460A46014668468DED007ACDED017A00
:10192000FFF782FE03B05DF804FB00BFFFFFFFFF7F
:101930002DE9F04F551C07EE905A2DED0A8BF8EE6D
:10194000E78ADFEDC57A80EEA87A89B083460292F5
:101950000C46F7EE00AA27EE27AA68EE808A1AEE58
:10196000100A0DF0A5F9F0EE6A7AEAEE0A7A064658
:101970000F4617EE900A0DF09BF941EC100B41EC6D
:10198000190B0BF07DFB59EC108BB0EE490AF0EE11
:10199000690A0BF075FB304653EC102B39460DF0FD
:1019A00029F841EC100B0BF0E3FA94FBF5F44246F6
:1019B0004B46304639468DED000B0DF0CDF99DEDCF
:1019C000000B53EC102B0DF015F8DFEDA47A88EE28
:1019D000A77A06460F46013C17EE100A0DF068F98B
:1019E00002460B46304639460DF0B6F90DF0ACFC18
:1019F00007EE904A06EE900AF8EEE77AB5EEC0AA36
:101A0000F1EE10FA86EEA77AC0F21C814FF00008C2
:101A10004FF0000917EE10AA9FED8D7B9FED908A85
:101A2000DFED90BA8DED007BB6EE00BA11E00DF05F
:101A30003FF941EC100B41EC190B0BF0D9F98DED8E
:101A4000000BB0EE490AF0EE690A0BF031FA59ECDE
:101A5000108B68EE887A9FED839A67EE8B7A87EE1B
:101A6000AB7A17EE100A0DF023F90446DBF80400F8
:101A70000D460DF01DF9424606460F464B462046E0
:101A800029460DF069F902460B46304639460CF0FE
:101A9000B1FF0DF059FC8046DBF800000DF008F9AD
:101AA000DDE9002306460F46204629460DF054F98D
:101AB00002460B46304639460CF09CFF0DF044FCC4
:101AC000069006A8CDF81C8005F030FA50460DF0BF
:101AD000EFF8044618EE900A0D460DF0E9F8F0EE26
:101AE0006A7AE8EE087A8046894617EE900A0DF089
:101AF000DFF841EC100B0BF0C3FA404653EC102B0F
:101B000049460DF029F902460B46204629460DF0BC
:101B10004DFA0DF019FC07EE900A38EE278AB4EE64
:101B2000C8AAF1EE10FA18EE100A80DA029B002B18
:101B300000F0888038EE498A38EE678AB4EEC98AA8
:101B4000F1EE10FA7EDDCDE90489CDE90245B6EE6D
:101B500000CAF7EE009A5D4668EE887A67EE8C7AE6
:101B600087EE897A17EE100A0DF0A2F878EE097A5E
:101B7000824617EE900A8B460DF09AF841EC100B56
:101B800041EC1A0B0BF034F9B0EE40BAF0EE60BA4B
:101B9000B0EE4A0AF0EE6A0A0BF08AF953EC102B09
:101BA0006868CDE900230DF083F8DDE900230646DF
:101BB0000F46504659460DF0CFF802460B463046C8
:101BC00039460CF017FF0DF0BFFB814628680DF079
:101BD0006FF853EC1B2B06460F46504659460DF046
:101BE000BBF802460B46304639460CF003FF0DF0B9
:101BF000ABFB069006A8CDF81C9005F097F9F0EE27
:101C0000697AE8EE087A17EE900A0DF051F841EC87
:101C1000100B0BF035FADDE9040153EC102B0DF03D
:101C20009BF802460B46DDE902010DF0BFF90DF00D
:101C30008BFB07EE900A38EE678AB4EEC98AF1EEA4
:101C400010FA89DC09B0BDEC0A8BBDE8F08F00BF4B
:101C5000000000000000F03FDB0FC940DB0F4941EE
:101C600000000000DB0F494000B583B000230A46A6
:101C70000146684600930193FFF75AFE03B05DF8F2
:101C800004FB00BF2DE9F041334E3449344D354C4F
:101C9000354FDFF82481304608F032F906F11000A4
:101CA000324908F02DF906F12000314908F028F9F1
:101CB00006F130002F4908F023F92A462E4900206A
:101CC0000AF0B8FF20462D4908F01AF904F1100077
:101CD0002B4908F015F904F120002A4908F010F901
:101CE00004F13000284908F00BF904F140002749BD
:101CF00008F006F904F15000254908F001F904F153
:101D00006000244908F0FCF82A46234900200AF024
:101D100091FF3846214908F0F3F807F110002049F7
:101D200008F0EEF807F120001E4908F0E9F82A460D
:101D30001D4900200AF07EFF40461C4908F0E0F8EB
:101D400008F110001A4908F0DBF82A46194900206A
:101D5000BDE8F0410AF06EBF741AFF1F542C010059
:101D60000C08FF1F041AFF1FD419FF1F582C010075
:101D7000602C0100682C010041130000742C01004C
:101D8000782C01007C2C0100802C0100842C0100A7
:101D9000882C01008C2C010025130000902C0100E0
:101DA000982C0100A02C010001130000A82C0100B8
:101DB000AC2C0100E5120000B41AFF1F0020704790
:101DC000704700BF83791BB9034B20221A6070470C
:101DD000024B20221A60704788F00F4084F00F40B9
:101DE000704700BFC1717047C28A0123037152421C
:101DF0000023C261C3728372C37183714372037221
:101E000003767047704700BF837923B9044B4FF0C6
:101E100080621A607047034B4FF080621A6070470F
:101E200008F10F4004F10F4038B5054CA4F1B0059E
:101E300054F82C3D1B6820469847AC42F8D138BD79
:101E4000241EFF1F38B5054CA4F1900554F8243D1D
:101E50001B6820469847AC42F8D138BD741DFF1F5F
:101E600038B5054CA4F1900554F8243D1B68204674
:101E70009847AC42F8D138BD141CFF1F38B5054C4B
:101E8000A4F1D00554F8343D1B6820469847AC4275
:101E9000F8D138BDE41CFF1F38B5054CA4F1C005CE
:101EA00054F8303D1B6820469847AC42F8D138BD05
:101EB000E41EFF1F38B5054CA4F5807554F8403D6D
:101EC0001B6820469847AC42F8D138BDE41FFF1F7D
:101ED00010B5847990F82200214609F011F824B950
:101EE000044B4FF080621A6010BD034B4FF08062CC
:101EF0001A6010BD08F10F4004F10F4010B5002327
:101F000001220271C3728372C371837143720372BF
:101F1000044609F00FF8A06210BD00BF10B5002301
:101F200001220271C3728372C3718371437203729F
:101F3000044608F0FFFFA06110BD00BF10B50446C5
:101F400089B908F0F7FFA3692269C01A904207D93E
:101F500063691A4490428CBF00200120E07110BDDB
:101F60000020E07110BD08F0E5FFA061E9E700BFC7
:101F700010B5054C04F1100007F082FF2046BDE8C3
:101F8000104007F07DBF00BF2420FF1F10B5074C95
:101F900004F1200007F074FF04F1100007F070FF57
:101FA0002046BDE8104007F06BBF00BF541BFF1F69
:101FB00038B5054CA4F170052046103C07F060FFD1
:101FC000AC42F9D138BD00BF401BFF1F10B5094C12
:101FD00004F1300007F054FF04F1200007F050FF37
:101FE00004F1100007F04CFF2046BDE8104007F058
:101FF00047BF00BFE41FFF1F10B5044B044640F865
:102000001C3B07F03DFF204610BD00BFBC2D01006A
:1020100010B5044B044640F8203B07F031FF204642
:1020200010BD00BF882D010010B5044B044640F8D8
:10203000103B07F025FF204610BD00BF202D0100FA
:1020400010B5044B044640F8103B07F019FF20463A
:1020500010BD00BF542D010010B5044B044640F8DC
:10206000103B07F00DFF204610BD00BFEC2C010017
:1020700010B5044690F8220008F048FF003018BF61
:102080000120E07110BD00BF10B50446006808B122
:1020900008F0C4FB204610BD70B50D468CB0044658
:1020A000164904A807F02CFF0A222969684607F0A0
:1020B00095FF694604A808F025F8114908F02AF8A8
:1020C0000A220646696908A807F088FF08A9304671
:1020D00008F018F80B4908F01DF80146204607F0F3
:1020E00023FF08A807F0CCFE684607F0C9FE04A845
:1020F00007F0C6FE20460CB070BD00BFEC2D0100FD
:10210000F02D0100F82D010070B50C4690B0054689
:102110002349684607F0F4FE224B217C684603EB16
:10212000011107F0EFFF204907F0F4FF0A220646ED
:10213000618A04A807F02AFF04A9304607F0E2FFED
:102140001A4907F0E7FF0A220646A18A08A807F005
:102150001DFF08A9304607F0D5FF154907F0DAFF43
:102160000A220646E18A0CA807F010FF0CA93046A7
:1021700007F0C8FF0F4907F0CDFF0146284607F0DA
:10218000D3FE0CA807F07CFE08A807F079FE04A88F
:1021900007F076FE684607F073FE284610B070BD63
:1021A000FC2D0100541BFF1F042E0100102E010006
:1021B000182E0100502C010030B50D4689B00446A0
:1021C0000E4904A807F09CFE95F82210684607F017
:1021D000C9FE694604A807F095FF094907F09AFF70
:1021E0000146204607F0A0FE684607F049FE04A815
:1021F00007F046FE204609B030BD00BF242E010086
:10220000502C010030B50D4689B004460E4904A893
:1022100007F076FE95F82210684607F0A3FE69469F
:1022200004A807F06FFF094907F074FF0146204634
:1022300007F07AFE684607F023FE04A807F020FEA8
:10224000204609B030BD00BF242E0100502C0100F3
:1022500070B50D4688B004461349684607F050FE35
:10226000124B6979684603EB011107F04BFF1049E7
:1022700007F050FF0A220646696A04A807F0AEFE7E
:1022800004A9304607F03EFF0A4907F043FF014624
:10229000204607F049FE04A807F0F2FD684607F063
:1022A000EFFD204608B070BD2C2E01002420FF1F3A
:1022B000342E0100F82D010070B588B004460D469B
:1022C00068461C3107F030FE68460E4907F022FFD1
:1022D00095F82D10064604A807F044FE04A93046E0
:1022E00007F010FF084907F015FF0146204607F0E8
:1022F0001BFE04A807F0C4FD684607F0C1FD204698
:1023000008B070BD242C01008430010070B588B085
:1023100004460D466846203107F006FE68460E4921
:1023200007F0F8FE95F83110064604A807F01AFEEB
:1023300004A9304607F0E6FE084907F0EBFE014627
:10234000204607F0F1FD04A807F09AFD684607F063
:1023500097FD204608B070BD242C01008430010098
:1023600070B588B004460D466846103107F0DCFDB4
:1023700068460E4907F0CEFE95F82110064604A8DF
:1023800007F0F0FD04A9304607F0BCFE084907F04D
:10239000C1FE0146204607F0C7FD04A807F070FD06
:1023A000684607F06DFD204608B070BD242C010082
:1023B0008430010070B588B004460D46684610317F
:1023C00007F0B2FD68460E4907F0A4FE95F821100B
:1023D000064604A807F0C6FD04A9304607F092FEA1
:1023E000084907F097FE0146204607F09DFD04A826
:1023F00007F046FD684607F043FD204608B070BD73
:10240000242C01008430010070B588B004460D46CC
:102410006846103107F088FD68460E4907F07AFEDD
:1024200095F82110064604A807F09CFD04A9304643
:1024300007F068FE084907F06DFE0146204607F0E8
:1024400073FD04A807F01CFD684607F019FD20463F
:1024500008B070BD242C01008430010010B5064B7B
:10246000044640F81C3B07F00BFD2046302108F0E5
:10247000D7F9204610BD00BFBC2D010010B5064B9A
:10248000044640F8203B07F0FBFC2046342108F0CE
:10249000C7F9204610BD00BF882D010010B5064BBE
:1024A000044640F8103B07F0EBFC2046242108F0DE
:1024B000B7F9204610BD00BF202D010010B5064B16
:1024C000044640F8103B07F0DBFC2046242108F0CE
:1024D000A7F9204610BD00BF542D010010B5064BD2
:1024E000044640F8103B07F0CBFC20462C2108F0B6
:1024F00097F9204610BD00BFEC2C010010B5094A29
:10250000094913780446012084F8200084F821301A
:10251000034404F11000137007F088FD0023637179
:1025200010BD00BFB816FF1FF01AFF1F10B50B4AF1
:102530000B4913780446032084F8200084F82130E6
:1025400004F110000133137007F070FD94F82200BD
:102550000121BDE8104008F0E7BC00BF9C17FF1F39
:10256000101BFF1F08B5154B187808F0CFFC144B53
:10257000003018BF012018701B78124873B1FEF7A5
:102580006BF91148FEF768F91048FEF765F9104835
:10259000FEF762F90F4B20221A6008BDFEF7FAF829
:1025A0000948FEF7F7F80948FEF7F4F80848FEF77F
:1025B000F1F8094B20221A6008BD00BF4420FF1F1C
:1025C0004520FF1FE41EFF1F241FFF1F641FFF1F66
:1025D000A41FFF1F84F00F4088F00F4010B5044681
:1025E00008F0A8FCA36A626AC01A904208D9237A4C
:1025F00083F00103637208F09DFC637AA062E371CB
:1026000010BD00BF037CC1720022012BC27123D018
:102610001CD3022B13D1837A8B4216D0037E7BB955
:10262000C269418A8A421DDB0122C3610276828A25
:102630009A4208DC002201230276C37104E070474D
:10264000012BC369F3D00133C3617047837A002B38
:10265000FBD10029E2D17047837A002BF5D0002905
:10266000F3D1DBE701215318C171EDE710B5144A2E
:10267000144913780446052084F8300084F831307A
:1026800004F120000133137007F0D0FC002322680E
:10269000237411690C48A38201228142E3822272D1
:1026A000628209D1E372A372E371A3716372237230
:1026B0002271E361237610BD2046BDE81040084733
:1026C000BA16FF1F301BFF1FE91D000010B5124A8C
:1026D000124913780446062084F82C0084F82D3023
:1026E00004F11C000133137007F0A0FC23680C4AAE
:1026F0001B6993420CD100230122E372A372E371A0
:10270000A37163722372227108F014FCA06110BDE2
:102710002046BDE810401847BB16FF1F401BFF1F97
:102720001D1F000070B5134A1349137880F821303B
:1027300004460225013380F820501030137007F052
:1027400075FC294694F8220008F0EEFB23680B4A3A
:102750001B69934209D100230122E372A372E37142
:10276000A37163722372227170BD2046BDE8704070
:10277000184700BFB916FF1F001BFF1F71040000A0
:10278000014B024A1A6070470CED00E00400FA05A4
:102790002DE9F041884601211446074608F0C4FBA4
:1027A00008F0C8FBB8F1000F1ED0054664080026EB
:1027B0000121384608F0A4FB08F0BCFB401B844212
:1027C000FAD808F0B7FB00210546384608F098FB18
:1027D00008F0B0FB401B8442FAD808F0ABFB01368E
:1027E000F6B2B0450546E3D1BDE8F0810A460146A0
:1027F0001820FFF7CDBF00BF034B1B7803B970470C
:102800000146024807F0F4BA1008FF1FF009FF1F45
:1028100008B5064B1B7803B908BD0146044807F00C
:10282000E7FA0348BDE8084007F008BB1008FF1F9F
:10283000F009FF1F10B5012184B0204C0D2008F0D5
:1028400073FB202323600121182008F06DFB1C4B33
:102850004FF080621A600121162008F065FB02210A
:10286000172008F061FB012323609FED160A10205A
:1028700008F0A0FA0C2008F08DFA134B134A144903
:102880004FF48070186013684024234313600A20BB
:102890000C6008F073FB68460E4907F031FB0E4BE5
:1028A0001B7833B169460D4807F0A2FA0B4807F0D0
:1028B000C5FA684607F0E4FA04B010BD88F00F408E
:1028C00008F10F4000E87D4718D0044014F10F4094
:1028D00004F10F40402E01001008FF1FF009FF1FF8
:1028E00010B50E23154C184684B00221237008F051
:1028F0001BFB207808F00AFB114B003018BF0120A9
:1029000018701B78ABB10F4B20221A6068460E4935
:1029100007F0F6FA0D4B1B7833B169460C4807F007
:1029200067FA0B4807F08AFA684607F0A9FA04B07C
:1029300010BD084B20221A60E8E700BF4420FF1FAB
:102940004520FF1F84F00F40502E01001008FF1F8C
:10295000F009FF1F88F00F4008B5044B187808F005
:10296000D5FA003018BF012008BD00BF4420FF1F6A
:1029700070B5064C064604F1840554F82C3F3146E8
:10298000DB6820469847AC42F7D170BD741DFF1F2D
:102990002DE9F843124EDFF84C8006F1840700253C
:1029A0004FF00109344656F82C3F1B69434514D1BA
:1029B00084F8375084F8365084F8335084F8325015
:1029C00084F8355084F8345084F8309008F0B2FA26
:1029D0006065BE42E6D1BDE8F88330469847F8E727
:1029E000741DFF1FFD1E000070B5064658B1074B51
:1029F00093E83000AC4206D054F8040B03681B691E
:102A00009847A542F8D1024B1E7070BDD41AFF1F23
:102A1000501BFF1F38B5064B93E83000AC4206D080
:102A200054F8040B03681B699847A542F8D138BDD8
:102A3000D41AFF1F0138052804D8DFE800F0050C80
:102A4000141C222900207047154801F003032C2292
:102A500002FB03007047134B01F0030101EBC101BE
:102A600003EB81007047104B01F0030101EBC10142
:102A700003EB810070470D4B01F0030103EB811064
:102A800070470B4801F00301342303FB010070473A
:102A9000084B01F0030101EB410103EB011070470A
:102AA000741DFF1F841BFF1FE41CFF1FE41EFF1F7C
:102AB000141CFF1F241EFF1F30B4074C25686168DB
:102AC0008D4206D02B46002053F8042B9942D0604B
:102AD000FAD1656030BC7047D41AFF1F234B1B78B6
:102AE000002B41D02DE9F047DFF8888098E860009E
:102AF000B5422DD01E4FDFF880A04FF000090FE047
:102B000062795AB1E16801B189791B6A2046984718
:102B10002379FBB9236820465B6A9847AE4209D007
:102B200055F8044B2368DA69BA42E9D02046904749
:102B3000AE42F5D198E82400AA4209D052F8043BED
:102B4000DC79D87A597A9C71954298721972F5D1CC
:102B5000BDE8F087236884F804909A6A5245E5D16D
:102B60005B6A20469847D9E7704700BF501BFF1F9C
:102B70008D060000D41AFF1F850400002DE9F043E4
:102B8000A74BA84A1978A84BA84D95B0002914BFA7
:102B900011461946684607F0B3F9A5490CA807F095
:102BA000AFF969460CA807F0ADFA014610A807F086
:102BB000BBF92B78002B40F0C5819E4E10A807F082
:102BC0005FF90CA807F05CF9726833689A4200F06C
:102BD000A38199490CA807F093F996E80A00591ABD
:102BE0000A22891008A807F0E5F908A90CA807F03F
:102BF00089FA924907F08EFA014610A807F094F975
:102C00002B78002B40F0C88110A807F039F908A8EC
:102C100007F036F90CA807F033F996E809001B1AFB
:102C20009B10012B6CD00022144617460DF11008A2
:102C30003BE010A807F024F908A807F021F90CA838
:102C400007F01EF9336853F809100B6840465B69BA
:102C5000984741460CA807F067F9336853F8091004
:102C60000B6808A89B69984708A90CA807F04AFABE
:102C7000014610A807F058F92B78002B38D110A87E
:102C800007F0FEF808A807F0FBF80CA807F0F8F822
:102C9000404607F0F5F896E809001B1A01349B102E
:102CA000E4B2013B9C4222462DD250F822306449C6
:102CB000DB680CA84FEA82090BB10137FFB207F0BD
:102CC0001FF9214608A807F04DF908A90CA807F03C
:102CD00019FA5C4907F01EFA014610A807F024F91A
:102CE0002B78002BA5D010A9574807F081F8A0E752
:102CF00010A9554807F07CF8534807F09FF8BEE745
:102D000000270DF110084E490CA807F0F9F896E8D5
:102D10000A00591A0A22891008A807F04BF908A9D5
:102D20000CA807F0EFF9474907F0F4F9014610A89D
:102D300007F0FAF82B78002B40F0298110A807F053
:102D40009FF808A807F09CF80CA807F099F873689A
:102D500053F8041C0B6840465B69984741460CA831
:102D600007F0E2F8736853F8041C0B6808A89B6925
:102D7000984708A90CA807F0C5F9014610A807F064
:102D8000D3F82B78002B40F0FD8010A807F078F8DE
:102D900008A807F075F80CA807F072F8404607F08D
:102DA0006FF82A4910A807F0ABF82B78002B40F0F9
:102DB000E18010A807F064F8254910A807F0A0F8F2
:102DC0002B78002B40F0CE8010A807F059F821494D
:102DD0000CA807F095F8394608A807F0C3F808A929
:102DE0000CA807F08FF91C4907F094F9014610A8C8
:102DF00007F09AF82B78002B40F0AC8010A807F071
:102E00003FF808A807F03CF80CA807F039F896E856
:102E10000802994500F090809846012448E000BFE0
:102E2000501BFF1FF4350100602E01001008FF1F2A
:102E3000642E0100D41AFF1F942E0100A42E01005D
:102E4000B42E0100A0340100F009FF1FBC2E0100C8
:102E5000F42D0100C02E0100D42E010010A807F0AF
:102E60000FF808A807F00CF80CA807F009F83B6861
:102E700039465B6910A898472B78002B42D110A8DF
:102E800006F0FEFF484910A807F03AF82B78002B0F
:102E90003DD110A806F0F4FF336831465B6910A8F5
:102EA00098472B7833BB10A806F0EAFFC14543D002
:102EB00058F8046BF768002FF8D03C490CA807F0CD
:102EC0001FF8631C214608A8DCB207F04BF808A9DC
:102ED0000CA807F017F9364907F01CF9014610A8AD
:102EE00007F022F82B78002BB8D010A9314806F053
:102EF0007FFFB3E710A92F4806F07AFF2D4806F0B0
:102F00009DFFD0E710A92B4806F072FFB7E710A984
:102F1000284806F06DFFBCE7274910A806F0F0FF2F
:102F20002B7833B110A9234806F062FF214806F040
:102F300085FF10A806F0A4FF684606F0A1FF15B0B3
:102F4000BDE8F08310A91B4806F052FF194806F0AF
:102F500075FF32E610A9174806F04AFF154806F03B
:102F60006DFF4BE710A9134806F042FF114806F029
:102F700065FF29E710A90F4806F03AFF0D4806F053
:102F80005DFF16E710A90B4806F032FFFDE610A919
:102F9000084806F02DFFD1E610A9064806F028FFE4
:102FA000044806F04BFF2FE6E82E0100B42E010086
:102FB000A0340100F009FF1F7C2E0100F0B59FED49
:102FC000270A274E274D284F85B0052007F0F2FE2F
:102FD0009FED260A232007F0EDFE00242322052181
:102FE00038194034FDF7B6FBB4F5807F04D016F8ED
:102FF000011F15F8012FF3E71D4B187807F086FF26
:10300000F0B11948FDF728FC1A48FDF725FC1A48CD
:10301000FDF722FC1948FDF71FFC6846184906F029
:103020006FFF184B1B7833B16946174806F0E0FE76
:10303000154806F003FF684606F022FF05B0F0BD14
:103040000948FDF7A7FB0B48FDF7A4FB0A48FDF76D
:10305000A1FB0A48FDF79EFBDFE700BF00B88847E9
:10306000B42F0100E82D0100E41EFF1F005043486B
:103070004420FF1F241FFF1F641FFF1FA41FFF1FEB
:10308000F02E01001008FF1FF009FF1F2DE9F04F7F
:10309000684895B00446FDF749FC04F14000FDF78F
:1030A00045FC04F18000FDF741FC04F1C000FDF790
:1030B0003DFC04F580762546284600214035FDF785
:1030C000A1FBAE42F8D1DFF898915B4FD9F8003000
:1030D000019310A85949019B06F012FF3B7833B1C8
:1030E00010A9574806F084FE554806F0A7FE10A820
:1030F00006F0C6FE534EDFF86881002552495FFA9C
:1031000085FA0CA806F0FCFE514608A806F02AFF36
:1031100008A90CA806F0F6FF4C4906F0FBFF314663
:1031200006F0F0FF4A4906F0F5FF014610A806F048
:10313000FBFE3B78002B77D110A806F0A1FE08A873
:1031400006F09EFE0CA806F09BFE514610A806F065
:1031500009FF3B78002B5FD110A806F091FE0121FA
:103160002046FDF72FFB4FF0000B41F2040A5946B1
:103170002046FDF73BFBD9F800300293029AD9F8BC
:1031800000300393039B9B1A312BF8D90BF1640B8E
:103190001FFA8BFBD345EAD140F6FF7A1FFA8AFA71
:1031A00051462046FDF722FBD9F800300493049ADB
:1031B000D9F800300593059B9B1A312BF8D9AAF159
:1031C000640A0FFA8AFA1AF1050FE7D100212046A6
:1031D000FDF7F8FAD8F800300693069AD9F80030CF
:1031E0000793079B9B1AB3F5FA7FF7D30135042D9C
:1031F00006F1100604F1400480D10E48FDF736FBBD
:103200001448FDF733FB1448FDF730FB1348FDF776
:103210002DFB15B0BDE8F08F10A9094806F0E8FDB8
:10322000074806F00BFE97E710A9054806F0E0FDF9
:1032300082E700BFE41EFF1F1008FF1F002F0100E0
:10324000F009FF1FE41FFF1F142F0100242F0100AE
:103250002C2C0100241FFF1F641FFF1FA41FFF1F32
:103260004498012030B59FED1A0A1A4C85B01D20F4
:1032700007F0A0FD0C2007F08DFDA38840F6FF7538
:10328000AB42A8BF2B461D22194610462380A270D0
:1032900007F0E0FB6389AB42A8BF2B461E2219460C
:1032A0001046E380227207F0D5FB68460A4906F013
:1032B00027FE0A4B1B7833B16946094806F098FD92
:1032C000074806F0BBFD684606F0DAFD05B030BDE4
:1032D00000E87D474820FF1F282F01001008FF1F2E
:1032E000F009FF1F00B540F2FF7185B0422007F0E2
:1032F000B1FB40F2FF71432007F0ACFB684609497F
:1033000006F0FEFD084B1B7833B16946074806F00E
:103310006FFD064806F092FD684606F0B1FD05B067
:103320005DF804FB642F01001008FF1FF009FF1F68
:103330002DE9F04F474F83B0054607F0FBFD3B6892
:1033400000930446DDF8008004F09EFA81460028D0
:103350007CD10021422007F07DFB0021432007F0B3
:1033600079FB07F0E7FD001BB0F5967FF9D307F076
:10337000E1FD4FF47A7606FB05FB044641F21805A1
:103380003B680193019BC8EB03035B454CD24FF0B4
:10339000000A5146432007F05DFB07F0CBFD001B00
:1033A0006328FAD907F0C6FD0AF1280AAA4504469F
:1033B000EFD14FF0000A5146422007F04BFB07F0D7
:1033C000B9FD001B6328FAD907F0B4FD0AF1280AF9
:1033D000AA450446EFD14FF47F66A6F1280A1FFAEA
:1033E0008AF63146432007F035FB07F0A3FD001BAA
:1033F0006328FAD907F09EFD0446002EEDD14FF464
:103400007F66A6F1280A1FFA8AF63146422007F0A5
:1034100021FB07F08FFD001B6328FAD907F08AFD16
:103420000446002EEDD1ABE740F2FF71422007F0D9
:1034300011FB40F2FF71432007F00CFBB9F1000FC4
:1034400001D004F09FF903B0BDE8F08F04F0FAF961
:103450007FE700BF449801202DE9F04F2DED048B4C
:1034600085B0054604F010FA824600287BD1DFF8CB
:1034700020B19FED459A07F05DFDDBF80030029327
:10348000029B00934FF47A7303FB05F30446019308
:10349000DBF800300393009A039B9B1A019A934236
:1034A0004FD2DFF8E890002600274FF000080025F3
:1034B0000022364B404649460BF09CFA30A3D3E934
:1034C00000230BF049FC0BF01FFF81B2422007F0F4
:1034D000C1FA00222D4B304639460BF08BFA28A357
:1034E000D3E900230BF038FC0BF00EFF81B2432030
:1034F00007F0B0FA07F01EFD001B6328FAD907F0A9
:1035000019FD0135B5F5B47F0446C1D007EE905AD8
:10351000F8EEE77A67EE897A17EE900A0BF0C8FBAF
:1035200041EC100B41EC180B09F062FC59EC108BCC
:10353000B0EE480AF0EE680A09F0BAFC57EC106BDE
:10354000B6E740F2FF71422007F084FA40F2FF71C3
:10355000432007F07FFABAF1000F07D105B0BDECA8
:10356000048BBDE8F08F04F06DF980E704F00AF9F0
:1035700005B0BDEC048BBDE8F08F00BFAFF3008059
:103580000000000000FC9F4035FA8E3C0000F03F38
:10359000449801202DE9F04782B0054604F074F903
:1035A0000746002852D1DFF8B48007F0C3FCD8F8F2
:1035B000003000934FF47A76DDF8009006FB05F6B4
:1035C000044641F21805D8F800300193019BC9EB7D
:1035D0000303B34240F2FF714FF042002BD207F0D9
:1035E00039FA4FF0000A5146432007F033FA07F04A
:1035F000A1FC001B6328FAD907F09CFC0AF1280AF9
:10360000AA450446EFD140F2FF71432007F022FAA9
:103610004FF0000A5146422007F01CFA07F08AFCDE
:10362000001B6328FAD907F085FC0AF1280AAA458D
:103630000446EFD1C7E707F00DFA40F2FF714320CF
:1036400007F008FA2FB902B0BDE8F08704F0FAF8E5
:10365000A9E704F097F802B0BDE8F087449801208C
:1036600010B5FE2184B0124804F04AFB6C4658B9EC
:103670006846104906F044FC0F4B1B7863B920469E
:1036800006F0FEFB04B010BD68460C4906F038FC9D
:10369000094B1B78002BF2D02146094806F0A8FB05
:1036A000074806F0CBFB204606F0EAFB04B010BD4D
:1036B000C4950120782F01001008FF1F982F0100EA
:1036C000F009FF1F08B5FFF7B5F8FFF7CBFDFFF7CF
:1036D00007F9FFF773FC064B06491878042207F038
:1036E0002BF9FFF7FFFDBDE80840FFF7B9BF00BFAA
:1036F0004420FF1F652500002DE9F043554F91B090
:1037000081460E4668460122494604F019FC684687
:1037100004F0EEFA002800F09780DFF83881AEB1AF
:10372000002408AD06E001342846E4B206F0A8FB08
:10373000A6420CD00921284606F064FC3B78002BF9
:10374000F1D02946444806F053FBECE708AD684643
:1037500004F0B2FA0146284606F0D2FB98F8003091
:10376000002B57D1284606F08BFB684604F0A6FADA
:10377000002836D03949284606F0C2FB98F80030B8
:10378000002B4CD1284606F07BFB10AB9DF804C003
:1037900053F8331DCDF82D105C68187BD3F80880E2
:1037A000029A9DF80CE0CDF83140711C079B8DF812
:1037B0003900C9B228462A4CCDF835808DF824C08E
:1037C0000A928DF82CE008940F93FFF795FF284696
:1037D00004F070FA684604F07DFA684604F06AFA6C
:1037E00090E72049284606F08BFB98F8003033BB61
:1037F000284606F045FB684604F068FA0A220146AE
:10380000284606F0EBFB98F8003083B9284606F00E
:1038100037FBDFE72946104806F0EAFAA2E7294617
:103820000D4806F0E5FA0C4806F008FBAAE7294621
:10383000094806F0DDFA084806F000FBE6E72946ED
:10384000054806F0D5FAD3E7684604F033FA11B01C
:10385000BDE8F0831008FF1FF009FF1FAC2F010027
:1038600020360100B02F01002DE9F8434468D0F85C
:103870000080C8EB0405AD100646894605D06B00F4
:103880009D4229D96FF0030500E00425284606F083
:10389000C3FF7468D6F800800746C8EB0404D9F863
:1038A0000030E74218BF3B51A3080DD104343C441B
:1038B000B8F1000F02D0404606F0B0FF3D44B560BD
:1038C00037607460BDE8F8832246414638460434C8
:1038D0000CF0F0F83C44EEE7B3F1804FD2D213B9CC
:1038E0001D461F46D9E7ED00D0E700BF10B582B0F6
:1038F0000190D8B1114C236861688B420DD01A68D1
:10390000824218BF043303D110E0126890420DD0F8
:1039100099421A4603F10403F7D1A368074A994272
:1039200006D009B1086051680431616002B010BD71
:10393000104601A9FFF798FFF8E700BFD41AFF1F50
:103940002DE9F047D749D848D84CDFF82CA4D84FF8
:10395000DFF8289406F0D4FAD649D74806F0D0FA12
:10396000D649D74806F0CCFAD649D74806F0C8FA67
:10397000D64AD749002009F05DF9D649D64806F065
:10398000BFFAD649D64806F0BBFAD649D64806F063
:10399000B7FAD649D64806F0B3FAD649D64806F063
:1039A000AFFAD649D64806F0ABFAD649D64806F063
:1039B000A7FAC64AD549002009F03CF9D449D548B0
:1039C00006F09EFAD449D54806F09AFAD449D5486B
:1039D00006F096FABD4AD449002009F02BF9D349E4
:1039E000D34806F08DFAD349D34806F089FAB74A8E
:1039F000D249002009F01EF904F1B0080126002583
:103A000004F80B6C04F80C6C44F810AC44F8045C3B
:103A100004F8055C04F8065C04F8095C04F80A5C28
:103A200004F8075C04F8085C2946204606F068FAAA
:103A30003B78C4F81490267463745A1C2046A84935
:103A40003A702C3406F0F2FA04F8375C4445D6D1CB
:103A50009E4ABB49BB4CDFF82883BB4F284609F080
:103A6000E9F804F19009012604F80B6C44F8045CB1
:103A700004F8055C04F8065C04F8095C04F80A5CC8
:103A800004F8075C04F8085C04F80C6C44F8108C2B
:103A90000021204606F034FA3B7863744FF0160E8E
:103AA000032284F812E02274013391493B702046CE
:103AB00006F0BCFA243414F8120C012107F034FA91
:103AC0004C45D1D1814AA149A14CDFF8B892A14F10
:103AD000002009F0AFF804F190080126002504F851
:103AE0000B6C44F8045C04F8055C04F8065C04F80C
:103AF000095C04F80A5C04F8075C04F8085C04F844
:103B00000C6C44F8109C0021204606F0F9F93B7833
:103B1000637417224FF0020AA274013384F810A0D4
:103B200071493B70204606F081FAA07C514607F0AF
:103B3000FBF9243404F8295C04F82A5C04F82D5CB1
:103B400004F82E5C04F82B5C04F82C5C04F8306C50
:103B50004445C4D15D4A8049804CDFF82C92804FA7
:103B6000002009F067F804F1D0080126002504F8C8
:103B70001B6C44F8145C04F8155C04F8165C04F83B
:103B8000195C04F81A5C04F8175C04F8185C04F873
:103B90001C6C44F8209C0021204606F0B1F93B78CB
:103BA0006374052222740133204655493B70343436
:103BB00006F03CFA04F8445C24F8426C24F8405CBB
:103BC00024F83E5C04F8495C04F84A5C04F84D5C57
:103BD00004F84E5C04F84B5C04F84C5C04F8506C40
:103BE00044F8385C04F83C5CA045C0D1374A5D49D4
:103BF0005D4CDFF898915D4F002009F01BF804F14F
:103C0000C008012600254CF250334FF0000A44F85A
:103C1000083C04F8176C44F8105C04F8115C04F8D4
:103C2000125C04F8155C04F8165C04F8135C04F8E4
:103C3000145C04F8186C44F81C9C44F80C5C514665
:103C4000204606F05DF93B78637406222274013346
:103C50002D493B70204606F0E9F904F8115C04F8A0
:103C6000125C04F8155C04F8165C04F8135C04F8A4
:103C7000145C04F8186C07F05DF9303444F8340C27
:103C80004445C0D1114A3A49504608F0D3FF394B58
:103C90000E4AC3F800A01846C3F804A0C3F808A051
:103CA00076E000BF542C0100E41FFF1F841DFF1F9E
:103CB000B816FF1F582C0100F41FFF1F602C0100D5
:103CC0000420FF1F682C01001420FF1F0C08FF1F99
:103CD000CD1F0000742C0100E01AFF1F782C01009A
:103CE000F01AFF1F7C2C0100001BFF1F802C01001D
:103CF000101BFF1F842C0100201BFF1F882C0100BC
:103D0000301BFF1F8C2C0100401BFF1FB11F000048
:103D1000902C0100541BFF1F982C0100641BFF1FF7
:103D2000A02C0100741BFF1F8D1F0000A82C010098
:103D30002420FF1FAC2C01003420FF1F711F000046
:103D4000291E0000F41CFF1F9C17FF1F451E0000CA
:103D5000941BFF1FB916FF1F611E0000341CFF1FBC
:103D6000BA16FF1F7D1E0000401EFF1FBB16FF1F5F
:103D7000991E0000D41AFF1FEC2C0100A086010040
:103D8000542D0100202D0100882D0100BC2D0100C3
:103D90000D4908F04FFF0D48FCF79EFC0C48FCF75E
:103DA0009BFC0C48FCF798FC0B48FCF795FC0B4A75
:103DB0000B49504608F03EFF0A4B40F2FF729A80D2
:103DC0005A81BDE8F08700BF89200000E41EFF1F74
:103DD000241FFF1F641FFF1FA41FFF1F0C08FF1FCE
:103DE000B51E00004820FF1F10B5054C04F110005F
:103DF00006F046F82046BDE8104006F041B800BF86
:103E00003421FF1F10B5074C04F1200006F038F8EC
:103E100004F1100006F034F82046BDE8104006F02A
:103E20002FB800BF5420FF1F38B5054CA4F1700512
:103E30002046103C06F024F8AC42F9D138BD00BF52
:103E4000E420FF1F10B5094C04F1300006F018F80B
:103E500004F1200006F014F804F1100006F010F848
:103E60002046BDE8104006F00BB800BFF420FF1F4D
:103E700000B585B0FDF742F9FFF724FC03F000FC24
:103E80000849684606F03CF86846FEF7C1FC6846FB
:103E900005F0F6FF04490420FEF7A8FC05B05DF824
:103EA00004FB00BFB82F010090D0030008B5FDF758
:103EB0006BF9BDE80840FEF711BE00BF2DE9F041E7
:103EC000334E3449344D354C354FDFF8248130467C
:103ED00006F016F806F11000324906F011F806F166
:103EE0002000314906F00CF806F130002F4906F0A9
:103EF00007F82A462E49002008F09CFE20462D494E
:103F000005F0FEFF04F110002B4905F0F9FF04F164
:103F100020002A4905F0F4FF04F13000284905F09B
:103F2000EFFF04F14000274905F0EAFF04F15000DB
:103F3000254905F0E5FF04F16000244905F0E0FFA4
:103F40002A462349002008F075FE3846214905F02D
:103F5000D7FF07F11000204905F0D2FF07F120003C
:103F60001E4905F0CDFF2A461D49002008F062FEDB
:103F700040461C4905F0C4FF08F110001A4905F03D
:103F8000BFFF2A4619490020BDE8F04108F052BEA3
:103F9000F420FF1F542C01000C08FF1F8420FF1F7A
:103FA0005420FF1F582C0100602C0100682C0100D8
:103FB000453E0000742C0100782C01007C2C01008F
:103FC000802C0100842C0100882C01008C2C010025
:103FD000293E0000902C0100982C0100A02C01002B
:103FE000053E0000A82C0100AC2C0100E93D0000BA
:103FF0003421FF1F10B5054C04F1100005F040FFFF
:104000002046BDE8104005F03BBF00BF5422FF1F13
:1040100010B5074C04F1200005F032FF04F1100048
:1040200005F02EFF2046BDE8104005F029BF00BF77
:104030006421FF1F38B5054CA4F170052046103CE3
:1040400005F01EFFAC42F9D138BD00BFF421FF1FBF
:1040500010B5094C04F1300005F012FF04F1200006
:1040600005F00EFF04F1100005F00AFF2046BDE840
:10407000104005F005BF00BF1422FF1F06F040BF2F
:1040800030B585B001460446684605F04DFF6846E8
:10409000FCF718FF0546684605F0F2FE8DB90D499C
:1040A000204606F079F810B1012005B030BD204659
:1040B000094906F071F8B0FA80F04009404205B0B5
:1040C00030BD204606F0B0F80028D4BF0020012003
:1040D00005B030BDAC2C0100A82C0100F0B585B0B6
:1040E00001460646684605F01FFF6846FCF7EAFEF3
:1040F0000446684605F0C4FED4B93146684605F06A
:1041000013FF6846FCF7CEFE0546684605F0B8FE8C
:1041100055B10B4D2946304606F030F867B21035E0
:10412000013410B9072CF5D10027384605B0F0BD91
:10413000304606F079F847B2384605B0F0BD00BF0A
:104140009421FF1FF0B585B001460646684605F08C
:10415000EBFE6846FCF7B6FE0446684605F090FEA6
:10416000DCB93146684605F0DFFE6846FCF79AFE8A
:104170000546684605F084FE55B10B4D294630468C
:1041800005F0FCFF67B21035013418B9042CF5D1E5
:104190004FF0FF37384605B0F0BD304606F044F822
:1041A00047B2384605B0F0BD1422FF1FF0B585B008
:1041B00001460646684605F0B7FE6846FCF782FEF3
:1041C0000446684605F05CFEDCB93146684605F0F9
:1041D000ABFE6846FCF766FE0546684605F050FEF5
:1041E00055B10B4D2946304605F0C8FF67B2103572
:1041F000013418B9032CF5D14FF0FF37384605B01C
:10420000F0BD304606F010F847B2384605B0F0BDB4
:104210006421FF1F30B50C4691B033490546204656
:1042200005F052FF3149684605F06AFE21466846AE
:1042300005F068FF014608A805F076FE08A8FEF71D
:10424000E7FA08A805F01CFE684605F019FE684666
:1042500003F022FD2268264908A8012303F0FCFD93
:104260000A9A9DF82C309DF8241002928DF80C309B
:104270008DF804100BAA0DF10D030DF11A0012F8C0
:10428000011F03F8011B8342F9D10F9B079308A874
:1042900003F010FD174908A805F032FE684603F048
:1042A00027FD38B91BE0684603F08EFCC1B208A8B0
:1042B00005F018FF684603F069FC0028F3D1684652
:1042C00003F008FD08A9284605F0C8FD08A805F078
:1042D000D7FD684603F0EEFC284611B030BD064914
:1042E00008A805F0ABFEEDE7D42F0100DC2F01009C
:1042F000C4950120F42D0100EC2F010030B52B49AD
:1043000091B0044605F0E0FE684603F0C5FC226863
:10431000274908A8132303F09FFD0A9A9DF82C3023
:104320009DF8241002928DF80C308DF804100BAA21
:104330000DF10D030DF11A0012F8011F03F8011B16
:104340008342F9D10F9B079308A803F0B3FC68469A
:1043500003F0CEFC0446C8B1164DAB6800245BB137
:104360002146144805F02EFF0178684603F002FC50
:10437000AB6801349C42F3D3684603F0ABFC68465B
:1043800003F098FC0124204611B030BD0A4908A86A
:1043900005F0B6FD08A8FEF73BFA08A805F070FD89
:1043A000684603F087FC204611B030BDD42F0100D1
:1043B000C49501205421FF1FF42F01002DE9F0477F
:1043C0002DED028B0E4694B0B1499046074605F09C
:1043D000E3FE58B3CEB9AF49AF4805F0DDFE002883
:1043E0003ED1AE490CA805F08BFD0CA8FEF710FAE3
:1043F0000CA805F045FDA84802F006FB0124204664
:1044000014B0BDEC028BBDE8F087A5490CA805F0FF
:1044100077FD0CA8FEF7FCF90CA805F031FD00248F
:10442000204614B0BDEC028BBDE8F0879D493846AC
:1044300005F0B2FE002846D0012E0CAD21D09849DF
:10444000284605F05DFD2846FEF7E2F9284605F00E
:1044500017FD0024204614B0BDEC028BBDE8F087A8
:1044600091490CA805F04CFD0CA8FEF7D1F90CA859
:1044700005F006FD0124204614B0BDEC028BBDE81A
:10448000F0874146284605F04FFD2846FCF71AFD07
:104490000446284605F0F4FC002CD0D0404605F038
:1044A000C3FE824C86B204F5807520463146403406
:1044B000FCF79CF9A542F8D10124204614B0BDECCC
:1044C000028BBDE8F0877A49384605F065FE044660
:1044D00070B1022E1FD00CAD7149284605F010FDB9
:1044E0002846FEF795F9284605F0CAFC002486E721
:1044F0007049384605F050FE8146A0B3012E46D0E3
:1045000067490CA805F0FCFC0CA8FEF781F90CA883
:1045100005F0B6FC73E70CAD08F1100631462846ED
:1045200005F002FD2846FCF7CDFC0446284605F0C0
:10453000A7FC002CD0D04146284605F0F5FC2846C3
:10454000FFF700FE0446304605F06EFE002C05DB4A
:10455000564B81B203EB8410FCF748F9284605F06E
:104560008FFC01244BE75449384605F015FE0546FB
:1045700038B3022E3AD04A490CA805F0C1FC0CA869
:10458000FEF746F90CA84C4605F07AFC37E70CAD6F
:104590004146284605F0C8FC2846FFF771FD434C0C
:1045A000071C18BF012704F58076204639464034A1
:1045B000FCF708F9A642F8D1284605F061FC012471
:1045C0001DE73E49384605F0E7FD814600284BD0FF
:1045D000012E2FD032490CA805F092FC0CA8FEF752
:1045E00017F90CA82C4605F04BFC08E704AF414630
:1045F000384605F099FC3846FFF7A4FD0CAD04469B
:1046000008F11001284605F08FFC2846FFF738FD19
:10461000002C07DB254B011C18BF012103EB841084
:10462000FCF7D0F8284605F02BFC384605F028FCAE
:104630000124E4E60CAD4146284605F075FC284609
:10464000FFF71EFD194C071C18BF012704F58076E3
:10465000204639464034FCF7D5F8A642F8D1284622
:1046600005F00EFC0124CAE61549384605F094FD14
:10467000044638B3022E4BD009490CA805F040FC83
:104680000CA8FEF7C5F80CA84C4605F0F9FBB6E6F9
:1046900050300100F42D01000422FF1F58300100AA
:1046A000883001009C30010064300100E41EFF1FCF
:1046B000A8300100B0300100BC300100C43001005E
:1046C000D0300100BB49384605F066FD002838D0DF
:1046D000002E40D1FEF740F90CADB74904462846FC
:1046E00005F00EFC2846FEF787F8284605F0C8FBC3
:1046F000B24BB3492846002C18BF194605F000FC00
:104700002846FEF785F8284605F0BAFB012476E630
:104710000CAD4146284605F007FC2846FFF712FD80
:10472000002809DBD8F81010A64B003118BF012172
:1047300003EB8010FCF766F8284605F0A1FB012486
:104740005DE6A149384605F027FDD8B176B9FEF7F8
:104750009DFC012453E69D490CA805F0D1FB0CA853
:10476000FEF756F80CA805F08BFB48E697490CA815
:1047700005F0C6FB0CA8FEF74BF80CA805F080FB73
:1047800000243CE69249384605F006FD70B1022E41
:1047900021D00CAD8D49284605F0B2FB2846FEF726
:1047A00037F8284605F06CFB002428E6894938468E
:1047B00005F0F2FC814688B3012E0CAD17D0834979
:1047C000284605F09DFB2846FEF722F8284605F00E
:1047D00057FB002413E604A8414605F0A5FB04A8F6
:1047E000FCF770FB78BB04A805F04AFBD1E7414613
:1047F000284605F099FB2846FCF764FB044628464A
:1048000005F03EFB002CDAD0404605F00DFD724A63
:104810002C2303FB002034464671F0E56F493846EF
:1048200005F0BAFC00284DD0012E0CAD32D06749FE
:10483000284605F065FB2846FDF7EAFF284605F007
:104840001FFB0024DBE50CAD08F1100739462846B4
:1048500005F06AFB2846FCF735FB0446284605F0C0
:104860000FFB04A805F00CFB002C93D0404605F08C
:10487000DBFC2C2404FB00F4574D384605F0D4FC37
:104880006319625990FBF6F058621846136998470D
:104890000124B4E54146284605F046FB2846FCF7CE
:1048A00011FB0446284605F0EBFA002CBFD0404629
:1048B00005F0BAFC484A2C2303FB0020344680F85C
:1048C00005909CE54649384605F066FC044670B103
:1048D000022E0CAD1ED03D49284605F011FB28469E
:1048E000FDF796FF284605F0CBFA002487E53D4901
:1048F000384605F051FC002846D0012E33D033490C
:104900000CA805F0FDFA0CA8FDF782FF0CA805F035
:10491000B7FA74E54146284605F006FB2846FCF741
:10492000D1FA0446284605F0ABFA002CD3D0404615
:1049300005F07AFC2C24284B04FB00F408F110014C
:10494000E25828461C44D66805F0EEFA2846FFF7E0
:1049500097FB011C18BF01212046B047284605F0EF
:104960008FFA01244BE541460CA805F0DDFA0CA8AE
:10497000FFF786FB003018BF0120FDF7F9FF0CA8F8
:10498000344605F07DFA3AE51749384605F004FC4F
:10499000044658B3012E0CAD33D00C49284605F01F
:1049A000AFFA2846FDF734FF284605F069FA0024DF
:1049B00025E500BFD8300100E83001000C300100CF
:1049C0002C300100E41EFF1F00310100883001007F
:1049D0000C3101001C310100741DFF1F2831010042
:1049E000343101004431010058310100A9493846F1
:1049F00005F0D2FB054648B3EEB9FDF7C9FF012427
:104A0000FDE44146284605F08FFA2846FCF75AFA9D
:104A10000446284605F034FA002CBED0404605F086
:104A200003FC2C2303FB00F09B4BC2581844136972
:104A300034469847E3E499490CA805F061FA0CA8BC
:104A4000FDF7E6FE0CA805F01BFAD8E494493846B9
:104A500005F0A2FB044668B1052E1ED08F490CA8B4
:104A600005F04EFA0CA8FDF7D3FE0CA82C4605F075
:104A700007FAC4E48B49384605F08EFB00285AD06B
:104A8000032E3FD085490CA805F03AFA0CA8FDF793
:104A9000BFFE0CA805F0F4F9B1E4404605F0C4FBF4
:104AA000342508F1100105FB00F50CA805F03CFACF
:104AB0007D4E0CA8FFF77AFBAC19AB5920741B692B
:104AC000204698470CA805F0DBF908F1200005F016
:104AD000ABFBAB5960821B692046984708F1300058
:104AE00005F0A2FBAB59A0821B692046984708F14C
:104AF000400005F099FBAB59E0821B6920469847BE
:104B000001247CE4404605F08FFB302404FB00F4D4
:104B100008F1100005F088FB644D064608F12000FE
:104B200005F082FB6319625958611E6118461369CA
:104B30009847012463E45E49384605F02DFB68B1CF
:104B4000012E16D055490CA805F0DAF90CA8FDF78E
:104B50005FFE0CA805F094F9002450E4554938464E
:104B600005F01AFB10B3AEB90120FDF73DFF01249B
:104B700045E441460CA805F0D7F90CA8FFF780FAE8
:104B8000003018BF0120FDF72FFF0CA805F078F9C1
:104B9000012434E441490CA805F0B2F90CA8FDF752
:104BA00037FE0CA805F06CF9002428E44249384689
:104BB00005F0F2FA044628B17EB93046FDF714FF3D
:104BC00001241CE43D49384605F0E6FA8146E0B18F
:104BD0007EB9FDF71FFF012411E430490CA805F050
:104BE0008FF90CA8FDF714FE0CA805F049F9002474
:104BF00005E42A490CA805F083F90CA8FDF708FE86
:104C00000CA805F03DF9FFF7FABB2D49384605F031
:104C1000C3FA054670B1022E0CA821D01F4905F039
:104C20006FF90CA8FDF7F4FD0CA84C4605F028F927
:104C3000FFF7E5BB2349384605F0AEFA04460028E5
:104C400074D0042E0CA83FD0144905F059F90CA8D3
:104C5000FDF7DEFD0CA82C4605F012F9FFF7CFBBDF
:104C6000414605F061F90CA8FFF738FA044608F14F
:104C7000100005F0D9FAC1B2E0B2FDF7DBFE044640
:104C80000CA805F0FDF82046FEF730FE0124FFF7E2
:104C9000B6BB00BF60310100741DFF1F88300100EA
:104CA0006C31010074310100141CFF1F241EFF1F12
:104CB0007C3101008C31010098310100A4310100E8
:104CC000AC310100BC310100414605F02DF90CA8C2
:104CD000FFF704FA044608F1100005F0A5FAC1B286
:104CE000E0B2FDF7A7FE06460CA805F0C9F808F1EA
:104CF00020010CA805F018F90CA8FFF7EFF90446FD
:104D000008F1300005F090FAC1B2E0B2FDF792FE72
:104D100005460CA805F0B4F83046FEF7E7FD284636
:104D2000FEF7E4FD0124EE60FFF769BBBF4938469A
:104D300005F032FA0546002843D016F001034CD1A5
:104D40007608771EDEB27501BE420CA808EB05019D
:104D500003F10104BFF6B0AB05F0E6F80CA8FFF7CD
:104D6000BDF9814605F11000404405F05DFAC1B27D
:104D70005FFA89F0FDF75EFE81460CA805F080F829
:104D8000711C08EB41110CA805F0CEF80CA8FFF738
:104D9000A5F9064605F13000404405F045FAC1B2D8
:104DA000F0B2FDF747FE05460CA805F069F8484645
:104DB000FEF79CFD2846FEF799FDC5F80C902346AA
:104DC000C0E79B49384605F0E7F98146F0B186B95E
:104DD000FDF772FE0124FFF712BB96490CA805F0FF
:104DE0008FF80CA8FDF714FD0CA805F049F8FFF7A3
:104DF00006BB90490CA805F083F80CA8FDF708FD48
:104E00000CA82C4605F03CF8FFF7F9BA8A49384659
:104E100005F0C2F9044628B1C6B9FDF7AFFE01247A
:104E2000FFF7EDBA8549384605F0B6F9002842D0BB
:104E3000032E0CA817D07F4905F062F80CA8FDF7E7
:104E4000E7FC0CA805F01CF8FFF7D9BA79490CA8C3
:104E500005F056F80CA8FDF7DBFC0CA84C4605F055
:104E60000FF8FFF7CCBA414605F05EF80CA8FFF743
:104E700035F9044608F1100005F0D6F9C1B2E0B2E8
:104E8000FDF7D8FD04460CA804F0FAFF236808F1EA
:104E900020010CA8DD6805F047F80CA8FFF7F0F832
:104EA000011C18BF01212046A8470CA804F0E8FF08
:104EB0000124FFF7A4BA6249384605F06DF978B1CC
:104EC000012E0CAD21D05B49284605F019F8284683
:104ED000FDF79EFC284604F0D3FF0024FFF78FBAAD
:104EE0005849384605F058F9002858D0022E31D0DC
:104EF00050490CA805F004F80CA8FDF789FC0CA893
:104F000004F0BEFF0024FFF77ABA4146284605F0B8
:104F10000BF82846FBF7D6FF0446284604F0B0FFFE
:104F2000002CD0D0404605F07FF940F6FF7384B2E4
:104F30009C42A8BF1C46444DA6B22146A8782E80AC
:104F400005F088FD2146287AEE8005F083FD0124D6
:104F5000FFF755BA30464146FBF7C4FF0028C7D0DB
:104F6000404605F061F9044608F1100005F05CF9CF
:104F7000E3B2012B3FF6A0AA334C062202FB03F258
:104F800040F6FF7183B215198B42A8BF0B46A87873
:104F900013531946012405F05DFDFFF730BA2B4984
:104FA000384605F0F9F8044628B17EB902F0EAFB6C
:104FB0000124FFF724BA2649384605F0EDF8F0B190
:104FC0008EB902F03FFC0124FFF719BA19490CA869
:104FD00004F096FF0CA8FDF71BFC0CA804F050FF92
:104FE0000024FFF70CBA13490CA804F089FF0CA8A1
:104FF000FDF70EFC0CA804F043FFFFF700BA1549BB
:10500000384605F0C9F8054630B3012E0CAD00F066
:105010008D810849284604F073FF2846FDF7F8FB08
:10502000284604F02DFF0024FFF7E9B9C83101003C
:10503000D031010088300100DC310100E83101008D
:10504000F4310100003201004820FF1F0832010046
:105050001032010018320100DB49384605F09CF897
:105060000446002800F08C81002E40F07C810CADBD
:10507000D649284604F044FF2846FDF7BDFB2846E4
:1050800004F0FEFEFCF7AEF9002800F06A81D0497A
:10509000284604F035FF2846FDF7BAFB284604F001
:1050A000EFFECC49284604F02BFF2846FDF7A4FB71
:1050B000284604F0E5FE01F023FF0A2201462846B7
:1050C00004F064FF2846FDF7A3FB284604F0D8FE51
:1050D000C149284604F014FF2846FDF78DFB2846F9
:1050E00004F0CEFE02F0D0FB002800F03881B84971
:1050F000284604F005FF2846FDF77EFB284604F00D
:10510000BFFEB649284604F0FBFE2846FDF774FBB7
:10511000284604F0B5FE02F029FB0A220146284683
:1051200004F05CFF2846FDF767FB284604F0A8FE64
:10513000AB49284604F0E4FE2846FDF75DFB28460F
:1051400004F09EFEA749284604F0DAFE2846FDF743
:1051500053FB284604F094FE02F09CFB0A22014611
:10516000284604F013FF2846FDF746FB284604F0C6
:1051700087FE9D49284604F0C3FE2846FDF748FBFC
:10518000284604F07DFE9949284604F0B9FE2846D9
:10519000FDF732FB284604F073FE02F0EDFA00281A
:1051A00000F0DB808A49924EDFF87892DFF878824F
:1051B000284604F0A5FE2846FDF72AFB284604F001
:1051C0005FFE8C49284604F09BFE2846FDF720FB35
:1051D000284604F055FE002404AF8749284604F011
:1051E0008FFE2846FDF708FB284604F049FE335998
:1051F00006EB040A5B695146284698472846FDF7A6
:10520000FBFA284604F03CFE51463846FBF728FBE3
:105210007A49284604F074FE2846FDF7EDFA284640
:1052200004F02EFE0A22BDF81010284604F0AEFE4F
:105230002846FDF7E1FA284604F022FE7049284688
:1052400004F05EFE2846FDF7D7FA284604F018FE63
:105250009DF81210284600290CBF4946414604F02B
:105260004FFE2846FDF7C8FA284604F009FE6449B7
:10527000284604F045FE2846FDF7BEFA284604F00D
:10528000FFFD9DF81310284600290CBF49464146F2
:1052900004F036FE2846FDF7AFFA284604F0F0FD8C
:1052A0005749284604F02CFE2846FDF7A5FA284663
:1052B00004F0E6FD9DF81410284600290CBF49466D
:1052C000414604F01DFE2846FDF796FA284604F0F4
:1052D000D7FD4C49284604F013FE2846FDF798FAFE
:1052E0004034284604F0CCFDB4F5807F7FF475AFE0
:1052F000FDF732FB44490446284604F001FE2846E7
:10530000FDF77AFA284604F0BBFD404B4049284699
:10531000002C18BF194604F0F3FD2846FDF778FA73
:10532000284604F0ADFD0124FFF769B84146284640
:1053300004F0FAFD2846FBF7C5FD0446284604F0B4
:105340009FFD002C3FF465AE404604F06DFF80B237
:1053500002F0A6FA3446FFF752B82E4923E72D494A
:10536000C6E62C4994E62C490CA804F0C9FD0CA80B
:10537000FDF74EFA0CA82C4604F082FDFFF73FB86B
:105380002649384604F008FF40B1002E4ED1FCF704
:1053900001F8012401F0E2FDFFF731B82049384659
:1053A00004F0FAFE002864D0012E0CAD4AD01A4950
:1053B000284604F0A5FD2846FDF72AFA284604F001
:1053C0005FFD0024FFF71BB81C32010024320100EE
:1053D000F43501003432010044320100583201003A
:1053E0006432010068320100743201007C32010035
:1053F000E41EFF1F98320100B42E0100D0320100DC
:10540000D432010084300100D83201000C30010098
:105410002C300100602E010088300100F4320100C0
:10542000FC320100A82C0100AC2C0100BB490CA8E7
:1054300004F066FD0CA8FDF7EBF90CA804F020FDC4
:10544000FEF7DDBF4146284604F06EFD2846FBF717
:1054500039FD0446284604F013FD002CA7D0404631
:1054600004F0E8FE3446FBF789FF01F077FDFEF714
:10547000C6BFAB49384604F08FFE70B1022E22D071
:10548000A6490CA804F03CFD0CA8FDF7C1F90CA836
:1054900004F0F6FC0024FEF7B2BFA249384604F03F
:1054A0007BFE002840D0012E0CAD26D09B4928461B
:1054B00004F026FD2846FDF7ABF9284604F0E0FC91
:1054C0000024FEF79CBF30464146FBF70BFD002849
:1054D000D6D0404604F0AEFE08F110008DED040A6F
:1054E00004F0A8FE0CA904A881ED000A0124FBF732
:1054F0003DFF01F033FDFEF782BF4146284604F030
:1055000013FD2846FBF7DEFC0446284604F0B8FCF1
:10551000002CCBD0404604F08DFEFBF735FF012474
:1055200001F01CFDFEF76BBF7F49384604F034FEE6
:1055300078B1012E0CAD19D07849284604F0E0FC72
:105540002846FDF765F9284604F09AFC0024FEF78A
:1055500056BF7649384604F01FFE70B306BBFBF712
:1055600033FF0124FBF716FFFEF749BF41462846EB
:1055700004F0DAFC2846FBF7A5FC0446284604F0B4
:105580007FFC002CD8D0404604F04EFE003018BFFF
:105590000120FBF713FF012401F0E0FCFEF72FBF11
:1055A0005E490CA804F0ACFC0CA8FDF731F90CA87E
:1055B00004F066FC0024FEF722BF5D49384604F083
:1055C000EBFD044670B1012E20D054490CA804F024
:1055D00097FC0CA8FDF71CF90CA804F051FC002462
:1055E000FEF70DBF5349384604F0D6FD002839D0E8
:1055F000012E1DD049490CA804F082FC0CA8FDF72F
:1056000007F90CA804F03CFCFEF7F9BE41460CA8D3
:1056100004F08AFC0CA8FEF733FD003018BF01200F
:10562000FBF7DAFE0CA8344604F02AFCFEF7E7BECE
:105630000CAD4146284604F077FC2846FEF720FDD5
:105640003D4E071C18BF0127301939464034FBF77F
:10565000E7F8B4F5807FF7D1284604F011FC012467
:10566000FEF7CDBE3549384604F096FD04460028C5
:1056700040D0022E0CAD0CD02849284604F040FC46
:105680002846FDF7C5F8284604F0FAFB0024FEF78B
:10569000B6BE4146284604F047FC2846FBF712FCFC
:1056A0000446284604F0ECFB002CE5D004AF41464C
:1056B000384604F039FC3846FEF744FD08F1100185
:1056C0000446284604F030FC2846FEF7D9FC011CAD
:1056D00018BF0121002C04DB174800EB8410FBF7F6
:1056E0009FF8284604F0CCFB384604F0C9FB01249F
:1056F000FEF785BE1249384604F04EFD814608B3D8
:10570000012E5DD005490CA804F0FAFB0CA8FDF7AA
:105710007FF80CA804F0B4FBFEF771BE88300100DE
:10572000043301000C330100143301001C33010069
:10573000243301002C330100E41EFF1F3833010025
:1057400040330100D649384604F026FD05460028BE
:105750007ED041463046FBF7C5FB044600286BD09F
:10576000032E4CD0052E3DD1FBF742FE404604F0FF
:1057700061FD08F11000B0EE408A04F05BFD08F115
:1057800020008DED0C8A8DED0D0A04F053FD08F11B
:105790003000B0EE408A04F04DFD08F14000F0EE1C
:1057A000408A04F041FDF0EE680A81B2B0EE480A8A
:1057B0000CA8FBF72BFE012401F0D0FBFEF71FBE67
:1057C00041460CA804F0B0FB0CA8FEF759FC0030D1
:1057D00018BF012002F07CF80CA8344604F050FBFE
:1057E000FEF70DBEAF490CA804F08AFB0CA8FDF72C
:1057F0000FF80CA84C4604F043FBFEF700BEFBF785
:10580000F7FD404604F016FD08F11000B0EE408AA6
:1058100004F010FD08F12000F0EE408A04F004FDD1
:10582000F0EE680A80B2B0EE480AFBF71BFE0124D6
:1058300001F094FBFEF7E3BD9A490CA804F060FB6D
:105840000CA8FCF7E5FF0CA804F01AFBFEF7D7BD87
:105850009549384604F0A0FC80B341463046FBF73A
:1058600041FB0446002800F00181022E00F0E9808F
:10587000042E67D1FBF7BCFD404604F0DBFC08F1C9
:105880001000B0EE408A04F0D5FC08F120008DED48
:105890000C8A8DED0D0A04F0CDFC08F13000B0EE5D
:1058A000408A04F0C1FCB0EE480A81B20CA8FBF7B4
:1058B000E5FD012401F052FBFEF7A1BD7B4938460E
:1058C00004F06AFC002800F0868041463046FBF771
:1058D00009FB0446002872D0042E4DD0062E3ED17E
:1058E000FBF786FD404604F0A5FC08F11000B0EE81
:1058F000408A04F09FFC08F120008DED0C8A8DEDAC
:105900000D0A04F097FC08F13000B0EE408A04F074
:1059100091FC08F14000F0EE408A04F085FC04465A
:1059200008F1500004F080FCA1B282B2F0EE680AE7
:10593000B0EE480A0CA8FBF711FE012401F00EFBA3
:10594000FEF75DBD57490CA804F0DAFA0CA8FCF785
:105950005FFF0CA82C4604F093FAFEF750BD5149A6
:105960000CA804F0CDFA0CA8FCF752FF0CA804F028
:1059700087FA0024FEF743BDFBF73AFD404604F0EA
:1059800059FC08F11000B0EE408A04F053FC08F115
:105990002000F0EE408A04F047FC044608F1300095
:1059A00004F042FCF0EE680A81B2B0EE480AA0B200
:1059B000FBF70CFE012401F0D1FAFEF720BD3949B6
:1059C0000CA804F09DFA0CA8FCF722FF0CA804F028
:1059D00057FAFEF714BD3649384604F0DDFB0028BF
:1059E00000F0898041463046FBF77CFA04460028E7
:1059F00075D0022E5ED0042E44D1FBF7F9FC404650
:105A000004F018FC08F11000B0EE408A04F012FC1B
:105A100008F120008DED0C8A8DED0D0A04F00AFCD2
:105A200008F13000B0EE408A04F0FEFBB0EE480A08
:105A300081B20CA8FBF7DEFD012401F08FFAFEF71E
:105A4000DEBCFBF7D5FC404604F0F4FB08F1100087
:105A5000B0EE408A04F0E8FBB0EE480A80B2FBF7F3
:105A600071FD012401F07AFAFEF7C9BC0D490CA8BA
:105A700004F046FA0CA8FCF7CBFE0CA804F000FAE0
:105A8000FEF7BDBC07490CA804F03AFA0CA8FCF7D5
:105A9000BFFE0CA804F0F4F90024FEF7B0BC00BF70
:105AA00048330100883001005033010058330100B1
:105AB00060330100FBF79CFC404604F0BBFB08F19F
:105AC0001000B0EE408A04F0AFFBB0EE480A80B29E
:105AD000FBF796FD012401F041FAFEF790BCBC49AA
