:1000000000000320D101000061A7000019A7000033
:1000100019A7000019A7000019A7000019A70000E0
:1000200019A7000019A7000019A7000061A7000088
:1000300061A7000019A7000035C4000039C5000001
:1000400061A7000061A7000061A7000061A7000090
:1000500061A7000061A7000061A7000061A7000080
:1000600061A7000061A7000061A7000061A7000070
:1000700061A7000061A7000061A7000061A7000060
:1000800061A7000061A7000061A7000061A7000050
:1000900061A7000061A7000061A7000061A7000040
:1000A00061A7000061A7000061A7000061A7000030
:1000B00061A7000061A7000061A7000081C50000E2
:1000C00061A70000ADC6000061A70000D9C700000D
:1000D00061A70000D1C8000061A7000061A700006F
:1000E00061A7000061A7000061A7000061A70000F0
:1000F00061A7000061A7000061A7000061A70000E0
:100100006D9D0000819D0000959D0000A99D00004F
:1001100061A7000035B3000061A7000061A70000DF
:1001200061A7000061A7000061A7000061A70000AF
:1001300061A7000061A7000061A7000061A700009F
:1001400061A7000061A70000C9C9000061A7000005
:1001500061A7000061A7000061A7000061A700007F
:1001600061A7000061A7000061A7000061A700006F
:1001700061A7000061A7000061A7000061A700005F
:1001800061A7000061A7000061A7000061A700004F
:1001900061A7000061A70000C1CA000061A70000BC
:1001A00061A7000061A7000061A7000061A700002F
:1001B00061A7000061A7000061A7000061A700001F
:1001C00061A7000061A7000061A7000061A700000F
:1001D0005C4B4CF2205210B51A804DF628121A8052
:1001E00000BF00BF0AF0C0FA574B4FF030621A60F0
:1001F000564A9A60564ADA60564B4FF470021A60BB
:10020000554B564A1A60564A136813F4807304D14A
:1002100054490B604FF4A8531360534B1A781107DD
:1002200003D51A7842F008021A70504B5049AA229E
:100230001A70504A504B8B4204D252F8040F43F8C4
:10024000040BF8E74D4B4E4900228B4202D243F893
:10025000042BFAE74B494C4A002352F8230041F89B
:1002600023000133742BF8D1484B494A802103F80D
:10027000011B9342FBD1474B424A1A60464B8A22EC
:100280001A70A3F5805324225A70A0221A709A790A
:100290009207FCD59A79D406FCD4404A937903F0AE
:1002A0000C03082BFAD13E4B60221A7002331A78E5
:1002B000802AFCD1394B01221A715D225A719A7938
:1002C0009006FCD59979354A4906FBD5354B364918
:1002D00019600021596020231370937903F00C03F7
:1002E0000C2BFAD1314B324A1A60324B324A1A6027
:1002F00000225A60072243F8042C304AC3F80C2D20
:1003000062B60AF087FE174B1B68DA0705D52C4842
:100310000AF088FB2B4B2C4A1A602C4B1B785B068F
:1003200009D5284C284B22689A4204D124480AF067
:1003300079FB002323600FF063F80AF01BFA0AF040
:1003400049F9FEE70E20054030800440823F04005A
:100350000100002B88ED00E0002008E0030000858C
:1003600010D0034014D0034002D0074000E0074003
:100370009814FF1FAC3F01003007FF1F9814FF1FA8
:10038000AC9C01200002FF1F0000000000E400E020
:1003900064E400E008ED00E0005006400040064044
:1003A00001E007404480044000000602048004404D
:1003B000C010070014E000E01FBF02000000202072
:1003C000D4A5045D1CE00340A5C3945A00F0074087
:1003D000FFFFFFFFFFFFFFFFFFFFFFFFFFFFFFFF2D
:1003E000FFFFFFFFFFFFFFFFFFFFFFFFFFFFFFFF1D
:1003F000FFFFFFFFFFFFFFFFFFFFFFFFFFFFFFFF0D
:10040000FFFFFFFFFFFFFFFFFFFFFFFFDEF9FFFF23
:1004100010B5054C237833B9044B13B10448AFF33E
:1004200000800123237010BD9814FF1F00000000FE
:10043000A83F0100084B10B51BB108490848AFF3AD
:1004400000800848036803B910BD074B002BFBD0A0
:10045000BDE81040184700BF000000009C14FF1FBB
:10046000A83F01009814FF1F000000004171704771
:10047000002301220271C3728372C37183714372BC
:100480000372704703685B6A184700BFC171704709
:1004900010B50A4A0A4913780446042084F83C003F
:1004A00084F83D3004F12C000133137009F0B8FDDD
:1004B0000122236A6271636210BD00BFE414FF1F52
:1004C0006815FF1F10B5054C04F1100009F0D2FCAF
:1004D0002046BDE8104009F0CDBC00BF9815FF1FB5
:1004E00010B5074C04F1200009F0C4FC04F1100021
:1004F00009F0C0FC2046BDE8104009F0BBBC00BFBD
:10050000B414FF1F38B5054CA4F170052046103C0B
:1005100009F0B0FCAC42F9D138BD00BF8815FF1F0F
:1005200010B5094C04F1300009F0A4FC04F12000DE
:1005300009F0A0FC04F1100009F09CFC2046BDE885
:10054000104009F097BC00BFE814FF1F70B588B0D9
:100550000C4605462C31684609F0E0FC6846134914
:1005600009F0D2FD94F83D10064604A809F0F4FC09
:1005700004A9304609F0C0FD0D4909F0C5FD0D4B39
:1005800094F83D1003EB011109F0B6FD0A4909F09A
:10059000BBFD0146284609F0C1FC04A809F06AFC2D
:1005A000684609F067FC284608B070BD242C01009D
:1005B000282C0100E814FF1F5430010070B50C46D0
:1005C0008CB005461A491B4E08A809F093FC0A2274
:1005D000618A04A809F0D4FC04A908A809F08CFDDC
:1005E000154909F091FD617D06EB011109F084FDCB
:1005F000124909F089FDA17D06EB011109F07CFD8E
:100600000F4909F081FD0146684609F087FC04A8FE
:1006100009F030FC08A809F02DFC6946284609F0CD
:1006200017FC684609F026FC28460CB070BD00BFD8
:100630002C2C01009815FF1F342C0100402C0100C8
:100640004C2C010010B5064B044640F82C3B09F039
:1006500011FC206A08B10AF0DBF8204610BD00BF8B
:10066000B42C010010B5084B044640F82C3B09F0AF
:1006700001FC206A08B10AF0CBF8204640210AF0BC
:10068000C9F8204610BD00BFB42C01004379DBB18E
:10069000C16810B501B18979036804461B6A98479F
:1006A00023792BB9236820465B6ABDE810401847C0
:1006B000236808499A6A00208A42207105D12046A1
:1006C0005B6ABDE81040184770472046BDE81040FF
:1006D000104700BF85040000F8B50346044653F8F0
:1006E0001A1F194A026001259A88C0F812104FF4A7
:1006F000FA63002100F12C06C2824383E160E172BB
:10070000A172E171A1716172217221776177A17784
:1007100021626162A162304665712571257409F01C
:10072000E9FB0A4A0A49137884F83D3004272B4430
:10073000304684F83C70137009F072FC236A6571CE
:1007400063622046F8BD00BFB42C0100E414FF1F13
:100750006815FF1F01764276012110460AF0DEBBC4
:1007600001230374704700BF037C23B1437D1BB991
:10077000407E0AF0BFBB704707EE901A9FED067AE5
:10078000407EF8EEE77A67EE877AFDEEE77A17EEBD
:10079000901A0AF059B900BFE17A944410B50021CB
:1007A0000446FFF7E1FF0023237410BD8179027D29
:1007B0008A4202D00175FFF7D7BF7047027D4171B1
:1007C00002B9704700210175FFF7CEBF10B4047D58
:1007D0008C4205D003465DF8044B1975FFF7C4BF82
:1007E0005DF8044B704700BF037C03B1037D1846DE
:1007F000704700BF40F6FF739942027CA8BF1946BC
:10080000418202B97047007E0AF01EB910B5044655
:10081000417519B90121407E0AF080FB217D2046F7
:10082000BDE81040FFF7A0BF81757047837D03B915
:1008300070470021FFF798BF10B50446417DFFF7D0
:10084000E5FF618A237C40F6FF729142A8BF114602
:10085000618203B910BD207EBDE810400AF0F4B8F3
:1008600051F8122F02608A888280704738B5436A37
:10087000044633F8065C13F8041C13F8032C13F831
:10088000023C8375458201754275FFF7D5FF636AA7
:10089000063B636238BD00BF2DE9F04104462148A4
:1008A00062682668931B5B1000FB03F388462BB13C
:1008B0005F00BB422BD96FF0030700E006273846E4
:1008C00009F0A4FF626826680546921B154B50107C
:1008D00003FB00F0AB1806D0D8F800E0B8F804101D
:1008E00045F802E0998058B903F1060816B1304680
:1008F00009F08EFF2F44A76084E82001BDE8F08155
:100900003146284603F106080FF0D0F8EFE7064B12
:100910009F42D0D83D46002FD7D0062303FB07F7D0
:10092000CDE700BFABAAAAAAAAAAAA2A08B5826ADA
:10093000436A934209D02BB1024652F8121F196044
:1009400092889A800633436208BD00F1120120307C
:10095000FFF7A2FF08BD00BF2DE9F041334E344937
:10096000344D354C354FDFF82481304609F0C2FA5A
:1009700006F11000324909F0BDFA06F120003149B4
:1009800009F0B8FA06F130002F4909F0B3FA2A4607
:100990002E4900200CF048F920462D4909F0AAFA0A
:1009A00004F110002B4909F0A5FA04F120002A49AE
:1009B00009F0A0FA04F13000284909F09BFA04F18B
:1009C0004000274909F096FA04F15000254909F042
:1009D00091FA04F16000244909F08CFA2A4623496F
:1009E00000200CF021F93846214909F083FA07F17B
:1009F0001000204909F07EFA07F120001E4909F095
:100A000079FA2A461D4900200CF00EF940461C498F
:100A100009F070FA08F110001A4909F06BFA2A4639
:100A200019490020BDE8F0410CF0FEB8E814FF1FA2
:100A3000502C01000C08FF1F2815FF1FB414FF1FC6
:100A4000542C01005C2C0100642C010021050000E5
:100A5000702C0100742C0100782C01007C2C01000A
:100A6000802C0100842C0100882C01000505000069
:100A70008C2C0100942C01009C2C0100E10400004E
:100A8000A42C0100A82C0100C50400009815FF1F2C
:100A900010B5054C04F1100009F0ECF92046BDE852
:100AA000104009F0E7B900BF9816FF1F10B5074CBA
:100AB00004F1200009F0DEF904F1100009F0DAF980
:100AC0002046BDE8104009F0D5B900BFB815FF1F9A
:100AD00038B5054CA4F170052046103C09F0CAF960
:100AE000AC42F9D138BD00BF4816FF1F10B5094C04
:100AF00004F1300009F0BEF904F1200009F0BAF960
:100B000004F1100009F0B6F92046BDE8104009F0E4
:100B1000B1B900BF5816FF1F2DE9F041334E3449DB
:100B2000344D354C354FDFF82481304609F0E2F979
:100B300006F11000324909F0DDF906F120003149D3
:100B400009F0D8F906F130002F4909F0D3F92A4607
:100B50002E4900200CF068F820462D4909F0CAF90A
:100B600004F110002B4909F0C5F904F120002A49CD
:100B700009F0C0F904F13000284909F0BBF904F18B
:100B80004000274909F0B6F904F15000254909F061
:100B9000B1F904F16000244909F0ACF92A4623496F
:100BA00000200CF041F83846214909F0A3F907F17B
:100BB0001000204909F09EF907F120001E4909F0B4
:100BC00099F92A461D4900200CF02EF840461C4990
:100BD00009F090F908F110001A4909F08BF92A463A
:100BE00019490020BDE8F0410CF01EB85816FF1F4F
:100BF000502C01000C08FF1FE815FF1FB815FF1F40
:100C0000542C01005C2C0100642C0100ED0A000052
:100C1000702C0100742C0100782C01007C2C010048
:100C2000802C0100842C0100882C0100D10A0000D6
:100C30008C2C0100942C01009C2C0100AD0A0000BA
:100C4000A42C0100A82C0100910A00009816FF1F97
:100C500010B5054C04F1100009F00CF92046BDE870
:100C6000104009F007B900BFA017FF1F10B5074CCF
:100C700004F1200009F0FEF804F1100009F0FAF880
:100C80002046BDE8104009F0F5B800BFBC16FF1FB4
:100C900038B5054CA4F170052046103C09F0EAF87F
:100CA000AC42F9D138BD00BF4C17FF1F10B5094C3D
:100CB00004F1300009F0DEF804F1200009F0DAF860
:100CC00004F1100009F0D6F82046BDE8104009F004
:100CD000D1B800BF5C17FF1F2DE9F041334E3449F6
:100CE000344D354C354FDFF82481304609F002F998
:100CF00006F11000324909F0FDF806F120003149F3
:100D000009F0F8F806F130002F4909F0F3F82A4607
:100D10002E4900200BF088FF20462D4909F0EAF803
:100D200004F110002B4909F0E5F804F120002A49EC
:100D300009F0E0F804F13000284909F0DBF804F18B
:100D40004000274909F0D6F804F15000254909F080
:100D5000D1F804F16000244909F0CCF82A4623496F
:100D600000200BF061FF3846214909F0C3F807F174
:100D70001000204909F0BEF807F120001E4909F0D3
:100D8000B9F82A461D4900200BF04EFF40461C4989
:100D900009F0B0F808F110001A4909F0ABF82A463A
:100DA00019490020BDE8F0410BF03EBF5C17FF1F62
:100DB000502C01000C08FF1FEC16FF1FBC16FF1F74
:100DC000542C01005C2C0100642C0100AD0C0000CF
:100DD000702C0100742C0100782C01007C2C010087
:100DE000802C0100842C0100882C0100910C000053
:100DF0008C2C0100942C01009C2C01006D0C000037
:100E0000A42C0100A82C0100510C0000A017FF1F0A
:100E100010B5054C04F1100009F02CF82046BDE88F
:100E2000104009F027B800BFA018FF1F10B5074CED
:100E300004F1200009F01EF804F1100009F01AF87E
:100E40002046BDE8104009F015B800BFC017FF1FCD
:100E500038B5054CA4F170052046103C09F00AF89D
:100E6000AC42F9D138BD00BF5018FF1F10B5094C76
:100E700004F1300008F0FEFF04F1200008F0FAFF52
:100E800004F1100008F0F6FF2046BDE8104008F01D
:100E9000F1BF00BF6018FF1F014B1870704700BF03
:100EA0001008FF1F08B583680BB9012008BD002199
:100EB00009F090F96138C0B219288CBF00200120D8
:100EC00008BD00BF08B5002109F084F9A0F12D0389
:100ED000DBB20C2B03D82F3818BF012008BD00202F
:100EE00008BD00BF40B330B5451EEDB2013585B039
:100EF0000C4601EB051508E02F2A684604F11004A2
:100F000011D008F0B7FFAC4213D02146684609F073
:100F100005F80021684609F05DF9A0F12D03DBB268
:100F20000C2B0246E8D9684608F0A4FF002005B063
:100F300030BD012005B030BD012070472DE9F041E2
:100F4000334E3449344D354C354FDFF8248130462B
:100F500008F0D0FF06F11000324908F0CBFF06F18F
:100F60002000314908F0C6FF06F130002F4908F093
:100F7000C1FF2A462E4900200BF056FE20462D497F
:100F800008F0B8FF04F110002B4908F0B3FF04F19A
:100F900020002A4908F0AEFF04F13000284908F08B
:100FA000A9FF04F14000274908F0A4FF04F1500014
:100FB000254908F09FFF04F16000244908F09AFFDA
:100FC0002A46234900200BF02FFE3846214908F01D
:100FD00091FF07F11000204908F08CFF07F1200075
:100FE0001E4908F087FF2A461D4900200BF01CFE11
:100FF00040461C4908F07EFF08F110001A4908F02D
:1010000079FF2A4619490020BDE8F0410BF00CBEDB
:101010006018FF1F502C01000C08FF1FF017FF1F66
:10102000C017FF1F542C01005C2C0100642C010030
:101030006D0E0000702C0100742C0100782C010052
:101040007C2C0100802C0100842C0100882C0100E4
:10105000510E00008C2C0100942C01009C2C0100EE
:101060002D0E0000A42C0100A82C0100110E000080
:10107000A018FF1F10B5054C04F1100008F0FAFE8F
:101080002046BDE8104008F0F5BE00BFB419FF1FB0
:1010900010B5074C04F1200008F0ECFE04F110003C
:1010A00008F0E8FE2046BDE8104008F0E3BE00BFAF
:1010B000C018FF1F38B5054CA4F170052046103C40
:1010C00008F0D8FEAC42F9D138BD00BF5019FF1F5F
:1010D00010B5094C04F1300008F0CCFE04F12000FA
:1010E00008F0C8FE04F1100008F0C4FE2046BDE878
:1010F000104008F0BFBE00BF7419FF1F10B50C4CA4
:1011000084B0C821204608F0BDFE2046094908F0F9
:101110008FFF094B0949002268461A7008F0EAFE61
:10112000684601F073FB684608F0A4FE04B010BDE9
:101130006419FF1F042E01006019FF1FE02C01003D
:1011400010B508E00AF03AFFC4B22146084808F09A
:10115000C3FF0A2C04D00AF06DFF0028F2D110BDA5
:10116000034805F04BFC0349014808F061FFF2E732
:101170006419FF1F042E0100FFF7E2BF2DE9F843B9
:10118000394E3A493A4D3B4C3B4FDFF84091DFF83E
:101190004081304608F0AEFE06F11000374908F0F5
:1011A000A9FE06F12000364908F0A4FE06F1300041
:1011B000344908F09FFE2A46334900200BF034FDE5
:1011C0002046324908F096FE04F11000304908F03C
:1011D00091FE04F120002F4908F08CFE04F130004C
:1011E0002D4908F087FE04F140002C4908F082FEEA
:1011F00004F150002A4908F07DFE04F160002949FD
:1012000008F078FE2A46284900200BF00DFD3846EC
:10121000264908F06FFE07F11000254908F06AFE24
:1012200007F12000234908F065FE2A4622490020E4
:101230000BF0FAFC4846214908F05CFE09F1100069
:101240001F4908F057FE2A461E4900200BF0ECFC0F
:101250004046002108F04EFE2A4640461A49BDE8A5
:10126000F8430BF0E1BC00BF7419FF1F502C0100C4
:101270000C08FF1FF018FF1FC018FF1F542C01009F
:101280005C2C0100642C0100D1100000702C0100C6
:10129000742C0100782C01007C2C0100802C0100B2
:1012A000842C0100882C0100B51000008C2C01005A
:1012B000942C01009C2C010091100000A42C010032
:1012C000A82C010075100000759E0000B419FF1FC6
:1012D0006419FF1F10B5054C04F1100008F0CAFD99
:1012E0002046BDE8104008F0C5BD00BFB41AFF1F7E
:1012F00010B5074C04F1200008F0BCFD04F110000B
:1013000008F0B8FD2046BDE8104008F0B3BD00BFAE
:10131000D419FF1F38B5054CA4F170052046103CC8
:1013200008F0A8FDAC42F9D138BD00BF641AFF1F18
:1013300010B5094C04F1300008F09CFD04F12000C8
:1013400008F098FD04F1100008F094FD2046BDE877
:10135000104008F08FBD00BF741AFF1F024B0068D9
:101360000A685A6018607047FC5B0020014B83EDEF
:10137000000A70477822FF1F014B83ED000A704777
:101380001408FF1F10B4064A064C074900234FF00B
:101390007E5023601360536008605DF8044B704713
:1013A000FC5B00207822FF1F1408FF1F014B187000
:1013B000704700BF1808FF1F08B505F0B3FEBDE871
:1013C000084006F039BA00BF014B1870704700BFE3
:1013D0001108FF1F014B1878704700BF1108FF1F4D
:1013E00008B5054B1B7803B908BD05F09BFEBDE8A9
:1013F000084006F021BA00BF1108FF1F30B54B1E90
:101400002DED028B07EE903A83B0F8EEE77A026892
:101410004368009280EE278A0193C0EEA78AA1B1AB
:101420000D460024684605F07BFD0134A4B2A542B8
:101430009DED007ADDED017A37EE087A77EEA87A35
:101440008DED007ACDED017AECD103B0BDEC028BCD
:1014500030BD00BF00B583B000230146684600934D
:101460000193FFF7CBFF03B05DF804FB2DE9F041DA
:101470004B1E2DED048B07EE903A9FED2D7AF8EE82
:10148000E77A86B0054610EE100A884687EE279A5E
:101490000DF00AFC002406460F462346013407EEF1
:1014A000903AF8EEE77A67EE897A17EE900A0DF037
:1014B000FBFB41EC100B41EC180B0BF095FC51ECD5
:1014C000100BB0EE480AF0EE680ACDE902010BF00D
:1014D000EBFC32463B46DDE902018DED000B0DF0E1
:1014E00037FC0DF02DFF9DED000B07EE100AD5ED3A
:1014F000007A77EE277A3B46324651EC100BCDED61
:10150000047A0DF025FC0DF01BFFD5ED017A07EEF6
:10151000100A77EE277A04A8CDED057A05F000FDD4
:10152000A3B29845BAD206B0BDEC048BBDE8F081F9
:10153000DB0FC94000B583B0002301466846009325
:101540000193FFF793FF03B05DF804FB30B52DED79
:10155000048B9FED198A83B0F0EE608AF0EE480AA2
:101560001446B0EE409A0D46FFF748FF684605F076
:10157000C7FC2146F0EE680AB0EE480A6846FFF75D
:101580003DFF684605F0BCFC2946F0EE480AB1EE86
:10159000490A6846FFF732FF684605F0B1FC21466C
:1015A000F1EE680AB0EE480A6846FFF727FF03B07D
:1015B000BDEC048B30BD00BF0000000000B5F6EEAE
:1015C000007A83B020EE677A60EEE77A0A46014639
:1015D00068468DED007ACDED017AFFF7B7FF03B0D5
:1015E0005DF804FB0A46F0EE400AFFF7AFBF00BF0C
:1015F00000B5F6EE007A83B060EE677A02460146E7
:10160000F0EE400A6846CDED007ACDED017AFFF7A5
:101610009DFF03B05DF804FB2DE9F04F2DED028B2B
:1016200085B0002B40F05F811C46032607EE902A10
:10163000F8EEE77A5D1C80EEA78A520892FBF5F27D
:10164000D2B21FFA82FA07EE905AF8EEE77A0568EE
:101650004068009528EE278A0190002A00F0E28079
:1016600010EE109A9B460F46B6B24FF00008F1EE0E
:10167000408A002C00F0DB8000250135684605F02B
:101680004FFCEBB29C42F8D83946DFED980A00EEE9
:10169000109A6846FFF7B2FE02A805F031FC029AE4
:1016A000039B0092019300250135684605F038FC44
:1016B000EBB29C42F8D83146F0EE480A9FED8B0A17
:1016C0006846FFF79BFE02A805F01AFC029A039BEE
:1016D0000092019300250135684605F021FCEBB22C
:1016E0009C42F8D83946DFED810AB0EE680A6846B8
:1016F000FFF784FE02A805F003FC029A039B009208
:10170000019300250135684605F00AFCEBB29C42C6
:10171000F8D83146F0EE480A9FED740A6846FFF7A4
:101720006DFE08F1010802A805F0EAFB1FFA88F334
:10173000DDED037A029A00925345CDED017A98D3FC
:10174000BBF1000F6ED0B1EE488AB6EE007AE8EE3B
:10175000077A4FF00008CDED017A002C00F095805B
:1017600000250135684605F0DBFBEBB29C42F8D85A
:101770003946DFED5E0A00EE109A6846FFF73EFE3E
:1017800002A805F0BDFB029A039B0092019300257D
:101790000135684605F0C4FBEBB29C42F8D83146EF
:1017A000F0EE480A9FED510A6846FFF727FE02A8AF
:1017B00005F0A6FB029A039B0092019300250135D8
:1017C000684605F0ADFBEBB29C42F8D83946DFED38
:1017D000470AB0EE680A6846FFF710FE02A805F057
:1017E0008FFB029A039B0092019300250135684606
:1017F00005F096FBEBB29C42F8D83146F0EE480A71
:101800009FED3A0A6846FFF7F9FD08F1010802A8C2
:1018100005F076FB1FFA88F30299039A009153456D
:1018200001929AD305B0BDEC028BBDE8F08F39462A
:10183000DFED2E0A00EE109A6846FFF7DFFD02A8E2
:1018400005F05EFB029A039B9FED280A0092314649
:10185000F0EE480A68460193FFF7D0FD02A805F0B4
:101860004FFB029A039BDFED210A00923946B0EE4E
:10187000680A68460193FFF7C1FD02A805F040FB26
:10188000029A039B0092019343E73946DFED170A62
:1018900000EE109A6846FFF7B1FD02A805F030FB94
:1018A000029A039B9FED110A00923146F0EE480A1E
:1018B00068460193FFF7A2FD02A805F021FB029AFA
:1018C000039BDFED0A0A00923946B0EE680A6846CB
:1018D0000193FFF793FD02A805F012FB029A039B08
:1018E0000092019389E7052426469FE60000000048
:1018F00000B5F6EE007A83B020EE677A60EEE77A04
:1019000013460A46014668468DED007ACDED017A10
:10191000FFF782FE03B05DF804FB00BFFFFFFFFF8F
:101920002DE9F04F551C07EE905A2DED0A8BF8EE7D
:10193000E78ADFEDC57A80EEA87A89B08346029205
:101940000C46F7EE00AA27EE27AA68EE808A1AEE68
:10195000100A0DF0A9F9F0EE6A7AEAEE0A7A064664
:101960000F4617EE900A0DF09FF941EC100B41EC79
:10197000190B0BF081FB59EC108BB0EE490AF0EE1D
:10198000690A0BF079FB304653EC102B39460DF009
:101990002DF841EC100B0BF0E7FA94FBF5F44246FE
:1019A0004B46304639468DED000B0DF0D1F99DEDDB
:1019B000000B53EC102B0DF019F8DFEDA47A88EE34
:1019C000A77A06460F46013C17EE100A0DF06CF997
:1019D00002460B46304639460DF0BAF90DF0B0FC20
:1019E00007EE904A06EE900AF8EEE77AB5EEC0AA46
:1019F000F1EE10FA86EEA77AC0F21C814FF00008D3
:101A00004FF0000917EE10AA9FED8D7B9FED908A95
:101A1000DFED90BA8DED007BB6EE00BA11E00DF06F
:101A200043F941EC100B41EC190B0BF0DDF98DED96
:101A3000000BB0EE490AF0EE690A0BF035FA59ECEA
:101A4000108B68EE887A9FED839A67EE8B7A87EE2B
:101A5000AB7A17EE100A0DF027F90446DBF8040004
:101A60000D460DF021F9424606460F464B462046EC
:101A700029460DF06DF902460B46304639460CF00A
:101A8000B5FF0DF05DFC8046DBF800000DF00CF9B1
:101A9000DDE9002306460F46204629460DF058F999
:101AA00002460B46304639460CF0A0FF0DF048FCCC
:101AB000069006A8CDF81C8005F032FA50460DF0CD
:101AC000F3F8044618EE900A0D460DF0EDF8F0EE2E
:101AD0006A7AE8EE087A8046894617EE900A0DF099
:101AE000E3F841EC100B0BF0C7FA404653EC102B17
:101AF00049460DF02DF902460B46204629460DF0C9
:101B000051FA0DF01DFC07EE900A38EE278AB4EE6C
:101B1000C8AAF1EE10FA18EE100A80DA029B002B28
:101B200000F0888038EE498A38EE678AB4EEC98AB8
:101B3000F1EE10FA7EDDCDE90489CDE90245B6EE7D
:101B400000CAF7EE009A5D4668EE887A67EE8C7AF6
:101B500087EE897A17EE100A0DF0A6F878EE097A6A
:101B6000824617EE900A8B460DF09EF841EC100B62
:101B700041EC1A0B0BF038F9B0EE40BAF0EE60BA57
:101B8000B0EE4A0AF0EE6A0A0BF08EF953EC102B15
:101B90006868CDE900230DF087F8DDE900230646EB
:101BA0000F46504659460DF0D3F802460B463046D4
:101BB00039460CF01BFF0DF0C3FB814628680DF081
:101BC00073F853EC1B2B06460F46504659460DF052
:101BD000BFF802460B46304639460CF007FF0DF0C1
:101BE000AFFB069006A8CDF81C9005F099F9F0EE31
:101BF000697AE8EE087A17EE900A0DF055F841EC94
:101C0000100B0BF039FADDE9040153EC102B0DF049
:101C10009FF802460B46DDE902010DF0C3F90DF015
:101C20008FFB07EE900A38EE678AB4EEC98AF1EEB0
:101C300010FA89DC09B0BDEC0A8BBDE8F08F00BF5B
:101C4000000000000000F03FDB0FC940DB0F4941FE
:101C500000000000DB0F494000B583B000230A46B6
:101C60000146684600930193FFF75AFE03B05DF802
:101C700004FB00BF2DE9F041334E3449344D354C5F
:101C8000354FDFF82481304608F034F906F11000B2
:101C9000324908F02FF906F12000314908F02AF9FD
:101CA00006F130002F4908F025F92A462E49002078
:101CB0000AF0BAFF20462D4908F01CF904F1100083
:101CC0002B4908F017F904F120002A4908F012F90D
:101CD00004F13000284908F00DF904F140002749CB
:101CE00008F008F904F15000254908F003F904F15F
:101CF0006000244908F0FEF82A46234900200AF033
:101D000093FF3846214908F0F5F807F11000204903
:101D100008F0F0F807F120001E4908F0EBF82A4619
:101D20001D4900200AF080FF40461C4908F0E2F8F7
:101D300008F110001A4908F0DDF82A461949002078
:101D4000BDE8F0410AF070BF741AFF1F502C01006B
:101D50000C08FF1F041AFF1FD419FF1F542C010089
:101D60005C2C0100642C010031130000702C010078
:101D7000742C0100782C01007C2C0100802C0100C7
:101D8000842C0100882C0100151300008C2C01000C
:101D9000942C01009C2C0100F1120000A42C0100E5
:101DA000A82C0100D5120000B41AFF1F00207047B4
:101DB000704700BF83791BB9034B20221A6070471C
:101DC000024B20221A60704788F00F4084F00F40C9
:101DD000704700BFC1717047C28A0123037152422C
:101DE0000023C261C3728372C37183714372037231
:101DF00003767047704700BF837923B9044B4FF0D7
:101E000080621A607047034B4FF080621A6070471F
:101E100008F10F4004F10F4038B5054CA4F1B005AE
:101E200054F82C3D1B6820469847AC42F8D138BD89
:101E3000241EFF1F38B5054CA4F1900554F8243D2D
:101E40001B6820469847AC42F8D138BD741DFF1F6F
:101E500038B5054CA4F1900554F8243D1B68204684
:101E60009847AC42F8D138BD141CFF1F38B5054C5B
:101E7000A4F1D00554F8343D1B6820469847AC4285
:101E8000F8D138BDE41CFF1F38B5054CA4F1C005DE
:101E900054F8303D1B6820469847AC42F8D138BD15
:101EA000E41EFF1F38B5054CA4F5807554F8403D7D
:101EB0001B6820469847AC42F8D138BDE41FFF1F8D
:101EC00010B5847990F82200214609F013F824B95E
:101ED000044B4FF080621A6010BD034B4FF08062DC
:101EE0001A6010BD08F10F4004F10F4010B5002337
:101EF00001220271C3728372C371837143720372D0
:101F0000044609F011F8A06210BD00BF10B500230F
:101F100001220271C3728372C371837143720372AF
:101F2000044609F001F8A06110BD00BF10B50446D9
:101F300089B908F0F9FFA3692269C01A904207D94C
:101F400063691A4490428CBF00200120E07110BDEB
:101F50000020E07110BD08F0E7FFA061E9E700BFD5
:101F600010B5054C04F1100007F084FF2046BDE8D1
:101F7000104007F07FBF00BF2420FF1F10B5074CA3
:101F800004F1200007F076FF04F1100007F072FF63
:101F90002046BDE8104007F06DBF00BF541BFF1F77
:101FA00038B5054CA4F170052046103C07F062FFDF
:101FB000AC42F9D138BD00BF401BFF1F10B5094C22
:101FC00004F1300007F056FF04F1200007F052FF43
:101FD00004F1100007F04EFF2046BDE8104007F066
:101FE00049BF00BFE41FFF1F10B5044B044640F873
:101FF0001C3B07F03FFF204610BD00BFCC2D010069
:1020000010B5044B044640F8203B07F033FF204650
:1020100010BD00BF982D010010B5044B044640F8D8
:10202000103B07F027FF204610BD00BF302D0100F8
:1020300010B5044B044640F8103B07F01BFF204648
:1020400010BD00BF642D010010B5044B044640F8DC
:10205000103B07F00FFF204610BD00BFFC2C010015
:1020600010B5044690F8220008F04AFF003018BF6F
:102070000120E07110BD00BF10B50446006808B132
:1020800008F0C6FB204610BD70B50D468CB0044666
:10209000164904A807F02EFF0A222969684607F0AE
:1020A00097FF694604A808F027F8114908F02CF8B2
:1020B0000A220646696908A807F08AFF08A930467F
:1020C00008F01AF80B4908F01FF80146204607F0FF
:1020D00025FF08A807F0CEFE684607F0CBFE04A84F
:1020E00007F0C8FE20460CB070BD00BFFC2D0100FB
:1020F000002E0100082E010070B50C4690B0054678
:102100002349684607F0F6FE224B217C684603EB24
:10211000011107F0F1FF204907F0F6FF0A220646F9
:10212000618A04A807F02CFF04A9304607F0E4FFF9
:102130001A4907F0E9FF0A220646A18A08A807F013
:102140001FFF08A9304607F0D7FF154907F0DCFF4D
:102150000A220646E18A0CA807F012FF0CA93046B5
:1021600007F0CAFF0F4907F0CFFF0146284607F0E6
:10217000D5FE0CA807F07EFE08A807F07BFE04A899
:1021800007F078FE684607F075FE284610B070BD6F
:102190000C2E0100541BFF1F142E0100202E0100E5
:1021A000282E01004C2C010030B50D4689B00446A4
:1021B0000E4904A807F09EFE95F82210684607F025
:1021C000CBFE694604A807F097FF094907F09CFF7A
:1021D0000146204607F0A2FE684607F04BFE04A821
:1021E00007F048FE204609B030BD00BF342E010084
:1021F0004C2C010030B50D4689B004460E4904A8A8
:1022000007F078FE95F82210684607F0A5FE6946AB
:1022100004A807F071FF094907F076FF0146204640
:1022200007F07CFE684607F025FE04A807F022FEB2
:10223000204609B030BD00BF342E01004C2C0100F7
:1022400070B50D4688B004461349684607F052FE43
:10225000124B6979684603EB011107F04DFF1049F5
:1022600007F052FF0A220646696A04A807F0B0FE8A
:1022700004A9304607F040FF0A4907F045FF014630
:10228000204607F04BFE04A807F0F4FD684607F06F
:10229000F1FD204608B070BD3C2E01002420FF1F38
:1022A000442E0100082E010070B588B004460D468A
:1022B00068461C3107F032FE68460E4907F024FFDD
:1022C00095F82D10064604A807F046FE04A93046EE
:1022D00007F012FF084907F017FF0146204607F0F4
:1022E0001DFE04A807F0C6FD684607F0C3FD2046A2
:1022F00008B070BD242C01009430010070B588B086
:1023000004460D466846203107F008FE68460E492F
:1023100007F0FAFE95F83110064604A807F01CFEF7
:1023200004A9304607F0E8FE084907F0EDFE014633
:10233000204607F0F3FD04A807F09CFD684607F06F
:1023400099FD204608B070BD242C01009430010096
:1023500070B588B004460D466846103107F0DEFDC2
:1023600068460E4907F0D0FE95F82110064604A8ED
:1023700007F0F2FD04A9304607F0BEFE084907F059
:10238000C3FE0146204607F0C9FD04A807F072FD10
:10239000684607F06FFD204608B070BD242C010090
:1023A0009430010070B588B004460D46684610317F
:1023B00007F0B4FD68460E4907F0A6FE95F8211017
:1023C000064604A807F0C8FD04A9304607F094FEAD
:1023D000084907F099FE0146204607F09FFD04A832
:1023E00007F048FD684607F045FD204608B070BD7F
:1023F000242C01009430010070B588B004460D46CD
:102400006846103107F08AFD68460E4907F07CFEE9
:1024100095F82110064604A807F09EFD04A9304651
:1024200007F06AFE084907F06FFE0146204607F0F4
:1024300075FD04A807F01EFD684607F01BFD204649
:1024400008B070BD242C01009430010010B5064B7B
:10245000044640F81C3B07F00DFD2046302108F0F3
:10246000D9F9204610BD00BFCC2D010010B5064B98
:10247000044640F8203B07F0FDFC2046342108F0DC
:10248000C9F9204610BD00BF982D010010B5064BBC
:10249000044640F8103B07F0EDFC2046242108F0EC
:1024A000B9F9204610BD00BF302D010010B5064B14
:1024B000044640F8103B07F0DDFC2046242108F0DC
:1024C000A9F9204610BD00BF642D010010B5064BD0
:1024D000044640F8103B07F0CDFC20462C2108F0C4
:1024E00099F9204610BD00BFFC2C010010B5094A27
:1024F000094913780446012084F8200084F821302B
:10250000034404F11000137007F08AFD0023637187
:1025100010BD00BFB816FF1FF01AFF1F10B50B4A01
:102520000B4913780446032084F8200084F82130F6
:1025300004F110000133137007F072FD94F82200CB
:102540000121BDE8104008F0E9BC00BF9C17FF1F47
:10255000101BFF1F08B5154B187808F0D1FC144B61
:10256000003018BF012018701B78124873B1FEF7B5
:1025700015F91148FEF712F91048FEF70FF9104847
:10258000FEF70CF90F4B20221A6008BDFEF7E8F8A1
:102590000948FEF7E5F80948FEF7E2F80848FEF7B3
:1025A000DFF8094B20221A6008BD00BF4420FF1F3E
:1025B0004520FF1FE41EFF1F241FFF1F641FFF1F76
:1025C000A41FFF1F88F00F4084F00F4010B5044691
:1025D00008F0AAFCA36A626AC01A904208D9237A5A
:1025E00083F00103637208F09FFC637AA062E371D9
:1025F00010BD00BF037CC1720022012BC27123D029
:102600001CD3022B13D1837A8B4216D0037E7BB965
:10261000C269418A8A421DDB0122C3610276828A35
:102620009A4208DC002201230276C37104E070475D
:10263000012BC369F3D00133C3617047837A002B48
:10264000FBD10029E2D17047837A002BF5D0002915
:10265000F3D1DBE701215318C171EDE710B5144A3E
:10266000144913780446052084F8300084F831308A
:1026700004F120000133137007F0D2FC002322681C
:10268000237411690C48A38201228142E3822272E1
:10269000628209D1E372A372E371A3716372237240
:1026A0002271E361237610BD2046BDE81040084743
:1026B000BA16FF1F301BFF1FD91D000010B5124AAC
:1026C000124913780446062084F82C0084F82D3033
:1026D00004F11C000133137007F0A2FC23680C4ABC
:1026E0001B6993420CD100230122E372A372E371B0
:1026F000A37163722372227108F016FCA06110BDF1
:102700002046BDE810401847BB16FF1F401BFF1FA7
:102710000D1F000070B5134A1349137880F821305B
:1027200004460225013380F820501030137007F062
:1027300077FC294694F8220008F0F0FB23680B4A46
:102740001B69934209D100230122E372A372E37152
:10275000A37163722372227170BD2046BDE8704080
:10276000184700BFB916FF1F001BFF1F71040000B0
:10277000014B024A1A6070470CED00E00400FA05B4
:102780002DE9F041884601211446074608F0C6FBB2
:1027900008F0CAFBB8F1000F1ED0054664080026F9
:1027A0000121384608F0A6FB08F0BEFB401B84421E
:1027B000FAD808F0B9FB00210546384608F09AFB24
:1027C00008F0B2FB401B8442FAD808F0ADFB01369A
:1027D000F6B2B0450546E3D1BDE8F0810A460146B0
:1027E0000D20FFF7CDBF00BF0A4601461820FFF7B6
:1027F000C7BF00BF034B1B7803B9704701460248AF
:1028000007F0F0BA1008FF1FF009FF1F08B5064BCC
:102810001B7803B908BD0146044807F0E3FA0348F2
:10282000BDE8084007F004BB1008FF1FF009FF1FB8
:1028300010B5012184B0204C0D2008F06FFB20233F
:1028400023600121182008F069FB1C4B4FF08062C7
:102850001A600121162008F061FB0221172008F000
:102860005DFB012323609FED160A102008F09CFAFF
:102870000C2008F089FA134B134A14494FF4807066
:10288000186013684024234313600A200C6008F08A
:102890006FFB68460E4907F02DFB0E4B1B7833B1DA
:1028A00069460D4807F09EFA0B4807F0C1FA6846E2
:1028B00007F0E0FA04B010BD88F00F4008F10F40B7
:1028C00000E87D4718D0044014F10F4004F10F4098
:1028D000502E01001008FF1FF009FF1F30B50E2316
:1028E000134C85B018460221237008F017FB20789E
:1028F00008F006FB0F4B1049051C18BF01250422E8
:1029000020781D7008F012F868460C4907F0F2FABA
:102910000B4B1B7833B169460A4807F063FA094844
:1029200007F086FA684607F0A5FA05B030BD00BF8B
:102930004420FF1F4520FF1F55250000602E010089
:102940001008FF1FF009FF1F08B5044B187808F0A6
:10295000D7FA003018BF012008BD00BF4420FF1F78
:1029600070B5064C064604F1840554F82C3F3146F8
:10297000DB6820469847AC42F7D170BD741DFF1F3D
:102980002DE9F843124EDFF84C8006F1840700254C
:102990004FF00109344656F82C3F1B69434514D1CA
:1029A00084F8375084F8365084F8335084F8325025
:1029B00084F8355084F8345084F8309008F0B4FA34
:1029C0006065BE42E6D1BDE8F88330469847F8E737
:1029D000741DFF1FED1E000070B5064658B1074B71
:1029E00093E83000AC4206D054F8040B03681B692E
:1029F0009847A542F8D1024B1E7070BDD41AFF1F34
:102A0000501BFF1F38B5064B93E83000AC4206D090
:102A100054F8040B03681B699847A542F8D138BDE8
:102A2000D41AFF1F0138052804D8DFE800F0050C90
:102A3000141C222900207047154801F003032C22A2
:102A400002FB03007047134B01F0030101EBC101CE
:102A500003EB81007047104B01F0030101EBC10152
:102A600003EB810070470D4B01F0030103EB811074
:102A700070470B4801F00301342303FB010070474A
:102A8000084B01F0030101EB410103EB011070471A
:102A9000741DFF1F841BFF1FE41CFF1FE41EFF1F8C
:102AA000141CFF1F241EFF1F30B4074C25686168EB
:102AB0008D4206D02B46002053F8042B9942D0605B
:102AC000FAD1656030BC7047D41AFF1F234B1B78C6
:102AD000002B41D02DE9F047DFF8888098E86000AE
:102AE000B5422DD01E4FDFF880A04FF000090FE057
:102AF00062795AB1E16801B189791B6A2046984729
:102B00002379FBB9236820465B6A9847AE4209D017
:102B100055F8044B2368DA69BA42E9D02046904759
:102B2000AE42F5D198E82400AA4209D052F8043BFD
:102B3000DC79D87A597A9C71954298721972F5D1DC
:102B4000BDE8F087236884F804909A6A5245E5D17D
:102B50005B6A20469847D9E7704700BF501BFF1FAC
:102B60008D060000D41AFF1F850400002DE9F043F4
:102B7000A74BA84A1978A84BA84D95B0002914BFB7
:102B800011461946684607F0B5F9A5490CA807F0A3
:102B9000B1F969460CA807F0AFFA014610A807F092
:102BA000BDF92B78002B40F0C5819E4E10A807F090
:102BB00061F90CA807F05EF9726833689A4200F078
:102BC000A38199490CA807F095F996E80A00591ACB
:102BD0000A22891008A807F0E7F908A90CA807F04D
:102BE0008BFA924907F090FA014610A807F096F97F
:102BF0002B78002B40F0C88110A807F03BF908A8FB
:102C000007F038F90CA807F035F996E809001B1A07
:102C10009B10012B6CD00022144617460DF11008B2
:102C20003BE010A807F026F908A807F023F90CA844
:102C300007F020F9336853F809100B6840465B69C8
:102C4000984741460CA807F069F9336853F8091012
:102C50000B6808A89B69984708A90CA807F04CFACC
:102C6000014610A807F05AF92B78002B38D110A88C
:102C700007F000F908A807F0FDF80CA807F0FAF82B
:102C8000404607F0F7F896E809001B1A01349B103C
:102C9000E4B2013B9C4222462DD250F822306449D6
:102CA000DB680CA84FEA82090BB10137FFB207F0CD
:102CB00021F9214608A807F04FF908A90CA807F048
:102CC0001BFA5C4907F020FA014610A807F026F924
:102CD0002B78002BA5D010A9574807F083F8A0E760
:102CE00010A9554807F07EF8534807F0A1F8BEE751
:102CF00000270DF110084E490CA807F0FBF896E8E4
:102D00000A00591A0A22891008A807F04DF908A9E3
:102D10000CA807F0F1F9474907F0F6F9014610A8A9
:102D200007F0FCF82B78002B40F0298110A807F061
:102D3000A1F808A807F09EF80CA807F09BF87368A4
:102D400053F8041C0B6840465B69984741460CA841
:102D500007F0E4F8736853F8041C0B6808A89B6933
:102D6000984708A90CA807F0C7F9014610A807F072
:102D7000D5F82B78002B40F0FD8010A807F07AF8EA
:102D800008A807F077F80CA807F074F8404607F099
:102D900071F82A4910A807F0ADF82B78002B40F005
:102DA000E18010A807F066F8254910A807F0A2F8FE
:102DB0002B78002B40F0CE8010A807F05BF821495B
:102DC0000CA807F097F8394608A807F0C5F808A935
:102DD0000CA807F091F91C4907F096F9014610A8D4
:102DE00007F09CF82B78002B40F0AC8010A807F07F
:102DF00041F808A807F03EF80CA807F03BF896E861
:102E00000802994500F090809846012448E000BFF0
:102E1000501BFF1F04360100702E01001008FF1F19
:102E2000742E0100D41AFF1FA42E0100B42E01003D
:102E3000C42E0100B0340100F009FF1FCC2E0100A8
:102E4000042E0100D02E0100E42E010010A807F08E
:102E500011F808A807F00EF80CA807F00BF83B686B
:102E600039465B6910A898472B78002B42D110A8EF
:102E700007F000F8484910A807F03CF82B78002B21
:102E80003DD110A806F0F6FF336831465B6910A803
:102E900098472B7833BB10A806F0ECFFC14543D010
:102EA00058F8046BF768002FF8D03C490CA807F0DD
:102EB00021F8631C214608A8DCB207F04DF808A9E8
:102EC0000CA807F019F9364907F01EF9014610A8B9
:102ED00007F024F82B78002BB8D010A9314806F061
:102EE00081FFB3E710A92F4806F07CFF2D4806F0BC
:102EF0009FFFD0E710A92B4806F074FFB7E710A991
:102F0000284806F06FFFBCE7274910A806F0F2FF3B
:102F10002B7833B110A9234806F064FF214806F04E
:102F200087FF10A806F0A6FF684606F0A3FF15B0BD
:102F3000BDE8F08310A91B4806F054FF194806F0BD
:102F400077FF32E610A9174806F04CFF154806F047
:102F50006FFF4BE710A9134806F044FF114806F035
:102F600067FF29E710A90F4806F03CFF0D4806F05F
:102F70005FFF16E710A90B4806F034FFFDE610A925
:102F8000084806F02FFFD1E610A9064806F02AFFF0
:102F9000044806F04DFF2FE6F82E0100C42E010074
:102FA000B0340100F009FF1F8C2E0100F0B59FED39
:102FB000270A274E274D284F85B0052007F0F4FE3D
:102FC0009FED260A232007F0EFFE0024232205218F
:102FD00038194034FDF7BEFBB4F5807F04D016F8F5
:102FE000011F15F8012FF3E71D4B187807F088FF34
:102FF000F0B11948FDF7D2FB1A48FDF7CFFB1A488C
:10300000FDF7CCFB1948FDF7C9FB6846184906F0E7
:1030100071FF184B1B7833B16946174806F0E2FE82
:10302000154806F005FF684606F024FF05B0F0BD20
:103030000948FDF795FB0B48FDF792FB0A48FDF7A1
:103040008FFB0A48FDF78CFBDFE700BF00B888471D
:10305000C42F0100F82D0100E41EFF1F005043485B
:103060004420FF1F241FFF1F641FFF1FA41FFF1FFB
:10307000002F01001008FF1FF009FF1F2DE9F04F7E
:10308000684895B00446FDF751FC04F14000FDF797
:103090004DFC04F18000FDF749FC04F1C000FDF790
:1030A00045FC04F580762546284600214035FDF78D
:1030B000ADFBAE42F8D1DFF898915B4FD9F8003004
:1030C000019310A85949019B06F014FF3B7833B1D6
:1030D00010A9574806F086FE554806F0A9FE10A82C
:1030E00006F0C8FE534EDFF86881002552495FFAAA
:1030F00085FA0CA806F0FEFE514608A806F02CFF43
:1031000008A90CA806F0F8FF4C4906F0FDFF31466F
:1031100006F0F2FF4A4906F0F7FF014610A806F054
:10312000FDFE3B78002B77D110A806F0A3FE08A87F
:1031300006F0A0FE0CA806F09DFE514610A806F071
:103140000BFF3B78002B5FD110A806F093FE012106
:103150002046FDF73BFB4FF0000B41F2040A5946B5
:103160002046FDF747FBD9F800300293029AD9F8C0
:1031700000300393039B9B1A312BF8D90BF1640B9E
:103180001FFA8BFBD345EAD140F6FF7A1FFA8AFA81
:1031900051462046FDF72EFBD9F800300493049ADF
:1031A000D9F800300593059B9B1A312BF8D9AAF169
:1031B000640A0FFA8AFA1AF1050FE7D100212046B6
:1031C000FDF704FBD8F800300693069AD9F80030D2
:1031D0000793079B9B1AB3F5FA7FF7D30135042DAC
:1031E00006F1100604F1400480D10E48FDF73EFBC5
:1031F0001448FDF73BFB1448FDF738FB1348FDF777
:1032000035FB15B0BDE8F08F10A9094806F0EAFDBE
:10321000074806F00DFE97E710A9054806F0E2FD05
:1032200082E700BFE41EFF1F1008FF1F102F0100E0
:10323000F009FF1FE41FFF1F242F0100342F01009E
:1032400054300100241FFF1F641FFF1FA41FFF1F16
:103250004498012030B59FED1A0A1A4C85B01D2004
:1032600007F0A2FD0C2007F08FFDA38840F6FF7544
:10327000AB42A8BF2B461D22194610462380A270E0
:1032800007F0E2FB6389AB42A8BF2B461E2219461A
:103290001046E380227207F0D7FB68460A4906F021
:1032A00029FE0A4B1B7833B16946094806F09AFD9E
:1032B000074806F0BDFD684606F0DCFD05B030BDF0
:1032C00000E87D474820FF1F382F01001008FF1F2E
:1032D000F009FF1F00B540F2FF7185B0422007F0F2
:1032E000B3FB40F2FF71432007F0AEFB684609498B
:1032F00006F000FE084B1B7833B16946074806F01C
:1033000071FD064806F094FD684606F0B3FD05B071
:103310005DF804FB742F01001008FF1FF009FF1F68
:103320002DE9F04F474F83B0054607F0FDFD3B68A0
:1033300000930446DDF8008004F0A0FA81460028DE
:103340007CD10021422007F07FFB0021432007F0C1
:103350007BFB07F0E9FD001BB0F5967FF9D307F082
:10336000E3FD4FF47A7606FB05FB044641F21805AF
:103370003B680193019BC8EB03035B454CD24FF0C4
:10338000000A5146432007F05FFB07F0CDFD001B0C
:103390006328FAD907F0C8FD0AF1280AAA450446AD
:1033A000EFD14FF0000A5146422007F04DFB07F0E5
:1033B000BBFD001B6328FAD907F0B6FD0AF1280A05
:1033C000AA450446EFD14FF47F66A6F1280A1FFAFA
:1033D0008AF63146432007F037FB07F0A5FD001BB6
:1033E0006328FAD907F0A0FD0446002EEDD14FF472
:1033F0007F66A6F1280A1FFA8AF63146422007F0B6
:1034000023FB07F091FD001B6328FAD907F08CFD20
:103410000446002EEDD1ABE740F2FF71422007F0E9
:1034200013FB40F2FF71432007F00EFBB9F1000FD0
:1034300001D004F0A1F903B0BDE8F08F04F0FCF96D
:103440007FE700BF449801202DE9F04F2DED048B5C
:1034500085B0054604F012FA824600287BD1DFF8D9
:1034600020B19FED459A07F05FFDDBF80030029335
:10347000029B00934FF47A7303FB05F30446019318
:10348000DBF800300393009A039B9B1A019A934246
:103490004FD2DFF8E890002600274FF00008002503
:1034A0000022364B404649460BF0A0FA30A3D3E940
:1034B00000230BF04DFC0BF023FF81B2422007F0FC
:1034C000C3FA00222D4B304639460BF08FFA28A361
:1034D000D3E900230BF03CFC0BF012FF81B2432038
:1034E00007F0B2FA07F020FD001B6328FAD907F0B5
:1034F0001BFD0135B5F5B47F0446C1D007EE905AE7
:10350000F8EEE77A67EE897A17EE900A0BF0CCFBBB
:1035100041EC100B41EC180B09F066FC59EC108BD8
:10352000B0EE480AF0EE680A09F0BEFC57EC106BEA
:10353000B6E740F2FF71422007F086FA40F2FF71D1
:10354000432007F081FABAF1000F07D105B0BDECB6
:10355000048BBDE8F08F04F06FF980E704F00CF9FC
:1035600005B0BDEC048BBDE8F08F00BFAFF3008069
:103570000000000000FC9F4035FA8E3C0000F03F48
:10358000449801202DE9F04782B0054604F076F911
:103590000746002852D1DFF8B48007F0C5FCD8F800
:1035A000003000934FF47A76DDF8009006FB05F6C4
:1035B000044641F21805D8F800300193019BC9EB8D
:1035C0000303B34240F2FF714FF042002BD207F0E9
:1035D0003BFA4FF0000A5146432007F035FA07F056
:1035E000A3FC001B6328FAD907F09EFC0AF1280A05
:1035F000AA450446EFD140F2FF71432007F024FAB8
:103600004FF0000A5146422007F01EFA07F08CFCEA
:10361000001B6328FAD907F087FC0AF1280AAA459B
:103620000446EFD1C7E707F00FFA40F2FF714320DD
:1036300007F00AFA2FB902B0BDE8F08704F0FCF8F1
:10364000A9E704F099F802B0BDE8F087449801209A
:1036500010B5FE2184B0124804F04CFB6C4658B9FA
:103660006846104906F046FC0F4B1B7863B92046AC
:1036700006F000FC04B010BD68460C4906F03AFCA8
:10368000094B1B78002BF2D02146094806F0AAFB13
:10369000074806F0CDFB204606F0ECFB04B010BD59
:1036A000C4950120882F01001008FF1FA82F0100DA
:1036B000F009FF1F08B5FFF7CBFFFFF7B9F8FFF7D9
:1036C000C9FDFFF70BF9FFF771FCBDE80840FFF7F4
:1036D00001BE00BF2DE9F043554F91B081460E4623
:1036E00068460122494604F025FC684604F0FAFACF
:1036F000002800F09780DFF83881AEB1002408ADD3
:1037000006E001342846E4B206F0B4FBA6420CD031
:103710000921284606F070FC3B78002BF1D02946A1
:10372000444806F05FFBECE708AD684604F0BEFADB
:103730000146284606F0DEFB98F80030002B57D1F2
:10374000284606F097FB684604F0B2FA002836D007
:103750003949284606F0CEFB98F80030002B4CD1B2
:10376000284606F087FB10AB9DF804C053F8331DC4
:10377000CDF82D105C68187BD3F80880029A9DF86C
:103780000CE0CDF83140711C079B8DF83900C9B2AF
:1037900028462A4CCDF835808DF824C00A928DF841
:1037A0002CE008940F93FFF795FF284604F07CFA6D
:1037B000684604F089FA684604F076FA90E72049F2
:1037C000284606F097FB98F8003033BB284606F0F1
:1037D00051FB684604F074FA0A220146284606F0B6
:1037E000F7FB98F8003083B9284606F043FBDFE783
:1037F0002946104806F0F6FAA2E729460D4806F0D9
:10380000F1FA0C4806F014FBAAE72946094806F02D
:10381000E9FA084806F00CFBE6E72946054806F0F9
:10382000E1FAD3E7684604F03FFA11B0BDE8F0834F
:103830001008FF1FF009FF1FBC2F010030360100E8
:10384000C02F01002DE9F8434468D0F80080C8EB90
:103850000405AD100646894605D06B009D4229D966
:103860006FF0030500E00425284606F0CFFF7468DA
:10387000D6F800800746C8EB0404D9F80030E742C8
:1038800018BF3B51A3080DD104343C44B8F1000FDC
:1038900002D0404606F0BCFF3D44B560376074601E
:1038A000BDE8F88322464146384604340CF0FEF861
:1038B0003C44EEE7B3F1804FD2D213B91D461F4608
:1038C000D9E7ED00D0E700BF10B582B00190D8B1C4
:1038D000114C236861688B420DD01A68824218BF70
:1038E000043303D110E0126890420DD099421A4679
:1038F00003F10403F7D1A368074A994206D009B13E
:10390000086051680431616002B010BD104601A921
:10391000FFF798FFF8E700BFD41AFF1F2DE9F04723
:10392000D749D848D84CDFF82CA4D84FDFF82894D2
:1039300006F0E0FAD649D74806F0DCFAD649D7486F
:1039400006F0D8FAD649D74806F0D4FAD64AD7496D
:10395000002009F069F9D649D64806F0CBFAD649D5
:10396000D64806F0C7FAD649D64806F0C3FAD64973
:10397000D64806F0BFFAD649D64806F0BBFAD64973
:10398000D64806F0B7FAD649D64806F0B3FAC64A82
:10399000D549002009F048F9D449D54806F0AAFADB
:1039A000D449D54806F0A6FAD449D54806F0A2FA7B
:1039B000BD4AD449002009F037F9D349D34806F06D
:1039C00099FAD349D34806F095FAB74AD24900206C
:1039D00009F02AF904F1B0080126002504F80B6C5F
:1039E00004F80C6C44F810AC44F8045C04F8055C72
:1039F00004F8065C04F8095C04F80A5C04F8075C47
:103A000004F8085C2946204606F074FA3B78C4F8AE
:103A10001490267463745A1C2046A8493A702C34BA
:103A200006F0FEFA04F8375C4445D6D19E4ABB49FD
:103A3000BB4CDFF82883BB4F284609F0F5F804F1AA
:103A40009009012604F80B6C44F8045C04F8055C4A
:103A500004F8065C04F8095C04F80A5C04F8075CE6
:103A600004F8085C04F80C6C44F8108C0021204623
:103A700006F040FA3B7863744FF0160E032284F888
:103A800012E02274013391493B70204606F0C8FAD7
:103A9000243414F8120C012107F040FA4C45D1D11E
:103AA000814AA149A14CDFF8B892A14F002009F04A
:103AB000BBF804F190080126002504F80B6C44F8CB
:103AC000045C04F8055C04F8065C04F8095C04F87E
:103AD0000A5C04F8075C04F8085C04F80C6C44F811
:103AE000109C0021204606F005FA3B7863741722EB
:103AF0004FF0020AA274013384F810A071493B70A0
:103B0000204606F08DFAA07C514607F007FA2434CF
:103B100004F8295C04F82A5C04F82D5C04F82E5C97
:103B200004F82B5C04F82C5C04F8306C4445C4D1D8
:103B30005D4A8049804CDFF82C92804F002009F0CC
:103B400073F804F1D0080126002504F81B6C44F832
:103B5000145C04F8155C04F8165C04F8195C04F8AD
:103B60001A5C04F8175C04F8185C04F81C6C44F840
:103B7000209C0021204606F0BDF93B7863740522A5
:103B800022740133204655493B70343406F048FA1C
:103B900004F8445C24F8426C24F8405C24F83E5C51
:103BA00004F8495C04F84A5C04F84D5C04F84E5C87
:103BB00004F84B5C04F84C5C04F8506C44F8385C36
:103BC00004F83C5CA045C0D1374A5D495D4CDFF844
:103BD00098915D4F002009F027F804F1C0080126F4
:103BE00000254CF250334FF0000A44F8083C04F82A
:103BF000176C44F8105C04F8115C04F8125C04F8CB
:103C0000155C04F8165C04F8135C04F8145C04F802
:103C1000186C44F81C9C44F80C5C5146204606F095
:103C200069F93B7863740622227401332D493B7095
:103C3000204606F0F5F904F8115C04F8125C04F86B
:103C4000155C04F8165C04F8135C04F8145C04F8C2
:103C5000186C07F069F9303444F8340C4445C0D18D
:103C6000114A3A49504608F0DFFF394B0E4AC3F873
:103C700000A01846C3F804A0C3F808A076E000BF6F
:103C8000502C0100E41FFF1F841DFF1FB816FF1FEB
:103C9000542C0100F41FFF1F5C2C01000420FF1FA7
:103CA000642C01001420FF1F0C08FF1FBD1F000023
:103CB000702C0100E01AFF1F742C0100F01AFF1F86
:103CC000782C0100001BFF1F7C2C0100101BFF1F24
:103CD000802C0100201BFF1F842C0100301BFF1FC4
:103CE000882C0100401BFF1FA11F00008C2C01002D
:103CF000541BFF1F942C0100641BFF1F9C2C010010
:103D0000741BFF1F7D1F0000A42C01002420FF1F37
:103D1000A82C01003420FF1F611F0000191E0000A5
:103D2000F41CFF1F9C17FF1F351E0000941BFF1F74
:103D3000B916FF1F511E0000341CFF1FBA16FF1FCB
:103D40006D1E0000401EFF1FBB16FF1F891E0000D6
:103D5000D41AFF1FFC2C0100A0860100642D010075
:103D6000302D0100982D0100CC2D01000D4908F0E7
:103D70005BFF0D48FCF7B0FC0C48FCF7ADFC0C48B1
:103D8000FCF7AAFC0B48FCF7A7FC0B4A0B49504672
:103D900008F04AFF0A4B40F2FF729A805A81BDE850
:103DA000F08700BF79200000E41EFF1F241FFF1FC3
:103DB000641FFF1FA41FFF1F0C08FF1FA51E00008C
:103DC0004820FF1F10B5054C04F1100006F052F812
:103DD0002046BDE8104006F04DB800BF3421FF1F5B
:103DE00010B5074C04F1200006F044F804F110006F
:103DF00006F040F82046BDE8104006F03BB800BF92
:103E00005420FF1F38B5054CA4F170052046103C26
:103E100006F030F8AC42F9D138BD00BFE420FF1FF6
:103E200010B5094C04F1300006F024F804F120002C
:103E300006F020F804F1100006F01CF82046BDE85A
:103E4000104006F017B800BFF420FF1F00B585B082
:103E50001049684606F04EF86846FEF7D7FC6846FB
:103E600006F008F8FDF74AF9FFF724FC03F002FC1E
:103E70000949684606F03EF86846FEF7C7FC684602
:103E800005F0F8FF05490420FEF7A8FC05B05DF831
:103E900004FB00BFC82F0100E82F010090D00300F1
:103EA00008B5FDF769F9BDE80840FEF70FBE00BF91
:103EB0002DE9F041334E3449344D354C354FDFF860
:103EC0002481304606F016F806F11000324906F05B
:103ED00011F806F12000314906F00CF806F1300027
:103EE0002F4906F007F82A462E49002008F09CFECC
:103EF00020462D4905F0FEFF04F110002B4905F086
:103F0000F9FF04F120002A4905F0F4FF04F1300024
:103F1000284905F0EFFF04F14000274905F0EAFFCA
:103F200004F15000254905F0E5FF04F16000244943
:103F300005F0E0FF2A462349002008F075FE3846C8
:103F4000214905F0D7FF07F11000204905F0D2FF05
:103F500007F120001E4905F0CDFF2A461D4900202B
:103F600008F062FE40461C4905F0C4FF08F110004D
:103F70001A4905F0BFFF2A4619490020BDE8F04163
:103F800008F052BEF420FF1F502C01000C08FF1F48
:103F90008420FF1F5420FF1F542C01005C2C0100C3
:103FA000642C0100213E0000702C0100742C0100E3
:103FB000782C01007C2C0100802C0100842C010055
:103FC000882C0100053E00008C2C0100942C01007F
:103FD0009C2C0100E13D0000A42C0100A82C010054
:103FE000C53D00003421FF1F10B5054C04F1100041
:103FF00005F040FF2046BDE8104005F03BBF00BF84
:104000005422FF1F10B5074C04F1200005F032FFC9
:1040100004F1100005F02EFF2046BDE8104005F029
:1040200029BF00BF6421FF1F38B5054CA4F17005FE
:104030002046103C05F01EFFAC42F9D138BD00BF50
:10404000F421FF1F10B5094C04F1300005F012FFF8
:1040500004F1200005F00EFF04F1100005F00AFF46
:104060002046BDE8104005F005BF00BF1422FF1F29
:1040700006F040BF30B585B001460446684605F0FD
:104080004DFF6846FCF71EFF0546684605F0F2FE48
:104090008DB90D49204606F079F810B1012005B020
:1040A00030BD2046094906F071F8B0FA80F04009A9
:1040B000404205B030BD204606F0B0F80028D4BF1D
:1040C0000020012005B030BDA82C0100A42C010067
:1040D000F0B585B001460646684605F01FFF684604
:1040E000FCF7F0FE0446684605F0C4FED4B931463C
:1040F000684605F013FF6846FCF7D4FE054668469F
:1041000005F0B8FE55B10B4D2946304606F030F8A3
:1041100067B21035013410B9072CF5D100273846A5
:1041200005B0F0BD304606F079F847B2384605B024
:10413000F0BD00BF9421FF1FF0B585B001460646D3
:10414000684605F0EBFE6846FCF7BCFE0446684690
:1041500005F090FEDCB93146684605F0DFFE6846A2
:10416000FCF7A0FE0546684605F084FE55B10B4DF0
:104170002946304605F0FCFF67B21035013418B906
:10418000042CF5D14FF0FF37384605B0F0BD30466E
:1041900006F044F847B2384605B0F0BD1422FF1FC0
:1041A000F0B585B001460646684605F0B7FE68469C
:1041B000FCF788FE0446684605F05CFEDCB9314633
:1041C000684605F0ABFE6846FCF76CFE054668469F
:1041D00005F050FE55B10B4D2946304605F0C8FF9D
:1041E00067B21035013418B9032CF5D14FF0FF3701
:1041F000384605B0F0BD304606F010F847B23846F4
:1042000005B0F0BD6421FF1F30B50C4691B03349B5
:104210000546204605F052FF3149684605F06AFE22
:104220002146684605F068FF014608A805F076FEBD
:1042300008A8FEF7EBFA08A805F01CFE684605F092
:1042400019FE684603F022FD2268264908A80123CA
:1042500003F0FCFD0A9A9DF82C309DF82410029280
:104260008DF80C308DF804100BAA0DF10D030DF133
:104270001A0012F8011F03F8011B8342F9D10F9BAA
:10428000079308A803F010FD174908A805F032FEAF
:10429000684603F027FD38B91BE0684603F08EFC42
:1042A000C1B208A805F018FF684603F069FC0028B1
:1042B000F3D1684603F008FD08A9284605F0C8FDBB
:1042C00008A805F0D7FD684603F0EEFC284611B0BB
:1042D00030BD064908A805F0ABFEEDE7043001004B
:1042E0000C300100C4950120042E01001C30010097
:1042F00030B52B4991B0044605F0E0FE684603F066
:10430000C5FC2268274908A8132303F09FFD0A9AD9
:104310009DF82C309DF8241002928DF80C308DF809
:1043200004100BAA0DF10D030DF11A0012F8011F74
:1043300003F8011B8342F9D10F9B079308A803F0F0
:10434000B3FC684603F0CEFC0446C8B1164DAB681A
:1043500000245BB12146144805F02EFF0178684621
:1043600003F002FCAB6801349C42F3D3684603F0CF
:10437000ABFC684603F098FC0124204611B030BD28
:104380000A4908A805F0B6FD08A8FEF73FFA08A8F4
:1043900005F070FD684603F087FC204611B030BD83
:1043A00004300100C49501205421FF1F2430010076
:1043B0002DE9F0472DED028B0E4694B0B1499046A1
:1043C000074605F0E3FE58B3CEB9AF49AF4805F054
:1043D000DDFE00283ED1AE490CA805F08BFD0CA8EF
:1043E000FEF714FA0CA805F045FDA84802F006FBFC
:1043F0000124204614B0BDEC028BBDE8F087A5492E
:104400000CA805F077FD0CA8FEF700FA0CA805F043
:1044100031FD0024204614B0BDEC028BBDE8F087CE
:104420009D49384605F0B2FE002846D0012E0CAD5D
:1044300021D09849284605F05DFD2846FEF7E6F9AB
:10444000284605F017FD0024204614B0BDEC028B71
:10445000BDE8F08791490CA805F04CFD0CA8FEF7CB
:10446000D5F90CA805F006FD0124204614B0BDECDA
:10447000028BBDE8F0874146284605F04FFD2846EF
:10448000FCF720FD0446284605F0F4FC002CD0D0B3
:10449000404605F0C3FE824C86B204F58075204686
:1044A00031464034FCF7A6F9A542F8D10124204654
:1044B00014B0BDEC028BBDE8F0877A49384605F0B0
:1044C00065FE044670B1022E1FD00CAD714928461E
:1044D00005F010FD2846FEF799F9284605F0CAFCBC
:1044E000002486E77049384605F050FE8146A0B3A7
:1044F000012E46D067490CA805F0FCFC0CA8FEF77D
:1045000085F90CA805F0B6FC73E70CAD08F11006B0
:104510003146284605F002FD2846FCF7D3FC044648
:10452000284605F0A7FC002CD0D04146284605F0CF
:10453000F5FC2846FFF700FE0446304605F06EFE07
:10454000002C05DB564B81B203EB8410FCF752F9CB
:10455000284605F08FFC01244BE75449384605F006
:1045600015FE054638B3022E3AD04A490CA805F08C
:10457000C1FC0CA8FEF74AF90CA84C4605F07AFCE1
:1045800037E70CAD4146284605F0C8FC2846FFF742
:1045900071FD434C071C18BF012704F580762046A7
:1045A00039464034FCF712F9A642F8D1284605F006
:1045B00061FC01241DE73E49384605F0E7FD8146D0
:1045C00000284BD0012E2FD032490CA805F092FCC8
:1045D0000CA8FEF71BF90CA82C4605F04BFC08E7CD
:1045E00004AF4146384605F099FC3846FFF7A4FD74
:1045F0000CAD044608F11001284605F08FFC284652
:10460000FFF738FD002C07DB254B011C18BF0121EB
:1046100003EB8410FCF7DAF8284605F02BFC38464B
:1046200005F028FC0124E4E60CAD4146284605F0DF
:1046300075FC2846FFF71EFD194C071C18BF012703
:1046400004F58076204639464034FCF7DFF8A64270
:10465000F8D1284605F00EFC0124CAE61549384673
:1046600005F094FD044638B3022E4BD009490CA83E
:1046700005F040FC0CA8FEF7C9F80CA84C4605F064
:10468000F9FBB6E660300100042E01000422FF1F92
:104690006830010098300100AC3001007430010036
:1046A000E41EFF1FB8300100C0300100CC30010013
:1046B000D4300100E0300100BB49384605F066FD0A
:1046C000002838D0002E40D1FEF73EF90CADB74996
:1046D0000446284605F00EFC2846FEF78BF82846CF
:1046E00005F0C8FBB24BB3492846002C18BF194649
:1046F00005F000FC2846FEF789F8284605F0BAFBCD
:10470000012476E60CAD4146284605F007FC284614
:10471000FFF712FD002809DBD8F81010A64B003176
:1047200018BF012103EB8010FCF770F8284605F054
:10473000A1FB01245DE6A149384605F027FDD8B16B
:1047400076B9FEF79BFC012453E69D490CA805F0C1
:10475000D1FB0CA8FEF75AF80CA805F08BFB48E635
:1047600097490CA805F0C6FB0CA8FEF74FF80CA85B
:1047700005F080FB00243CE69249384605F006FD32
:1047800070B1022E21D00CAD8D49284605F0B2FB48
:104790002846FEF73BF8284605F06CFB002428E687
:1047A0008949384605F0F2FC814688B3012E0CADEC
:1047B00017D08349284605F09DFB2846FEF726F8CA
:1047C000284605F057FB002413E604A8414605F0EF
:1047D000A5FB04A8FCF776FB78BB04A805F04AFB10
:1047E000D1E74146284605F099FB2846FCF76AFBCD
:1047F0000446284605F03EFB002CDAD0404605F082
:104800000DFD724A2C2303FB002034464671F0E56F
:104810006F49384605F0BAFC00284DD0012E0CAD8A
:1048200032D06749284605F065FB2846FDF7EEFFC4
:10483000284605F01FFB0024DBE50CAD08F110074E
:104840003946284605F06AFB2846FCF73BFB044640
:10485000284605F00FFB04A805F00CFB002C93D0B4
:10486000404605F0DBFC2C2404FB00F4574D384691
:1048700005F0D4FC6319625990FBF6F058621846B3
:10488000136998470124B4E54146284605F046FBE4
:104890002846FCF717FB0446284605F0EBFA002CE7
:1048A000BFD0404605F0BAFC484A2C2303FB002049
:1048B000344680F805909CE54649384605F066FC8C
:1048C000044670B1022E0CAD1ED03D49284605F0BD
:1048D00011FB2846FDF79AFF284605F0CBFA002485
:1048E00087E53D49384605F051FC002846D0012EA9
:1048F00033D033490CA805F0FDFA0CA8FDF786FF6C
:104900000CA805F0B7FA74E54146284605F006FB09
:104910002846FCF7D7FA0446284605F0ABFA002CE7
:10492000D3D0404605F07AFC2C24284B04FB00F43D
:1049300008F11001E25828461C44D66805F0EEFA4A
:104940002846FFF797FB011C18BF01212046B047FE
:10495000284605F08FFA01244BE541460CA805F0E6
:10496000DDFA0CA8FFF786FB003018BF0120FDF729
:10497000F7FF0CA8344605F07DFA3AE517493846AA
:1049800005F004FC044658B3012E0CAD33D00C499D
:10499000284605F0AFFA2846FDF738FF284605F00F
:1049A00069FA002425E500BFE8300100F830010075
:1049B0003C30010048300100E41EFF1F10310100AF
:1049C000983001001C3101002C310100741DFF1FC3
:1049D00038310100443101005431010068310100D7
:1049E000A949384605F0D2FB054648B3EEB9FDF7B4
:1049F000C7FF0124FDE44146284605F08FFA28460A
:104A0000FCF760FA0446284605F034FA002CBED0C4
:104A1000404605F003FC2C2303FB00F09B4BC258DF
:104A20001844136934469847E3E499490CA805F003
:104A300061FA0CA8FDF7EAFE0CA805F01BFAD8E411
:104A40009449384605F0A2FB044668B1052E1ED0F5
:104A50008F490CA805F04EFA0CA8FDF7D7FE0CA85C
:104A60002C4605F007FAC4E48B49384605F08EFB66
:104A700000285AD0032E3FD085490CA805F03AFAF9
:104A80000CA8FDF7C3FE0CA805F0F4F9B1E440460C
:104A900005F0C4FB342508F1100105FB00F50CA856
:104AA00005F03CFA7D4E0CA8FFF77AFBAC19AB5928
:104AB00020741B69204698470CA805F0DBF908F123
:104AC000200005F0ABFBAB5960821B69204698477C
:104AD00008F1300005F0A2FBAB59A0821B6920460B
:104AE000984708F1400005F099FBAB59E0821B693B
:104AF0002046984701247CE4404605F08FFB302493
:104B000004FB00F408F1100005F088FB644D064634
:104B100008F1200005F082FB6319625958611E619B
:104B2000184613699847012463E45E49384605F046
:104B30002DFB68B1012E16D055490CA805F0DAF905
:104B40000CA8FDF763FE0CA805F094F9002450E4CE
:104B50005549384605F01AFB10B3AEB90120FDF7F0
:104B60003BFF012445E441460CA805F0D7F90CA809
:104B7000FFF780FA003018BF0120FDF72DFF0CA8C9
:104B800005F078F9012434E441490CA805F0B2F9A4
:104B90000CA8FDF73BFE0CA805F06CF9002428E4F6
:104BA0004249384605F0F2FA044628B17EB930464B
:104BB000FDF712FF01241CE43D49384605F0E6FAF2
:104BC0008146E0B17EB9FDF71DFF012411E43049B3
:104BD0000CA805F08FF90CA8FDF718FE0CA805F03D
:104BE00049F9002405E42A490CA805F083F90CA82A
:104BF000FDF70CFE0CA805F03DF9FFF7FABB2D49B7
:104C0000384605F0C3FA054670B1022E0CA821D033
:104C10001F4905F06FF90CA8FDF7F8FD0CA84C46EC
:104C200005F028F9FFF7E5BB2349384605F0AEFA51
:104C30000446002874D0042E0CA83FD0144905F077
:104C400059F90CA8FDF7E2FD0CA82C4605F012F965
:104C5000FFF7CFBB414605F061F90CA8FFF738FA22
:104C6000044608F1100005F0D9FAC1B2E0B2FDF730
:104C7000D9FE04460CA805F0FDF82046FEF724FEF8
:104C80000124FFF7B6BB00BF70310100741DFF1F88
:104C9000983001007C31010084310100141CFF1F99
:104CA000241EFF1F8C3101009C310100A83101003E
:104CB000B4310100BC310100CC310100414605F0A6
:104CC0002DF90CA8FFF704FA044608F1100005F0CE
:104CD000A5FAC1B2E0B2FDF7A5FE06460CA805F0A4
:104CE000C9F808F120010CA805F018F90CA8FFF785
:104CF000EFF9044608F1300005F090FAC1B2E0B2D5
:104D0000FDF790FE05460CA805F0B4F83046FEF716
:104D1000DBFD2846FEF7D8FD0124EE60FFF769BBF6
:104D2000BF49384605F032FA0546002843D016F050
:104D300001034CD17608771EDEB27501BE420CA885
:104D400008EB050103F10104BFF6B0AB05F0E6F88E
:104D50000CA8FFF7BDF9814605F11000404405F0AD
:104D60005DFAC1B25FFA89F0FDF75CFE81460CA8DE
:104D700005F080F8711C08EB41110CA805F0CEF885
:104D80000CA8FFF7A5F9064605F13000404405F0F0
:104D900045FAC1B2F0B2FDF745FE05460CA805F094
:104DA00069F84846FEF790FD2846FEF78DFDC5F8E8
:104DB0000C902346C0E79B49384605F0E7F9814649
:104DC000F0B186B9FDF770FE0124FFF712BB9649DA
:104DD0000CA805F08FF80CA8FDF718FD0CA805F03D
:104DE00049F8FFF706BB90490CA805F083F80CA81A
:104DF000FDF70CFD0CA82C4605F03CF8FFF7F9BABE
:104E00008A49384605F0C2F9044628B1C6B9FDF70B
:104E1000ADFE0124FFF7EDBA8549384605F0B6F935
:104E2000002842D0032E0CA817D07F4905F062F865
:104E30000CA8FDF7EBFC0CA805F01CF8FFF7D9BA9D
:104E400079490CA805F056F80CA8FDF7DFFC0CA872
:104E50004C4605F00FF8FFF7CCBA414605F05EF876
:104E60000CA8FFF735F9044608F1100005F0D6F953
:104E7000C1B2E0B2FDF7D6FD04460CA804F0FAFF7B
:104E8000236808F120010CA8DD6805F047F80CA89C
:104E9000FFF7F0F8011C18BF01212046A8470CA815
:104EA00004F0E8FF0124FFF7A4BA6249384605F090
:104EB0006DF978B1012E0CAD21D05B49284605F083
:104EC00019F82846FDF7A2FC284604F0D3FF002479
:104ED000FFF78FBA5849384605F058F9002858D0DE
:104EE000022E31D050490CA805F004F80CA8FDF7AB
:104EF0008DFC0CA804F0BEFF0024FFF77ABA4146EF
:104F0000284605F00BF82846FBF7DCFF0446284648
:104F100004F0B0FF002CD0D0404605F07FF940F6F9
:104F2000FF7384B29C42A8BF1C46444DA6B22146E2
:104F3000A8782E8005F088FD2146287AEE8005F0BD
:104F400083FD0124FFF755BA30464146FBF7CAFFFF
:104F50000028C7D0404605F061F9044608F110006A
:104F600005F05CF9E3B2012B3FF6A0AA334C062210
:104F700002FB03F240F6FF7183B215198B42A8BF02
:104F80000B46A87813531946012405F05DFDFFF781
:104F900030BA2B49384605F0F9F8044628B17EB9F5
:104FA00002F0EAFB0124FFF724BA2649384605F04F
:104FB000EDF8F0B18EB902F03FFC0124FFF719BA09
:104FC00019490CA804F096FF0CA8FDF71FFC0CA8CB
:104FD00004F050FF0024FFF70CBA13490CA804F0AA
:104FE00089FF0CA8FDF712FC0CA804F043FFFFF7A3
:104FF00000BA1549384605F0C9F8054630B3012E08
:105000000CAD00F08D810849284604F073FF284656
:10501000FDF7FCFB284604F02DFF0024FFF7E9B95B
:10502000D8310100E031010098300100EC3101007D
:10503000F831010004320100103201004820FF1F46
:10504000183201002032010028320100DB493846C5
:1050500005F09CF80446002800F08C81002E40F0FA
:105060007C810CADD649284604F044FF2846FDF764
:10507000C1FB284604F0FEFEFCF7ACF9002800F066
:105080006A81D049284604F035FF2846FDF7BEFB6B
:10509000284604F0EFFECC49284604F02BFF2846B2
:1050A000FDF7A8FB284604F0E5FE01F023FF0A22E5
:1050B0000146284604F064FF2846FDF7A7FB284672
:1050C00004F0D8FEC149284604F014FF2846FDF735
:1050D00091FB284604F0CEFE02F0D0FB002800F041
:1050E0003881B849284604F005FF2846FDF782FBC1
:1050F000284604F0BFFEB649284604F0FBFE2846C9
:10510000FDF778FB284604F0B5FE02F029FB0A22E1
:105110000146284604F05CFF2846FDF76BFB284655
:1051200004F0A8FEAB49284604F0E4FE2846FDF74B
:1051300061FB284604F09EFEA749284604F0DAFEEB
:105140002846FDF757FB284604F094FE02F09CFB2E
:105150000A220146284604F013FF2846FDF74AFBC1
:10516000284604F087FE9D49284604F0C3FE2846E1
:10517000FDF74CFB284604F07DFE9949284604F0D3
:10518000B9FE2846FDF736FB284604F073FE02F010
:10519000EDFA002800F0DB808A49924EDFF8789221
:1051A000DFF87882284604F0A5FE2846FDF72EFB9E
:1051B000284604F05FFE8C49284604F09BFE2846F2
:1051C000FDF724FB284604F055FE002404AF874970
:1051D000284604F08FFE2846FDF70CFB284604F015
:1051E00049FE335906EB040A5B6951462846984745
:1051F0002846FDF7FFFA284604F03CFE51463846A3
:10520000FBF72EFB7A49284604F074FE2846FDF78A
:10521000F1FA284604F02EFE0A22BDF810102846A6
:1052200004F0AEFE2846FDF7E5FA284604F022FE1B
:105230007049284604F05EFE2846FDF7DBFA284652
:1052400004F018FE9DF81210284600290CBF4946AC
:10525000414604F04FFE2846FDF7CCFA284604F0FC
:1052600009FE6449284604F045FE2846FDF7C2FAC7
:10527000284604F0FFFD9DF81310284600290CBFB6
:105280004946414604F036FE2846FDF7B3FA284663
:1052900004F0F0FD5749284604F02CFE2846FDF79F
:1052A000A9FA284604F0E6FD9DF8141028460029C6
:1052B0000CBF4946414604F01DFE2846FDF79AFA08
:1052C000284604F0D7FD4C49284604F013FE284632
:1052D000FDF79CFA4034284604F0CCFDB4F5807FFD
:1052E0007FF475AFFDF730FB44490446284604F0CF
:1052F00001FE2846FDF77EFA284604F0BBFD404B30
:1053000040492846002C18BF194604F0F3FD2846F2
:10531000FDF77CFA284604F0ADFD0124FFF769B8DB
:105320004146284604F0FAFD2846FBF7CBFD04462B
:10533000284604F09FFD002C3FF465AE404604F083
:105340006DFF80B202F0A6FA3446FFF752B82E493C
:1053500023E72D49C6E62C4994E62C490CA804F015
:10536000C9FD0CA8FDF752FA0CA82C4604F082FDEA
:10537000FFF73FB82649384604F008FF40B1002E39
:105380004ED1FBF7FFFF012401F0E2FDFFF731B83A
:105390002049384604F0FAFE002864D0012E0CADF6
:1053A0004AD01A49284604F0A5FD2846FDF72EFAF2
:1053B000284604F05FFD0024FFF71BB82C320100E3
:1053C000343201000436010044320100543201003D
:1053D0006832010074320100783201008432010029
:1053E0008C320100E41EFF1FA8320100C42E010010
:1053F000E0320100E432010094300100E8320100A3
:105400003C30010048300100702E0100983001004E
:10541000043301000C330100A42C0100A82C01006E
:10542000BB490CA804F066FD0CA8FDF7EFF90CA829
:1054300004F020FDFEF7DDBF4146284604F06EFD76
:105440002846FBF73FFD0446284604F013FD002CD8
:10545000A7D0404604F0E8FE3446FBF787FF01F092
:1054600077FDFEF7C6BFAB49384604F08FFE70B13A
:10547000022E22D0A6490CA804F03CFD0CA8FDF792
:10548000C5F90CA804F0F6FC0024FEF7B2BFA2494F
:10549000384604F07BFE002840D0012E0CAD26D00B
:1054A0009B49284604F026FD2846FDF7AFF928461B
:1054B00004F0E0FC0024FEF79CBF30464146FBF7B9
:1054C00011FD0028D6D0404604F0AEFE08F11000D1
:1054D0008DED040A04F0A8FE0CA904A881ED000AD1
:1054E0000124FBF73BFF01F033FDFEF782BF41468D
:1054F000284604F013FD2846FBF7E4FC0446284642
:1055000004F0B8FC002CCBD0404604F08DFEFBF735
:1055100033FF012401F01CFDFEF76BBF7F493846C5
:1055200004F034FE78B1012E0CAD19D0784928462C
:1055300004F0E0FC2846FDF769F9284604F09AFCDF
:105540000024FEF756BF7649384604F01FFE70B3BC
:1055500006BBFBF731FF0124FBF714FFFEF749BF41
:105560004146284604F0DAFC2846FBF7ABFC04462B
:10557000284604F07FFC002CD8D0404604F04EFEB4
:10558000003018BF0120FBF711FF012401F0E0FCFF
:10559000FEF72FBF5E490CA804F0ACFC0CA8FDF789
:1055A00035F90CA804F066FC0024FEF722BF5D4923
:1055B000384604F0EBFD044670B1012E20D054496A
:1055C0000CA804F097FC0CA8FDF720F90CA804F037
:1055D00051FC0024FEF70DBF5349384604F0D6FDB8
:1055E000002839D0012E1DD049490CA804F082FCB6
:1055F0000CA8FDF70BF90CA804F03CFCFEF7F9BE73
:1056000041460CA804F08AFC0CA8FEF733FD0030DC
:1056100018BF0120FBF7D8FE0CA8344604F02AFC82
:10562000FEF7E7BE0CAD4146284604F077FC28465D
:10563000FEF720FD3D4E071C18BF012730193946E3
:105640004034FBF7F1F8B4F5807FF7D1284604F039
:1056500011FC0124FEF7CDBE3549384604F096FD15
:105660000446002840D0022E0CAD0CD02849284614
:1056700004F040FC2846FDF7C9F8284604F0FAFB80
:105680000024FEF7B6BE4146284604F047FC2846F3
:10569000FBF718FC0446284604F0ECFB002CE5D090
:1056A00004AF4146384604F039FC3846FEF744FD65
:1056B00008F110010446284604F030FC2846FEF7A5
:1056C000D9FC011C18BF0121002C04DB174800EB9A
:1056D0008410FBF7A9F8284604F0CCFB384604F008
:1056E000C9FB0124FEF785BE1249384604F04EFD81
:1056F000814608B3012E5DD005490CA804F0FAFBE1
:105700000CA8FDF783F80CA804F0B4FBFEF771BEFB
:1057100098300100143301001C33010024330100D0
:105720002C330100343301003C330100E41EFF1F21
:105730004833010050330100D649384604F026FDB5
:10574000054600287ED041463046FBF7CBFB044699
:1057500000286BD0032E4CD0052E3DD1FBF740FE28
:10576000404604F061FD08F11000B0EE408A04F0FC
:105770005BFD08F120008DED0C8A8DED0D0A04F023
:1057800053FD08F13000B0EE408A04F04DFD08F101
:105790004000F0EE408A04F041FDF0EE680A81B26C
:1057A000B0EE480A0CA8FBF729FE012401F0D0FB5B
:1057B000FEF71FBE41460CA804F0B0FB0CA8FEF794
:1057C00059FC003018BF012002F07CF80CA83446C8
:1057D00004F050FBFEF70DBEAF490CA804F08AFBA5
:1057E0000CA8FDF713F80CA84C4604F043FBFEF799
:1057F00000BEFBF7F5FD404604F016FD08F1100071
:10580000B0EE408A04F010FD08F12000F0EE408A6E
:1058100004F004FDF0EE680A80B2B0EE480AFBF72F
:1058200019FE012401F094FBFEF7E3BD9A490CA890
:1058300004F060FB0CA8FCF7E9FF0CA804F01AFBCD
:10584000FEF7D7BD9549384604F0A0FC80B3414629
:105850003046FBF747FB0446002800F00181022E8A
:1058600000F0E980042E67D1FBF7BAFD404604F052
:10587000DBFC08F11000B0EE408A04F0D5FC08F122
:1058800020008DED0C8A8DED0D0A04F0CDFC08F1A1
:105890003000B0EE408A04F0C1FCB0EE480A81B29C
:1058A0000CA8FBF7E3FD012401F052FBFEF7A1BDBC
:1058B0007B49384604F06AFC002800F086804146A7
:1058C0003046FBF70FFB0446002872D0042E4DD063
:1058D000062E3ED1FBF784FD404604F0A5FC08F1FE
:1058E0001000B0EE408A04F09FFC08F120008DED1E
:1058F0000C8A8DED0D0A04F097FC08F13000B0EE33
:10590000408A04F091FC08F14000F0EE408A04F077
:1059100085FC044608F1500004F080FCA1B282B27C
:10592000F0EE680AB0EE480A0CA8FBF70FFE01245F
:1059300001F00EFBFEF75DBD57490CA804F0DAFA42
:105940000CA8FCF763FF0CA82C4604F093FAFEF7B2
:1059500050BD51490CA804F0CDFA0CA8FCF756FF35
:105960000CA804F087FA0024FEF743BDFBF738FDCE
:10597000404604F059FC08F11000B0EE408A04F0F3
:1059800053FC08F12000F0EE408A04F047FC044686
:1059900008F1300004F042FCF0EE680A81B2B0EE8B
:1059A000480AA0B2FBF70AFE012401F0D1FAFEF783
:1059B00020BD39490CA804F09DFA0CA8FCF726FF7D
:1059C0000CA804F057FAFEF714BD3649384604F027
:1059D000DDFB002800F0898041463046FBF782FA63
:1059E0000446002875D0022E5ED0042E44D1FBF769
:1059F000F7FC404604F018FC08F11000B0EE408AB5
:105A000004F012FC08F120008DED0C8A8DED0D0ADA
:105A100004F00AFC08F13000B0EE408A04F0FEFB0E
:105A2000B0EE480A81B20CA8FBF7DCFD012401F0BE
:105A30008FFAFEF7DEBCFBF7D3FC404604F0F4FB24
:105A400008F11000B0EE408A04F0E8FBB0EE480A1E
:105A500080B2FBF76FFD012401F07AFAFEF7C9BCB2
:105A60000D490CA804F046FA0CA8FCF7CFFE0CA8D0
:105A700004F000FAFEF7BDBC07490CA804F03AFA9E
:105A80000CA8FCF7C3FE0CA804F0F4F90024FEF700
:105A9000B0BC00BF583301009830010060330100F2
:105AA0006833010070330100FBF79AFC404604F0B4
:105AB000BBFB08F11000B0EE408A04F0AFFBB0EE83
:105AC000480A80B2FBF794FD012401F041FAFEF789
:105AD00090BCBC490CA804F00DFA0CA8FCF796FE8B
