:1000000000000320D10100009DA7000055A70000BB
:1000100055A7000055A7000055A7000055A70000F0
:1000200055A7000055A7000055A700009DA7000098
:100030009DA7000055A7000071C4000075C5000011
:100040009DA700009DA700009DA700009DA70000A0
:100050009DA700009DA700009DA700009DA7000090
:100060009DA700009DA700009DA700009DA7000080
:100070009DA700009DA700009DA700009DA7000070
:100080009DA700009DA700009DA700009DA7000060
:100090009DA700009DA700009DA700009DA7000050
:1000A0009DA700009DA700009DA700009DA7000040
:1000B0009DA700009DA700009DA70000BDC50000F2
:1000C0009DA70000E9C600009DA7000015C800001C
:1000D0009DA700000DC900009DA700009DA700007E
:1000E0009DA700009DA700009DA700009DA7000000
:1000F0009DA700009DA700009DA700009DA70000F0
:10010000A99D0000BD9D0000D19D0000E59D00005F
:100110009DA7000071B300009DA700009DA70000EF
:100120009DA700009DA700009DA700009DA70000BF
:100130009DA700009DA700009DA700009DA70000AF
:100140009DA700009DA7000005CA00009DA7000014
:100150009DA700009DA700009DA700009DA700008F
:100160009DA700009DA700009DA700009DA700007F
:100170009DA700009DA700009DA700009DA700006F
:100180009DA700009DA700009DA700009DA700005F
:100190009DA700009DA70000FDCA00009DA70000CC
:1001A0009DA700009DA700009DA700009DA700003F
:1001B0009DA700009DA700009DA700009DA700002F
:1001C0009DA700009DA700009DA700009DA700001F
:1001D0005C4B4CF2205210B51A804DF628121A8052
:1001E00000BF00BF0AF0DEFA574B4FF030621A60D2
:1001F000564A9A60564ADA60564B4FF470021A60BB
:10020000554B564A1A60564A136813F4807304D14A
:1002100054490B604FF4A8531360534B1A781107DD
:1002200003D51A7842F008021A70504B5049AA229E
:100230001A70504A504B8B4204D252F8040F43F8C4
:10024000040BF8E74D4B4E4900228B4202D243F893
:10025000042BFAE74B494C4A002352F8230041F89B
:1002600023000133742BF8D1484B494A802103F80D
:10027000011B9342FBD1474B424A1A60464B8A22EC
:100280001A70A3F5805324225A70A0221A709A790A
:100290009207FCD59A79D406FCD4404A937903F0AE
:1002A0000C03082BFAD13E4B60221A7002331A78E5
:1002B000802AFCD1394B01221A715D225A719A7938
:1002C0009006FCD59979354A4906FBD5354B364918
:1002D00019600021596020231370937903F00C03F7
:1002E0000C2BFAD1314B324A1A60324B324A1A6027
:1002F00000225A60072243F8042C304AC3F80C2D20
:1003000062B60AF0A5FE174B1B68DA0705D52C4824
:100310000AF0A6FB2B4B2C4A1A602C4B1B785B0671
:1003200009D5284C284B22689A4204D124480AF067
:1003300097FB002323600FF07FF80AF039FA0AF0E8
:1003400067F9FEE70E20054030800440823F04003C
:100350000100002B88ED00E0002008E0030000858C
:1003600010D0034014D0034002D0074000E0074003
:100370009814FF1F144001003007FF1F9814FF1F3F
:10038000AC9C01200002FF1F0000000000E400E020
:1003900064E400E008ED00E0005006400040064044
:1003A00001E007404480044000000602048004404D
:1003B000C010070014E000E01FBF02000000202072
:1003C00097C1045D1CE00340A5C3945A00F00740A8
:1003D000FFFFFFFFFFFFFFFFFFFFFFFFFFFFFFFF2D
:1003E000FFFFFFFFFFFFFFFFFFFFFFFFFFFFFFFF1D
:1003F000FFFFFFFFFFFFFFFFFFFFFFFFFFFFFFFF0D
:10040000FFFFFFFFFFFFFFFFFFFFFFFFDEF9FFFF23
:1004100010B5054C237833B9044B13B10448AFF33E
:1004200000800123237010BD9814FF1F00000000FE
:1004300010400100084B10B51BB108490848AFF344
:1004400000800848036803B910BD074B002BFBD0A0
:10045000BDE81040184700BF000000009C14FF1FBB
:10046000104001009814FF1F000000004171704708
:10047000002301220271C3728372C37183714372BC
:100480000372704703685B6A184700BFC171704709
:1004900010B50A4A0A4913780446042084F83C003F
:1004A00084F83D3004F12C000133137009F0D6FDBF
:1004B0000122236A6271636210BD00BFE414FF1F52
:1004C0006815FF1F10B5054C04F1100009F0F0FC91
:1004D0002046BDE8104009F0EBBC00BF9815FF1F97
:1004E00010B5074C04F1200009F0E2FC04F1100003
:1004F00009F0DEFC2046BDE8104009F0D9BC00BF81
:10050000B414FF1F38B5054CA4F170052046103C0B
:1005100009F0CEFCAC42F9D138BD00BF8815FF1FF1
:1005200010B5094C04F1300009F0C2FC04F12000C0
:1005300009F0BEFC04F1100009F0BAFC2046BDE849
:10054000104009F0B5BC00BFE814FF1F70B588B0BB
:100550000C4605462C31684609F0FEFC68461349F6
:1005600009F0F0FD94F83D10064604A809F012FDCC
:1005700004A9304609F0DEFD0D4909F0E3FD0D4BFD
:1005800094F83D1003EB011109F0D4FD0A4909F07C
:10059000D9FD0146284609F0DFFC04A809F088FCD3
:1005A000684609F085FC284608B070BD642C01003F
:1005B000682C0100E814FF1F6C2C010070B50C467C
:1005C0008CB005461A491B4E08A809F0B1FC0A2256
:1005D000618A04A809F0F2FC04A908A809F0AAFDA0
:1005E000154909F0AFFD617D06EB011109F0A2FD8F
:1005F000124909F0A7FDA17D06EB011109F09AFD52
:100600000F4909F09FFD0146684609F0A5FC04A8C2
:1006100009F04EFC08A809F04BFC6946284609F091
:1006200035FC684609F044FC28460CB070BD00BF9C
:10063000702C01009815FF1F782C0100842C0100FC
:10064000902C010010B5064B044640F82C3B09F0F5
:100650002FFC206A08B10AF0F9F8204610BD00BF4F
:10066000F82C010010B5084B044640F82C3B09F06B
:100670001FFC206A08B10AF0E9F8204640210AF080
:10068000E7F8204610BD00BFF82C01004379DBB12C
:10069000C16810B501B18979036804461B6A98479F
:1006A00023792BB9236820465B6ABDE810401847C0
:1006B000236808499A6A00208A42207105D12046A1
:1006C0005B6ABDE81040184770472046BDE81040FF
:1006D000104700BF85040000F8B50346044653F8F0
:1006E0001A1F194A026001259A88C0F812104FF4A7
:1006F000FA63002100F12C06C2824383E160E172BB
:10070000A172E171A1716172217221776177A17784
:1007100021626162A162304665712571257409F01C
:1007200007FC0A4A0A49137884F83D3004272B4411
:10073000304684F83C70137009F090FC236A6571B0
:1007400063622046F8BD00BFF82C0100E414FF1FCF
:100750006815FF1F01764276012110460AF0FCBBA6
:10076000037C23B1437D1BB9407E0AF0E1BB704797
:1007700007EE901A9FED067A407EF8EEE77A67EE74
:10078000877AFDEEE77A17EE901A0AF07BB900BF80
:10079000E17A944410B500210446FFF7E1FF0023FD
:1007A000237410BD8179027D8A4202D00175FFF762
:1007B000D7BF7047027D417102B9704700210175B2
:1007C000FFF7CEBF10B4047D8C4205D003465DF820
:1007D000044B1975FFF7C4BF5DF8044B704700BFA9
:1007E000037C03B1037D1846704700BF40F6FF73DA
:1007F0009942027CA8BF1946418202B97047007E27
:100800000AF040B910B50446417519B90121407E7E
:100810000AF0A2FB217D2046BDE81040FFF7A0BFF3
:1008200081757047837D03B970470021FFF798BF3A
:1008300010B50446417DFFF7E5FF618A237C40F651
:10084000FF729142A8BF1146618203B910BD207E9C
:10085000BDE810400AF016B901230374FFF7E8BFA2
:1008600051F8122F02608A888280704738B5436A37
:10087000044633F8065C13F8041C13F8032C13F831
:10088000023C8375458201754275FFF7D1FF636AAB
:10089000063B636238BD00BF2DE9F04104462148A4
:1008A00062682668931B5B1000FB03F388462BB13C
:1008B0005F00BB422BD96FF0030700E006273846E4
:1008C00009F0C2FF626826680546921B154B50105E
:1008D00003FB00F0AB1806D0D8F800E0B8F804101D
:1008E00045F802E0998058B903F1060816B1304680
:1008F00009F0ACFF2F44A76084E82001BDE8F08137
:100900003146284603F106080FF0ECF8EFE7064BF6
:100910009F42D0D83D46002FD7D0062303FB07F7D0
:10092000CDE700BFABAAAAAAAAAAAA2A08B5826ADA
:10093000436A934209D02BB1024652F8121F196044
:1009400092889A800633436208BD00F1120120307C
:10095000FFF7A2FF08BD00BF2DE9F041334E344937
:10096000344D354C354FDFF82481304609F0E0FA3C
:1009700006F11000324909F0DBFA06F12000314996
:1009800009F0D6FA06F130002F4909F0D1FA2A46CB
:100990002E4900200CF066F920462D4909F0C8FACE
:1009A00004F110002B4909F0C3FA04F120002A4990
:1009B00009F0BEFA04F13000284909F0B9FA04F14F
:1009C0004000274909F0B4FA04F15000254909F024
:1009D000AFFA04F16000244909F0AAFA2A46234933
:1009E00000200CF03FF93846214909F0A1FA07F13F
:1009F0001000204909F09CFA07F120001E4909F077
:100A000097FA2A461D4900200CF02CF940461C4953
:100A100009F08EFA08F110001A4909F089FA2A46FD
:100A200019490020BDE8F0410CF01CB9E814FF1F83
:100A3000942C01000C08FF1F2815FF1FB414FF1F82
:100A4000982C0100A02C0100A82C01002105000019
:100A5000B42C0100B82C0100BC2C0100C02C0100FA
:100A6000C42C0100C82C0100CC2C0100050500009D
:100A7000D02C0100D82C0100E02C0100E104000082
:100A8000E82C0100EC2C0100C50400009815FF1FA4
:100A900010B5054C04F1100009F00AFA2046BDE833
:100AA000104009F005BA00BF9816FF1F10B5074C9B
:100AB00004F1200009F0FCF904F1100009F0F8F944
:100AC0002046BDE8104009F0F3B900BFB815FF1F7C
:100AD00038B5054CA4F170052046103C09F0E8F942
:100AE000AC42F9D138BD00BF4816FF1F10B5094C04
:100AF00004F1300009F0DCF904F1200009F0D8F924
:100B000004F1100009F0D4F92046BDE8104009F0C6
:100B1000CFB900BF5816FF1F2DE9F041334E3449BD
:100B2000344D354C354FDFF82481304609F000FA5A
:100B300006F11000324909F0FBF906F120003149B5
:100B400009F0F6F906F130002F4909F0F1F92A46CB
:100B50002E4900200CF086F820462D4909F0E8F9CE
:100B600004F110002B4909F0E3F904F120002A49AF
:100B700009F0DEF904F13000284909F0D9F904F14F
:100B80004000274909F0D4F904F15000254909F043
:100B9000CFF904F16000244909F0CAF92A46234933
:100BA00000200CF05FF83846214909F0C1F907F13F
:100BB0001000204909F0BCF907F120001E4909F096
:100BC000B7F92A461D4900200CF04CF840461C4954
:100BD00009F0AEF908F110001A4909F0A9F92A46FE
:100BE00019490020BDE8F0410CF03CB85816FF1F31
:100BF000942C01000C08FF1FE815FF1FB815FF1FFC
:100C0000982C0100A02C0100A82C0100ED0A000086
:100C1000B42C0100B82C0100BC2C0100C02C010038
:100C2000C42C0100C82C0100CC2C0100D10A00000A
:100C3000D02C0100D82C0100E02C0100AD0A0000EE
:100C4000E82C0100EC2C0100910A00009816FF1F0F
:100C500010B5054C04F1100009F02AF92046BDE852
:100C6000104009F025B900BFA017FF1F10B5074CB1
:100C700004F1200009F01CF904F1100009F018F942
:100C80002046BDE8104009F013B900BFBC16FF1F95
:100C900038B5054CA4F170052046103C09F008F960
:100CA000AC42F9D138BD00BF4C17FF1F10B5094C3D
:100CB00004F1300009F0FCF804F1200009F0F8F824
:100CC00004F1100009F0F4F82046BDE8104009F0E6
:100CD000EFB800BF5C17FF1F2DE9F041334E3449D8
:100CE000344D354C354FDFF82481304609F020F97A
:100CF00006F11000324909F01BF906F120003149D4
:100D000009F016F906F130002F4909F011F92A46C9
:100D10002E4900200BF0A6FF20462D4909F008F9C6
:100D200004F110002B4909F003F904F120002A49CD
:100D300009F0FEF804F13000284909F0F9F804F14F
:100D40004000274909F0F4F804F15000254909F062
:100D5000EFF804F16000244909F0EAF82A46234933
:100D600000200BF07FFF3846214909F0E1F807F138
:100D70001000204909F0DCF807F120001E4909F0B5
:100D8000D7F82A461D4900200BF06CFF40461C494D
:100D900009F0CEF808F110001A4909F0C9F82A46FE
:100DA00019490020BDE8F0410BF05CBF5C17FF1F44
:100DB000942C01000C08FF1FEC16FF1FBC16FF1F30
:100DC000982C0100A02C0100A82C0100AD0C000003
:100DD000B42C0100B82C0100BC2C0100C02C010077
:100DE000C42C0100C82C0100CC2C0100910C000087
:100DF000D02C0100D82C0100E02C01006D0C00006B
:100E0000E82C0100EC2C0100510C0000A017FF1F82
:100E100010B5054C04F1100009F04AF82046BDE871
:100E2000104009F045B800BFA018FF1F10B5074CCF
:100E300004F1200009F03CF804F1100009F038F842
:100E40002046BDE8104009F033B800BFC017FF1FAF
:100E500038B5054CA4F170052046103C09F028F87F
:100E6000AC42F9D138BD00BF5018FF1F10B5094C76
:100E700004F1300009F01CF804F1200009F018F822
:100E800004F1100009F014F82046BDE8104009F004
:100E90000FB800BF6018FF1F014B1870704700BFEC
:100EA0001008FF1F08B583680BB9012008BD002199
:100EB00009F0AEF96138C0B219288CBF00200120BA
:100EC00008BD00BF08B5002109F0A2F9A0F12D036B
:100ED000DBB20C2B03D82F3818BF012008BD00202F
:100EE00008BD00BF40B330B5451EEDB2013585B039
:100EF0000C4601EB051508E02F2A684604F11004A2
:100F000011D008F0D5FFAC4213D02146684609F055
:100F100023F80021684609F07BF9A0F12D03DBB22C
:100F20000C2B0246E8D9684608F0C2FF002005B045
:100F300030BD012005B030BD012070472DE9F041E2
:100F4000334E3449344D354C354FDFF8248130462B
:100F500008F0EEFF06F11000324908F0E9FF06F153
:100F60002000314908F0E4FF06F130002F4908F075
:100F7000DFFF2A462E4900200BF074FE20462D4943
:100F800008F0D6FF04F110002B4908F0D1FF04F15E
:100F900020002A4908F0CCFF04F13000284908F06D
:100FA000C7FF04F14000274908F0C2FF04F15000D8
:100FB000254908F0BDFF04F16000244908F0B8FF9E
:100FC0002A46234900200BF04DFE3846214908F0FF
:100FD000AFFF07F11000204908F0AAFF07F1200039
:100FE0001E4908F0A5FF2A461D4900200BF03AFED5
:100FF00040461C4908F09CFF08F110001A4908F00F
:1010000097FF2A4619490020BDE8F0410BF02ABE9F
:101010006018FF1F942C01000C08FF1FF017FF1F22
:10102000C017FF1F982C0100A02C0100A82C010064
:101030006D0E0000B42C0100B82C0100BC2C010086
:10104000C02C0100C42C0100C82C0100CC2C0100D4
:10105000510E0000D02C0100D82C0100E02C010022
:101060002D0E0000E82C0100EC2C0100110E0000F8
:10107000A018FF1F10B5054C04F1100008F018FF70
:101080002046BDE8104008F013BF00BFB419FF1F91
:1010900010B5074C04F1200008F00AFF04F110001D
:1010A00008F006FF2046BDE8104008F001BF00BF71
:1010B000C018FF1F38B5054CA4F170052046103C40
:1010C00008F0F6FEAC42F9D138BD00BF5019FF1F41
:1010D00010B5094C04F1300008F0EAFE04F12000DC
:1010E00008F0E6FE04F1100008F0E2FE2046BDE83C
:1010F000104008F0DDBE00BF7419FF1F30B5C821D5
:1011000085B01248124D134C08F0DAFE12490F4810
:1011100008F0ACFF114B124A1249002018701378E6
:10112000002BFCD00B78DB07F9D52B6820681B1A45
:101130000E2BF4D90C49684608F0FAFE684601F017
:1011400073FB684608F0B4FE05B030BD6419FF1F9C
:1011500044980120A49C0120482E01006019FF1F23
:101160002899012040990120242D010010B508E0A4
:101170000AF042FFC4B22146084808F0CBFF0A2C0F
:1011800004D00AF075FF0028F2D110BD034805F025
:1011900053FC0349014808F069FFF2E76419FF1F97
:1011A000482E0100FFF7E2BF2DE9F843394E3A49D6
:1011B0003A4D3B4C3B4FDFF84091DFF840813046E1
:1011C00008F0B6FE06F11000374908F0B1FE06F14E
:1011D0002000364908F0ACFE06F13000344908F032
:1011E000A7FE2A46334900200BF03CFD2046324939
:1011F00008F09EFE04F11000304908F099FE04F159
:1012000020002F4908F094FE04F130002D4908F029
:101210008FFE04F140002C4908F08AFE04F15000D2
:101220002A4908F085FE04F16000294908F080FE93
:101230002A46284900200BF015FD3846264908F0BB
:1012400077FE07F11000254908F072FE07F1200033
:10125000234908F06DFE2A46224900200BF002FDCA
:101260004846214908F064FE09F110001F4908F0C2
:101270005FFE2A461E4900200BF0F4FC4046002188
:1012800008F056FE2A4640461A49BDE8F8430BF0DE
:10129000E9BC00BF7419FF1F942C01000C08FF1F4C
:1012A000F018FF1FC018FF1F982C0100A02C010090
:1012B000A82C0100D1100000B42C0100B82C0100B2
:1012C000BC2C0100C02C0100C42C0100C82C010062
:1012D000CC2C0100B5100000D02C0100D82C01004E
:1012E000E02C010091100000E82C0100EC2C010022
:1012F00075100000B19E0000B419FF1F6419FF1F94
:1013000010B5054C04F1100008F0D2FD2046BDE8F0
:10131000104008F0CDBD00BFB41AFF1F10B5074C38
:1013200004F1200008F0C4FD04F1100008F0C0FD35
:101330002046BDE8104008F0BBBD00BFD419FF1F18
:1013400038B5054CA4F170052046103C08F0B0FDFE
:10135000AC42F9D138BD00BF641AFF1F10B5094C6B
:1013600004F1300008F0A4FD04F1200008F0A0FD15
:1013700004F1100008F09CFD2046BDE8104008F084
:1013800097BD00BF741AFF1F024B00680A685A60BD
:1013900018607047FC5B0020014B83ED000A70472A
:1013A0007822FF1F014B83ED000A70471408FF1FCE
:1013B00010B4064A064C074900234FF07E502360C4
:1013C0001360536008605DF8044B7047FC5B0020BD
:1013D0007822FF1F1408FF1F014B1870704700BFD1
:1013E0001808FF1F08B505F0BBFEBDE8084006F071
:1013F00041BA00BF014B1870704700BF1108FF1FB2
:10140000014B1878704700BF1108FF1F08B5054B46
:101410001B7803B908BD05F0A3FEBDE8084006F03F
:1014200029BA00BF1108FF1F30B54B1E2DED028BEE
:1014300007EE903A83B0F8EEE77A026843680092CC
:1014400080EE278A0193C0EEA78AA1B10D46002441
:10145000684605F083FD0134A4B2A5429DED007AF3
:10146000DDED017A37EE087A77EEA87A8DED007A15
:10147000CDED017AECD103B0BDEC028B30BD00BFE5
:1014800000B583B000230146684600930193FFF73F
:10149000CBFF03B05DF804FB2DE9F0414B1E2DEDB1
:1014A000048B07EE903A9FED2D7AF8EEE77A86B03E
:1014B000054610EE100A884687EE279A0DF010FCBC
:1014C000002406460F462346013407EE903AF8EE14
:1014D000E77A67EE897A17EE900A0DF001FC41EC8D
:1014E000100B41EC180B0BF09BFC51EC100BB0EE09
:1014F000480AF0EE680ACDE902010BF0F1FC324631
:101500003B46DDE902018DED000B0DF03DFC0DF0D9
:1015100033FF9DED000B07EE100AD5ED007A77EE54
:10152000277A3B46324651EC100BCDED047A0DF094
:101530002BFC0DF021FFD5ED017A07EE100A77EEB6
:10154000277A04A8CDED057A05F008FDA3B29845E9
:10155000BAD206B0BDEC048BBDE8F081DB0FC94008
:1015600000B583B000230146684600930193FFF75E
:1015700093FF03B05DF804FB30B52DED048B9FEDB8
:10158000198A83B0F0EE608AF0EE480A1446B0EE95
:10159000409A0D46FFF748FF684605F0CFFC21460C
:1015A000F0EE680AB0EE480A6846FFF73DFF68466D
:1015B00005F0C4FC2946F0EE480AB1EE490A684637
:1015C000FFF732FF684605F0B9FC2146F1EE680AE4
:1015D000B0EE480A6846FFF727FF03B0BDEC048B66
:1015E00030BD00BF0000000000B5F6EE007A83B009
:1015F00020EE677A60EEE77A0A46014668468DED8E
:10160000007ACDED017AFFF7B7FF03B05DF804FB78
:101610000A46F0EE400AFFF7AFBF00BF00B5F6EE96
:10162000007A83B060EE677A02460146F0EE400A27
:101630006846CDED007ACDED017AFFF79DFF03B04E
:101640005DF804FB2DE9F04F2DED028B85B0002BEA
:1016500040F05F811C46032607EE902AF8EEE77AF9
:101660005D1C80EEA78A520892FBF5F2D2B21FFAF7
:1016700082FA07EE905AF8EEE77A0568406800951E
:1016800028EE278A0190002A00F0E28010EE109ADE
:101690009B460F46B6B24FF00008F1EE408A002C90
:1016A00000F0DB8000250135684605F057FCEBB201
:1016B0009C42F8D83946DFED980A00EE109A684649
:1016C000FFF7B2FE02A805F039FC029A039B0092D4
:1016D000019300250135684605F040FCEBB29C42C1
:1016E000F8D83146F0EE480A9FED8B0A6846FFF7BE
:1016F0009BFE02A805F022FC029A039B0092019334
:1017000000250135684605F029FCEBB29C42F8D86B
:101710003946DFED810AB0EE680A6846FFF784FEBD
:1017200002A805F00BFC029A039B0092019300258E
:101730000135684605F012FCEBB29C42F8D8314600
:10174000F0EE480A9FED740A6846FFF76DFE08F157
:10175000010802A805F0F2FB1FFA88F3DDED037A19
:10176000029A00925345CDED017A98D3BBF1000F58
:101770006ED0B1EE488AB6EE007AE8EE077A4FF006
:101780000008CDED017A002C00F095800025013590
:10179000684605F0E3FBEBB29C42F8D83946DFED32
:1017A0005E0A00EE109A6846FFF73EFE02A805F0BA
:1017B000C5FB029A039B0092019300250135684600
:1017C00005F0CCFBEBB29C42F8D83146F0EE480A6B
:1017D0009FED510A6846FFF727FE02A805F0AEFB11
:1017E000029A039B0092019300250135684605F09B
:1017F000B5FBEBB29C42F8D83946DFED470AB0EEB4
:10180000680A6846FFF710FE02A805F097FB029AE7
:10181000039B0092019300250135684605F09EFB6D
:10182000EBB29C42F8D83146F0EE480A9FED3A0AF6
:101830006846FFF7F9FD08F1010802A805F07EFBF4
:101840001FFA88F30299039A0091534501929AD3A3
:1018500005B0BDEC028BBDE8F08F3946DFED2E0AF6
:1018600000EE109A6846FFF7DFFD02A805F066FB60
:10187000029A039B9FED280A00923146F0EE480A37
:1018800068460193FFF7D0FD02A805F057FB029AC6
:10189000039BDFED210A00923946B0EE680A6846E4
:1018A0000193FFF7C1FD02A805F048FB029A039BD4
:1018B0000092019343E73946DFED170A00EE109AD4
:1018C0006846FFF7B1FD02A805F038FB029A039BBA
:1018D0009FED110A00923146F0EE480A68460193E6
:1018E000FFF7A2FD02A805F029FB029A039BDFED9A
:1018F0000A0A00923946B0EE680A68460193FFF77B
:1019000093FD02A805F01AFB029A039B0092019333
:1019100089E7052426469FE60000000000B5F6EEA4
:10192000007A83B020EE677A60EEE77A13460A46C3
:10193000014668468DED007ACDED017AFFF782FE13
:1019400003B05DF804FB00BF2DE9F04F551C07EE16
:10195000905A2DED0A8BF8EEE78ADFEDC57A80EE1E
:10196000A87A89B0834602920C46F7EE00AA27EEC9
:1019700027AA68EE808A1AEE100A0DF0B1F9F0EE8F
:101980006A7AEAEE0A7A06460F4617EE900A0DF0DA
:10199000A7F941EC100B41EC190B0BF089FB59EC4A
:1019A000108BB0EE490AF0EE690A0BF081FB30466D
:1019B00053EC102B39460DF035F841EC100B0BF0C1
:1019C000EFFA94FBF5F442464B46304639468DED2E
:1019D000000B0DF0D9F99DED000B53EC102B0DF021
:1019E00021F8DFEDA47A88EEA77A06460F46013C7F
:1019F00017EE100A0DF074F902460B4630463946D0
:101A00000DF0C2F90DF0B8FC07EE904A06EE900A10
:101A1000F8EEE77AB5EEC0AAF1EE10FA86EEA77AF4
:101A2000C0F21C814FF000084FF0000917EE10AA19
:101A30009FED8D7B9FED908ADFED90BA8DED007B61
:101A4000B6EE00BA11E00DF04BF941EC100B41EC91
:101A5000190B0BF0E5F98DED000BB0EE490AF0EE35
:101A6000690A0BF03DFA59EC108B68EE887A9FED0D
:101A7000839A67EE8B7A87EEAB7A17EE100A0DF039
:101A80002FF90446DBF804000D460DF029F9424613
:101A900006460F464B46204629460DF075F902468C
:101AA0000B46304639460CF0BDFF0DF065FC804614
:101AB000DBF800000DF014F9DDE9002306460F46BF
:101AC000204629460DF060F902460B46304639465D
:101AD0000CF0A8FF0DF050FC069006A8CDF81C8075
:101AE00005F03CFA50460DF0FBF8044618EE900A5B
:101AF0000D460DF0F5F8F0EE6A7AE8EE087A8046C9
:101B0000894617EE900A0DF0EBF841EC100B0BF044
:101B1000CFFA404653EC102B49460DF035F90246FA
:101B20000B46204629460DF059FA0DF025FC07EE2C
:101B3000900A38EE278AB4EEC8AAF1EE10FA18EE31
:101B4000100A80DA029B002B00F0888038EE498A68
:101B500038EE678AB4EEC98AF1EE10FA7EDDCDE97F
:101B60000489CDE90245B6EE00CAF7EE009A5D465B
:101B700068EE887A67EE8C7A87EE897A17EE100A1B
:101B80000DF0AEF878EE097A824617EE900A8B4691
:101B90000DF0A6F841EC100B41EC1A0B0BF040F9DC
:101BA000B0EE40BAF0EE60BAB0EE4A0AF0EE6A0A61
:101BB0000BF096F953EC102B6868CDE900230DF07B
:101BC0008FF8DDE9002306460F46504659460DF0D2
:101BD000DBF802460B46304639460CF023FF0DF089
:101BE000CBFB814628680DF07BF853EC1B2B064697
:101BF0000F46504659460DF0C7F802460B46304690
:101C000039460CF00FFF0DF0B7FB069006A8CDF893
:101C10001C9005F0A3F9F0EE697AE8EE087A17EE69
:101C2000900A0DF05DF841EC100B0BF041FADDE984
:101C3000040153EC102B0DF0A7F802460B46DDE92A
:101C400002010DF0CBF90DF097FB07EE900A38EE8C
:101C5000678AB4EEC98AF1EE10FA89DC09B0BDECEE
:101C60000A8BBDE8F08F00BF000000000000F03FCD
:101C7000DB0FC940DB0F494100000000DB0F49408A
:101C800000B583B000230A460146684600930193DD
:101C9000FFF75AFE03B05DF804FB00BF2DE9F041E9
:101CA000334E3449344D354C354FDFF824813046BE
:101CB00008F03EF906F11000324908F039F906F152
:101CC0002000314908F034F906F130002F4908F0BE
:101CD0002FF92A462E4900200AF0C4FF20462D493C
:101CE00008F026F904F110002B4908F021F904F15D
:101CF00020002A4908F01CF904F13000284908F0B6
:101D000017F904F14000274908F012F904F15000D6
:101D1000254908F00DF904F16000244908F008F99C
:101D20002A46234900200AF09DFF3846214908F041
:101D3000FFF807F11000204908F0FAF807F1200039
:101D40001E4908F0F5F82A461D4900200AF08AFFCE
:101D500040461C4908F0ECF808F110001A4908F058
:101D6000E7F82A4619490020BDE8F0410AF07ABF99
:101D7000741AFF1F942C01000C08FF1F041AFF1F88
:101D8000D419FF1F982C0100A02C0100A82C0100E1
:101D90005D130000B42C0100B82C0100BC2C010024
:101DA000C02C0100C42C0100C82C0100CC2C010067
:101DB00041130000D02C0100D82C0100E02C0100C0
:101DC0001D130000E82C0100EC2C010001130000A1
:101DD000B41AFF1F00207047704700BF83791BB9FA
:101DE000034B20221A607047024B20221A60704772
:101DF00088F00F4084F00F40704700BFC1717047FA
:101E0000C28A0123037152420023C261C3728372EA
:101E1000C37183714372037203767047704700BFCA
:101E2000837923B9044B4FF080621A607047034BEB
:101E30004FF080621A60704708F10F4004F10F40C4
:101E400038B5054CA4F1B00554F82C3D1B6820466C
:101E50009847AC42F8D138BD241EFF1F38B5054C59
:101E6000A4F1900554F8243D1B6820469847AC42E5
:101E7000F8D138BD741DFF1F38B5054CA4F190058D
:101E800054F8243D1B6820469847AC42F8D138BD31
:101E9000141CFF1F38B5054CA4F1D00554F8343D8F
:101EA0001B6820469847AC42F8D138BDE41CFF1FA0
:101EB00038B5054CA4F1C00554F8303D1B682046E8
:101EC0009847AC42F8D138BDE41EFF1F38B5054C29
:101ED000A4F5807554F8403D1B6820469847AC42F5
:101EE000F8D138BDE41FFF1F10B5847990F82200A7
:101EF000214609F01DF824B9044B4FF080621A60A6
:101F000010BD034B4FF080621A6010BD08F10F4006
:101F100004F10F4010B5002301220271C3728372D5
:101F2000C371837143720372044609F01BF8A06207
:101F300010BD00BF10B5002301220271C37283726D
:101F4000C371837143720372044609F00BF8A061F8
:101F500010BD00BF10B5044689B909F003F8A369A4
:101F60002269C01A904207D963691A4490428CBF13
:101F700000200120E07110BD0020E07110BD08F0CC
:101F8000F1FFA061E9E700BF10B5054C04F11000B6
:101F900007F08EFF2046BDE8104007F089BF00BF64
:101FA0002420FF1F10B5074C04F1200007F080FF2C
:101FB00004F1100007F07CFF2046BDE8104007F058
:101FC00077BF00BF541BFF1F38B5054CA4F1700547
:101FD0002046103C07F06CFFAC42F9D138BD00BF81
:101FE000401BFF1F10B5094C04F1300007F060FFE3
:101FF00004F1200007F05CFF04F1100007F058FF27
:102000002046BDE8104007F053BF00BFE41FFF1F8C
:1020100010B5044B044640F81C3B07F049FF20462E
:1020200010BD00BF102E010010B5044B044640F84F
:10203000203B07F03DFF204610BD00BFDC2D010016
:1020400010B5044B044640F8103B07F031FF204622
:1020500010BD00BF742D010010B5044B044640F8BC
:10206000103B07F025FF204610BD00BFA82D010042
:1020700010B5044B044640F8103B07F019FF20460A
:1020800010BD00BF402D010010B5044690F822009D
:1020900008F054FF003018BF0120E07110BD00BFF0
:1020A00010B50446006808B108F0D0FB204610BD0A
:1020B00070B50D468CB00446164904A807F038FFE9
:1020C0000A222969684607F0A1FF694604A808F0BA
:1020D00031F8114908F036F80A220646696908A85D
:1020E00007F094FF08A9304608F024F80B4908F0DF
:1020F00029F80146204607F02FFF08A807F0D8FE70
:10210000684607F0D5FE04A807F0D2FE20460CB0C2
:1021100070BD00BF402E0100442E01004C2E010076
:1021200070B50C4690B005462349684607F000FF9D
:10213000224B217C684603EB011107F0FBFF20498D
:1021400008F000F80A220646618A04A807F036FF64
:1021500004A9304607F0EEFF1A4907F0F3FF0A2200
:102160000646A18A08A807F029FF08A9304607F00B
:10217000E1FF154907F0E6FF0A220646E18A0CA8AE
:1021800007F01CFF0CA9304607F0D4FF0F4907F0F9
:10219000D9FF0146284607F0DFFE0CA807F088FEAD
:1021A00008A807F085FE04A807F082FE684607F03D
:1021B0007FFE284610B070BD502E0100541BFF1F3B
:1021C000582E0100642E01006C2E0100902C01009D
:1021D00030B50D4689B004460E4904A807F0A8FEA4
:1021E00095F82210684607F0D5FE694604A807F066
:1021F000A1FF094907F0A6FF0146204607F0ACFE03
:10220000684607F055FE04A807F052FE204609B0C4
:1022100030BD00BF782E0100902C010030B50D4676
:1022200089B004460E4904A807F082FE95F82210F2
:10223000684607F0AFFE694604A807F07BFF09492E
:1022400007F080FF0146204607F086FE684607F04B
:102250002FFE04A807F02CFE204609B030BD00BFB9
:10226000782E0100902C010070B50D4688B0044610
:102270001349684607F05CFE124B6979684603EB28
:10228000011107F057FF104907F05CFF0A220646CC
:10229000696A04A807F0BAFE04A9304607F04AFFAD
:1022A0000A4907F04FFF0146204607F055FE04A8F3
:1022B00007F0FEFD684607F0FBFD204608B070BD44
:1022C000802E01002420FF1F882E01004C2E0100CB
:1022D00070B588B004460D4668461C3107F03CFED8
:1022E00068460E4907F02EFF95F82D10064604A803
:1022F00007F050FE04A9304607F01CFF084907F01C
:1023000021FF0146204607F027FE04A807F0D0FD74
:10231000684607F0CDFD204608B070BD642C010072
:10232000F830010070B588B004460D46684620318B
:1023300007F012FE68460E4907F004FF95F83110C9
:10234000064604A807F026FE04A9304607F0F2FE70
:10235000084907F0F7FE0146204607F0FDFD04A8F6
:1023600007F0A6FD684607F0A3FD204608B070BD43
:10237000642C0100F830010070B588B004460D46A9
:102380006846103107F0E8FD68460E4907F0DAFEAE
:1023900095F82110064604A807F0FCFD04A9304674
:1023A00007F0C8FE084907F0CDFE0146204607F0B9
:1023B000D3FD04A807F07CFD684607F079FD2046B0
:1023C00008B070BD642C0100F830010070B588B011
:1023D00004460D466846103107F0BEFD68460E49BA
:1023E00007F0B0FE95F82110064604A807F0D2FDCC
:1023F00004A9304607F09EFE084907F0A3FE0146F7
:10240000204607F0A9FD04A807F052FD684607F032
:102410004FFD204608B070BD642C0100F83001006B
:1024200070B588B004460D466846103107F094FD3B
:1024300068460E4907F086FE95F82110064604A866
:1024400007F0A8FD04A9304607F074FE084907F01C
:1024500079FE0146204607F07FFD04A807F028FD1D
:10246000684607F025FD204608B070BD642C0100C9
:10247000F830010010B5064B044640F81C3B07F04D
:1024800017FD2046302108F0E3F9204610BD00BFBB
:10249000102E010010B5064B044640F8203B07F013
:1024A00007FD2046342108F0D3F9204610BD00BFB7
:1024B000DC2D010010B5064B044640F8103B07F038
:1024C000F7FC2046242108F0C3F9204610BD00BFC8
:1024D000742D010010B5064B044640F8103B07F080
:1024E000E7FC2046242108F0B3F9204610BD00BFC8
:1024F000A82D010010B5064B044640F8103B07F02C
:10250000D7FC20462C2108F0A3F9204610BD00BFBF
:10251000402D010010B5094A0949137804460120ED
:1025200084F8200084F82130034404F11000137073
:1025300007F094FD0023637110BD00BFB816FF1FA4
:10254000F01AFF1F10B50B4A0B49137804460320FD
:1025500084F8200084F8213004F110000133137056
:1025600007F07CFD94F822000121BDE8104008F03E
:10257000F3BC00BF9C17FF1F101BFF1F08B5154BB6
:10258000187808F0DBFC144B003018BF01201870DD
:102590001B78124873B1FEF75FF91148FEF75CF93A
:1025A0001048FEF759F91048FEF756F90F4B202254
:1025B0001A6008BDFEF7EEF80948FEF7EBF8094887
:1025C000FEF7E8F80848FEF7E5F8094B20221A6004
:1025D00008BD00BF4420FF1F4520FF1FE41EFF1F52
:1025E000241FFF1F641FFF1FA41FFF1F84F00F4045
:1025F00088F00F4010B5044608F0B4FCA36A626A84
:10260000C01A904208D9237A83F00103637208F05C
:10261000A9FC637AA062E37110BD00BF037CC172A4
:102620000022012BC27123D01CD3022B13D1837A39
:102630008B4216D0037E7BB9C269418A8A421DDB78
:102640000122C3610276828A9A4208DC00220123B9
:102650000276C37104E07047012BC369F3D00133E4
:10266000C3617047837A002BFBD10029E2D1704708
:10267000837A002BF5D00029F3D1DBE70121531831
:10268000C171EDE710B5144A1449137804460520CA
:1026900084F8300084F8313004F1200001331370E5
:1026A00007F0DCFC00232268237411690C48A38224
:1026B00001228142E3822272628209D1E372A37213
:1026C000E371A371637223722271E361237610BDFB
:1026D0002046BDE810400847BA16FF1F301BFF1FF9
:1026E000011E000010B5124A124913780446062054
:1026F00084F82C0084F82D3004F11C000133137091
:1027000007F0ACFC23680C4A1B6993420CD10023F0
:102710000122E372A372E371A371637223722271C7
:1027200008F020FCA06110BD2046BDE8104018470D
:10273000BB16FF1F401BFF1F351F000070B5134A5B
:102740001349137880F8213004460225013380F8BC
:1027500020501030137007F081FC294694F82200B5
:1027600008F0FAFB23680B4A1B69934209D1002346
:102770000122E372A372E371A37163722372227167
:1027800070BD2046BDE87040184700BFB916FF1F56
:10279000001BFF1F71040000014B024A1A607047C2
:1027A0000CED00E00400FA052DE9F0418846012116
:1027B0001446074608F0D0FB08F0D4FBB8F1000F30
:1027C0001ED00546640800260121384608F0B0FBFB
:1027D00008F0C8FB401B8442FAD808F0C3FB002174
:1027E0000546384608F0A4FB08F0BCFB401B8442B9
:1027F000FAD808F0B7FB0136F6B2B0450546E3D18A
:10280000BDE8F0810A4601461820FFF7CDBF00BFA2
:10281000034B1B7803B970470146024807F000BB21
:102820001008FF1FF009FF1F08B5064B1B7803B9FE
:1028300008BD0146044807F0F3FA0348BDE8084024
:1028400007F014BB1008FF1FF009FF1F10B501218E
:1028500084B0204C0D2008F07FFB20232360012151
:10286000182008F079FB1C4B4FF080621A600121A0
:10287000162008F071FB0221172008F06DFB0123E0
:1028800023609FED160A102008F0ACFA0C2008F027
:1028900099FA134B134A14494FF480701860136867
:1028A0004024234313600A200C6008F07FFB684635
:1028B0000E4907F03DFB0E4B1B7833B169460D48BE
:1028C00007F0AEFA0B4807F0D1FA684607F0F0FAC5
:1028D00004B010BD88F00F4008F10F4000E87D47BC
:1028E00018D0044014F10F4004F10F40942E010061
:1028F0001008FF1FF009FF1F10B50E23154C1846D6
:1029000084B00221237008F027FB207808F016FB22
:10291000114B003018BF012018701B78ABB10F4B62
:1029200020221A6068460E4907F002FB0D4B1B7807
:1029300033B169460C4807F073FA0B4807F096FA72
:10294000684607F0B5FA04B010BD084B20221A60A3
:10295000E8E700BF4420FF1F4520FF1F84F00F4021
:10296000A42E01001008FF1FF009FF1F88F00F4080
:1029700008B5044B187808F0E1FA003018BF0120C0
:1029800008BD00BF4420FF1F70B5064C064604F189
:10299000840554F82C3F3146DB6820469847AC420A
:1029A000F7D170BD741DFF1F2DE9F843124EDFF8FB
:1029B0004C8006F1840700254FF00109344656F893
:1029C0002C3F1B69434514D184F8375084F83650A6
:1029D00084F8335084F8325084F8355084F83450F9
:1029E00084F8309008F0BEFA6065BE42E6D1BDE8DA
:1029F000F88330469847F8E7741DFF1F151F000045
:102A000070B5064658B1074B93E83000AC4206D08B
:102A100054F8040B03681B699847A542F8D1024B90
:102A20001E7070BDD41AFF1F501BFF1F38B5064B18
:102A300093E83000AC4206D054F8040B03681B69DD
:102A40009847A542F8D138BDD41AFF1F0138052890
:102A500004D8DFE800F0050C141C22290020704780
:102A6000154801F003032C2202FB03007047134BAF
:102A700001F0030101EBC10103EB81007047104B32
:102A800001F0030101EBC10103EB810070470D4B25
:102A900001F0030103EB811070470B4801F00301C3
:102AA000342303FB01007047084B01F0030101EBE5
:102AB000410103EB01107047741DFF1F841BFF1FB2
:102AC000E41CFF1FE41EFF1F141CFF1F241EFF1F1A
:102AD00030B4074C256861688D4206D02B46002033
:102AE00053F8042B9942D060FAD1656030BC70472E
:102AF000D41AFF1F234B1B78002B41D02DE9F04740
:102B0000DFF8888098E86000B5422DD01E4FDFF8CE
:102B100080A04FF000090FE062795AB1E16801B17D
:102B200089791B6A204698472379FBB92368204698
:102B30005B6A9847AE4209D055F8044B2368DA69BE
:102B4000BA42E9D020469047AE42F5D198E8240039
:102B5000AA4209D052F8043BDC79D87A597A9C71A0
:102B6000954298721972F5D1BDE8F087236884F810
:102B700004909A6A5245E5D15B6A20469847D9E7A6
:102B8000704700BF501BFF1F8D060000D41AFF1FA7
:102B9000850400002DE9F043A74BA84A1978A84BFB
:102BA000A84D95B0002914BF11461946684607F094
:102BB000BFF9A5490CA807F0BBF969460CA807F0B6
:102BC000B9FA014610A807F0C7F92B78002B40F09E
:102BD000C5819E4E10A807F06BF90CA807F068F9A4
:102BE000726833689A4200F0A38199490CA807F0F3
:102BF0009FF996E80A00591A0A22891008A807F0D6
:102C0000F1F908A90CA807F095FA924907F09AFA89
:102C1000014610A807F0A0F92B78002B40F0C881DE
:102C200010A807F045F908A807F042F90CA807F02A
:102C30003FF996E809001B1A9B10012B6CD000226B
:102C4000144617460DF110083BE010A807F030F9C4
:102C500008A807F02DF90CA807F02AF9336853F8F3
:102C600009100B6840465B69984741460CA807F07D
:102C700073F9336853F809100B6808A89B699847E3
:102C800008A90CA807F056FA014610A807F064F945
:102C90002B78002B38D110A807F00AF908A807F004
:102CA00007F90CA807F004F9404607F001F996E887
:102CB00009001B1A01349B10E4B2013B9C422246DE
:102CC0002DD250F822306449DB680CA84FEA820903
:102CD0000BB10137FFB207F02BF9214608A807F026
:102CE00059F908A90CA807F025FA5C4907F02AFA57
:102CF000014610A807F030F92B78002BA5D010A9B9
:102D0000574807F08DF8A0E710A9554807F088F854
:102D1000534807F0ABF8BEE700270DF110084E4905
:102D20000CA807F005F996E80A00591A0A2289103A
:102D300008A807F057F908A90CA807F0FBF94749BC
:102D400007F000FA014610A807F006F92B78002BCF
:102D500040F0298110A807F0ABF808A807F0A8F800
:102D60000CA807F0A5F8736853F8041C0B684046DC
:102D70005B69984741460CA807F0EEF8736853F872
:102D8000041C0B6808A89B69984708A90CA807F0C1
:102D9000D1F9014610A807F0DFF82B78002B40F09E
:102DA000FD8010A807F084F808A807F081F80CA8A7
:102DB00007F07EF8404607F07BF82A4910A807F094
:102DC000B7F82B78002B40F0E18010A807F070F8DE
:102DD000254910A807F0ACF82B78002B40F0CE80E6
:102DE00010A807F065F821490CA807F0A1F83946AA
:102DF00008A807F0CFF808A90CA807F09BF91C4910
:102E000007F0A0F9014610A807F0A6F82B78002BD0
:102E100040F0AC8010A807F04BF808A807F048F87D
:102E20000CA807F045F896E80802994500F0908054
:102E30009846012448E000BF501BFF1F6836010080
:102E4000B42E01001008FF1FB82E0100D41AFF1F76
:102E5000E82E0100F82E0100082F010014350100B2
:102E6000F009FF1F102F0100482E0100142F010050
:102E7000282F010010A807F01BF808A807F018F881
:102E80000CA807F015F83B6839465B6910A898470D
:102E90002B78002B42D110A807F00AF8484910A857
:102EA00007F046F82B78002B3DD110A807F000F86A
:102EB000336831465B6910A898472B7833BB10A85C
:102EC00006F0F6FFC14543D058F8046BF768002FB1
:102ED000F8D03C490CA807F02BF8631C214608A841
:102EE000DCB207F057F808A90CA807F023F9364917
:102EF00007F028F9014610A807F02EF82B78002BD0
:102F0000B8D010A9314806F08BFFB3E710A92F48BD
:102F100006F086FF2D4806F0A9FFD0E710A92B4840
:102F200006F07EFFB7E710A9284806F079FFBCE756
:102F3000274910A806F0FCFF2B7833B110A92348CD
:102F400006F06EFF214806F091FF10A806F0B0FFD2
:102F5000684606F0ADFF15B0BDE8F08310A91B4828
:102F600006F05EFF194806F081FF32E610A9174807
:102F700006F056FF154806F079FF4BE710A91348F5
:102F800006F04EFF114806F071FF29E710A90F481F
:102F900006F046FF0D4806F069FF16E710A90B483A
:102FA00006F03EFFFDE610A9084806F039FFD1E61D
:102FB00010A9064806F034FF044806F057FF2FE634
:102FC0003C2F0100082F010014350100F009FF1FFC
:102FD000D02E0100F0B59FED270A274E274D284F30
:102FE00085B0052007F0FEFE9FED260A232007F09E
:102FF000F9FE00242322052138194034FDF7AAFBED
:10300000B4F5807F04D016F8011F15F8012FF3E7FF
:103010001D4B187807F092FFF0B11948FDF71CFC22
:103020001A48FDF719FC1A48FDF716FC1948FDF778
:1030300013FC6846184906F07BFF184B1B7833B128
:103040006946174806F0ECFE154806F00FFF684683
:1030500006F02EFF05B0F0BD0948FDF79BFB0B48BD
:10306000FDF798FB0A48FDF795FB0A48FDF792FB30
:10307000DFE700BF00B88847083001003C2E0100A0
:10308000E41EFF1F005043484420FF1F241FFF1F62
:10309000641FFF1FA41FFF1F442F01001008FF1F04
:1030A000F009FF1F2DE9F04F684895B00446FDF781
:1030B0003DFC04F14000FDF739FC04F18000FDF710
:1030C00035FC04F1C000FDF731FC04F5807625469F
:1030D000284600214035FDF795FBAE42F8D1DFF8D8
:1030E00098915B4FD9F80030019310A85949019B82
:1030F00006F01EFF3B7833B110A9574806F090FE4A
:10310000554806F0B3FE10A806F0D2FE534EDFF885
:103110006881002552495FFA85FA0CA806F008FF7D
:10312000514608A806F036FF08A90CA807F002F8D7
:103130004C4907F007F8314606F0FCFF4A4907F012
:1031400001F8014610A806F007FF3B78002B77D165
:1031500010A806F0ADFE08A806F0AAFE0CA806F01E
:10316000A7FE514610A806F015FF3B78002B5FD153
:1031700010A806F09DFE01212046FDF723FB4FF02D
:10318000000B41F2040A59462046FDF72FFBD9F8FF
:1031900000300293029AD9F800300393039B9B1AE4
:1031A000312BF8D90BF1640B1FFA8BFBD345EAD115
:1031B00040F6FF7A1FFA8AFA51462046FDF716FBC1
:1031C000D9F800300493049AD9F800300593059B90
:1031D0009B1A312BF8D9AAF1640A0FFA8AFA1AF16C
:1031E000050FE7D100212046FDF7ECFAD8F80030B2
:1031F0000693069AD9F800300793079B9B1AB3F5FC
:10320000FA7FF7D30135042D06F1100604F14004CE
:1032100080D10E48FDF72AFB1448FDF727FB144820
:10322000FDF724FB1348FDF721FB15B0BDE8F08F37
:1032300010A9094806F0F4FD074806F017FE97E7C5
:1032400010A9054806F0ECFD82E700BFE41EFF1F51
:103250001008FF1F542F0100F009FF1FE41FFF1F7C
:10326000682F0100782F01006C2C0100241FFF1F24
:10327000641FFF1FA41FFF1F4498012030B59FED5E
:103280001A0A1A4C85B01D2007F0ACFD0C2007F07F
:1032900099FDA38840F6FF75AB42A8BF2B461D22BF
:1032A000194610462380A27007F0ECFB6389AB42FD
:1032B000A8BF2B461E2219461046E380227207F053
:1032C000E1FB68460A4906F033FE0A4B1B7833B12E
:1032D0006946094806F0A4FD074806F0C7FD6846A0
:1032E00006F0E6FD05B030BD00E87D474820FF1F31
:1032F0007C2F01001008FF1FF009FF1F00B540F2EE
:10330000FF7185B0422007F0BDFB40F2FF71432002
:1033100007F0B8FB6846094906F00AFE084B1B781F
:1033200033B16946074806F07BFD064806F09EFD6E
:10333000684606F0BDFD05B05DF804FBB82F01003E
:103340001008FF1FF009FF1F2DE9F04F474F83B012
:10335000054607F007FE3B6800930446DDF8008051
:1033600004F0AAFA814600287CD10021422007F00F
:1033700089FB0021432007F085FB07F0F3FD001BCC
:10338000B0F5967FF9D307F0EDFD4FF47A7606FBA2
:1033900005FB044641F218053B680193019BC8EB0D
:1033A00003035B454CD24FF0000A5146432007F01F
:1033B00069FB07F0D7FD001B6328FAD907F0D2FD9F
:1033C0000AF1280AAA450446EFD14FF0000A5146F7
:1033D000422007F057FB07F0C5FD001B6328FAD910
:1033E00007F0C0FD0AF1280AAA450446EFD14FF4C0
:1033F0007F66A6F1280A1FFA8AF63146432007F0B5
:1034000041FB07F0AFFD001B6328FAD907F0AAFDC6
:103410000446002EEDD14FF47F66A6F1280A1FFA6C
:103420008AF63146422007F02DFB07F09BFD001B7A
:103430006328FAD907F096FD0446002EEDD1ABE7DC
:1034400040F2FF71422007F01DFB40F2FF71432064
:1034500007F018FBB9F1000F01D004F0ABF903B08D
:10346000BDE8F08F04F006FA7FE700BF4498012022
:103470002DE9F04F2DED048B85B0054604F01CFAC4
:10348000824600287BD1DFF820B19FED459A07F0F6
:1034900069FDDBF800300293029B00934FF47A73CE
:1034A00003FB05F304460193DBF800300393009A15
:1034B000039B9B1A019A93424FD2DFF8E8900026B3
:1034C00000274FF0000800250022364B40464946B1
:1034D0000BF0A8FA30A3D3E900230BF055FC0BF056
:1034E0002BFF81B2422007F0CDFA00222D4B30464F
:1034F00039460BF097FA28A3D3E900230BF044FCDC
:103500000BF01AFF81B2432007F0BCFA07F02AFD46
:10351000001B6328FAD907F025FD0135B5F5B47F06
:103520000446C1D007EE905AF8EEE77A67EE897A42
:1035300017EE900A0BF0D4FB41EC100B41EC180B8A
:1035400009F06EFC59EC108BB0EE480AF0EE680AF8
:1035500009F0C6FC57EC106BB6E740F2FF71422051
:1035600007F090FA40F2FF71432007F08BFABAF1AE
:10357000000F07D105B0BDEC048BBDE8F08F04F05F
:1035800079F980E704F016F905B0BDEC048BBDE8CD
:10359000F08F00BFAFF300800000000000FC9F40F0
:1035A00035FA8E3C0000F03F449801202DE9F047A9
:1035B00082B0054604F080F90746002852D1DFF8B2
:1035C000B48007F0CFFCD8F8003000934FF47A763F
:1035D000DDF8009006FB05F6044641F21805D8F820
:1035E00000300193019BC9EB0303B34240F2FF712A
:1035F0004FF042002BD207F045FA4FF0000A514637
:10360000432007F03FFA07F0ADFC001B6328FAD90E
:1036100007F0A8FC0AF1280AAA450446EFD140F2B7
:10362000FF71432007F02EFA4FF0000A5146422066
:1036300007F028FA07F096FC001B6328FAD907F078
:1036400091FC0AF1280AAA450446EFD1C7E707F022
:1036500019FA40F2FF71432007F014FA2FB902B0B3
:10366000BDE8F08704F006F9A9E704F0A3F802B07A
:10367000BDE8F0874498012010B5FE2184B01248BF
:1036800004F056FB6C4658B96846104906F050FCE9
:103690000F4B1B7863B9204606F00AFC04B010BD3E
:1036A00068460C4906F044FC094B1B78002BF2D00D
:1036B0002146094806F0B4FB074806F0D7FB204630
:1036C00006F0F6FB04B010BDC4950120CC2F01001C
:1036D0001008FF1FEC2F0100F009FF1F08B5FFF7CE
:1036E000CBFFFFF7B3F8FFF7C9FDFFF705F9FFF7C9
:1036F00071FC054B05491878042207F035F9BDE83F
:103700000840FFF7FBBD00BF4420FF1F7D250000E0
:103710002DE9F043554F91B081460E46684601228F
:10372000494604F025FC684604F0FAFA002800F047
:103730009780DFF83881AEB1002408AD06E001348F
:103740002846E4B206F0B4FBA6420CD00921284674
:1037500006F070FC3B78002BF1D02946444806F077
:103760005FFBECE708AD684604F0BEFA0146284668
:1037700006F0DEFB98F80030002B57D1284606F003
:1037800097FB684604F0B2FA002836D0394928463B
:1037900006F0CEFB98F80030002B4CD1284606F0FE
:1037A00087FB10AB9DF804C053F8331DCDF82D10E6
:1037B0005C68187BD3F80880029A9DF80CE0CDF87D
:1037C0003140711C079B8DF83900C9B228462A4C3C
:1037D000CDF835808DF824C00A928DF82CE008943D
:1037E0000F93FFF795FF284604F07CFA684604F033
:1037F00089FA684604F076FA90E72049284606F0F0
:1038000097FB98F8003033BB284606F051FB68461A
:1038100004F074FA0A220146284606F0F7FB98F8ED
:10382000003083B9284606F043FBDFE729461048FD
:1038300006F0F6FAA2E729460D4806F0F1FA0C4820
:1038400006F014FBAAE72946094806F0E9FA0848F9
:1038500006F00CFBE6E72946054806F0E1FAD3E757
:10386000684604F03FFA11B0BDE8F0831008FF1F6E
:10387000F009FF1F00300100943601000430010000
:103880002DE9F8434468D0F80080C8EB0405AD107A
:103890000646894605D06B009D4229D96FF0030585
:1038A00000E00425284606F0CFFF7468D6F80080B3
:1038B0000746C8EB0404D9F80030E74218BF3B5173
:1038C000A3080DD104343C44B8F1000F02D04046A7
:1038D00006F0BCFF3D44B56037607460BDE8F88316
:1038E00022464146384604340CF0FCF83C44EEE7EE
:1038F000B3F1804FD2D213B91D461F46D9E7ED0070
:10390000D0E700BF10B582B00190D8B1114C236848
:1039100061688B420DD01A68824218BF043303D10C
:1039200010E0126890420DD099421A4603F1040348
:10393000F7D1A368074A994206D009B108605168D7
:103940000431616002B010BD104601A9FFF798FF75
:10395000F8E700BFD41AFF1F2DE9F047D749D84830
:10396000D84CDFF82CA4D84FDFF8289406F0E0FA02
:10397000D649D74806F0DCFAD649D74806F0D8FA37
:10398000D649D74806F0D4FAD64AD749002009F0DC
:1039900069F9D649D64806F0CBFAD649D64806F09A
:1039A000C7FAD649D64806F0C3FAD649D64806F033
:1039B000BFFAD649D64806F0BBFAD649D64806F033
:1039C000B7FAD649D64806F0B3FAC64AD549002018
:1039D00009F048F9D449D54806F0AAFAD449D5489F
:1039E00006F0A6FAD449D54806F0A2FABD4AD44951
:1039F000002009F037F9D349D34806F099FAD349A2
:103A0000D34806F095FAB74AD249002009F02AF9BE
:103A100004F1B0080126002504F80B6C04F80C6CC6
:103A200044F810AC44F8045C04F8055C04F8065C47
:103A300004F8095C04F80A5C04F8075C04F8085C04
:103A40002946204606F074FA3B78C4F81490267490
:103A500063745A1C2046A8493A702C3406F0FEFACA
:103A600004F8375C4445D6D19E4ABB49BB4CDFF8CD
:103A70002883BB4F284609F0F5F804F19009012688
:103A800004F80B6C44F8045C04F8055C04F8065C6C
:103A900004F8095C04F80A5C04F8075C04F8085CA4
:103AA00004F80C6C44F8108C0021204606F040FA13
:103AB0003B7863744FF0160E032284F812E02274F0
:103AC000013391493B70204606F0C8FA243414F8BB
:103AD000120C012107F040FA4C45D1D1814AA1498D
:103AE000A14CDFF8B892A14F002009F0BBF804F117
:103AF00090080126002504F80B6C44F8045C04F8D7
:103B0000055C04F8065C04F8095C04F80A5C04F837
:103B1000075C04F8085C04F80C6C44F8109C002165
:103B2000204606F005FA3B78637417224FF0020A2C
:103B3000A274013384F810A071493B70204606F04E
:103B40008DFAA07C514607F007FA243404F8295C6A
:103B500004F82A5C04F82D5C04F82E5C04F82B5C55
:103B600004F82C5C04F8306C4445C4D15D4A8049AB
:103B7000804CDFF82C92804F002009F073F804F19C
:103B8000D0080126002504F81B6C44F8145C04F8E6
:103B9000155C04F8165C04F8195C04F81A5C04F867
:103BA000175C04F8185C04F81C6C44F8209C002195
:103BB000204606F0BDF93B78637405222274013378
:103BC000204655493B70343406F048FA04F8445C0A
:103BD00024F8426C24F8405C24F83E5C04F8495C0C
:103BE00004F84A5C04F84D5C04F84E5C04F84B5C45
:103BF00004F84C5C04F8506C44F8385C04F83C5C05
:103C0000A045C0D1374A5D495D4CDFF898915D4FC2
:103C1000002009F027F804F1C008012600254CF225
:103C200050334FF0000A44F8083C04F8176C44F88D
:103C3000105C04F8115C04F8125C04F8155C04F8DC
:103C4000165C04F8135C04F8145C04F8186C44F86F
:103C50001C9C44F80C5C5146204606F069F93B7800
:103C600063740622227401332D493B70204606F00E
:103C7000F5F904F8115C04F8125C04F8155C04F81A
:103C8000165C04F8135C04F8145C04F8186C07F074
:103C900069F9303444F8340C4445C0D1114A3A49EA
:103CA000504608F0DFFF394B0E4AC3F800A0184613
:103CB000C3F804A0C3F808A076E000BF942C01006C
:103CC000E41FFF1F841DFF1FB816FF1F982C010063
:103CD000F41FFF1FA02C01000420FF1FA82C0100CF
:103CE0001420FF1F0C08FF1FE51F0000B42C01006B
:103CF000E01AFF1FB82C0100F01AFF1FBC2C0100B6
:103D0000001BFF1FC02C0100101BFF1FC42C010053
:103D1000201BFF1FC82C0100301BFF1FCC2C0100F3
:103D2000401BFF1FC91F0000D02C0100541BFF1FA8
:103D3000D82C0100641BFF1FE02C0100741BFF1F27
:103D4000A51F0000E82C01002420FF1FEC2C01001F
:103D50003420FF1F891F0000411E0000F41CFF1FBC
:103D60009C17FF1F5D1E0000941BFF1FB916FF1F4D
:103D7000791E0000341CFF1FBA16FF1F951E00009D
:103D8000401EFF1FBB16FF1FB11E0000D41AFF1FED
:103D9000402D0100A0860100A82D0100742D010016
:103DA000DC2D0100102E01000D4908F05BFF0D48CD
:103DB000FCF792FC0C48FCF78FFC0C48FCF78CFCE1
:103DC0000B48FCF789FC0B4A0B49504608F04AFFA8
:103DD0000A4B40F2FF729A805A81BDE8F08700BF1B
:103DE000A1200000E41EFF1F241FFF1F641FFF1FF0
:103DF000A41FFF1F0C08FF1FCD1E00004820FF1F3F
:103E000010B5054C04F1100006F052F82046BDE84C
:103E1000104006F04DB800BF3421FF1F10B5074C0D
:103E200004F1200006F044F804F1100006F040F818
:103E30002046BDE8104006F03BB800BF5420FF1FED
:103E400038B5054CA4F170052046103C06F030F85A
:103E5000AC42F9D138BD00BFE420FF1F10B5094CBA
:103E600004F1300006F024F804F1200006F020F8F8
:103E700004F1100006F01CF82046BDE8104006F0E2
:103E800017B800BFF420FF1F00B585B01049684681
:103E900006F04EF86846FEF7C7FC684606F008F8DC
:103EA000FDF72CF9FFF71AFC03F002FC09496846FC
:103EB00006F03EF86846FEF7B7FC684605F0F8FFE6
:103EC00005490420FEF79EFC05B05DF804FB00BF29
:103ED0000C3001002C30010090D0030008B5FDF734
:103EE00061F9BDE80840FEF705BE00BF2DE9F041CD
:103EF000334E3449344D354C354FDFF8248130464C
:103F000006F016F806F11000324906F011F806F135
:103F10002000314906F00CF806F130002F4906F078
:103F200007F82A462E49002008F09CFE20462D491D
:103F300005F0FEFF04F110002B4905F0F9FF04F134
:103F400020002A4905F0F4FF04F13000284905F06B
:103F5000EFFF04F14000274905F0EAFF04F15000AB
:103F6000254905F0E5FF04F16000244905F0E0FF74
:103F70002A462349002008F075FE3846214905F0FD
:103F8000D7FF07F11000204905F0D2FF07F120000C
:103F90001E4905F0CDFF2A461D49002008F062FEAB
:103FA00040461C4905F0C4FF08F110001A4905F00D
:103FB000BFFF2A4619490020BDE8F04108F052BE73
:103FC000F420FF1F942C01000C08FF1F8420FF1F0A
:103FD0005420FF1F982C0100A02C0100A82C0100E8
:103FE0005D3E0000B42C0100B82C0100BC2C010087
:103FF000C02C0100C42C0100C82C0100CC2C0100F5
:10400000413E0000D02C0100D82C0100E02C010022
:104010001D3E0000E82C0100EC2C0100013E0000D8
:104020003421FF1F10B5054C04F1100005F040FFCE
:104030002046BDE8104005F03BBF00BF5422FF1FE3
:1040400010B5074C04F1200005F032FF04F1100018
:1040500005F02EFF2046BDE8104005F029BF00BF47
:104060006421FF1F38B5054CA4F170052046103CB3
:1040700005F01EFFAC42F9D138BD00BFF421FF1F8F
:1040800010B5094C04F1300005F012FF04F12000D6
:1040900005F00EFF04F1100005F00AFF2046BDE810
:1040A000104005F005BF00BF1422FF1F06F040BFFF
:1040B00030B585B001460446684605F04DFF6846B8
:1040C000FCF700FF0546684605F0F2FE8DB90D4984
:1040D000204606F079F810B1012005B030BD204629
:1040E000094906F071F8B0FA80F04009404205B085
:1040F00030BD204606F0B0F80028D4BF00200120D3
:1041000005B030BDEC2C0100E82C0100F0B585B005
:1041100001460646684605F01FFF6846FCF7D2FEDA
:104120000446684605F0C4FED4B93146684605F039
:1041300013FF6846FCF7B6FE0546684605F0B8FE74
:1041400055B10B4D2946304606F030F867B21035B0
:10415000013410B9072CF5D10027384605B0F0BD61
:10416000304606F079F847B2384605B0F0BD00BFDA
:104170009421FF1FF0B585B001460646684605F05C
:10418000EBFE6846FCF79EFE0446684605F090FE8E
:10419000DCB93146684605F0DFFE6846FCF782FE72
:1041A0000546684605F084FE55B10B4D294630465C
:1041B00005F0FCFF67B21035013418B9042CF5D1B5
:1041C0004FF0FF37384605B0F0BD304606F044F8F2
:1041D00047B2384605B0F0BD1422FF1FF0B585B0D8
:1041E00001460646684605F0B7FE6846FCF76AFEDB
:1041F0000446684605F05CFEDCB93146684605F0C9
:10420000ABFE6846FCF74EFE0546684605F050FEDC
:1042100055B10B4D2946304605F0C8FF67B2103541
:10422000013418B9032CF5D14FF0FF37384605B0EB
:10423000F0BD304606F010F847B2384605B0F0BD84
:104240006421FF1F30B50C4691B033490546204626
:1042500005F052FF3149684605F06AFE214668467E
:1042600005F068FF014608A805F076FE08A8FEF7ED
:10427000DBFA08A805F01CFE684605F019FE684642
:1042800003F022FD2268264908A8012303F0FCFD63
:104290000A9A9DF82C309DF8241002928DF80C306B
:1042A0008DF804100BAA0DF10D030DF11A0012F890
:1042B000011F03F8011B8342F9D10F9B079308A844
:1042C00003F010FD174908A805F032FE684603F018
:1042D00027FD38B91BE0684603F08EFCC1B208A880
:1042E00005F018FF684603F069FC0028F3D1684622
:1042F00003F008FD08A9284605F0C8FD08A805F048
:10430000D7FD684603F0EEFC284611B030BD0649E3
:1043100008A805F0ABFEEDE7483001005030010081
:10432000C4950120482E01006030010030B52B49B2
:1043300091B0044605F0E0FE684603F0C5FC226833
:10434000274908A8132303F09FFD0A9A9DF82C30F3
:104350009DF8241002928DF80C308DF804100BAAF1
:104360000DF10D030DF11A0012F8011F03F8011BE6
:104370008342F9D10F9B079308A803F0B3FC68466A
:1043800003F0CEFC0446C8B1164DAB6800245BB107
:104390002146144805F02EFF0178684603F002FC20
:1043A000AB6801349C42F3D3684603F0ABFC68462B
:1043B00003F098FC0124204611B030BD0A4908A83A
:1043C00005F0B6FD08A8FEF72FFA08A805F070FD65
:1043D000684603F087FC204611B030BD483001002C
:1043E000C49501205421FF1F683001002DE9F047DA
:1043F0002DED028B0E4694B0B1499046074605F06C
:10440000E3FE58B3CEB9AF49AF4805F0DDFE002852
:104410003ED1AE490CA805F08BFD0CA8FEF704FABE
:104420000CA805F045FDA84802F006FB0124204633
:1044300014B0BDEC028BBDE8F087A5490CA805F0CF
:1044400077FD0CA8FEF7F0F90CA805F031FD00246B
:10445000204614B0BDEC028BBDE8F0879D4938467C
:1044600005F0B2FE002846D0012E0CAD21D09849AF
:10447000284605F05DFD2846FEF7D6F9284605F0EA
:1044800017FD0024204614B0BDEC028BBDE8F08778
:1044900091490CA805F04CFD0CA8FEF7C5F90CA835
:1044A00005F006FD0124204614B0BDEC028BBDE8EA
:1044B000F0874146284605F04FFD2846FCF702FDEF
:1044C0000446284605F0F4FC002CD0D0404605F008
:1044D000C3FE824C86B204F58075204631464034D6
:1044E000FCF784F9A542F8D10124204614B0BDECB4
:1044F000028BBDE8F0877A49384605F065FE044630
:1045000070B1022E1FD00CAD7149284605F010FD88
:104510002846FEF789F9284605F0CAFC002486E7FC
:104520007049384605F050FE8146A0B3012E46D0B2
:1045300067490CA805F0FCFC0CA8FEF775F90CA85F
:1045400005F0B6FC73E70CAD08F1100631462846BD
:1045500005F002FD2846FCF7B5FC0446284605F0A8
:10456000A7FC002CD0D04146284605F0F5FC284693
:10457000FFF700FE0446304605F06EFE002C05DB1A
:10458000564B81B203EB8410FCF730F9284605F056
:104590008FFC01244BE75449384605F015FE0546CB
:1045A00038B3022E3AD04A490CA805F0C1FC0CA839
:1045B000FEF73AF90CA84C4605F07AFC37E70CAD4B
:1045C0004146284605F0C8FC2846FFF771FD434CDC
:1045D000071C18BF012704F5807620463946403471
:1045E000FCF7F0F8A642F8D1284605F061FC01245A
:1045F0001DE73E49384605F0E7FD814600284BD0CF
:10460000012E2FD032490CA805F092FC0CA8FEF721
:104610000BF90CA82C4605F04BFC08E704AF41460B
:10462000384605F099FC3846FFF7A4FD0CAD04466A
:1046300008F11001284605F08FFC2846FFF738FDE9
:10464000002C07DB254B011C18BF012103EB841054
:10465000FCF7B8F8284605F02BFC384605F028FC96
:104660000124E4E60CAD4146284605F075FC2846D9
:10467000FFF71EFD194C071C18BF012704F58076B3
:10468000204639464034FCF7BDF8A642F8D128460A
:1046900005F00EFC0124CAE61549384605F094FDE4
:1046A000044638B3022E4BD009490CA805F040FC53
:1046B0000CA8FEF7B9F80CA84C4605F0F9FBB6E6D5
:1046C000C4300100482E01000422FF1FCC3001003D
:1046D000FC30010010310100D8300100E41EFF1F42
:1046E0001C3101002431010030310100383101005A
:1046F00044310100BB49384605F066FD002838D03A
:10470000002E40D1FEF734F90CADB74904462846D7
:1047100005F00EFC2846FEF77BF8284605F0C8FB9E
:10472000B24BB3492846002C18BF194605F000FCCF
:104730002846FEF779F8284605F0BAFB012476E60C
:104740000CAD4146284605F007FC2846FFF712FD50
:10475000002809DBD8F81010A64B003118BF012142
:1047600003EB8010FCF74EF8284605F0A1FB01246E
:104770005DE6A149384605F027FDD8B176B9FEF7C8
:1047800091FC012453E69D490CA805F0D1FB0CA82F
:10479000FEF74AF80CA805F08BFB48E697490CA8F1
:1047A00005F0C6FB0CA8FEF73FF80CA805F080FB4F
:1047B00000243CE69249384605F006FD70B1022E11
:1047C00021D00CAD8D49284605F0B2FB2846FEF7F6
:1047D0002BF8284605F06CFB002428E6894938466A
:1047E00005F0F2FC814688B3012E0CAD17D0834949
:1047F000284605F09DFB2846FEF716F8284605F0EA
:1048000057FB002413E604A8414605F0A5FB04A8C5
:10481000FCF758FB78BB04A805F04AFBD1E74146FA
:10482000284605F099FB2846FCF74CFB0446284631
:1048300005F03EFB002CDAD0404605F00DFD724A33
:104840002C2303FB002034464671F0E56F493846BF
:1048500005F0BAFC00284DD0012E0CAD32D06749CE
:10486000284605F065FB2846FDF7DEFF284605F0E3
:104870001FFB0024DBE50CAD08F110073946284684
:1048800005F06AFB2846FCF71DFB0446284605F0A8
:104890000FFB04A805F00CFB002C93D0404605F05C
:1048A000DBFC2C2404FB00F4574D384605F0D4FC07
:1048B0006319625990FBF6F05862184613699847DD
:1048C0000124B4E54146284605F046FB2846FCF79E
:1048D000F9FA0446284605F0EBFA002CBFD0404612
:1048E00005F0BAFC484A2C2303FB0020344680F82C
:1048F00005909CE54649384605F066FC044670B1D3
:10490000022E0CAD1ED03D49284605F011FB28466D
:10491000FDF78AFF284605F0CBFA002487E53D49DC
:10492000384605F051FC002846D0012E33D03349DB
:104930000CA805F0FDFA0CA8FDF776FF0CA805F011
:10494000B7FA74E54146284605F006FB2846FCF711
:10495000B9FA0446284605F0ABFA002CD3D04046FD
:1049600005F07AFC2C24284B04FB00F408F110011C
:10497000E25828461C44D66805F0EEFA2846FFF7B0
:1049800097FB011C18BF01212046B047284605F0BF
:104990008FFA01244BE541460CA805F0DDFA0CA87E
:1049A000FFF786FB003018BF0120FDF7EDFF0CA8D4
:1049B000344605F07DFA3AE51749384605F004FC1F
:1049C000044658B3012E0CAD33D00C49284605F0EF
:1049D000AFFA2846FDF728FF284605F069FA0024BB
:1049E00025E500BF4C3101005C3101008030010041
:1049F000A0300100E41EFF1F74310100FC300100F3
:104A00008031010090310100741DFF1F9C310100B5
:104A1000A8310100B8310100CC310100A949384664
:104A200005F0D2FB054648B3EEB9FDF7BDFF012402
:104A3000FDE44146284605F08FFA2846FCF742FA85
:104A40000446284605F034FA002CBED0404605F056
:104A500003FC2C2303FB00F09B4BC2581844136942
:104A600034469847E3E499490CA805F061FA0CA88C
:104A7000FDF7DAFE0CA805F01BFAD8E49449384695
:104A800005F0A2FB044668B1052E1ED08F490CA884
:104A900005F04EFA0CA8FDF7C7FE0CA82C4605F051
:104AA00007FAC4E48B49384605F08EFB00285AD03B
:104AB000032E3FD085490CA805F03AFA0CA8FDF763
:104AC000B3FE0CA805F0F4F9B1E4404605F0C4FBD0
:104AD000342508F1100105FB00F50CA805F03CFA9F
:104AE0007D4E0CA8FFF77AFBAC19AB5920741B69FB
:104AF000204698470CA805F0DBF908F1200005F0E6
:104B0000ABFBAB5960821B692046984708F1300027
:104B100005F0A2FBAB59A0821B692046984708F11B
:104B2000400005F099FBAB59E0821B69204698478D
:104B300001247CE4404605F08FFB302404FB00F4A4
:104B400008F1100005F088FB644D064608F12000CE
:104B500005F082FB6319625958611E61184613699A
:104B60009847012463E45E49384605F02DFB68B19F
:104B7000012E16D055490CA805F0DAF90CA8FDF75E
:104B800053FE0CA805F094F9002450E4554938462A
:104B900005F01AFB10B3AEB90120FDF731FF012477
:104BA00045E441460CA805F0D7F90CA8FFF780FAB8
:104BB000003018BF0120FDF723FF0CA805F078F99D
:104BC000012434E441490CA805F0B2F90CA8FDF722
:104BD0002BFE0CA805F06CF9002428E44249384665
:104BE00005F0F2FA044628B17EB93046FDF708FF19
:104BF00001241CE43D49384605F0E6FA8146E0B15F
:104C00007EB9FDF713FF012411E430490CA805F02B
:104C10008FF90CA8FDF708FE0CA805F049F900244F
:104C200005E42A490CA805F083F90CA8FDF7FCFD62
:104C30000CA805F03DF9FFF7FABB2D49384605F001
:104C4000C3FA054670B1022E0CA821D01F4905F009
:104C50006FF90CA8FDF7E8FD0CA84C4605F028F903
:104C6000FFF7E5BB2349384605F0AEFA04460028B5
:104C700074D0042E0CA83FD0144905F059F90CA8A3
:104C8000FDF7D2FD0CA82C4605F012F9FFF7CFBBBB
:104C9000414605F061F90CA8FFF738FA044608F11F
:104CA000100005F0D9FAC1B2E0B2FDF7CFFE04461C
:104CB0000CA805F0FDF82046FEF724FE0124FFF7BE
:104CC000B6BB00BFD4310100741DFF1FFC300100D2
:104CD000E0310100E8310100141CFF1F241EFF1FFA
:104CE000F0310100003201000C32010018320100E5
:104CF0002032010030320100414605F02DF90CA8A8
:104D0000FFF704FA044608F1100005F0A5FAC1B255
:104D1000E0B2FDF79BFE06460CA805F0C9F808F1C5
:104D200020010CA805F018F90CA8FFF7EFF90446CC
:104D300008F1300005F090FAC1B2E0B2FDF786FE4E
:104D400005460CA805F0B4F83046FEF7DBFD284612
:104D5000FEF7D8FD0124EE60FFF769BBBF49384676
:104D600005F032FA0546002843D016F001034CD175
:104D70007608771EDEB27501BE420CA808EB05016D
:104D800003F10104BFF6B0AB05F0E6F80CA8FFF79D
:104D9000BDF9814605F11000404405F05DFAC1B24D
:104DA0005FFA89F0FDF752FE81460CA805F080F805
:104DB000711C08EB41110CA805F0CEF80CA8FFF708
:104DC000A5F9064605F13000404405F045FAC1B2A8
:104DD000F0B2FDF73BFE05460CA805F069F8484621
:104DE000FEF790FD2846FEF78DFDC5F80C90234692
:104DF000C0E79B49384605F0E7F98146F0B186B92E
:104E0000FDF766FE0124FFF712BB96490CA805F0DA
:104E10008FF80CA8FDF708FD0CA805F049F8FFF77E
:104E200006BB90490CA805F083F80CA8FDF7FCFC24
:104E30000CA82C4605F03CF8FFF7F9BA8A49384629
:104E400005F0C2F9044628B1C6B9FDF7A3FE012456
:104E5000FFF7EDBA8549384605F0B6F9002842D08B
:104E6000032E0CA817D07F4905F062F80CA8FDF7B7
:104E7000DBFC0CA805F01CF8FFF7D9BA79490CA89F
:104E800005F056F80CA8FDF7CFFC0CA84C4605F031
:104E90000FF8FFF7CCBA414605F05EF80CA8FFF713
:104EA00035F9044608F1100005F0D6F9C1B2E0B2B8
:104EB000FDF7CCFD04460CA804F0FAFF236808F1C6
:104EC00020010CA8DD6805F047F80CA8FFF7F0F802
:104ED000011C18BF01212046A8470CA804F0E8FFD8
:104EE0000124FFF7A4BA6249384605F06DF978B19C
:104EF000012E0CAD21D05B49284605F019F8284653
:104F0000FDF792FC284604F0D3FF0024FFF78FBA88
:104F10005849384605F058F9002858D0022E31D0AB
:104F200050490CA805F004F80CA8FDF77DFC0CA86E
:104F300004F0BEFF0024FFF77ABA4146284605F088
:104F40000BF82846FBF7BEFF0446284604F0B0FFE6
:104F5000002CD0D0404605F07FF940F6FF7384B2B4
:104F60009C42A8BF1C46444DA6B22146A8782E807C
:104F700005F088FD2146287AEE8005F083FD0124A6
:104F8000FFF755BA30464146FBF7ACFF0028C7D0C3
:104F9000404605F061F9044608F1100005F05CF99F
:104FA000E3B2012B3FF6A0AA334C062202FB03F228
:104FB00040F6FF7183B215198B42A8BF0B46A87843
:104FC00013531946012405F05DFDFFF730BA2B4954
:104FD000384605F0F9F8044628B17EB902F0EAFB3C
:104FE0000124FFF724BA2649384605F0EDF8F0B160
:104FF0008EB902F03FFC0124FFF719BA19490CA839
:1050000004F096FF0CA8FDF70FFC0CA804F050FF6D
:105010000024FFF70CBA13490CA804F089FF0CA870
:10502000FDF702FC0CA804F043FFFFF700BA154996
:10503000384605F0C9F8054630B3012E0CAD00F036
:105040008D810849284604F073FF2846FDF7ECFBE4
:10505000284604F02DFF0024FFF7E9B93C32010097
:1050600044320100FC300100503201005C3201008A
:1050700068320100743201004820FF1F7C320100B9
:10508000843201008C320100DB49384605F09CF87F
:105090000446002800F08C81002E40F07C810CAD8D
:1050A000D649284604F044FF2846FDF7B1FB2846C0
:1050B00004F0FEFEFCF7A4F9002800F06A81D04954
:1050C000284604F035FF2846FDF7AEFB284604F0DD
:1050D000EFFECC49284604F02BFF2846FDF798FB4D
:1050E000284604F0E5FE01F023FF0A220146284687
:1050F00004F064FF2846FDF797FB284604F0D8FE2D
:10510000C149284604F014FF2846FDF781FB2846D4
:1051100004F0CEFE02F0D0FB002800F03881B84940
:10512000284604F005FF2846FDF772FB284604F0E8
:10513000BFFEB649284604F0FBFE2846FDF768FB93
:10514000284604F0B5FE02F029FB0A220146284653
:1051500004F05CFF2846FDF75BFB284604F0A8FE40
:10516000AB49284604F0E4FE2846FDF751FB2846EB
:1051700004F09EFEA749284604F0DAFE2846FDF713
:1051800047FB284604F094FE02F09CFB0A220146ED
:10519000284604F013FF2846FDF73AFB284604F0A2
:1051A00087FE9D49284604F0C3FE2846FDF73CFBD8
:1051B000284604F07DFE9949284604F0B9FE2846A9
:1051C000FDF726FB284604F073FE02F0EDFA0028F6
:1051D00000F0DB808A49924EDFF87892DFF878821F
:1051E000284604F0A5FE2846FDF71EFB284604F0DD
:1051F0005FFE8C49284604F09BFE2846FDF714FB11
:10520000284604F055FE002404AF8749284604F0E0
:105210008FFE2846FDF7FCFA284604F049FE335974
:1052200006EB040A5B695146284698472846FDF775
:10523000EFFA284604F03CFE51463846FBF710FBD7
:105240007A49284604F074FE2846FDF7E1FA28461C
:1052500004F02EFE0A22BDF81010284604F0AEFE1F
:105260002846FDF7D5FA284604F022FE7049284664
:1052700004F05EFE2846FDF7CBFA284604F018FE3F
:105280009DF81210284600290CBF4946414604F0FB
:105290004FFE2846FDF7BCFA284604F009FE644993
:1052A000284604F045FE2846FDF7B2FA284604F0E9
:1052B000FFFD9DF81310284600290CBF49464146C2
:1052C00004F036FE2846FDF7A3FA284604F0F0FD68
:1052D0005749284604F02CFE2846FDF799FA28463F
:1052E00004F0E6FD9DF81410284600290CBF49463D
:1052F000414604F01DFE2846FDF78AFA284604F0D0
:10530000D7FD4C49284604F013FE2846FDF78CFAD9
:105310004034284604F0CCFDB4F5807F7FF475AFAF
:10532000FDF726FB44490446284604F001FE2846C2
:10533000FDF76EFA284604F0BBFD404B4049284675
:10534000002C18BF194604F0F3FD2846FDF76CFA4F
:10535000284604F0ADFD0124FFF769B84146284610
:1053600004F0FAFD2846FBF7ADFD0446284604F09C
:105370009FFD002C3FF465AE404604F06DFF80B207
:1053800002F0A6FA3446FFF752B82E4923E72D491A
:10539000C6E62C4994E62C490CA804F0C9FD0CA8DB
:1053A000FDF742FA0CA82C4604F082FDFFF73FB847
:1053B0002649384604F008FF40B1002E4ED1FBF7D5
:1053C000F7FF012401F0E2FDFFF731B8204938462C
:1053D00004F0FAFE002864D0012E0CAD4AD01A4920
:1053E000284604F0A5FD2846FDF71EFA284604F0DD
:1053F0005FFD0024FFF71BB89032010098320100D6
:1054000068360100A8320100B8320100CC32010038
:10541000D8320100DC320100E8320100F032010034
:10542000E41EFF1F0C330100082F0100443301006C
:1054300048330100F83001004C3301008030010096
:10544000A0300100B42E0100FC30010068330100DF
:1054500070330100E82C0100EC2C0100BB490CA8C2
:1054600004F066FD0CA8FDF7DFF90CA804F020FDA0
:10547000FEF7DDBF4146284604F06EFD2846FBF7E7
:1054800021FD0446284604F013FD002CA7D0404619
:1054900004F0E8FE3446FBF77FFF01F077FDFEF7EE
:1054A000C6BFAB49384604F08FFE70B1022E22D041
:1054B000A6490CA804F03CFD0CA8FDF7B5F90CA812
:1054C00004F0F6FC0024FEF7B2BFA249384604F00F
:1054D0007BFE002840D0012E0CAD26D09B492846EB
:1054E00004F026FD2846FDF79FF9284604F0E0FC6D
:1054F0000024FEF79CBF30464146FBF7F3FC002832
:10550000D6D0404604F0AEFE08F110008DED040A3E
:1055100004F0A8FE0CA904A881ED000A0124FBF701
:1055200033FF01F033FDFEF782BF4146284604F009
:1055300013FD2846FBF7C6FC0446284604F0B8FCD9
:10554000002CCBD0404604F08DFEFBF72BFF01244E
:1055500001F01CFDFEF76BBF7F49384604F034FEB6
:1055600078B1012E0CAD19D07849284604F0E0FC42
:105570002846FDF759F9284604F09AFC0024FEF766
:1055800056BF7649384604F01FFE70B306BBFBF7E2
:1055900029FF0124FBF70CFFFEF749BF41462846CF
:1055A00004F0DAFC2846FBF78DFC0446284604F09C
:1055B0007FFC002CD8D0404604F04EFE003018BFCF
:1055C0000120FBF709FF012401F0E0FCFEF72FBFEB
:1055D0005E490CA804F0ACFC0CA8FDF725F90CA85A
:1055E00004F066FC0024FEF722BF5D49384604F053
:1055F000EBFD044670B1012E20D054490CA804F0F4
:1056000097FC0CA8FDF710F90CA804F051FC00243D
:10561000FEF70DBF5349384604F0D6FD002839D0B7
:10562000012E1DD049490CA804F082FC0CA8FDF7FE
:10563000FBF80CA804F03CFCFEF7F9BE41460CA8B0
:1056400004F08AFC0CA8FEF733FD003018BF0120DF
:10565000FBF7D0FE0CA8344604F02AFCFEF7E7BEA8
:105660000CAD4146284604F077FC2846FEF720FDA5
:105670003D4E071C18BF0127301939464034FBF74F
:10568000CFF8B4F5807FF7D1284604F011FC01244F
:10569000FEF7CDBE3549384604F096FD0446002895
:1056A00040D0022E0CAD0CD02849284604F040FC16
:1056B0002846FDF7B9F8284604F0FAFB0024FEF767
:1056C000B6BE4146284604F047FC2846FBF7FAFBE5
:1056D0000446284604F0ECFB002CE5D004AF41461C
:1056E000384604F039FC3846FEF744FD08F1100155
:1056F0000446284604F030FC2846FEF7D9FC011C7D
:1057000018BF0121002C04DB174800EB8410FBF7C5
:1057100087F8284604F0CCFB384604F0C9FB012486
:10572000FEF785BE1249384604F04EFD814608B3A7
:10573000012E5DD005490CA804F0FAFB0CA8FDF77A
:1057400073F80CA804F0B4FBFEF771BEFC30010046
:105750007833010080330100883301009033010069
:1057600098330100A0330100E41EFF1FAC33010099
:10577000B4330100D649384604F026FD054600281A
:105780007ED041463046FBF7ADFB044600286BD087
:10579000032E4CD0052E3DD1FBF738FE404604F0D9
:1057A00061FD08F11000B0EE408A04F05BFD08F1E5
:1057B00020008DED0C8A8DED0D0A04F053FD08F1EB
:1057C0003000B0EE408A04F04DFD08F14000F0EEEC
:1057D000408A04F041FDF0EE680A81B2B0EE480A5A
:1057E0000CA8FBF721FE012401F0D0FBFEF71FBE41
:1057F00041460CA804F0B0FB0CA8FEF759FC0030A1
:1058000018BF012002F07CF80CA8344604F050FBCD
:10581000FEF70DBEAF490CA804F08AFB0CA8FDF7FB
:1058200003F80CA84C4604F043FBFEF700BEFBF760
:10583000EDFD404604F016FD08F11000B0EE408A80
:1058400004F010FD08F12000F0EE408A04F004FDA1
:10585000F0EE680A80B2B0EE480AFBF711FE0124B0
:1058600001F094FBFEF7E3BD9A490CA804F060FB3D
:105870000CA8FCF7D9FF0CA804F01AFBFEF7D7BD63
:105880009549384604F0A0FC80B341463046FBF70A
:1058900029FB0446002800F00181022E00F0E98077
:1058A000042E67D1FBF7B2FD404604F0DBFC08F1A3
:1058B0001000B0EE408A04F0D5FC08F120008DED18
:1058C0000C8A8DED0D0A04F0CDFC08F13000B0EE2D
:1058D000408A04F0C1FCB0EE480A81B20CA8FBF784
:1058E000DBFD012401F052FBFEF7A1BD7B493846E8
:1058F00004F06AFC002800F0868041463046FBF741
:10590000F1FA0446002872D0042E4DD0062E3ED166
:10591000FBF77CFD404604F0A5FC08F11000B0EE5A
:10592000408A04F09FFC08F120008DED0C8A8DED7B
:105930000D0A04F097FC08F13000B0EE408A04F044
:1059400091FC08F14000F0EE408A04F085FC04462A
:1059500008F1500004F080FCA1B282B2F0EE680AB7
:10596000B0EE480A0CA8FBF707FE012401F00EFB7D
:10597000FEF75DBD57490CA804F0DAFA0CA8FCF755
:1059800053FF0CA82C4604F093FAFEF750BD514982
:105990000CA804F0CDFA0CA8FCF746FF0CA804F004
:1059A00087FA0024FEF743BDFBF730FD404604F0C4
:1059B00059FC08F11000B0EE408A04F053FC08F1E5
:1059C0002000F0EE408A04F047FC044608F1300065
:1059D00004F042FCF0EE680A81B2B0EE480AA0B2D0
:1059E000FBF702FE012401F0D1FAFEF720BD394990
:1059F0000CA804F09DFA0CA8FCF716FF0CA804F004
:105A000057FAFEF714BD3649384604F0DDFB00288E
:105A100000F0898041463046FBF764FA04460028CE
:105A200075D0022E5ED0042E44D1FBF7EFFC404629
:105A300004F018FC08F11000B0EE408A04F012FCEB
:105A400008F120008DED0C8A8DED0D0A04F00AFCA2
:105A500008F13000B0EE408A04F0FEFBB0EE480AD8
:105A600081B20CA8FBF7D4FD012401F08FFAFEF7F8
:105A7000DEBCFBF7CBFC404604F0F4FB08F1100061
:105A8000B0EE408A04F0E8FBB0EE480A80B2FBF7C3
:105A900067FD012401F07AFAFEF7C9BC0D490CA894
:105AA00004F046FA0CA8FCF7BFFE0CA804F000FABC
:105AB000FEF7BDBC07490CA804F03AFA0CA8FCF7A5
:105AC000B3FE0CA804F0F4F90024FEF7B0BC00BF4C
:105AD000BC330100FC300100C4330100CC330100B1
