:1000000000000320D101000049A7000001A7000063
:1000100001A7000001A7000001A7000001A7000040
:1000200001A7000001A7000001A7000049A70000E8
:1000300049A7000001A700001DC4000021C5000061
:1000400049A7000049A7000049A7000049A70000F0
:1000500049A7000049A7000049A7000049A70000E0
:1000600049A7000049A7000049A7000049A70000D0
:1000700049A7000049A7000049A7000049A70000C0
:1000800049A7000049A7000049A7000049A70000B0
:1000900049A7000049A7000049A7000049A70000A0
:1000A00049A7000049A7000049A7000049A7000090
:1000B00049A7000049A7000049A7000069C5000042
:1000C00049A7000095C6000049A70000C1C700006D
:1000D00049A70000B9C8000049A7000049A70000CF
:1000E00049A7000049A7000049A7000049A7000050
:1000F00049A7000049A7000049A7000049A7000040
:10010000559D0000699D00007D9D0000919D0000AF
:1001100049A700001DB3000049A7000049A700003F
:1001200049A7000049A7000049A7000049A700000F
:1001300049A7000049A7000049A7000049A70000FF
:1001400049A7000049A70000B1C9000049A7000065
:1001500049A7000049A7000049A7000049A70000DF
:1001600049A7000049A7000049A7000049A70000CF
:1001700049A7000049A7000049A7000049A70000BF
:1001800049A7000049A7000049A7000049A70000AF
:1001900049A7000049A70000A9CA000049A700001C
:1001A00049A7000049A7000049A7000049A700008F
:1001B00049A7000049A7000049A7000049A700007F
:1001C00049A7000049A7000049A7000049A700006F
:1001D0005C4B4CF2205210B51A804DF628121A8052
:1001E00000BF00BF0AF0B4FA574B4FF030621A60FC
:1001F000564A9A60564ADA60564B4FF470021A60BB
:10020000554B564A1A60564A136813F4807304D14A
:1002100054490B604FF4A8531360534B1A781107DD
:1002200003D51A7842F008021A70504B5049AA229E
:100230001A70504A504B8B4204D252F8040F43F8C4
:10024000040BF8E74D4B4E4900228B4202D243F893
:10025000042BFAE74B494C4A002352F8230041F89B
:1002600023000133742BF8D1484B494A802103F80D
:10027000011B9342FBD1474B424A1A60464B8A22EC
:100280001A70A3F5805324225A70A0221A709A790A
:100290009207FCD59A79D406FCD4404A937903F0AE
:1002A0000C03082BFAD13E4B60221A7002331A78E5
:1002B000802AFCD1394B01221A715D225A719A7938
:1002C0009006FCD59979354A4906FBD5354B364918
:1002D00019600021596020231370937903F00C03F7
:1002E0000C2BFAD1314B324A1A60324B324A1A6027
:1002F00000225A60072243F8042C304AC3F80C2D20
:1003000062B60AF07BFE174B1B68DA0705D52C484E
:100310000AF07CFB2B4B2C4A1A602C4B1B785B069B
:1003200009D5284C284B22689A4204D124480AF067
:100330006DFB002323600FF057F80AF00FFA0AF064
:100340003DF9FEE70E20054030800440823F040066
:100350000100002B88ED00E0002008E0030000858C
:1003600010D0034014D0034002D0074000E0074003
:100370009814FF1F9C3F01003007FF1F9814FF1FB8
:10038000AC9C01200002FF1F0000000000E400E020
:1003900064E400E008ED00E0005006400040064044
:1003A00001E007404480044000000602048004404D
:1003B000C010070014E000E01FBF02000000202072
:1003C000428E045D1CE00340A5C3945A00F0074030
:1003D000FFFFFFFFFFFFFFFFFFFFFFFFFFFFFFFF2D
:1003E000FFFFFFFFFFFFFFFFFFFFFFFFFFFFFFFF1D
:1003F000FFFFFFFFFFFFFFFFFFFFFFFFFFFFFFFF0D
:10040000FFFFFFFFFFFFFFFFFFFFFFFFDEF9FFFF23
:1004100010B5054C237833B9044B13B10448AFF33E
:1004200000800123237010BD9814FF1F00000000FE
:10043000983F0100084B10B51BB108490848AFF3BD
:1004400000800848036803B910BD074B002BFBD0A0
:10045000BDE81040184700BF000000009C14FF1FBB
:10046000983F01009814FF1F000000004171704781
:10047000002301220271C3728372C37183714372BC
:100480000372704703685B6A184700BFC171704709
:1004900010B50A4A0A4913780446042084F83C003F
:1004A00084F83D3004F12C000133137009F0ACFDE9
:1004B0000122236A6271636210BD00BFE414FF1F52
:1004C0006815FF1F10B5054C04F1100009F0C6FCBB
:1004D0002046BDE8104009F0C1BC00BF9815FF1FC1
:1004E00010B5074C04F1200009F0B8FC04F110002D
:1004F00009F0B4FC2046BDE8104009F0AFBC00BFD5
:10050000B414FF1F38B5054CA4F170052046103C0B
:1005100009F0A4FCAC42F9D138BD00BF8815FF1F1B
:1005200010B5094C04F1300009F098FC04F12000EA
:1005300009F094FC04F1100009F090FC2046BDE89D
:10054000104009F08BBC00BFE814FF1F70B588B0E5
:100550000C4605462C31684609F0D4FC6846134920
:1005600009F0C6FD94F83D10064604A809F0E8FC21
:1005700004A9304609F0B4FD0D4909F0B9FD0D4B51
:1005800094F83D1003EB011109F0AAFD0A4909F0A6
:10059000AFFD0146284609F0B5FC04A809F05EFC51
:1005A000684609F05BFC284608B070BD242C0100A9
:1005B000282C0100E814FF1F2C2C010070B50C46FC
:1005C0008CB005461A491B4E08A809F087FC0A2280
:1005D000618A04A809F0C8FC04A908A809F080FDF4
:1005E000154909F085FD617D06EB011109F078FDE3
:1005F000124909F07DFDA17D06EB011109F070FDA6
:100600000F4909F075FD0146684609F07BFC04A816
:1006100009F024FC08A809F021FC6946284609F0E5
:100620000BFC684609F01AFC28460CB070BD00BFF0
:10063000302C01009815FF1F382C0100442C0100BC
:10064000502C010010B5064B044640F82C3B09F035
:1006500005FC206A08B10AF0CFF8204610BD00BFA3
:10066000B82C010010B5084B044640F82C3B09F0AB
:10067000F5FB206A08B10AF0BFF8204640210AF0D5
:10068000BDF8204610BD00BFB82C01004379DBB196
:10069000C16810B501B18979036804461B6A98479F
:1006A00023792BB9236820465B6ABDE810401847C0
:1006B000236808499A6A00208A42207105D12046A1
:1006C0005B6ABDE81040184770472046BDE81040FF
:1006D000104700BF85040000F8B50346044653F8F0
:1006E0001A1F194A026001259A88C0F812104FF4A7
:1006F000FA63002100F12C06C2824383E160E172BB
:10070000A172E171A1716172217221776177A17784
:1007100021626162A162304665712571257409F01C
:10072000DDFB0A4A0A49137884F83D3004272B443C
:10073000304684F83C70137009F066FC236A6571DA
:1007400063622046F8BD00BFB82C0100E414FF1F0F
:100750006815FF1F01764276012110460AF0D2BBD0
:1007600001230374704700BF037C23B1437D1BB991
:10077000407E0AF0B3BB704707EE901A9FED067AF1
:10078000407EF8EEE77A67EE877AFDEEE77A17EEBD
:10079000901A0AF04DB900BFE17A944410B50021D7
:1007A0000446FFF7E1FF0023237410BD8179027D29
:1007B0008A4202D00175FFF7D7BF7047027D4171B1
:1007C00002B9704700210175FFF7CEBF10B4047D58
:1007D0008C4205D003465DF8044B1975FFF7C4BF82
:1007E0005DF8044B704700BF037C03B1037D1846DE
:1007F000704700BF40F6FF739942027CA8BF1946BC
:10080000418202B97047007E0AF012B910B5044661
:10081000417519B90121407E0AF074FB217D204603
:10082000BDE81040FFF7A0BF81757047837D03B915
:1008300070470021FFF798BF10B50446417DFFF7D0
:10084000E5FF618A237C40F6FF729142A8BF114602
:10085000618203B910BD207EBDE810400AF0E8B8FF
:1008600051F8122F02608A888280704738B5436A37
:10087000044633F8065C13F8041C13F8032C13F831
:10088000023C8375458201754275FFF7D5FF636AA7
:10089000063B636238BD00BF2DE9F04104462148A4
:1008A00062682668931B5B1000FB03F388462BB13C
:1008B0005F00BB422BD96FF0030700E006273846E4
:1008C00009F098FF626826680546921B154B501088
:1008D00003FB00F0AB1806D0D8F800E0B8F804101D
:1008E00045F802E0998058B903F1060816B1304680
:1008F00009F082FF2F44A76084E82001BDE8F08161
:100900003146284603F106080FF0C4F8EFE7064B1E
:100910009F42D0D83D46002FD7D0062303FB07F7D0
:10092000CDE700BFABAAAAAAAAAAAA2A08B5826ADA
:10093000436A934209D02BB1024652F8121F196044
:1009400092889A800633436208BD00F1120120307C
:10095000FFF7A2FF08BD00BF2DE9F041334E344937
:10096000344D354C354FDFF82481304609F0B6FA66
:1009700006F11000324909F0B1FA06F120003149C0
:1009800009F0ACFA06F130002F4909F0A7FA2A461F
:100990002E4900200CF03CF920462D4909F09EFA22
:1009A00004F110002B4909F099FA04F120002A49BA
:1009B00009F094FA04F13000284909F08FFA04F1A3
:1009C0004000274909F08AFA04F15000254909F04E
:1009D00085FA04F16000244909F080FA2A46234987
:1009E00000200CF015F93846214909F077FA07F193
:1009F0001000204909F072FA07F120001E4909F0A1
:100A00006DFA2A461D4900200CF002F940461C49A7
:100A100009F064FA08F110001A4909F05FFA2A4651
:100A200019490020BDE8F0410CF0F2B8E814FF1FAE
:100A3000542C01000C08FF1F2815FF1FB414FF1FC2
:100A4000582C0100602C0100682C010021050000D9
:100A5000742C0100782C01007C2C0100802C0100FA
:100A6000842C0100882C01008C2C0100050500005D
:100A7000902C0100982C0100A02C0100E104000042
:100A8000A82C0100AC2C0100C50400009815FF1F24
:100A900010B5054C04F1100009F0E0F92046BDE85E
:100AA000104009F0DBB900BF9816FF1F10B5074CC6
:100AB00004F1200009F0D2F904F1100009F0CEF998
:100AC0002046BDE8104009F0C9B900BFB815FF1FA6
:100AD00038B5054CA4F170052046103C09F0BEF96C
:100AE000AC42F9D138BD00BF4816FF1F10B5094C04
:100AF00004F1300009F0B2F904F1200009F0AEF978
:100B000004F1100009F0AAF92046BDE8104009F0F0
:100B1000A5B900BF5816FF1F2DE9F041334E3449E7
:100B2000344D354C354FDFF82481304609F0D6F985
:100B300006F11000324909F0D1F906F120003149DF
:100B400009F0CCF906F130002F4909F0C7F92A461F
:100B50002E4900200CF05CF820462D4909F0BEF922
:100B600004F110002B4909F0B9F904F120002A49D9
:100B700009F0B4F904F13000284909F0AFF904F1A3
:100B80004000274909F0AAF904F15000254909F06D
:100B9000A5F904F16000244909F0A0F92A46234987
:100BA00000200CF035F83846214909F097F907F193
:100BB0001000204909F092F907F120001E4909F0C0
:100BC0008DF92A461D4900200CF022F840461C49A8
:100BD00009F084F908F110001A4909F07FF92A4652
:100BE00019490020BDE8F0410CF012B85816FF1F5B
:100BF000542C01000C08FF1FE815FF1FB815FF1F3C
:100C0000582C0100602C0100682C0100ED0A000046
:100C1000742C0100782C01007C2C0100802C010038
:100C2000842C0100882C01008C2C0100D10A0000CA
:100C3000902C0100982C0100A02C0100AD0A0000AE
:100C4000A82C0100AC2C0100910A00009816FF1F8F
:100C500010B5054C04F1100009F000F92046BDE87C
:100C6000104009F0FBB800BFA017FF1F10B5074CDC
:100C700004F1200009F0F2F804F1100009F0EEF898
:100C80002046BDE8104009F0E9B800BFBC16FF1FC0
:100C900038B5054CA4F170052046103C09F0DEF88B
:100CA000AC42F9D138BD00BF4C17FF1F10B5094C3D
:100CB00004F1300009F0D2F804F1200009F0CEF878
:100CC00004F1100009F0CAF82046BDE8104009F010
:100CD000C5B800BF5C17FF1F2DE9F041334E344902
:100CE000344D354C354FDFF82481304609F0F6F8A5
:100CF00006F11000324909F0F1F806F120003149FF
:100D000009F0ECF806F130002F4909F0E7F82A461F
:100D10002E4900200BF07CFF20462D4909F0DEF81B
:100D200004F110002B4909F0D9F804F120002A49F8
:100D300009F0D4F804F13000284909F0CFF804F1A3
:100D40004000274909F0CAF804F15000254909F08C
:100D5000C5F804F16000244909F0C0F82A46234987
:100D600000200BF055FF3846214909F0B7F807F18C
:100D70001000204909F0B2F807F120001E4909F0DF
:100D8000ADF82A461D4900200BF042FF40461C49A1
:100D900009F0A4F808F110001A4909F09FF82A4652
:100DA00019490020BDE8F0410BF032BF5C17FF1F6E
:100DB000542C01000C08FF1FEC16FF1FBC16FF1F70
:100DC000582C0100602C0100682C0100AD0C0000C3
:100DD000742C0100782C01007C2C0100802C010077
:100DE000842C0100882C01008C2C0100910C000047
:100DF000902C0100982C0100A02C01006D0C00002B
:100E0000A82C0100AC2C0100510C0000A017FF1F02
:100E100010B5054C04F1100009F020F82046BDE89B
:100E2000104009F01BB800BFA018FF1F10B5074CF9
:100E300004F1200009F012F804F1100009F00EF896
:100E40002046BDE8104009F009B800BFC017FF1FD9
:100E500038B5054CA4F170052046103C08F0FEFFA3
:100E6000AC42F9D138BD00BF5018FF1F10B5094C76
:100E700004F1300008F0F2FF04F1200008F0EEFF6A
:100E800004F1100008F0EAFF2046BDE8104008F029
:100E9000E5BF00BF6018FF1F014B1870704700BF0F
:100EA0001008FF1F08B583680BB9012008BD002199
:100EB00009F084F96138C0B219288CBF00200120E4
:100EC00008BD00BF08B5002109F078F9A0F12D0395
:100ED000DBB20C2B03D82F3818BF012008BD00202F
:100EE00008BD00BF40B330B5451EEDB2013585B039
:100EF0000C4601EB051508E02F2A684604F11004A2
:100F000011D008F0ABFFAC4213D02146684608F080
:100F1000F9FF0021684609F051F9A0F12D03DBB279
:100F20000C2B0246E8D9684608F098FF002005B06F
:100F300030BD012005B030BD012070472DE9F041E2
:100F4000334E3449344D354C354FDFF8248130462B
:100F500008F0C4FF06F11000324908F0BFFF06F1A7
:100F60002000314908F0BAFF06F130002F4908F09F
:100F7000B5FF2A462E4900200BF04AFE20462D4997
:100F800008F0ACFF04F110002B4908F0A7FF04F1B2
:100F900020002A4908F0A2FF04F13000284908F097
:100FA0009DFF04F14000274908F098FF04F150002C
:100FB000254908F093FF04F16000244908F08EFFF2
:100FC0002A46234900200BF023FE3846214908F029
:100FD00085FF07F11000204908F080FF07F120008D
:100FE0001E4908F07BFF2A461D4900200BF010FE29
:100FF00040461C4908F072FF08F110001A4908F039
:101000006DFF2A4619490020BDE8F0410BF000BEF3
:101010006018FF1F542C01000C08FF1FF017FF1F62
:10102000C017FF1F582C0100602C0100682C010024
:101030006D0E0000742C0100782C01007C2C010046
:10104000802C0100842C0100882C01008C2C0100D4
:10105000510E0000902C0100982C0100A02C0100E2
:101060002D0E0000A82C0100AC2C0100110E000078
:10107000A018FF1F10B5054C04F1100008F0EEFE9B
:101080002046BDE8104008F0E9BE00BFB419FF1FBC
:1010900010B5074C04F1200008F0E0FE04F1100048
:1010A00008F0DCFE2046BDE8104008F0D7BE00BFC7
:1010B000C018FF1F38B5054CA4F170052046103C40
:1010C00008F0CCFEAC42F9D138BD00BF5019FF1F6B
:1010D00010B5094C04F1300008F0C0FE04F1200006
:1010E00008F0BCFE04F1100008F0B8FE2046BDE890
:1010F000104008F0B3BE00BF7419FF1F30B5C821FF
:1011000085B01248124D134C08F0B0FE12490F483A
:1011100008F082FF114B124A124900201870137810
:10112000002BFCD00B78DB07F9D52B6820681B1A45
:101130000E2BF4D90C49684608F0D0FE684601F041
:1011400071FB684608F08AFE05B030BD6419FF1FC8
:1011500044980120A49C0120082E01006019FF1F63
:101160002899012040990120E42C010010B508E0E5
:101170000AF018FFC4B22146084808F0A1FF0A2C63
:1011800004D00AF04BFF0028F2D110BD034805F04F
:1011900029FC0349014808F03FFFF2E76419FF1FEB
:1011A000082E0100FFF7E2BF2DE9F843394E3A4916
:1011B0003A4D3B4C3B4FDFF84091DFF840813046E1
:1011C00008F08CFE06F11000374908F087FE06F1A2
:1011D0002000364908F082FE06F13000344908F05C
:1011E0007DFE2A46334900200BF012FD204632498D
:1011F00008F074FE04F11000304908F06FFE04F1AD
:1012000020002F4908F06AFE04F130002D4908F053
:1012100065FE04F140002C4908F060FE04F1500026
:101220002A4908F05BFE04F16000294908F056FEE7
:101230002A46284900200BF0EBFC3846264908F0E6
:101240004DFE07F11000254908F048FE07F1200087
:10125000234908F043FE2A46224900200BF0D8FC1F
:101260004846214908F03AFE09F110001F4908F0EC
:1012700035FE2A461E4900200BF0CAFC40460021DC
:1012800008F02CFE2A4640461A49BDE8F8430BF008
:10129000BFBC00BF7419FF1F542C01000C08FF1FB6
:1012A000F018FF1FC018FF1F582C0100602C010010
:1012B000682C0100D1100000742C0100782C010072
:1012C0007C2C0100802C0100842C0100882C010062
:1012D0008C2C0100B5100000902C0100982C01000E
:1012E000A02C010091100000A82C0100AC2C0100E2
:1012F000751000005D9E0000B419FF1F6419FF1FE8
:1013000010B5054C04F1100008F0A8FD2046BDE81A
:10131000104008F0A3BD00BFB41AFF1F10B5074C62
:1013200004F1200008F09AFD04F1100008F096FD89
:101330002046BDE8104008F091BD00BFD419FF1F42
:1013400038B5054CA4F170052046103C08F086FD28
:10135000AC42F9D138BD00BF641AFF1F10B5094C6B
:1013600004F1300008F07AFD04F1200008F076FD69
:1013700004F1100008F072FD2046BDE8104008F0AE
:101380006DBD00BF741AFF1F024B00680A685A60E7
:1013900018607047FC5B0020014B83ED000A70472A
:1013A0007822FF1F014B83ED000A70471408FF1FCE
:1013B00010B4064A064C074900234FF07E502360C4
:1013C0001360536008605DF8044B7047FC5B0020BD
:1013D0007822FF1F1408FF1F014B1870704700BFD1
:1013E0001808FF1F08B505F091FEBDE8084006F09B
:1013F00017BA00BF014B1870704700BF1108FF1FDC
:10140000014B1878704700BF1108FF1F08B5054B46
:101410001B7803B908BD05F079FEBDE8084006F069
:10142000FFB900BF1108FF1F30B54B1E2DED028B19
:1014300007EE903A83B0F8EEE77A026843680092CC
:1014400080EE278A0193C0EEA78AA1B10D46002441
:10145000684605F059FD0134A4B2A5429DED007A1D
:10146000DDED017A37EE087A77EEA87A8DED007A15
:10147000CDED017AECD103B0BDEC028B30BD00BFE5
:1014800000B583B000230146684600930193FFF73F
:10149000CBFF03B05DF804FB2DE9F0414B1E2DEDB1
:1014A000048B07EE903A9FED2D7AF8EEE77A86B03E
:1014B000054610EE100A884687EE279A0DF0E8FBE5
:1014C000002406460F462346013407EE903AF8EE14
:1014D000E77A67EE897A17EE900A0DF0D9FB41ECB6
:1014E000100B41EC180B0BF073FC51EC100BB0EE31
:1014F000480AF0EE680ACDE902010BF0C9FC324659
:101500003B46DDE902018DED000B0DF015FC0DF001
:101510000BFF9DED000B07EE100AD5ED007A77EE7C
:10152000277A3B46324651EC100BCDED047A0DF094
:1015300003FC0DF0F9FED5ED017A07EE100A77EE07
:10154000277A04A8CDED057A05F0DEFCA3B2984514
:10155000BAD206B0BDEC048BBDE8F081DB0FC94008
:1015600000B583B000230146684600930193FFF75E
:1015700093FF03B05DF804FB30B52DED048B9FEDB8
:10158000198A83B0F0EE608AF0EE480A1446B0EE95
:10159000409A0D46FFF748FF684605F0A5FC214636
:1015A000F0EE680AB0EE480A6846FFF73DFF68466D
:1015B00005F09AFC2946F0EE480AB1EE490A684661
:1015C000FFF732FF684605F08FFC2146F1EE680A0E
:1015D000B0EE480A6846FFF727FF03B0BDEC048B66
:1015E00030BD00BF0000000000B5F6EE007A83B009
:1015F00020EE677A60EEE77A0A46014668468DED8E
:10160000007ACDED017AFFF7B7FF03B05DF804FB78
:101610000A46F0EE400AFFF7AFBF00BF00B5F6EE96
:10162000007A83B060EE677A02460146F0EE400A27
:101630006846CDED007ACDED017AFFF79DFF03B04E
:101640005DF804FB2DE9F04F2DED028B85B0002BEA
:1016500040F05F811C46032607EE902AF8EEE77AF9
:101660005D1C80EEA78A520892FBF5F2D2B21FFAF7
:1016700082FA07EE905AF8EEE77A0568406800951E
:1016800028EE278A0190002A00F0E28010EE109ADE
:101690009B460F46B6B24FF00008F1EE408A002C90
:1016A00000F0DB8000250135684605F02DFCEBB22B
:1016B0009C42F8D83946DFED980A00EE109A684649
:1016C000FFF7B2FE02A805F00FFC029A039B0092FE
:1016D000019300250135684605F016FCEBB29C42EB
:1016E000F8D83146F0EE480A9FED8B0A6846FFF7BE
:1016F0009BFE02A805F0F8FB029A039B009201935F
:1017000000250135684605F0FFFBEBB29C42F8D896
:101710003946DFED810AB0EE680A6846FFF784FEBD
:1017200002A805F0E1FB029A039B009201930025B9
:101730000135684605F0E8FBEBB29C42F8D831462B
:10174000F0EE480A9FED740A6846FFF76DFE08F157
:10175000010802A805F0C8FB1FFA88F3DDED037A43
:10176000029A00925345CDED017A98D3BBF1000F58
:101770006ED0B1EE488AB6EE007AE8EE077A4FF006
:101780000008CDED017A002C00F095800025013590
:10179000684605F0B9FBEBB29C42F8D83946DFED5C
:1017A0005E0A00EE109A6846FFF73EFE02A805F0BA
:1017B0009BFB029A039B009201930025013568462A
:1017C00005F0A2FBEBB29C42F8D83146F0EE480A95
:1017D0009FED510A6846FFF727FE02A805F084FB3B
:1017E000029A039B0092019300250135684605F09B
:1017F0008BFBEBB29C42F8D83946DFED470AB0EEDE
:10180000680A6846FFF710FE02A805F06DFB029A11
:10181000039B0092019300250135684605F074FB97
:10182000EBB29C42F8D83146F0EE480A9FED3A0AF6
:101830006846FFF7F9FD08F1010802A805F054FB1E
:101840001FFA88F30299039A0091534501929AD3A3
:1018500005B0BDEC028BBDE8F08F3946DFED2E0AF6
:1018600000EE109A6846FFF7DFFD02A805F03CFB8A
:10187000029A039B9FED280A00923146F0EE480A37
:1018800068460193FFF7D0FD02A805F02DFB029AF0
:10189000039BDFED210A00923946B0EE680A6846E4
:1018A0000193FFF7C1FD02A805F01EFB029A039BFE
:1018B0000092019343E73946DFED170A00EE109AD4
:1018C0006846FFF7B1FD02A805F00EFB029A039BE4
:1018D0009FED110A00923146F0EE480A68460193E6
:1018E000FFF7A2FD02A805F0FFFA029A039BDFEDC5
:1018F0000A0A00923946B0EE680A68460193FFF77B
:1019000093FD02A805F0F0FA029A039B009201935E
:1019100089E7052426469FE60000000000B5F6EEA4
:10192000007A83B020EE677A60EEE77A13460A46C3
:10193000014668468DED007ACDED017AFFF782FE13
:1019400003B05DF804FB00BF2DE9F04F551C07EE16
:10195000905A2DED0A8BF8EEE78ADFEDC57A80EE1E
:10196000A87A89B0834602920C46F7EE00AA27EEC9
:1019700027AA68EE808A1AEE100A0DF089F9F0EEB7
:101980006A7AEAEE0A7A06460F4617EE900A0DF0DA
:101990007FF941EC100B41EC190B0BF061FB59EC9A
:1019A000108BB0EE490AF0EE690A0BF059FB304695
:1019B00053EC102B39460DF00DF841EC100B0BF0E9
:1019C000C7FA94FBF5F442464B46304639468DED56
:1019D000000B0DF0B1F99DED000B53EC102B0CF04A
:1019E000F9FFDFEDA47A88EEA77A06460F46013CA0
:1019F00017EE100A0DF04CF902460B4630463946F8
:101A00000DF09AF90DF090FC07EE904A06EE900A60
:101A1000F8EEE77AB5EEC0AAF1EE10FA86EEA77AF4
:101A2000C0F21C814FF000084FF0000917EE10AA19
:101A30009FED8D7B9FED908ADFED90BA8DED007B61
:101A4000B6EE00BA11E00DF023F941EC100B41ECB9
:101A5000190B0BF0BDF98DED000BB0EE490AF0EE5D
:101A6000690A0BF015FA59EC108B68EE887A9FED35
:101A7000839A67EE8B7A87EEAB7A17EE100A0DF039
:101A800007F90446DBF804000D460DF001F9424663
:101A900006460F464B46204629460DF04DF90246B4
:101AA0000B46304639460CF095FF0DF03DFC804664
:101AB000DBF800000DF0ECF8DDE9002306460F46E8
:101AC000204629460DF038F902460B463046394685
:101AD0000CF080FF0DF028FC069006A8CDF81C80C5
:101AE00005F012FA50460DF0D3F8044618EE900AAD
:101AF0000D460DF0CDF8F0EE6A7AE8EE087A8046F1
:101B0000894617EE900A0DF0C3F841EC100B0BF06C
:101B1000A7FA404653EC102B49460DF00DF902464A
:101B20000B46204629460DF031FA0DF0FDFB07EE7D
:101B3000900A38EE278AB4EEC8AAF1EE10FA18EE31
:101B4000100A80DA029B002B00F0888038EE498A68
:101B500038EE678AB4EEC98AF1EE10FA7EDDCDE97F
:101B60000489CDE90245B6EE00CAF7EE009A5D465B
:101B700068EE887A67EE8C7A87EE897A17EE100A1B
:101B80000DF086F878EE097A824617EE900A8B46B9
:101B90000DF07EF841EC100B41EC1A0B0BF018F92C
:101BA000B0EE40BAF0EE60BAB0EE4A0AF0EE6A0A61
:101BB0000BF06EF953EC102B6868CDE900230DF0A3
:101BC00067F8DDE9002306460F46504659460DF0FA
:101BD000B3F802460B46304639460CF0FBFE0DF0DA
:101BE000A3FB814628680DF053F853EC1B2B0646E7
:101BF0000F46504659460DF09FF802460B463046B8
:101C000039460CF0E7FE0DF08FFB069006A8CDF8E4
:101C10001C9005F079F9F0EE697AE8EE087A17EE93
:101C2000900A0DF035F841EC100B0BF019FADDE9D4
:101C3000040153EC102B0DF07FF802460B46DDE952
:101C400002010DF0A3F90DF06FFB07EE900A38EEDC
:101C5000678AB4EEC98AF1EE10FA89DC09B0BDECEE
:101C60000A8BBDE8F08F00BF000000000000F03FCD
:101C7000DB0FC940DB0F494100000000DB0F49408A
:101C800000B583B000230A460146684600930193DD
:101C9000FFF75AFE03B05DF804FB00BF2DE9F041E9
:101CA000334E3449344D354C354FDFF824813046BE
:101CB00008F014F906F11000324908F00FF906F1A6
:101CC0002000314908F00AF906F130002F4908F0E8
:101CD00005F92A462E4900200AF09AFF20462D4990
:101CE00008F0FCF804F110002B4908F0F7F804F1B3
:101CF00020002A4908F0F2F804F13000284908F0E1
:101D0000EDF804F14000274908F0E8F804F150002C
:101D1000254908F0E3F804F16000244908F0DEF8F2
:101D20002A46234900200AF073FF3846214908F06B
:101D3000D5F807F11000204908F0D0F807F120008D
:101D40001E4908F0CBF82A461D4900200AF060FF22
:101D500040461C4908F0C2F808F110001A4908F082
:101D6000BDF82A4619490020BDE8F0410AF050BFED
:101D7000741AFF1F542C01000C08FF1F041AFF1FC8
:101D8000D419FF1F582C0100602C0100682C0100A1
:101D90005D130000742C0100782C01007C2C0100E4
:101DA000802C0100842C0100882C01008C2C010067
:101DB00041130000902C0100982C0100A02C010080
:101DC0001D130000A82C0100AC2C01000113000021
:101DD000B41AFF1F00207047704700BF83791BB9FA
:101DE000034B20221A607047024B20221A60704772
:101DF00088F00F4084F00F40704700BFC1717047FA
:101E0000C28A0123037152420023C261C3728372EA
:101E1000C37183714372037203767047704700BFCA
:101E2000837923B9044B4FF080621A607047034BEB
:101E30004FF080621A60704708F10F4004F10F40C4
:101E400038B5054CA4F1B00554F82C3D1B6820466C
:101E50009847AC42F8D138BD241EFF1F38B5054C59
:101E6000A4F1900554F8243D1B6820469847AC42E5
:101E7000F8D138BD741DFF1F38B5054CA4F190058D
:101E800054F8243D1B6820469847AC42F8D138BD31
:101E9000141CFF1F38B5054CA4F1D00554F8343D8F
:101EA0001B6820469847AC42F8D138BDE41CFF1FA0
:101EB00038B5054CA4F1C00554F8303D1B682046E8
:101EC0009847AC42F8D138BDE41EFF1F38B5054C29
:101ED000A4F5807554F8403D1B6820469847AC42F5
:101EE000F8D138BDE41FFF1F10B5847990F82200A7
:101EF000214608F0F3FF24B9044B4FF080621A60CA
:101F000010BD034B4FF080621A6010BD08F10F4006
:101F100004F10F4010B5002301220271C3728372D5
:101F2000C371837143720372044608F0F1FFA0622B
:101F300010BD00BF10B5002301220271C37283726D
:101F4000C371837143720372044608F0E1FFA0611C
:101F500010BD00BF10B5044689B908F0D9FFA369C8
:101F60002269C01A904207D963691A4490428CBF13
:101F700000200120E07110BD0020E07110BD08F0CC
:101F8000C7FFA061E9E700BF10B5054C04F11000E0
:101F900007F064FF2046BDE8104007F05FBF00BFB8
:101FA0002420FF1F10B5074C04F1200007F056FF56
:101FB00004F1100007F052FF2046BDE8104007F082
:101FC0004DBF00BF541BFF1F38B5054CA4F1700571
:101FD0002046103C07F042FFAC42F9D138BD00BFAB
:101FE000401BFF1F10B5094C04F1300007F036FF0D
:101FF00004F1200007F032FF04F1100007F02EFF7B
:102000002046BDE8104007F029BF00BFE41FFF1FB6
:1020100010B5044B044640F81C3B07F01FFF204658
:1020200010BD00BFD02D010010B5044B044640F890
:10203000203B07F013FF204610BD00BF9C2D010080
:1020400010B5044B044640F8103B07F007FF20464C
:1020500010BD00BF342D010010B5044B044640F8FC
:10206000103B07F0FBFE204610BD00BF682D0100AD
:1020700010B5044B044640F8103B07F0EFFE204635
:1020800010BD00BF002D010010B5044690F82200DD
:1020900008F02AFF003018BF0120E07110BD00BF1A
:1020A00010B50446006808B108F0A6FB204610BD34
:1020B00070B50D468CB00446164904A807F00EFF13
:1020C0000A222969684607F077FF694604A808F0E4
:1020D00007F8114908F00CF80A220646696908A8B1
:1020E00007F06AFF08A9304607F0FAFF0B4907F02E
:1020F000FFFF0146204607F005FF08A807F0AEFEE7
:10210000684607F0ABFE04A807F0A8FE20460CB016
:1021100070BD00BF002E0100042E01000C2E010036
:1021200070B50C4690B005462349684607F0D6FEC8
:10213000224B217C684603EB011107F0D1FF2049B7
:1021400007F0D6FF0A220646618A04A807F00CFFB2
:1021500004A9304607F0C4FF1A4907F0C9FF0A2254
:102160000646A18A08A807F0FFFE08A9304607F036
:10217000B7FF154907F0BCFF0A220646E18A0CA802
:1021800007F0F2FE0CA9304607F0AAFF0F4907F04E
:10219000AFFF0146284607F0B5FE0CA807F05EFE2B
:1021A00008A807F05BFE04A807F058FE684607F091
:1021B00055FE284610B070BD102E0100541BFF1FA5
:1021C000182E0100242E01002C2E0100502C01009D
:1021D00030B50D4689B004460E4904A807F07EFECE
:1021E00095F82210684607F0ABFE694604A807F090
:1021F00077FF094907F07CFF0146204607F082FE81
:10220000684607F02BFE04A807F028FE204609B018
:1022100030BD00BF382E0100502C010030B50D46F6
:1022200089B004460E4904A807F058FE95F822101C
:10223000684607F085FE694604A807F051FF094982
:1022400007F056FF0146204607F05CFE684607F09F
:1022500005FE04A807F002FE204609B030BD00BF0D
:10226000382E0100502C010070B50D4688B0044690
:102270001349684607F032FE124B6979684603EB52
:10228000011107F02DFF104907F032FF0A22064620
:10229000696A04A807F090FE04A9304607F020FF01
:1022A0000A4907F025FF0146204607F02BFE04A847
:1022B00007F0D4FD684607F0D1FD204608B070BD98
:1022C000402E01002420FF1F482E01000C2E01008B
:1022D00070B588B004460D4668461C3107F012FE02
:1022E00068460E4907F004FF95F82D10064604A82D
:1022F00007F026FE04A9304607F0F2FE084907F071
:10230000F7FE0146204607F0FDFD04A807F0A6FDF4
:10231000684607F0A3FD204608B070BD242C0100DC
:102320008030010070B588B004460D466846203103
:1023300007F0E8FD68460E4907F0DAFE95F831101F
:10234000064604A807F0FCFD04A9304607F0C8FEC5
:10235000084907F0CDFE0146204607F0D3FD04A84A
:1023600007F07CFD684607F079FD204608B070BD97
:10237000242C01008030010070B588B004460D4661
:102380006846103107F0BEFD68460E4907F0B0FE02
:1023900095F82110064604A807F0D2FD04A930469E
:1023A00007F09EFE084907F0A3FE0146204607F00D
:1023B000A9FD04A807F052FD684607F04FFD20462E
:1023C00008B070BD242C01008030010070B588B0C9
:1023D00004460D466846103107F094FD68460E49E4
:1023E00007F086FE95F82110064604A807F0A8FD20
:1023F00004A9304607F074FE084907F079FE01464B
:10240000204607F07FFD04A807F028FD684607F086
:1024100025FD204608B070BD242C0100803001004D
:1024200070B588B004460D466846103107F06AFD65
:1024300068460E4907F05CFE95F82110064604A890
:1024400007F07EFD04A9304607F04AFE084907F070
:102450004FFE0146204607F055FD04A807F0FEFC9C
:10246000684607F0FBFC204608B070BD242C010034
:102470008030010010B5064B044640F81C3B07F0C5
:10248000EDFC2046302108F0B9F9204610BD00BF10
:10249000D02D010010B5064B044640F8203B07F054
:1024A000DDFC2046342108F0A9F9204610BD00BF0C
:1024B0009C2D010010B5064B044640F8103B07F078
:1024C000CDFC2046242108F099F9204610BD00BF1C
:1024D000342D010010B5064B044640F8103B07F0C0
:1024E000BDFC2046242108F089F9204610BD00BF1C
:1024F000682D010010B5064B044640F8103B07F06C
:10250000ADFC20462C2108F079F9204610BD00BF13
:10251000002D010010B5094A09491378044601202D
:1025200084F8200084F82130034404F11000137073
:1025300007F06AFD0023637110BD00BFB816FF1FCE
:10254000F01AFF1F10B50B4A0B49137804460320FD
:1025500084F8200084F8213004F110000133137056
:1025600007F052FD94F822000121BDE8104008F068
:10257000C9BC00BF9C17FF1F101BFF1F08B5134BE2
:10258000187808F0B1FC124B003018BF0120187009
:102590001B78104863B1FEF701F90F48FEF7FEF80B
:1025A0000E48FEF7FBF80E48BDE80840FEF7F6B807
:1025B000FEF7D6F80848FEF7D3F80848FEF7D0F83B
:1025C0000748BDE80840FEF7CBB800BF4420FF1F16
:1025D0004520FF1FE41EFF1F241FFF1F641FFF1F56
:1025E000A41FFF1F10B5044608F092FCA36A626A9C
:1025F000C01A904208D9237A83F00103637208F06D
:1026000087FC637AA062E37110BD00BF037CC172D6
:102610000022012BC27123D01CD3022B13D1837A49
:102620008B4216D0037E7BB9C269418A8A421DDB88
:102630000122C3610276828A9A4208DC00220123C9
:102640000276C37104E07047012BC369F3D00133F4
:10265000C3617047837A002BFBD10029E2D1704718
:10266000837A002BF5D00029F3D1DBE70121531841
:10267000C171EDE710B5144A1449137804460520DA
:1026800084F8300084F8313004F1200001331370F5
:1026900007F0BAFC00232268237411690C48A38256
:1026A00001228142E3822272628209D1E372A37223
:1026B000E371A371637223722271E361237610BD0B
:1026C0002046BDE810400847BA16FF1F301BFF1F09
:1026D000011E000010B5124A124913780446062064
:1026E00084F82C0084F82D3004F11C0001331370A1
:1026F00007F08AFC23680C4A1B6993420CD1002323
:102700000122E372A372E371A371637223722271D7
:1027100008F0FEFBA06110BD2046BDE81040184740
:10272000BB16FF1F401BFF1F351F000070B5134A6B
:102730001349137880F8213004460225013380F8CC
:1027400020501030137007F05FFC294694F82200E7
:1027500008F0D8FB23680B4A1B69934209D1002378
:102760000122E372A372E371A37163722372227177
:1027700070BD2046BDE87040184700BFB916FF1F66
:10278000001BFF1F71040000014B024A1A607047D2
:102790000CED00E00400FA052DE9F0418846012126
:1027A0001446074608F0AEFB08F0B2FBB8F1000F84
:1027B0001ED00546640800260121384608F08EFB2D
:1027C00008F0A6FB401B8442FAD808F0A1FB0021C8
:1027D0000546384608F082FB08F09AFB401B84420D
:1027E000FAD808F095FB0136F6B2B0450546E3D1BC
:1027F000BDE8F0810A4601460D20FFF7CDBF00BFBE
:102800000A4601461820FFF7C7BF00BF034B1B78DD
:1028100003B970470146024807F0D8BA1008FF1FF5
:10282000F009FF1F08B5064B1B7803B908BD014628
:10283000044807F0CBFA0348BDE8084007F0ECBABB
:102840001008FF1FF009FF1F10B5012184B0204CB4
:102850000D2008F057FB202323600121182008F0E9
:1028600051FB1C4B4FF080621A600121162008F0CA
:1028700049FB0221172008F045FB012323609FED4F
:10288000160A102008F084FA0C2008F071FA134B95
:10289000134A14494FF4807018601368402423438E
:1028A00013600A200C6008F057FB68460E4907F0D9
:1028B00015FB0E4B1B7833B169460D4807F086FABD
:1028C0000B4807F0A9FA684607F0C8FA04B010BD33
:1028D00088F00F4008F10F4000E87D4718D0044011
:1028E00014F10F4004F10F40542E01001008FF1F97
:1028F000F009FF1F0E2310B5094C18460221237062
:1029000008F000FB20780749042208F003F820783B
:1029100008F0EAFA044B003018BF0120187010BD0F
:102920004420FF1F7D2500004520FF1F08B5044BF4
:10293000187808F0D9FA003018BF012008BD00BF90
:102940004420FF1F70B5064C064604F1840554F878
:102950002C3F3146DB6820469847AC42F7D170BD2A
:10296000741DFF1F2DE9F843124EDFF84C8006F16D
:10297000840700254FF00109344656F82C3F1B69A7
:10298000434514D184F8375084F8365084F83350D6
:1029900084F8325084F8355084F8345084F83090FC
:1029A00008F0B6FA6065BE42E6D1BDE8F88330466D
:1029B0009847F8E7741DFF1F151F000070B5064605
:1029C00058B1074B93E83000AC4206D054F8040BE2
:1029D00003681B699847A542F8D1024B1E7070BD71
:1029E000D41AFF1F501BFF1F38B5064B93E8300069
:1029F000AC4206D054F8040B03681B699847A54203
:102A0000F8D138BDD41AFF1F0138052804D8DFE8F3
:102A100000F0050C141C222900207047154801F015
:102A200003032C2202FB03007047134B01F0030148
:102A300001EBC10103EB81007047104B01F0030172
:102A400001EBC10103EB810070470D4B01F0030165
:102A500003EB811070470B4801F00301342303FBA3
:102A600001007047084B01F0030101EB410103EB4A
:102A700001107047741DFF1F841BFF1FE41CFF1F04
:102A8000E41EFF1F141CFF1F241EFF1F30B4074C41
:102A9000256861688D4206D02B46002053F8042B30
:102AA0009942D060FAD1656030BC7047D41AFF1FDC
:102AB000234B1B78002B41D02DE9F047DFF88880AD
:102AC00098E86000B5422DD01E4FDFF880A04FF08F
:102AD00000090FE062795AB1E16801B189791B6A96
:102AE000204698472379FBB9236820465B6A9847BC
:102AF000AE4209D055F8044B2368DA69BA42E9D0EE
:102B000020469047AE42F5D198E82400AA4209D069
:102B100052F8043BDC79D87A597A9C7195429872C4
:102B20001972F5D1BDE8F087236884F804909A6A99
:102B30005245E5D15B6A20469847D9E7704700BF08
:102B4000501BFF1F8D060000D41AFF1F85040000D4
:102B50002DE9F043A74BA84A1978A84BA84D95B08A
:102B6000002914BF11461946684607F0B7F9A54970
:102B70000CA807F0B3F969460CA807F0B1FA0146B2
:102B800010A807F0BFF92B78002B40F0C5819E4EAE
:102B900010A807F063F90CA807F060F972683368B1
:102BA0009A4200F0A38199490CA807F097F996E89A
:102BB0000A00591A0A22891008A807F0E9F908A999
:102BC0000CA807F08DFA924907F092FA014610A876
:102BD00007F098F92B78002B40F0C88110A807F077
:102BE0003DF908A807F03AF90CA807F037F996E87C
:102BF00009001B1A9B10012B6CD0002214461746AB
:102C00000DF110083BE010A807F028F908A807F01C
:102C100025F90CA807F022F9336853F809100B685E
:102C200040465B69984741460CA807F06BF933684A
:102C300053F809100B6808A89B69984708A90CA8C5
:102C400007F04EFA014610A807F05CF92B78002B2C
:102C500038D110A807F002F908A807F0FFF80CA86F
:102C600007F0FCF8404607F0F9F896E809001B1A4F
:102C700001349B10E4B2013B9C4222462DD250F815
:102C800022306449DB680CA84FEA82090BB1013796
:102C9000FFB207F023F9214608A807F051F908A967
:102CA0000CA807F01DFA5C4907F022FA014610A8AB
:102CB00007F028F92B78002BA5D010A9574807F06A
:102CC00085F8A0E710A9554807F080F8534807F0A9
:102CD000A3F8BEE700270DF110084E490CA807F035
:102CE000FDF896E80A00591A0A22891008A807F088
:102CF0004FF908A90CA807F0F3F9474907F0F8F9CC
:102D0000014610A807F0FEF82B78002B40F029812F
:102D100010A807F0A3F808A807F0A0F80CA807F07F
:102D20009DF8736853F8041C0B6840465B6998472C
:102D300041460CA807F0E6F8736853F8041C0B68CA
:102D400008A89B69984708A90CA807F0C9F901468B
:102D500010A807F0D7F82B78002B40F0FD8010A8C2
:102D600007F07CF808A807F079F80CA807F076F8C7
:102D7000404607F073F82A4910A807F0AFF82B78FF
:102D8000002B40F0E18010A807F068F8254910A852
:102D900007F0A4F82B78002B40F0CE8010A807F0A5
:102DA0005DF821490CA807F099F8394608A807F002
:102DB000C7F808A90CA807F093F91C4907F098F97F
:102DC000014610A807F09EF82B78002B40F0AC804D
:102DD00010A807F043F808A807F040F80CA807F07F
:102DE0003DF896E80802994500F090809846012445
:102DF00048E000BF501BFF1FF0350100642E0100AA
:102E00001008FF1F682E0100D41AFF1F982E010022
:102E1000A82E0100B82E01009C340100F009FF1F0C
:102E2000C02E0100082E0100C42E0100D82E010082
:102E300010A807F013F808A807F010F80CA807F07E
:102E40000DF83B6839465B6910A898472B78002B32
:102E500042D110A807F002F8484910A807F03EF840
:102E60002B78002B3DD110A806F0F8FF33683146CF
:102E70005B6910A898472B7833BB10A806F0EEFFCB
:102E8000C14543D058F8046BF768002FF8D03C498F
:102E90000CA807F023F8631C214608A8DCB207F051
:102EA0004FF808A90CA807F01BF9364907F020F9DC
:102EB000014610A807F026F82B78002BB8D010A9EF
:102EC000314806F083FFB3E710A92F4806F07EFFD4
:102ED0002D4806F0A1FFD0E710A92B4806F076FF99
:102EE000B7E710A9284806F071FFBCE7274910A8EA
:102EF00006F0F4FF2B7833B110A9234806F066FFE3
:102F0000214806F089FF10A806F0A8FF684606F0E1
:102F1000A5FF15B0BDE8F08310A91B4806F056FFC9
:102F2000194806F079FF32E610A9174806F04EFF5F
:102F3000154806F071FF4BE710A9134806F046FF4D
:102F4000114806F069FF29E710A90F4806F03EFF77
:102F50000D4806F061FF16E710A90B4806F036FF92
:102F6000FDE610A9084806F031FFD1E610A9064891
:102F700006F02CFF044806F04FFF2FE6EC2E010070
:102F8000B82E01009C340100F009FF1F802E0100C3
:102F9000F0B59FED270A274E274D284F85B0052015
:102FA00007F0F6FE9FED260A232007F0F1FE00242D
:102FB0002322052138194034FDF7CCFBB4F5807F7E
:102FC00004D016F8011F15F8012FF3E71D4B1878F0
:102FD00007F08AFFF0B11948FDF7E0FB1A48FDF74A
:102FE000DDFB1A48FDF7DAFB1948FDF7D7FB684609
:102FF000184906F073FF184B1B7833B16946174820
:1030000006F0E4FE154806F007FF684606F026FFC6
:1030100005B0F0BD0948FDF7A3FB0B48FDF7A0FB89
:103020000A48FDF79DFB0A48FDF79AFBDFE700BF62
:1030300000B88847B82F0100FC2D0100E41EFF1FD7
:10304000005043484420FF1F241FFF1F641FFF1F21
:10305000A41FFF1FF42E01001008FF1FF009FF1F1F
:103060002DE9F04F684895B00446FDF75FFC04F188
:103070004000FDF75BFC04F18000FDF757FC04F114
:10308000C000FDF753FC04F5807625462846002154
:103090004035FDF7BBFBAE42F8D1DFF898915B4FAE
:1030A000D9F80030019310A85949019B06F016FF8A
:1030B0003B7833B110A9574806F088FE554806F012
:1030C000ABFE10A806F0CAFE534EDFF8688100255B
:1030D00052495FFA85FA0CA806F000FF514608A88D
:1030E00006F02EFF08A90CA806F0FAFF4C4906F0DE
:1030F000FFFF314606F0F4FF4A4906F0F9FF0146AA
:1031000010A806F0FFFE3B78002B77D110A806F040
:10311000A5FE08A806F0A2FE0CA806F09FFE5146E8
:1031200010A806F00DFF3B78002B5FD110A806F029
:1031300095FE01212046FDF749FB4FF0000B41F2BF
:10314000040A59462046FDF755FBD9F80030029392
:10315000029AD9F800300393039B9B1A312BF8D9BC
:103160000BF1640B1FFA8BFBD345EAD140F6FF7AD3
:103170001FFA8AFA51462046FDF73CFBD9F8003089
:103180000493049AD9F800300593059B9B1A312BC0
:10319000F8D9AAF1640A0FFA8AFA1AF1050FE7D1F1
:1031A00000212046FDF712FBD8F800300693069A5E
:1031B000D9F800300793079B9B1AB3F5FA7FF7D332
:1031C0000135042D06F1100604F1400480D10E48AB
:1031D000FDF74CFB1448FDF749FB1448FDF746FB8F
:1031E0001348FDF743FB15B0BDE8F08F10A909485F
:1031F00006F0ECFD074806F00FFE97E710A905481A
:1032000006F0E4FD82E700BFE41EFF1F1008FF1F69
:10321000042F0100F009FF1FE41FFF1F182F0100FA
:10322000282F01002C2C0100241FFF1F641FFF1FEB
:10323000A41FFF1F4498012030B59FED1A0A1A4CB5
:1032400085B01D2007F0A4FD0C2007F091FDA38898
:1032500040F6FF75AB42A8BF2B461D22194610460B
:103260002380A27007F0E4FB6389AB42A8BF2B4622
:103270001E2219461046E380227207F0D9FB6846E9
:103280000A4906F02BFE0A4B1B7833B16946094800
:1032900006F09CFD074806F0BFFD684606F0DEFD1F
:1032A00005B030BD00E87D474820FF1F2C2F0100EE
:1032B0001008FF1FF009FF1F00B540F2FF7185B035
:1032C000422007F0B5FB40F2FF71432007F0B0FB4E
:1032D0006846094906F002FE084B1B7833B169467F
:1032E000074806F073FD064806F096FD684606F0AE
:1032F000B5FD05B05DF804FB682F01001008FF1F45
:10330000F009FF1F2DE9F04F474F83B0054607F046
:10331000FFFD3B6800930446DDF8008004F0A2FA4C
:10332000814600287CD10021422007F081FB00214A
:10333000432007F07DFB07F0EBFD001BB0F5967F07
:10334000F9D307F0E5FD4FF47A7606FB05FB04465A
:1033500041F218053B680193019BC8EB03035B45F1
:103360004CD24FF0000A5146432007F061FB07F0B2
:10337000CFFD001B6328FAD907F0CAFD0AF1280A1D
:10338000AA450446EFD14FF0000A5146422007F00B
:103390004FFB07F0BDFD001B6328FAD907F0B8FD0D
:1033A0000AF1280AAA450446EFD14FF47F66A6F138
:1033B000280A1FFA8AF63146432007F039FB07F046
:1033C000A7FD001B6328FAD907F0A2FD0446002ED2
:1033D000EDD14FF47F66A6F1280A1FFA8AF631462E
:1033E000422007F025FB07F093FD001B6328FAD964
:1033F00007F08EFD0446002EEDD1ABE740F2FF71E1
:10340000422007F015FB40F2FF71432007F010FB4C
:10341000B9F1000F01D004F0A3F903B0BDE8F08FBB
:1034200004F0FEF97FE700BF44980120FFFFFFFF93
:103430002DE9F04F2DED048B85B0054604F012FA0E
:10344000824600287BD1DFF820B19FED459A07F036
:103450005FFDDBF800300293029B00934FF47A7318
:1034600003FB05F304460193DBF800300393009A55
:10347000039B9B1A019A93424FD2DFF8E8900026F3
:1034800000274FF0000800250022364B40464946F1
:103490000BF0A0FA30A3D3E900230BF04DFC0BF0A6
:1034A00023FF81B2422007F0C3FA00222D4B3046A1
:1034B00039460BF08FFA28A3D3E900230BF03CFC2C
:1034C0000BF012FF81B2432007F0B2FA07F020FDA3
:1034D000001B6328FAD907F01BFD0135B5F5B47F51
:1034E0000446C1D007EE905AF8EEE77A67EE897A83
:1034F00017EE900A0BF0CCFB41EC100B41EC180BD3
:1035000009F066FC59EC108BB0EE480AF0EE680A40
:1035100009F0BEFC57EC106BB6E740F2FF71422099
:1035200007F086FA40F2FF71432007F081FABAF102
:10353000000F07D105B0BDEC048BBDE8F08F04F09F
:103540006FF980E704F00CF905B0BDEC048BBDE821
:10355000F08F00BFAFF300800000000000FC9F4030
:1035600035FA8E3C0000F03F449801202DE9F047E9
:1035700082B0054604F076F90746002852D1DFF8FC
:10358000B48007F0C5FCD8F8003000934FF47A7689
:10359000DDF8009006FB05F6044641F21805D8F860
:1035A00000300193019BC9EB0303B34240F2FF716A
:1035B0004FF042002BD207F03BFA4FF0000A514681
:1035C000432007F035FA07F0A3FC001B6328FAD963
:1035D00007F09EFC0AF1280AAA450446EFD140F202
:1035E000FF71432007F024FA4FF0000A51464220B1
:1035F00007F01EFA07F08CFC001B6328FAD907F0CD
:1036000087FC0AF1280AAA450446EFD1C7E707F06C
:103610000FFA40F2FF71432007F00AFA2FB902B007
:10362000BDE8F08704F0FCF8A9E704F099F802B0CF
:10363000BDE8F0874498012010B5FE2184B01248FF
:1036400004F04CFB6C4658B96846104906F046FC3D
:103650000F4B1B7863B9204606F000FC04B010BD88
:1036600068460C4906F03AFC094B1B78002BF2D057
:103670002146094806F0AAFB074806F0CDFB204684
:1036800006F0ECFB04B010BDC49501207C2F0100B6
:103690001008FF1F9C2F0100F009FF1F08B5FFF75E
:1036A000CBFFFFF7D1F8FFF725F9FFF7C5FDFFF7CF
:1036B0006FFCBDE80840FFF7FFBD00BF2DE9F043F8
:1036C000554F91B081460E4668460122494604F0A6
:1036D00025FC684604F0FAFA002800F09780DFF82D
:1036E0003881AEB1002408AD06E001342846E4B2CA
:1036F00006F0B4FBA6420CD00921284606F070FC67
:103700003B78002BF1D02946444806F05FFBECE7FC
:1037100008AD684604F0BEFA0146284606F0DEFB16
:1037200098F80030002B57D1284606F097FB6846E2
:1037300004F0B2FA002836D03949284606F0CEFB0C
:1037400098F80030002B4CD1284606F087FB10ABD0
:103750009DF804C053F8331DCDF82D105C68187B1C
:10376000D3F80880029A9DF80CE0CDF83140711C26
:10377000079B8DF83900C9B228462A4CCDF8358010
:103780008DF824C00A928DF82CE008940F93FFF76F
:1037900095FF284604F07CFA684604F089FA6846EA
:1037A00004F076FA90E72049284606F097FB98F84F
:1037B000003033BB284606F051FB684604F074FA2B
:1037C0000A220146284606F0F7FB98F8003083B934
:1037D000284606F043FBDFE72946104806F0F6FAD4
:1037E000A2E729460D4806F0F1FA0C4806F014FB52
:1037F000AAE72946094806F0E9FA084806F00CFB52
:10380000E6E72946054806F0E1FAD3E7684604F002
:103810003FFA11B0BDE8F0831008FF1FF009FF1F49
:10382000B02F01001C360100B42F01002DE9F84330
:103830004468D0F80080C8EB0405AD100646894600
:1038400005D06B009D4229D96FF0030500E00425E7
:10385000284606F0CFFF7468D6F800800746C8EB0C
:103860000404D9F80030E74218BF3B51A3080DD13A
:1038700004343C44B8F1000F02D0404606F0BCFFCF
:103880003D44B56037607460BDE8F8832246414628
:10389000384604340CF0FEF83C44EEE7B3F1804FB8
:1038A000D2D213B91D461F46D9E7ED00D0E700BFBD
:1038B00010B582B00190D8B1114C236861688B4279
:1038C0000DD01A68824218BF043303D110E0126889
:1038D00090420DD099421A4603F10403F7D1A36830
:1038E000074A994206D009B1086051680431616005
:1038F00002B010BD104601A9FFF798FFF8E700BF1E
:10390000D41AFF1F2DE9F047D749D848D84CDFF823
:103910002CA4D84FDFF8289406F0E0FAD649D7480F
:1039200006F0DCFAD649D74806F0D8FAD649D74887
:1039300006F0D4FAD64AD749002009F069F9D649E9
:10394000D64806F0CBFAD649D64806F0C7FAD6498B
:10395000D64806F0C3FAD649D64806F0BFFAD6498B
:10396000D64806F0BBFAD649D64806F0B7FAD6498B
:10397000D64806F0B3FAC64AD549002009F048F9FE
:10398000D449D54806F0AAFAD449D54806F0A6FA93
:10399000D449D54806F0A2FABD4AD449002009F01E
:1039A00037F9D349D34806F099FAD349D34806F0FA
:1039B00095FAB74AD249002009F02AF904F1B00873
:1039C0000126002504F80B6C04F80C6C44F810ACCC
:1039D00044F8045C04F8055C04F8065C04F8095C2F
:1039E00004F80A5C04F8075C04F8085C29462046E1
:1039F00006F074FA3B78C4F81490267463745A1C69
:103A00002046A8493A702C3406F0FEFA04F8375CD8
:103A10004445D6D19E4ABB49BB4CDFF82883BB4FF7
:103A2000284609F0F5F804F19009012604F80B6C1A
:103A300044F8045C04F8055C04F8065C04F8095CCE
:103A400004F80A5C04F8075C04F8085C04F80C6CE1
:103A500044F8108C0021204606F040FA3B7863744D
:103A60004FF0160E032284F812E0227401339149BC
:103A70003B70204606F0C8FA243414F8120C0121D9
:103A800007F040FA4C45D1D1814AA149A14CDFF859
:103A9000B892A14F002009F0BBF804F1900801266C
:103AA000002504F80B6C44F8045C04F8055C04F889
:103AB000065C04F8095C04F80A5C04F8075C04F886
:103AC000085C04F80C6C44F8109C0021204606F0B9
:103AD00005FA3B78637417224FF0020AA27401338F
:103AE00084F810A071493B70204606F08DFAA07C46
:103AF000514607F007FA243404F8295C04F82A5CDC
:103B000004F82D5C04F82E5C04F82B5C04F82C5CA3
:103B100004F8306C4445C4D15D4A8049804CDFF8DC
:103B20002C92804F002009F073F804F1D008012690
:103B3000002504F81B6C44F8145C04F8155C04F8C8
:103B4000165C04F8195C04F81A5C04F8175C04F8B5
:103B5000185C04F81C6C44F8209C0021204606F0F8
:103B6000BDF93B7863740522227401332046554920
:103B70003B70343406F048FA04F8445C24F8426C94
:103B800024F8405C24F83E5C04F8495C04F84A5C84
:103B900004F84D5C04F84E5C04F84B5C04F84C5C93
:103BA00004F8506C44F8385C04F83C5CA045C0D183
:103BB000374A5D495D4CDFF898915D4F002009F070
:103BC00027F804F1C008012600254CF250334FF0CD
:103BD000000A44F8083C04F8176C44F8105C04F838
:103BE000115C04F8125C04F8155C04F8165C04F827
:103BF000135C04F8145C04F8186C44F81C9C44F83A
:103C00000C5C5146204606F069F93B786374062245
:103C1000227401332D493B70204606F0F5F904F873
:103C2000115C04F8125C04F8155C04F8165C04F8E6
:103C3000135C04F8145C04F8186C07F069F930346C
:103C400044F8340C4445C0D1114A3A49504608F072
:103C5000DFFF394B0E4AC3F800A01846C3F804A092
:103C6000C3F808A076E000BF542C0100E41FFF1F3A
:103C7000841DFF1FB816FF1F582C0100F41FFF1FE3
:103C8000602C01000420FF1F682C01001420FF1F7E
:103C90000C08FF1FE51F0000742C0100E01AFF1F35
:103CA000782C0100F01AFF1F7C2C0100001BFF1F65
:103CB000802C0100101BFF1F842C0100201BFF1F04
:103CC000882C0100301BFF1F8C2C0100401BFF1FA4
:103CD000C91F0000902C0100541BFF1F982C0100ED
:103CE000641BFF1FA02C0100741BFF1FA51F0000F9
:103CF000A82C01002420FF1FAC2C01003420FF1F42
:103D0000891F0000411E0000F41CFF1F9C17FF1FAD
:103D10005D1E0000941BFF1FB916FF1F791E0000D7
:103D2000341CFF1FBA16FF1F951E0000401EFF1F08
:103D3000BB16FF1FB11E0000D41AFF1F002D01008B
:103D4000A0860100682D0100342D01009C2D01008A
:103D5000D02D01000D4908F05BFF0D48FCF7BCFCBD
:103D60000C48FCF7B9FC0C48FCF7B6FC0B48FCF718
:103D7000B3FC0B4A0B49504608F04AFF0A4B40F28D
:103D8000FF729A805A81BDE8F08700BFA120000031
:103D9000E41EFF1F241FFF1F641FFF1FA41FFF1F20
:103DA0000C08FF1FCD1E00004820FF1F10B5054C5A
:103DB00004F1100006F052F82046BDE8104006F06D
:103DC0004DB800BF3421FF1F10B5074C04F120008F
:103DD00006F044F804F1100006F040F82046BDE873
:103DE000104006F03BB800BF5420FF1F38B5054C0B
:103DF000A4F170052046103C06F030F8AC42F9D131
:103E000038BD00BFE420FF1F10B5094C04F130009D
:103E100006F024F804F1200006F020F804F1100068
:103E200006F01CF82046BDE8104006F017B800BFA9
:103E3000F420FF1F00B585B01049684606F04EF823
:103E40006846FEF7EFFC684606F008F8FDF756F9FD
:103E5000FFF724FC03F002FC0949684606F03EF82F
:103E60006846FEF7DFFC684605F0F8FF05490420C8
:103E7000FEF7C0FC05B05DF804FB00BFBC2F0100DD
:103E8000DC2F010090D0030008B5FDF78BF9BDE8E9
:103E90000840FEF70DBE00BF2DE9F041334E344916
:103EA000344D354C354FDFF82481304606F016F896
:103EB00006F11000324906F011F806F120003149F0
:103EC00006F00CF806F130002F4906F007F82A46F4
:103ED0002E49002008F09CFE20462D4905F0FEFFEB
:103EE00004F110002B4905F0F9FF04F120002A49E4
:103EF00005F0F4FF04F13000284905F0EFFF04F16C
:103F00004000274905F0EAFF04F15000254905F07B
:103F1000E5FF04F16000244905F0E0FF2A4623494B
:103F2000002008F075FE3846214905F0D7FF07F15B
:103F30001000204905F0D2FF07F120001E4905F0CE
:103F4000CDFF2A461D49002008F062FE40461C496C
:103F500005F0C4FF08F110001A4905F0BFFF2A461A
:103F600019490020BDE8F04108F052BEF420FF1FBF
:103F7000542C01000C08FF1F8420FF1F5420FF1F3A
:103F8000582C0100602C0100682C0100093E000043
:103F9000742C0100782C01007C2C0100802C010085
:103FA000842C0100882C01008C2C0100ED3D0000C8
:103FB000902C0100982C0100A02C0100C93D0000AC
:103FC000A82C0100AC2C0100AD3D00003421FF1FE6
:103FD00010B5054C04F1100005F040FF2046BDE887
:103FE000104005F03BBF00BF5422FF1F10B5074C27
:103FF00004F1200005F032FF04F1100005F02EFF5F
:104000002046BDE8104005F029BF00BF6421FF1F16
:1040100038B5054CA4F170052046103C05F01EFF94
:10402000AC42F9D138BD00BFF421FF1F10B5094CD7
:1040300004F1300005F012FF04F1200005F00EFF3E
:1040400004F1100005F00AFF2046BDE8104005F01D
:1040500005BF00BF1422FF1F06F040BF30B585B07A
:1040600001460446684605F04DFF6846FCF72AFF06
:104070000546684605F0F2FE8DB90D49204606F06A
:1040800079F810B1012005B030BD2046094906F08D
:1040900071F8B0FA80F04009404205B030BD2046CA
:1040A00006F0B0F80028D4BF0020012005B030BDD4
:1040B000AC2C0100A82C0100F0B585B001460646E5
:1040C000684605F01FFF6846FCF7FCFE044668469C
:1040D00005F0C4FED4B93146684605F013FF6846C2
:1040E000FCF7E0FE0546684605F0B8FE55B10B4DFD
:1040F0002946304606F030F867B21035013410B961
:10410000072CF5D10027384605B0F0BD304606F043
:1041100079F847B2384605B0F0BD00BF9421FF1FC3
:10412000F0B585B001460646684605F0EBFE6846E8
:10413000FCF7C8FE0446684605F090FEDCB931463F
:10414000684605F0DFFE6846FCF7ACFE05466846AB
:1041500005F084FE55B10B4D2946304605F0FCFFB5
:1041600067B21035013418B9042CF5D14FF0FF3780
:10417000384605B0F0BD304606F044F847B2384640
:1041800005B0F0BD1422FF1FF0B585B0014606460C
:10419000684605F0B7FE6846FCF794FE044668469C
:1041A00005F05CFEDCB93146684605F0ABFE6846BA
:1041B000FCF778FE0546684605F050FE55B10B4DFC
:1041C0002946304605F0C8FF67B21035013418B9EA
:1041D000032CF5D14FF0FF37384605B0F0BD30461F
:1041E00006F010F847B2384605B0F0BD6421FF1F55
:1041F00030B50C4691B033490546204605F052FFD4
:104200003149684605F06AFE2146684605F068FFB8
:10421000014608A805F076FE08A8FEF703FB08A8EB
:1042200005F01CFE684605F019FE684603F022FD05
:104230002268264908A8012303F0FCFD0A9A9DF88C
:104240002C309DF8241002928DF80C308DF804105B
:104250000BAA0DF10D030DF11A0012F8011F03F85E
:10426000011B8342F9D10F9B079308A803F010FDAF
:10427000174908A805F032FE684603F027FD38B953
:104280001BE0684603F08EFCC1B208A805F018FFD9
:10429000684603F069FC0028F3D1684603F008FD86
:1042A00008A9284605F0C8FD08A805F0D7FD68460E
:1042B00003F0EEFC284611B030BD064908A805F011
:1042C000ABFEEDE7F82F010000300100C49501209E
:1042D000082E01001030010030B52B4991B0044682
:1042E00005F0E0FE684603F0C5FC2268274908A8EF
:1042F000132303F09FFD0A9A9DF82C309DF824109B
:1043000002928DF80C308DF804100BAA0DF10D03FC
:104310000DF11A0012F8011F03F8011B8342F9D1B5
:104320000F9B079308A803F0B3FC684603F0CEFC8C
:104330000446C8B1164DAB6800245BB12146144851
:1043400005F02EFF0178684603F002FCAB680134EB
:104350009C42F3D3684603F0ABFC684603F098FC3C
:104360000124204611B030BD0A4908A805F0B6FD69
:1043700008A8FEF757FA08A805F070FD684603F094
:1043800087FC204611B030BDF82F0100C4950120F4
:104390005421FF1F183001002DE9F0472DED028B4D
:1043A0000E4694B0B1499046074605F0E3FE58B377
:1043B000CEB9AF49AF4805F0DDFE00283ED1AE4989
:1043C0000CA805F08BFD0CA8FEF72CFA0CA805F044
:1043D00045FDA84802F006FB0124204614B0BDECC0
:1043E000028BBDE8F087A5490CA805F077FD0CA865
:1043F000FEF718FA0CA805F031FD0024204614B091
:10440000BDEC028BBDE8F0879D49384605F0B2FE51
:10441000002846D0012E0CAD21D09849284605F041
:104420005DFD2846FEF7FEF9284605F017FD00243D
:10443000204614B0BDEC028BBDE8F08791490CA872
:1044400005F04CFD0CA8FEF7EDF90CA805F006FDF3
:104450000124204614B0BDEC028BBDE8F087414634
:10446000284605F04FFD2846FCF72CFD044628465B
:1044700005F0F4FC002CD0D0404605F0C3FE824C81
:1044800086B204F58075204631464034FCF7B2F917
:10449000A542F8D10124204614B0BDEC028BBDE842
:1044A000F0877A49384605F065FE044670B1022E61
:1044B0001FD00CAD7149284605F010FD2846FEF7C7
:1044C000B1F9284605F0CAFC002486E77049384651
:1044D00005F050FE8146A0B3012E46D067490CA8D6
:1044E00005F0FCFC0CA8FEF79DF90CA805F0B6FC45
:1044F00073E70CAD08F110063146284605F002FDC1
:104500002846FCF7DFFC0446284605F0A7FC002CF3
:10451000D0D04146284605F0F5FC2846FFF700FEBE
:104520000446304605F06EFE002C05DB564B81B28A
:1045300003EB8410FCF75EF9284605F08FFC01249C
:104540004BE75449384605F015FE054638B3022EB0
:104550003AD04A490CA805F0C1FC0CA8FEF762F954
:104560000CA84C4605F07AFC37E70CAD41462846CE
:1045700005F0C8FC2846FFF771FD434C071C18BF27
:10458000012704F58076204639464034FCF71EF9B1
:10459000A642F8D1284605F061FC01241DE73E49FA
:1045A000384605F0E7FD814600284BD0012E2FD07C
:1045B00032490CA805F092FC0CA8FEF733F90CA8C0
:1045C0002C4605F04BFC08E704AF4146384605F0A1
:1045D00099FC3846FFF7A4FD0CAD044608F1100124
:1045E000284605F08FFC2846FFF738FD002C07DB36
:1045F000254B011C18BF012103EB8410FCF7E6F8E2
:10460000284605F02BFC384605F028FC0124E4E69A
:104610000CAD4146284605F075FC2846FFF71EFD07
:10462000194C071C18BF012704F58076204639462F
:104630004034FCF7EBF8A642F8D1284605F00EFC12
:104640000124CAE61549384605F094FD044638B3FE
:10465000022E4BD009490CA805F040FC0CA8FEF72F
:10466000E1F80CA84C4605F0F9FBB6E64C30010029
:10467000082E01000422FF1F543001008430010085
:104680009830010060300100E41EFF1FA4300100DB
:10469000AC300100B8300100C0300100CC30010066
:1046A000BB49384605F066FD002838D0002E40D1C1
:1046B000FEF73CF90CADB7490446284605F00EFC60
:1046C0002846FEF7A3F8284605F0C8FBB24BB349CD
:1046D0002846002C18BF194605F000FC2846FEF7B6
:1046E000A1F8284605F0BAFB012476E60CAD414658
:1046F000284605F007FC2846FFF712FD002809DBD5
:10470000D8F81010A64B003118BF012103EB801020
:10471000FCF77CF8284605F0A1FB01245DE6A149E1
:10472000384605F027FDD8B176B9FEF799FC01248B
:1047300053E69D490CA805F0D1FB0CA8FEF772F8D2
:104740000CA805F08BFB48E697490CA805F0C6FBC2
:104750000CA8FEF767F80CA805F080FB00243CE6E7
:104760009249384605F006FD70B1022E21D00CADFD
:104770008D49284605F0B2FB2846FEF753F8284637
:1047800005F06CFB002428E68949384605F0F2FC68
:10479000814688B3012E0CAD17D08349284605F019
:1047A0009DFB2846FEF73EF8284605F057FB0024FF
:1047B00013E604A8414605F0A5FB04A8FCF782FB1C
:1047C00078BB04A805F04AFBD1E74146284605F02E
:1047D00099FB2846FCF776FB0446284605F03EFB8D
:1047E000002CDAD0404605F00DFD724A2C2303FB65
:1047F000002034464671F0E56F49384605F0BAFCB2
:1048000000284DD0012E0CAD32D06749284605F066
:1048100065FB2846FEF706F8284605F01FFB002436
:10482000DBE50CAD08F110073946284605F06AFBB8
:104830002846FCF747FB0446284605F00FFB04A872
:1048400005F00CFB002C93D0404605F0DBFC2C243B
:1048500004FB00F4574D384605F0D4FC6319625947
:1048600090FBF6F058621846136998470124B4E5A6
:104870004146284605F046FB2846FCF723FB044644
:10488000284605F0EBFA002CBFD0404605F0BAFCF4
:10489000484A2C2303FB0020344680F805909CE511
:1048A0004649384605F066FC044670B1022E0CAD50
:1048B0001ED03D49284605F011FB2846FDF7B2FF02
:1048C000284605F0CBFA002487E53D49384605F037
:1048D00051FC002846D0012E33D033490CA805F0F6
:1048E000FDFA0CA8FDF79EFF0CA805F0B7FA74E5D9
:1048F0004146284605F006FB2846FCF7E3FA044645
:10490000284605F0ABFA002CD3D0404605F07AFCDF
:104910002C24284B04FB00F408F11001E25828462F
:104920001C44D66805F0EEFA2846FFF797FB011CF9
:1049300018BF01212046B047284605F08FFA012410
:104940004BE541460CA805F0DDFA0CA8FFF786FB05
:10495000003018BF0120FDF7F5FF0CA8344605F024
:104960007DFA3AE51749384605F004FC044658B389
:10497000012E0CAD33D00C49284605F0AFFA28467D
:10498000FDF750FF284605F069FA002425E500BF31
:10499000D4300100E4300100303001003C3001002F
:1049A000E41EFF1FFC3001008430010008310100CB
:1049B00018310100741DFF1F243101003031010046
:1049C0004031010054310100A949384605F0D2FBBD
:1049D000054648B3EEB9FDF7C5FF0124FDE44146A5
:1049E000284605F08FFA2846FCF76CFA044628465C
:1049F00005F034FA002CBED0404605F003FC2C2311
:104A000003FB00F09B4BC258184413693446984787
:104A1000E3E499490CA805F061FA0CA8FDF702FF40
:104A20000CA805F01BFAD8E49449384605F0A2FB1F
:104A3000044668B1052E1ED08F490CA805F04EFA29
:104A40000CA8FDF7EFFE0CA82C4605F007FAC4E40D
:104A50008B49384605F08EFB00285AD0032E3FD0F4
:104A600085490CA805F03AFA0CA8FDF7DBFE0CA866
:104A700005F0F4F9B1E4404605F0C4FB342508F133
:104A8000100105FB00F50CA805F03CFA7D4E0CA8C2
:104A9000FFF77AFBAC19AB5920741B692046984785
:104AA0000CA805F0DBF908F1200005F0ABFBAB59D1
:104AB00060821B692046984708F1300005F0A2FB90
:104AC000AB59A0821B692046984708F1400005F0C9
:104AD00099FBAB59E0821B692046984701247CE48E
:104AE000404605F08FFB302404FB00F408F1100071
:104AF00005F088FB644D064608F1200005F082FBB6
:104B00006319625958611E61184613699847012458
:104B100063E45E49384605F02DFB68B1012E16D0DE
:104B200055490CA805F0DAF90CA8FDF77BFE0CA896
:104B300005F094F9002450E45549384605F01AFB75
:104B400010B3AEB90120FDF739FF012445E4414619
:104B50000CA805F0D7F90CA8FFF780FA003018BFB1
:104B60000120FDF72BFF0CA805F078F9012434E4AF
:104B700041490CA805F0B2F90CA8FDF753FE0CA8AA
:104B800005F06CF9002428E44249384605F0F2FAB1
:104B9000044628B17EB93046FDF710FF01241CE41D
:104BA0003D49384605F0E6FA8146E0B17EB9FDF7A9
:104BB0001BFF012411E430490CA805F08FF90CA863
:104BC000FDF730FE0CA805F049F9002405E42A4958
:104BD0000CA805F083F90CA8FDF724FE0CA805F03D
:104BE0003DF9FFF7FABB2D49384605F0C3FA0546F3
:104BF00070B1022E0CA821D01F4905F06FF90CA846
:104C0000FDF710FE0CA84C4605F028F9FFF7E5BBB0
:104C10002349384605F0AEFA0446002874D0042E25
:104C20000CA83FD0144905F059F90CA8FDF7FAFD7E
:104C30000CA82C4605F012F9FFF7CFBB414605F052
:104C400061F90CA8FFF738FA044608F1100005F0E6
:104C5000D9FAC1B2E0B2FDF7D7FE04460CA805F0C0
:104C6000FDF82046FEF724FE0124FFF7B6BB00BF87
:104C70005C310100741DFF1F8430010068310100A8
:104C800070310100141CFF1F241EFF1F783101002A
:104C90008831010094310100A0310100A8310100E8
:104CA000B8310100414605F02DF90CA8FFF704FAD0
:104CB000044608F1100005F0A5FAC1B2E0B2FDF714
:104CC000A3FE06460CA805F0C9F808F120010CA8BF
:104CD00005F018F90CA8FFF7EFF9044608F13000C9
:104CE00005F090FAC1B2E0B2FDF78EFE05460CA8C1
:104CF00005F0B4F83046FEF7DBFD2846FEF7D8FD98
:104D00000124EE60FFF769BBBF49384605F032FA6F
:104D10000546002843D016F001034CD17608771ED3
:104D2000DEB27501BE420CA808EB050103F10104D7
:104D3000BFF6B0AB05F0E6F80CA8FFF7BDF9814669
:104D400005F11000404405F05DFAC1B25FFA89F048
:104D5000FDF75AFE81460CA805F080F8711C08EB9F
:104D600041110CA805F0CEF80CA8FFF7A5F90646EE
:104D700005F13000404405F045FAC1B2F0B2FDF74C
:104D800043FE05460CA805F069F84846FEF790FD7D
:104D90002846FEF78DFDC5F80C902346C0E79B49D9
:104DA000384605F0E7F98146F0B186B9FDF76EFEA9
:104DB0000124FFF712BB96490CA805F08FF80CA848
:104DC000FDF730FD0CA805F049F8FFF706BB904948
:104DD0000CA805F083F80CA8FDF724FD0CA82C46C0
:104DE00005F03CF8FFF7F9BA8A49384605F0C2F9F0
:104DF000044628B1C6B9FDF7ABFE0124FFF7EDBAB2
:104E00008549384605F0B6F9002842D0032E0CA893
:104E100017D07F4905F062F80CA8FDF703FD0CA838
:104E200005F01CF8FFF7D9BA79490CA805F056F837
:104E30000CA8FDF7F7FC0CA84C4605F00FF8FFF79F
:104E4000CCBA414605F05EF80CA8FFF735F90446E8
:104E500008F1100005F0D6F9C1B2E0B2FDF7D4FDBB
:104E600004460CA804F0FAFF236808F120010CA8FE
:104E7000DD6805F047F80CA8FFF7F0F8011C18BF33
:104E800001212046A8470CA804F0E8FF0124FFF701
:104E9000A4BA6249384605F06DF978B1012E0CAD1F
:104EA00021D05B49284605F019F82846FDF7BAFCE1
:104EB000284604F0D3FF0024FFF78FBA584938463C
:104EC00005F058F9002858D0022E31D050490CA8CE
:104ED00005F004F80CA8FDF7A5FC0CA804F0BEFF33
:104EE0000024FFF77ABA4146284605F00BF8284619
:104EF000FBF7E8FF0446284604F0B0FF002CD0D0B2
:104F0000404605F07FF940F6FF7384B29C42A8BF8B
:104F10001C46444DA6B22146A8782E8005F088FD97
:104F20002146287AEE8005F083FD0124FFF755BA6B
:104F300030464146FBF7D6FF0028C7D0404605F073
:104F400061F9044608F1100005F05CF9E3B2012BA9
:104F50003FF6A0AA334C062202FB03F240F6FF7193
:104F600083B215198B42A8BF0B46A8781353194674
:104F7000012405F05DFDFFF730BA2B49384605F0F6
:104F8000F9F8044628B17EB902F0EAFB0124FFF7E4
:104F900024BA2649384605F0EDF8F0B18EB902F092
:104FA0003FFC0124FFF719BA19490CA804F096FF39
:104FB0000CA8FDF737FC0CA804F050FF0024FFF705
:104FC0000CBA13490CA804F089FF0CA8FDF72AFCC1
:104FD0000CA804F043FFFFF700BA1549384605F066
:104FE000C9F8054630B3012E0CAD00F08D8108499B
:104FF000284604F073FF2846FDF714FC284604F009
:105000002DFF0024FFF7E9B9C4310100CC310100C4
:1050100084300100D8310100E4310100F031010099
:10502000FC3101004820FF1F043201000C32010056
:1050300014320100DB49384605F09CF8044600288C
:1050400000F08C81002E40F07C810CADD6492846C2
:1050500004F044FF2846FDF7D9FB284604F0FEFE85
:10506000FCF7CEF9002800F06A81D049284604F008
:1050700035FF2846FDF7D6FB284604F0EFFECC4965
:10508000284604F02BFF2846FDF7C0FB284604F015
:10509000E5FE01F023FF0A220146284604F064FFE2
:1050A0002846FDF7BFFB284604F0D8FEC149284634
:1050B00004F014FF2846FDF7A9FB284604F0CEFEB5
:1050C00002F0D0FB002800F03881B849284604F0EF
:1050D00005FF2846FDF79AFB284604F0BFFEB649B7
:1050E000284604F0FBFE2846FDF790FB284604F016
:1050F000B5FE02F029FB0A220146284604F05CFFB7
:105100002846FDF783FB284604F0A8FEAB49284655
:1051100004F0E4FE2846FDF779FB284604F09EFEE5
:10512000A749284604F0DAFE2846FDF76FFB28461B
:1051300004F094FE02F09CFB0A220146284604F08B
:1051400013FF2846FDF762FB284604F087FE9D49C1
:10515000284604F0C3FE2846FDF764FB284604F009
:105160007DFE9949284604F0B9FE2846FDF74EFB1E
:10517000284604F073FE02F0EDFA002800F0DB8010
:105180008A49924EDFF87892DFF87882284604F058
:10519000A5FE2846FDF746FB284604F05FFE8C4935
:1051A000284604F09BFE2846FDF73CFB284604F009
:1051B00055FE002404AF8749284604F08FFE284698
:1051C000FDF724FB284604F049FE335906EB040A98
:1051D0005B695146284698472846FDF717FB284645
:1051E00004F03CFE51463846FBF73AFB7A49284624
:1051F00004F074FE2846FDF709FB284604F02EFE55
:105200000A22BDF81010284604F0AEFE2846FDF72D
:10521000FDFA284604F022FE7049284604F05EFE9E
:105220002846FDF7F3FA284604F018FE9DF8121000
:10523000284600290CBF4946414604F04FFE284647
:10524000FDF7E4FA284604F009FE6449284604F014
:1052500045FE2846FDF7DAFA284604F0FFFD9DF8E2
:105260001310284600290CBF4946414604F036FE7B
:105270002846FDF7CBFA284604F0F0FD57492846AA
:1052800004F02CFE2846FDF7C1FA284604F0E6FD9E
:105290009DF81410284600290CBF4946414604F0E9
:1052A0001DFE2846FDF7B2FA284604F0D7FD4C490A
:1052B000284604F013FE2846FDF7B4FA4034284689
:1052C00004F0CCFDB4F5807F7FF475AFFDF72EFBC5
:1052D00044490446284604F001FE2846FDF796FAA4
:1052E000284604F0BBFD404B40492846002C18BF1F
:1052F000194604F0F3FD2846FDF794FA284604F019
:10530000ADFD0124FFF769B84146284604F0FAFDD7
:105310002846FBF7D7FD0446284604F09FFD002CE5
:105320003FF465AE404604F06DFF80B202F0A6FA8D
:105330003446FFF752B82E4923E72D49C6E62C49DB
:1053400094E62C490CA804F0C9FD0CA8FDF76AFAF4
:105350000CA82C4604F082FDFFF73FB826493846DA
:1053600004F008FF40B1002E4ED1FCF721F80124D3
:1053700001F0E2FDFFF731B82049384604F0FAFEAB
:10538000002864D0012E0CAD4AD01A49284604F0FA
:10539000A5FD2846FDF746FA284604F05FFD0024E7
:1053A000FFF71BB81832010020320100F035010070
:1053B00030320100403201005432010060320100FD
:1053C000643201007032010078320100E41EFF1FD8
:1053D00094320100B82E0100CC320100D03201001D
:1053E00080300100D4320100303001003C30010037
:1053F000642E010084300100F0320100F832010017
:10540000A82C0100AC2C0100BB490CA804F066FDDF
:105410000CA8FDF707FA0CA804F020FDFEF7DDBF8D
:105420004146284604F06EFD2846FBF74BFD044636
:10543000284604F013FD002CA7D0404604F0E8FEF7
:105440003446FBF7A9FF01F077FDFEF7C6BFAB4975
:10545000384604F08FFE70B1022E22D0A6490CA867
:1054600004F03CFD0CA8FDF7DDF90CA804F0F6FCF7
:105470000024FEF7B2BFA249384604F07BFE0028A4
:1054800040D0012E0CAD26D09B49284604F026FDC5
:105490002846FDF7C7F9284604F0E0FC0024FEF793
:1054A0009CBF30464146FBF71DFD0028D6D0404644
:1054B00004F0AEFE08F110008DED040A04F0A8FE21
:1054C0000CA904A881ED000A0124FBF75DFF01F09F
:1054D00033FDFEF782BF4146284604F013FD2846FF
:1054E000FBF7F0FC0446284604F0B8FC002CCBD0B7
:1054F000404604F08DFEFBF755FF012401F01CFD32
:10550000FEF76BBF7F49384604F034FE78B1012EB8
:105510000CAD19D07849284604F0E0FC2846FDF788
:1055200081F9284604F09AFC0024FEF756BF76491C
:10553000384604F01FFE70B306BBFBF753FF01248F
:10554000FBF736FFFEF749BF4146284604F0DAFC78
:105550002846FBF7B7FC0446284604F07FFC002CE5
:10556000D8D0404604F04EFE003018BF0120FBF7B3
:1055700033FF012401F0E0FCFEF72FBF5E490CA8C9
:1055800004F0ACFC0CA8FDF74DF90CA804F066FC87
:105590000024FEF722BF5D49384604F0EBFD0446C7
:1055A00070B1012E20D054490CA804F097FC0CA82F
:1055B000FDF738F90CA804F051FC0024FEF70DBFEC
:1055C0005349384604F0D6FD002839D0012E1DD0AD
:1055D00049490CA804F082FC0CA8FDF723F90CA89B
:1055E00004F03CFCFEF7F9BE41460CA804F08AFC2E
:1055F0000CA8FEF733FD003018BF0120FBF7FAFEC0
:105600000CA8344604F02AFCFEF7E7BE0CAD414678
:10561000284604F077FC2846FEF720FD3D4E071C87
:1056200018BF0127301939464034FBF7FDF8B4F5AF
:10563000807FF7D1284604F011FC0124FEF7CDBE8F
:105640003549384604F096FD0446002840D0022E25
:105650000CAD0CD02849284604F040FC2846FDF744
:10566000E1F8284604F0FAFB0024FEF7B6BE4146F6
:10567000284604F047FC2846FBF724FC044628464D
:1056800004F0ECFB002CE5D004AF4146384604F0B2
:1056900039FC3846FEF744FD08F11001044628465F
:1056A00004F030FC2846FEF7D9FC011C18BF01218C
:1056B000002C04DB174800EB8410FBF7B5F82846F4
:1056C00004F0CCFB384604F0C9FB0124FEF785BE8C
:1056D0001249384604F04EFD814608B3012E5DD0D4
:1056E00005490CA804F0FAFB0CA8FDF79BF80CA8E0
:1056F00004F0B4FBFEF771BE8430010000330100FA
:105700000833010010330100183301002033010079
:1057100028330100E41EFF1F343301003C33010035
:10572000D649384604F026FD054600287ED041467D
:105730003046FBF7D7FB044600286BD0032E4CD035
:10574000052E3DD1FBF762FE404604F061FD08F1F5
:105750001000B0EE408A04F05BFD08F120008DEDF2
:105760000C8A8DED0D0A04F053FD08F13000B0EE07
:10577000408A04F04DFD08F14000F0EE408A04F04C
:1057800041FDF0EE680A81B2B0EE480A0CA8FBF7C2
:105790004BFE012401F0D0FBFEF71FBE41460CA8D2
:1057A00004F0B0FB0CA8FEF759FC003018BF012034
:1057B00002F07CF80CA8344604F050FBFEF70DBE56
:1057C000AF490CA804F08AFB0CA8FDF72BF80CA835
:1057D0004C4604F043FBFEF700BEFBF717FE4046C5
:1057E00004F016FD08F11000B0EE408A04F010FD40
:1057F00008F12000F0EE408A04F004FDF0EE680AA3
:1058000080B2B0EE480AFBF73BFE012401F094FBA6
:10581000FEF7E3BD9A490CA804F060FB0CA8FDF765
:1058200001F80CA804F01AFBFEF7D7BD95493846DD
:1058300004F0A0FC80B341463046FBF753FB04461E
:10584000002800F00181022E00F0E980042E67D1CB
:10585000FBF7DCFD404604F0DBFC08F11000B0EE85
:10586000408A04F0D5FC08F120008DED0C8A8DED06
:105870000D0A04F0CDFC08F13000B0EE408A04F0CF
:10588000C1FCB0EE480A81B20CA8FBF705FE01246A
:1058900001F052FBFEF7A1BD7B49384604F06AFCDB
:1058A000002800F0868041463046FBF71BFB04468B
:1058B000002872D0042E4DD0062E3ED1FBF7A6FD57
:1058C000404604F0A5FC08F11000B0EE408A04F058
:1058D0009FFC08F120008DED0C8A8DED0D0A04F07F
:1058E00097FC08F13000B0EE408A04F091FC08F11A
:1058F0004000F0EE408A04F085FC044608F15000B8
:1059000004F080FCA1B282B2F0EE680AB0EE480A60
:105910000CA8FBF731FE012401F00EFBFEF75DBD84
:1059200057490CA804F0DAFA0CA8FCF77BFF0CA886
:105930002C4604F093FAFEF750BD51490CA804F030
:10594000CDFA0CA8FCF76EFF0CA804F087FA00242F
:10595000FEF743BDFBF75AFD404604F059FC08F141
:105960001000B0EE408A04F053FC08F12000F0EE85
:10597000408A04F047FC044608F1300004F042FC81
:10598000F0EE680A81B2B0EE480AA0B2FBF72CFE36
:10599000012401F0D1FAFEF720BD39490CA804F02A
:1059A0009DFA0CA8FCF73EFF0CA804F057FAFEF78E
:1059B00014BD3649384604F0DDFB002800F089802C
:1059C00041463046FBF78EFA0446002875D0022E79
:1059D0005ED0042E44D1FBF719FD404604F018FCBC
:1059E00008F11000B0EE408A04F012FC08F120002B
:1059F0008DED0C8A8DED0D0A04F00AFC08F13000E3
:105A0000B0EE408A04F0FEFBB0EE480A81B20CA86A
:105A1000FBF7FEFD012401F08FFAFEF7DEBCFBF779
:105A2000F5FC404604F0F4FB08F11000B0EE408AAB
:105A300004F0E8FBB0EE480A80B2FBF791FD0124C8
:105A400001F07AFAFEF7C9BC0D490CA804F046FA39
:105A50000CA8FCF7E7FE0CA804F000FAFEF7BDBCAA
:105A600007490CA804F03AFA0CA8FCF7DBFE0CA8D6
:105A700004F0F4F90024FEF7B0BC00BF4433010089
:105A8000843001004C330100543301005C330100C9
:105A9000FBF7BCFC404604F0BBFB08F11000B0EE85
:105AA000408A04F0AFFBB0EE480A80B2FBF7B6FDC7
:105AB000012401F041FAFEF790BCBC490CA804F0A7
:105AC0000DFA0CA8FCF7AEFE0CA804F0C7F9FEF71F
:105AD00084BCB749384604F04DFB002846D0052E5B
